{
  "_format": "hh-sol-artifact-1",
  "contractName": "ReceptionFM",
  "sourceName": "contracts/RFM.sol",
  "abi": [
    {
      "inputs": [],
      "stateMutability": "nonpayable",
      "type": "constructor"
    },
    {
      "anonymous": false,
      "inputs": [
        {
          "indexed": true,
          "internalType": "address",
          "name": "owner",
          "type": "address"
        },
        {
          "indexed": true,
          "internalType": "address",
          "name": "spender",
          "type": "address"
        },
        {
          "indexed": false,
          "internalType": "uint256",
          "name": "value",
          "type": "uint256"
        }
      ],
      "name": "Approval",
      "type": "event"
    },
    {
      "anonymous": false,
      "inputs": [
        {
          "indexed": true,
          "internalType": "address",
          "name": "previousOwner",
          "type": "address"
        },
        {
          "indexed": true,
          "internalType": "address",
          "name": "newOwner",
          "type": "address"
        }
      ],
      "name": "OwnershipTransferred",
      "type": "event"
    },
    {
      "anonymous": false,
      "inputs": [
        {
          "indexed": false,
          "internalType": "address",
          "name": "account",
          "type": "address"
        }
      ],
      "name": "Paused",
      "type": "event"
    },
    {
      "anonymous": false,
      "inputs": [
        {
          "indexed": true,
          "internalType": "address",
          "name": "from",
          "type": "address"
        },
        {
          "indexed": true,
          "internalType": "address",
          "name": "to",
          "type": "address"
        },
        {
          "indexed": false,
          "internalType": "uint256",
          "name": "value",
          "type": "uint256"
        }
      ],
      "name": "Transfer",
      "type": "event"
    },
    {
      "anonymous": false,
      "inputs": [
        {
          "indexed": false,
          "internalType": "address",
          "name": "account",
          "type": "address"
        }
      ],
      "name": "Unpaused",
      "type": "event"
    },
    {
      "inputs": [
        {
          "internalType": "address",
          "name": "owner",
          "type": "address"
        },
        {
          "internalType": "address",
          "name": "spender",
          "type": "address"
        }
      ],
      "name": "allowance",
      "outputs": [
        {
          "internalType": "uint256",
          "name": "",
          "type": "uint256"
        }
      ],
      "stateMutability": "view",
      "type": "function"
    },
    {
      "inputs": [
        {
          "internalType": "address",
          "name": "spender",
          "type": "address"
        },
        {
          "internalType": "uint256",
          "name": "amount",
          "type": "uint256"
        }
      ],
      "name": "approve",
      "outputs": [
        {
          "internalType": "bool",
          "name": "",
          "type": "bool"
        }
      ],
      "stateMutability": "nonpayable",
      "type": "function"
    },
    {
      "inputs": [
        {
          "internalType": "address",
          "name": "account",
          "type": "address"
        }
      ],
      "name": "balanceOf",
      "outputs": [
        {
          "internalType": "uint256",
          "name": "",
          "type": "uint256"
        }
      ],
      "stateMutability": "view",
      "type": "function"
    },
    {
      "inputs": [
        {
          "internalType": "uint256",
          "name": "amount",
          "type": "uint256"
        }
      ],
      "name": "burn",
      "outputs": [],
      "stateMutability": "nonpayable",
      "type": "function"
    },
    {
      "inputs": [
        {
          "internalType": "address",
          "name": "account",
          "type": "address"
        },
        {
          "internalType": "uint256",
          "name": "amount",
          "type": "uint256"
        }
      ],
      "name": "burnFrom",
      "outputs": [],
      "stateMutability": "nonpayable",
      "type": "function"
    },
    {
      "inputs": [],
      "name": "decimals",
      "outputs": [
        {
          "internalType": "uint8",
          "name": "",
          "type": "uint8"
        }
      ],
      "stateMutability": "view",
      "type": "function"
    },
    {
      "inputs": [
        {
          "internalType": "address",
          "name": "spender",
          "type": "address"
        },
        {
          "internalType": "uint256",
          "name": "subtractedValue",
          "type": "uint256"
        }
      ],
      "name": "decreaseAllowance",
      "outputs": [
        {
          "internalType": "bool",
          "name": "",
          "type": "bool"
        }
      ],
      "stateMutability": "nonpayable",
      "type": "function"
    },
    {
      "inputs": [
        {
          "internalType": "address",
          "name": "token",
          "type": "address"
        },
        {
          "internalType": "uint256",
          "name": "amount",
          "type": "uint256"
        }
      ],
      "name": "flashFee",
      "outputs": [
        {
          "internalType": "uint256",
          "name": "",
          "type": "uint256"
        }
      ],
      "stateMutability": "view",
      "type": "function"
    },
    {
      "inputs": [
        {
          "internalType": "contract IERC3156FlashBorrower",
          "name": "receiver",
          "type": "address"
        },
        {
          "internalType": "address",
          "name": "token",
          "type": "address"
        },
        {
          "internalType": "uint256",
          "name": "amount",
          "type": "uint256"
        },
        {
          "internalType": "bytes",
          "name": "data",
          "type": "bytes"
        }
      ],
      "name": "flashLoan",
      "outputs": [
        {
          "internalType": "bool",
          "name": "",
          "type": "bool"
        }
      ],
      "stateMutability": "nonpayable",
      "type": "function"
    },
    {
      "inputs": [
        {
          "internalType": "address",
          "name": "spender",
          "type": "address"
        },
        {
          "internalType": "uint256",
          "name": "addedValue",
          "type": "uint256"
        }
      ],
      "name": "increaseAllowance",
      "outputs": [
        {
          "internalType": "bool",
          "name": "",
          "type": "bool"
        }
      ],
      "stateMutability": "nonpayable",
      "type": "function"
    },
    {
      "inputs": [
        {
          "internalType": "address",
          "name": "token",
          "type": "address"
        }
      ],
      "name": "maxFlashLoan",
      "outputs": [
        {
          "internalType": "uint256",
          "name": "",
          "type": "uint256"
        }
      ],
      "stateMutability": "view",
      "type": "function"
    },
    {
      "inputs": [],
      "name": "name",
      "outputs": [
        {
          "internalType": "string",
          "name": "",
          "type": "string"
        }
      ],
      "stateMutability": "view",
      "type": "function"
    },
    {
      "inputs": [],
      "name": "owner",
      "outputs": [
        {
          "internalType": "address",
          "name": "",
          "type": "address"
        }
      ],
      "stateMutability": "view",
      "type": "function"
    },
    {
      "inputs": [],
      "name": "pause",
      "outputs": [],
      "stateMutability": "nonpayable",
      "type": "function"
    },
    {
      "inputs": [],
      "name": "paused",
      "outputs": [
        {
          "internalType": "bool",
          "name": "",
          "type": "bool"
        }
      ],
      "stateMutability": "view",
      "type": "function"
    },
    {
      "inputs": [],
      "name": "renounceOwnership",
      "outputs": [],
      "stateMutability": "nonpayable",
      "type": "function"
    },
    {
      "inputs": [],
      "name": "symbol",
      "outputs": [
        {
          "internalType": "string",
          "name": "",
          "type": "string"
        }
      ],
      "stateMutability": "view",
      "type": "function"
    },
    {
      "inputs": [],
      "name": "totalSupply",
      "outputs": [
        {
          "internalType": "uint256",
          "name": "",
          "type": "uint256"
        }
      ],
      "stateMutability": "view",
      "type": "function"
    },
    {
      "inputs": [
        {
          "internalType": "address",
          "name": "recipient",
          "type": "address"
        },
        {
          "internalType": "uint256",
          "name": "amount",
          "type": "uint256"
        }
      ],
      "name": "transfer",
      "outputs": [
        {
          "internalType": "bool",
          "name": "",
          "type": "bool"
        }
      ],
      "stateMutability": "nonpayable",
      "type": "function"
    },
    {
      "inputs": [
        {
          "internalType": "address",
          "name": "sender",
          "type": "address"
        },
        {
          "internalType": "address",
          "name": "recipient",
          "type": "address"
        },
        {
          "internalType": "uint256",
          "name": "amount",
          "type": "uint256"
        }
      ],
      "name": "transferFrom",
      "outputs": [
        {
          "internalType": "bool",
          "name": "",
          "type": "bool"
        }
      ],
      "stateMutability": "nonpayable",
      "type": "function"
    },
    {
      "inputs": [
        {
          "internalType": "address",
          "name": "newOwner",
          "type": "address"
        }
      ],
      "name": "transferOwnership",
      "outputs": [],
      "stateMutability": "nonpayable",
      "type": "function"
    },
    {
      "inputs": [],
      "name": "unpause",
      "outputs": [],
      "stateMutability": "nonpayable",
      "type": "function"
    }
  ],
  "bytecode": "0x60806040523480156200001157600080fd5b506040518060400160405280600b81526020016a526563657074696f6e464d60a81b8152506040518060400160405280600381526020016252464d60e81b81525081600390805190602001906200006a9291906200027c565b508051620000809060049060208401906200027c565b50506005805460ff19169055506200009833620000c6565b620000c033620000ab6012600a62000386565b620000ba906203d09062000454565b62000120565b620004c9565b600580546001600160a01b03838116610100818102610100600160a81b031985161790945560405193909204169182907f8be0079c531659141344cd1fd0a4f28419497f9722a3daafe3b4186f6b6457e090600090a35050565b6001600160a01b0382166200017c5760405162461bcd60e51b815260206004820152601f60248201527f45524332303a206d696e7420746f20746865207a65726f20616464726573730060448201526064015b60405180910390fd5b6200018a6000838362000217565b80600260008282546200019e919062000322565b90915550506001600160a01b03821660009081526020819052604081208054839290620001cd90849062000322565b90915550506040518181526001600160a01b038316906000907fddf252ad1be2c89b69c2b068fc378daa952ba7f163c4a11628f55a4df523b3ef9060200160405180910390a35050565b60055460ff16156200025f5760405162461bcd60e51b815260206004820152601060248201526f14185d5cd8589b194e881c185d5cd95960821b604482015260640162000173565b620002778383836200027760201b620007ce1760201c565b505050565b8280546200028a9062000476565b90600052602060002090601f016020900481019282620002ae5760008555620002f9565b82601f10620002c957805160ff1916838001178555620002f9565b82800160010185558215620002f9579182015b82811115620002f9578251825591602001919060010190620002dc565b50620003079291506200030b565b5090565b5b808211156200030757600081556001016200030c565b60008219821115620003385762000338620004b3565b500190565b600181815b808511156200037e578160001904821115620003625762000362620004b3565b808516156200037057918102915b93841c939080029062000342565b509250929050565b60006200039760ff8416836200039e565b9392505050565b600082620003af575060016200044e565b81620003be575060006200044e565b8160018114620003d75760028114620003e25762000402565b60019150506200044e565b60ff841115620003f657620003f6620004b3565b50506001821b6200044e565b5060208310610133831016604e8410600b841016171562000427575081810a6200044e565b6200043383836200033d565b80600019048211156200044a576200044a620004b3565b0290505b92915050565b6000816000190483118215151615620004715762000471620004b3565b500290565b600181811c908216806200048b57607f821691505b60208210811415620004ad57634e487b7160e01b600052602260045260246000fd5b50919050565b634e487b7160e01b600052601160045260246000fd5b6113fe80620004d96000396000f3fe608060405234801561001057600080fd5b50600436106101425760003560e01c806370a08231116100b857806395d89b411161007c57806395d89b4114610292578063a457c2d71461029a578063a9059cbb146102ad578063d9d98ce4146102c0578063dd62ed3e146102d3578063f2fde38b1461030c57600080fd5b806370a082311461021d578063715018a61461024657806379cc67901461024e5780638456cb59146102615780638da5cb5b1461026957600080fd5b8063395093511161010a57806339509351146101bc5780633f4ba83a146101cf57806342966c68146101d95780635c975abb146101ec5780635cffe9de146101f7578063613255ab1461020a57600080fd5b806306fdde0314610147578063095ea7b31461016557806318160ddd1461018857806323b872dd1461019a578063313ce567146101ad575b600080fd5b61014f61031f565b60405161015c91906112a9565b60405180910390f35b610178610173366004611150565b6103b1565b604051901515815260200161015c565b6002545b60405190815260200161015c565b6101786101a836600461110f565b6103c7565b6040516012815260200161015c565b6101786101ca366004611150565b610476565b6101d76104b2565b005b6101d76101e7366004611234565b6104ec565b60055460ff16610178565b610178610205366004611195565b6104f9565b61018c6102183660046110b2565b6106e5565b61018c61022b3660046110b2565b6001600160a01b031660009081526020819052604090205490565b6101d7610713565b6101d761025c366004611150565b61074d565b6101d76107d3565b60055461010090046001600160a01b03166040516001600160a01b03909116815260200161015c565b61014f61080b565b6101786102a8366004611150565b61081a565b6101786102bb366004611150565b6108b3565b61018c6102ce366004611150565b6108c0565b61018c6102e13660046110d6565b6001600160a01b03918216600090815260016020908152604080832093909416825291909152205490565b6101d761031a3660046110b2565b610923565b60606003805461032e90611362565b80601f016020809104026020016040519081016040528092919081815260200182805461035a90611362565b80156103a75780601f1061037c576101008083540402835291602001916103a7565b820191906000526020600020905b81548152906001019060200180831161038a57829003601f168201915b5050505050905090565b60006103be3384846109c1565b50600192915050565b60006103d4848484610ae5565b6001600160a01b03841660009081526001602090815260408083203384529091529020548281101561045e5760405162461bcd60e51b815260206004820152602860248201527f45524332303a207472616e7366657220616d6f756e74206578636565647320616044820152676c6c6f77616e636560c01b60648201526084015b60405180910390fd5b61046b85338584036109c1565b506001949350505050565b3360008181526001602090815260408083206001600160a01b038716845290915281205490916103be9185906104ad908690611333565b6109c1565b6005546001600160a01b036101009091041633146104e25760405162461bcd60e51b8152600401610455906112fe565b6104ea610cbf565b565b6104f63382610d52565b50565b60008061050686866108c0565b90506105128786610eac565b6040516323e30c8b60e01b81527f439148f0bbc682ca079e46d6e2c2f0c1e3b820f1a291b069d8882abf8cf18dd9906001600160a01b038916906323e30c8b9061056a9033908b908b9088908c908c9060040161124d565b602060405180830381600087803b15801561058457600080fd5b505af1158015610598573d6000803e3d6000fd5b505050506040513d601f19601f820116820180604052508101906105bc919061117c565b146106155760405162461bcd60e51b8152602060048201526024808201527f4552433230466c6173684d696e743a20696e76616c69642072657475726e2076604482015263616c756560e01b6064820152608401610455565b6001600160a01b03871660009081526001602090815260408083203084529091529020546106438287611333565b8110156106aa5760405162461bcd60e51b815260206004820152602f60248201527f4552433230466c6173684d696e743a20616c6c6f77616e636520646f6573206e60448201526e1bdd08185b1b1bddc81c99599d5b99608a1b6064820152608401610455565b6106c48830846106ba8a8661134b565b6104ad919061134b565b6106d7886106d28489611333565b610d52565b506001979650505050505050565b60006001600160a01b03821630146106fe57600061070d565b60025461070d9060001961134b565b92915050565b6005546001600160a01b036101009091041633146107435760405162461bcd60e51b8152600401610455906112fe565b6104ea6000610f97565b600061075983336102e1565b9050818110156107b75760405162461bcd60e51b8152602060048201526024808201527f45524332303a206275726e20616d6f756e74206578636565647320616c6c6f77604482015263616e636560e01b6064820152608401610455565b6107c483338484036109c1565b6107ce8383610d52565b505050565b6005546001600160a01b036101009091041633146108035760405162461bcd60e51b8152600401610455906112fe565b6104ea610ff1565b60606004805461032e90611362565b3360009081526001602090815260408083206001600160a01b03861684529091528120548281101561089c5760405162461bcd60e51b815260206004820152602560248201527f45524332303a2064656372656173656420616c6c6f77616e63652062656c6f77604482015264207a65726f60d81b6064820152608401610455565b6108a933858584036109c1565b5060019392505050565b60006103be338484610ae5565b60006001600160a01b038316301461091a5760405162461bcd60e51b815260206004820152601b60248201527f4552433230466c6173684d696e743a2077726f6e6720746f6b656e00000000006044820152606401610455565b50600092915050565b6005546001600160a01b036101009091041633146109535760405162461bcd60e51b8152600401610455906112fe565b6001600160a01b0381166109b85760405162461bcd60e51b815260206004820152602660248201527f4f776e61626c653a206e6577206f776e657220697320746865207a65726f206160448201526564647265737360d01b6064820152608401610455565b6104f681610f97565b6001600160a01b038316610a235760405162461bcd60e51b8152602060048201526024808201527f45524332303a20617070726f76652066726f6d20746865207a65726f206164646044820152637265737360e01b6064820152608401610455565b6001600160a01b038216610a845760405162461bcd60e51b815260206004820152602260248201527f45524332303a20617070726f766520746f20746865207a65726f206164647265604482015261737360f01b6064820152608401610455565b6001600160a01b0383811660008181526001602090815260408083209487168084529482529182902085905590518481527f8c5be1e5ebec7d5bd14f71427d1e84f3dd0314c0f7b2291e5b200ac8c7c3b925910160405180910390a3505050565b6001600160a01b038316610b495760405162461bcd60e51b815260206004820152602560248201527f45524332303a207472616e736665722066726f6d20746865207a65726f206164604482015264647265737360d81b6064820152608401610455565b6001600160a01b038216610bab5760405162461bcd60e51b815260206004820152602360248201527f45524332303a207472616e7366657220746f20746865207a65726f206164647260448201526265737360e81b6064820152608401610455565b610bb683838361106c565b6001600160a01b03831660009081526020819052604090205481811015610c2e5760405162461bcd60e51b815260206004820152602660248201527f45524332303a207472616e7366657220616d6f756e7420657863656564732062604482015265616c616e636560d01b6064820152608401610455565b6001600160a01b03808516600090815260208190526040808220858503905591851681529081208054849290610c65908490611333565b92505081905550826001600160a01b0316846001600160a01b03167fddf252ad1be2c89b69c2b068fc378daa952ba7f163c4a11628f55a4df523b3ef84604051610cb191815260200190565b60405180910390a350505050565b60055460ff16610d085760405162461bcd60e51b815260206004820152601460248201527314185d5cd8589b194e881b9bdd081c185d5cd95960621b6044820152606401610455565b6005805460ff191690557f5db9ee0a495bf2e6ff9c91a7834c1ba4fdd244a5e8aa4e537bd38aeae4b073aa335b6040516001600160a01b03909116815260200160405180910390a1565b6001600160a01b038216610db25760405162461bcd60e51b815260206004820152602160248201527f45524332303a206275726e2066726f6d20746865207a65726f206164647265736044820152607360f81b6064820152608401610455565b610dbe8260008361106c565b6001600160a01b03821660009081526020819052604090205481811015610e325760405162461bcd60e51b815260206004820152602260248201527f45524332303a206275726e20616d6f756e7420657863656564732062616c616e604482015261636560f01b6064820152608401610455565b6001600160a01b0383166000908152602081905260408120838303905560028054849290610e6190849061134b565b90915550506040518281526000906001600160a01b038516907fddf252ad1be2c89b69c2b068fc378daa952ba7f163c4a11628f55a4df523b3ef9060200160405180910390a3505050565b6001600160a01b038216610f025760405162461bcd60e51b815260206004820152601f60248201527f45524332303a206d696e7420746f20746865207a65726f2061646472657373006044820152606401610455565b610f0e6000838361106c565b8060026000828254610f209190611333565b90915550506001600160a01b03821660009081526020819052604081208054839290610f4d908490611333565b90915550506040518181526001600160a01b038316906000907fddf252ad1be2c89b69c2b068fc378daa952ba7f163c4a11628f55a4df523b3ef9060200160405180910390a35050565b600580546001600160a01b03838116610100818102610100600160a81b031985161790945560405193909204169182907f8be0079c531659141344cd1fd0a4f28419497f9722a3daafe3b4186f6b6457e090600090a35050565b60055460ff16156110375760405162461bcd60e51b815260206004820152601060248201526f14185d5cd8589b194e881c185d5cd95960821b6044820152606401610455565b6005805460ff191660011790557f62e78cea01bee320cd4e420270b5ea74000d11b0c9f74754ebdbfc544b05a258610d353390565b60055460ff16156107ce5760405162461bcd60e51b815260206004820152601060248201526f14185d5cd8589b194e881c185d5cd95960821b6044820152606401610455565b6000602082840312156110c457600080fd5b81356110cf816113b3565b9392505050565b600080604083850312156110e957600080fd5b82356110f4816113b3565b91506020830135611104816113b3565b809150509250929050565b60008060006060848603121561112457600080fd5b833561112f816113b3565b9250602084013561113f816113b3565b929592945050506040919091013590565b6000806040838503121561116357600080fd5b823561116e816113b3565b946020939093013593505050565b60006020828403121561118e57600080fd5b5051919050565b6000806000806000608086880312156111ad57600080fd5b85356111b8816113b3565b945060208601356111c8816113b3565b935060408601359250606086013567ffffffffffffffff808211156111ec57600080fd5b818801915088601f83011261120057600080fd5b81358181111561120f57600080fd5b89602082850101111561122157600080fd5b9699959850939650602001949392505050565b60006020828403121561124657600080fd5b5035919050565b6001600160a01b03878116825286166020820152604081018590526060810184905260a06080820181905281018290526000828460c0840137600060c0848401015260c0601f19601f8501168301019050979650505050505050565b600060208083528351808285015260005b818110156112d6578581018301518582016040015282016112ba565b818111156112e8576000604083870101525b50601f01601f1916929092016040019392505050565b6020808252818101527f4f776e61626c653a2063616c6c6572206973206e6f7420746865206f776e6572604082015260600190565b600082198211156113465761134661139d565b500190565b60008282101561135d5761135d61139d565b500390565b600181811c9082168061137657607f821691505b6020821081141561139757634e487b7160e01b600052602260045260246000fd5b50919050565b634e487b7160e01b600052601160045260246000fd5b6001600160a01b03811681146104f657600080fdfea2646970667358221220d11722135ea0f0daaae399705290ba613e7ddb6107ee51715ade380a6f34fceb64736f6c63430008070033",
  "linkReferences": {},
  "deployedLinkReferences": {}
}