{
    "contractName": "PostFactory",
    "abi": [
        {
            "inputs": [
                {
                    "internalType": "address",
                    "name": "_contractOwner",
                    "type": "address"
                },
                {
                    "internalType": "address",
                    "name": "_channelsAddress",
                    "type": "address"
                },
                {
                    "internalType": "address",
                    "name": "_membershipsAddress",
                    "type": "address"
                }
            ],
            "stateMutability": "nonpayable",
            "type": "constructor"
        },
        {
            "anonymous": false,
            "inputs": [
                {
                    "indexed": false,
                    "internalType": "address",
                    "name": "account",
                    "type": "address"
                }
            ],
            "name": "Paused",
            "type": "event"
        },
        {
            "anonymous": false,
            "inputs": [
                {
                    "indexed": true,
                    "internalType": "bytes32",
                    "name": "role",
                    "type": "bytes32"
                },
                {
                    "indexed": true,
                    "internalType": "bytes32",
                    "name": "previousAdminRole",
                    "type": "bytes32"
                },
                {
                    "indexed": true,
                    "internalType": "bytes32",
                    "name": "newAdminRole",
                    "type": "bytes32"
                }
            ],
            "name": "RoleAdminChanged",
            "type": "event"
        },
        {
            "anonymous": false,
            "inputs": [
                {
                    "indexed": true,
                    "internalType": "bytes32",
                    "name": "role",
                    "type": "bytes32"
                },
                {
                    "indexed": true,
                    "internalType": "address",
                    "name": "account",
                    "type": "address"
                },
                {
                    "indexed": true,
                    "internalType": "address",
                    "name": "sender",
                    "type": "address"
                }
            ],
            "name": "RoleGranted",
            "type": "event"
        },
        {
            "anonymous": false,
            "inputs": [
                {
                    "indexed": true,
                    "internalType": "bytes32",
                    "name": "role",
                    "type": "bytes32"
                },
                {
                    "indexed": true,
                    "internalType": "address",
                    "name": "account",
                    "type": "address"
                },
                {
                    "indexed": true,
                    "internalType": "address",
                    "name": "sender",
                    "type": "address"
                }
            ],
            "name": "RoleRevoked",
            "type": "event"
        },
        {
            "anonymous": false,
            "inputs": [
                {
                    "indexed": false,
                    "internalType": "address",
                    "name": "account",
                    "type": "address"
                }
            ],
            "name": "Unpaused",
            "type": "event"
        },
        {
            "inputs": [],
            "name": "ADMIN_ROLE",
            "outputs": [
                {
                    "internalType": "bytes32",
                    "name": "",
                    "type": "bytes32"
                }
            ],
            "stateMutability": "view",
            "type": "function"
        },
        {
            "inputs": [],
            "name": "DEFAULT_ADMIN_ROLE",
            "outputs": [
                {
                    "internalType": "bytes32",
                    "name": "",
                    "type": "bytes32"
                }
            ],
            "stateMutability": "view",
            "type": "function"
        },
        {
            "inputs": [
                {
                    "internalType": "string",
                    "name": "tokenName",
                    "type": "string"
                },
                {
                    "internalType": "uint256",
                    "name": "tokenChannel",
                    "type": "uint256"
                },
                {
                    "internalType": "address",
                    "name": "to",
                    "type": "address"
                }
            ],
            "name": "createPostContract",
            "outputs": [],
            "stateMutability": "nonpayable",
            "type": "function"
        },
        {
            "inputs": [
                {
                    "internalType": "uint256",
                    "name": "tokenChannel",
                    "type": "uint256"
                }
            ],
            "name": "getChannelPostContract",
            "outputs": [
                {
                    "internalType": "address",
                    "name": "",
                    "type": "address"
                }
            ],
            "stateMutability": "view",
            "type": "function"
        },
        {
            "inputs": [
                {
                    "internalType": "bytes32",
                    "name": "role",
                    "type": "bytes32"
                }
            ],
            "name": "getRoleAdmin",
            "outputs": [
                {
                    "internalType": "bytes32",
                    "name": "",
                    "type": "bytes32"
                }
            ],
            "stateMutability": "view",
            "type": "function"
        },
        {
            "inputs": [
                {
                    "internalType": "bytes32",
                    "name": "role",
                    "type": "bytes32"
                },
                {
                    "internalType": "address",
                    "name": "account",
                    "type": "address"
                }
            ],
            "name": "grantRole",
            "outputs": [],
            "stateMutability": "nonpayable",
            "type": "function"
        },
        {
            "inputs": [
                {
                    "internalType": "bytes32",
                    "name": "role",
                    "type": "bytes32"
                },
                {
                    "internalType": "address",
                    "name": "account",
                    "type": "address"
                }
            ],
            "name": "hasRole",
            "outputs": [
                {
                    "internalType": "bool",
                    "name": "",
                    "type": "bool"
                }
            ],
            "stateMutability": "view",
            "type": "function"
        },
        {
            "inputs": [
                {
                    "internalType": "address",
                    "name": "_contractOwner",
                    "type": "address"
                }
            ],
            "name": "initialize",
            "outputs": [],
            "stateMutability": "nonpayable",
            "type": "function"
        },
        {
            "inputs": [],
            "name": "paused",
            "outputs": [
                {
                    "internalType": "bool",
                    "name": "",
                    "type": "bool"
                }
            ],
            "stateMutability": "view",
            "type": "function"
        },
        {
            "inputs": [
                {
                    "internalType": "bytes32",
                    "name": "role",
                    "type": "bytes32"
                },
                {
                    "internalType": "address",
                    "name": "account",
                    "type": "address"
                }
            ],
            "name": "renounceRole",
            "outputs": [],
            "stateMutability": "nonpayable",
            "type": "function"
        },
        {
            "inputs": [
                {
                    "internalType": "bytes32",
                    "name": "role",
                    "type": "bytes32"
                },
                {
                    "internalType": "address",
                    "name": "account",
                    "type": "address"
                }
            ],
            "name": "revokeRole",
            "outputs": [],
            "stateMutability": "nonpayable",
            "type": "function"
        },
        {
            "inputs": [
                {
                    "internalType": "bytes4",
                    "name": "interfaceId",
                    "type": "bytes4"
                }
            ],
            "name": "supportsInterface",
            "outputs": [
                {
                    "internalType": "bool",
                    "name": "",
                    "type": "bool"
                }
            ],
            "stateMutability": "view",
            "type": "function"
        }
    ],
    "bytecode": "60806040523480156200001157600080fd5b50604051620064c4380380620064c4833981016040819052620000349162000431565b600054610100900460ff16620000515760005460ff16156200005b565b6200005b6200019b565b620000c45760405162461bcd60e51b815260206004820152602e60248201527f496e697469616c697a61626c653a20636f6e747261637420697320616c72656160448201526d191e481a5b9a5d1a585b1a5e995960921b60648201526084015b60405180910390fd5b600054610100900460ff16158015620000e7576000805461ffff19166101011790555b620000f1620001b9565b620000fb62000235565b620001277fa49807205ce4d355092ef5a8a18f56e8913cf4a201fbe287825b095693c2177585620002a5565b62000134600085620002a5565b60ca80546001600160a01b038087166001600160a01b03199283161790925560cb8054868416908316811790915560ce80548316909117905560cc805492851692909116919091179055801562000191576000805461ff00191690555b505050506200047b565b6000620001b3306200034a60201b6200069d1760201c565b15905090565b600054610100900460ff16620002155760405162461bcd60e51b815260206004820152602b6024820152600080516020620064a483398151915260448201526a6e697469616c697a696e6760a81b6064820152608401620000bb565b6200021f62000350565b6200022962000350565b6200023362000350565b565b600054610100900460ff16620002915760405162461bcd60e51b815260206004820152602b6024820152600080516020620064a483398151915260448201526a6e697469616c697a696e6760a81b6064820152608401620000bb565b6200029b62000350565b62000233620003ac565b60008281526097602090815260408083206001600160a01b038516845290915290205460ff16620003465760008281526097602090815260408083206001600160a01b03851684529091529020805460ff19166001179055620003053390565b6001600160a01b0316816001600160a01b0316837f2f8788117e7eff1d82e926ec794901d17c78024a50270940304540a733656f0d60405160405180910390a45b5050565b3b151590565b600054610100900460ff16620002335760405162461bcd60e51b815260206004820152602b6024820152600080516020620064a483398151915260448201526a6e697469616c697a696e6760a81b6064820152608401620000bb565b600054610100900460ff16620004085760405162461bcd60e51b815260206004820152602b6024820152600080516020620064a483398151915260448201526a6e697469616c697a696e6760a81b6064820152608401620000bb565b6033805460ff19169055565b80516001600160a01b03811681146200042c57600080fd5b919050565b6000806000606084860312156200044757600080fd5b620004528462000414565b9250620004626020850162000414565b9150620004726040850162000414565b90509250925092565b616019806200048b6000396000f3fe60806040523480156200001157600080fd5b5060043610620000c35760003560e01c806391d14854116200007a57806391d14854146200018d578063a217fddf14620001a4578063a7134e0e14620001ad578063c4d66de814620001dd578063d547741f14620001f4578063e16db9a6146200020b57600080fd5b806301ffc9a714620000c8578063248a9ca314620000f45780632f2ff15d146200012957806336568abe14620001425780635c975abb146200015957806375b238fc1462000165575b600080fd5b620000df620000d936600462000abd565b62000222565b60405190151581526020015b60405180910390f35b6200011a6200010536600462000ae9565b60009081526097602052604090206001015490565b604051908152602001620000eb565b620001406200013a36600462000b1c565b6200025a565b005b620001406200015336600462000b1c565b62000289565b60335460ff16620000df565b6200011a7fa49807205ce4d355092ef5a8a18f56e8913cf4a201fbe287825b095693c2177581565b620000df6200019e36600462000b1c565b6200030f565b6200011a600081565b620001c4620001be36600462000ae9565b6200033a565b6040516001600160a01b039091168152602001620000eb565b62000140620001ee36600462000b4f565b620003b9565b620001406200020536600462000b1c565b620004c5565b620001406200021c36600462000b6f565b620004ef565b60006001600160e01b03198216637965db0b60e01b14806200025457506301ffc9a760e01b6001600160e01b03198316145b92915050565b600082815260976020526040902060010154620002788133620006a3565b62000284838362000712565b505050565b6001600160a01b0381163314620002ff5760405162461bcd60e51b815260206004820152602f60248201527f416363657373436f6e74726f6c3a2063616e206f6e6c792072656e6f756e636560448201526e103937b632b9903337b91039b2b63360891b60648201526084015b60405180910390fd5b6200030b82826200079c565b5050565b60009182526097602090815260408084206001600160a01b0393909316845291905290205460ff1690565b600081815260cf602052604081205482156200039b57806000036200039b5760405162461bcd60e51b8152602060048201526016602482015275139bc81c1bdcdd0818dbdb9d1c9858dd08199bdd5b9960521b6044820152606401620002f6565b600090815260d060205260409020546001600160a01b031692915050565b600054610100900460ff16620003d65760005460ff1615620003da565b303b155b6200043f5760405162461bcd60e51b815260206004820152602e60248201527f496e697469616c697a61626c653a20636f6e747261637420697320616c72656160448201526d191e481a5b9a5d1a585b1a5e995960921b6064820152608401620002f6565b600054610100900460ff1615801562000462576000805461ffff19166101011790555b6200046c62000806565b6200047662000850565b620004a27fa49807205ce4d355092ef5a8a18f56e8913cf4a201fbe287825b095693c217758362000712565b620004af60008362000712565b80156200030b576000805461ff00191690555050565b600082815260976020526040902060010154620004e38133620006a3565b6200028483836200079c565b60ce546040516331a9108f60e11b8152600481018490526000916001600160a01b031690636352211e90602401602060405180830381865afa1580156200053a573d6000803e3d6000fd5b505050506040513d601f19601f8201168201806040525081019062000560919062000c01565b9050806001600160a01b0316826001600160a01b031614620005e15760405162461bcd60e51b815260206004820152603360248201527f596f75206d75737420626520746865206368616e6e656c206f776e657220746f60448201527220637265617465206d656d626572736869707360681b6064820152608401620002f6565b60cb5460cc5460405160009288928892889288926001600160a01b03918216929116906200060f9062000aaf565b620006209695949392919062000c21565b604051809103906000f0801580156200063d573d6000803e3d6000fd5b50905060006200064c60c95490565b90506200065d60c980546001019055565b600094855260d06020908152604080872080546001600160a01b0319166001600160a01b03959095169490941790935560cf905293209290925550505050565b3b151590565b620006af82826200030f565b6200030b57620006ca816001600160a01b031660146200088e565b620006d78360206200088e565b604051602001620006ea92919062000cac565b60408051601f198184030181529082905262461bcd60e51b8252620002f69160040162000d25565b6200071e82826200030f565b6200030b5760008281526097602090815260408083206001600160a01b03851684529091529020805460ff19166001179055620007583390565b6001600160a01b0316816001600160a01b0316837f2f8788117e7eff1d82e926ec794901d17c78024a50270940304540a733656f0d60405160405180910390a45050565b620007a882826200030f565b156200030b5760008281526097602090815260408083206001600160a01b0385168085529252808320805460ff1916905551339285917ff6391f5c32d9c69d2a47ea670b442974b53935d1edc7fd64eb21e047a839171b9190a45050565b600054610100900460ff16620008305760405162461bcd60e51b8152600401620002f69062000d5a565b6200083a62000a4f565b6200084462000a4f565b6200084e62000a4f565b565b600054610100900460ff166200087a5760405162461bcd60e51b8152600401620002f69062000d5a565b6200088462000a4f565b6200084e62000a79565b606060006200089f83600262000dbb565b620008ac90600262000ddd565b67ffffffffffffffff811115620008c757620008c762000df8565b6040519080825280601f01601f191660200182016040528015620008f2576020820181803683370190505b509050600360fc1b8160008151811062000910576200091062000e0e565b60200101906001600160f81b031916908160001a905350600f60fb1b8160018151811062000942576200094262000e0e565b60200101906001600160f81b031916908160001a90535060006200096884600262000dbb565b6200097590600162000ddd565b90505b6001811115620009f7576f181899199a1a9b1b9c1cb0b131b232b360811b85600f1660108110620009ad57620009ad62000e0e565b1a60f81b828281518110620009c657620009c662000e0e565b60200101906001600160f81b031916908160001a90535060049490941c93620009ef8162000e24565b905062000978565b50831562000a485760405162461bcd60e51b815260206004820181905260248201527f537472696e67733a20686578206c656e67746820696e73756666696369656e746044820152606401620002f6565b9392505050565b600054610100900460ff166200084e5760405162461bcd60e51b8152600401620002f69062000d5a565b600054610100900460ff1662000aa35760405162461bcd60e51b8152600401620002f69062000d5a565b6033805460ff19169055565b6151a58062000e3f83390190565b60006020828403121562000ad057600080fd5b81356001600160e01b03198116811462000a4857600080fd5b60006020828403121562000afc57600080fd5b5035919050565b6001600160a01b038116811462000b1957600080fd5b50565b6000806040838503121562000b3057600080fd5b82359150602083013562000b448162000b03565b809150509250929050565b60006020828403121562000b6257600080fd5b813562000a488162000b03565b6000806000806060858703121562000b8657600080fd5b843567ffffffffffffffff8082111562000b9f57600080fd5b818701915087601f83011262000bb457600080fd5b81358181111562000bc457600080fd5b88602082850101111562000bd757600080fd5b602092830196509450508501359150604085013562000bf68162000b03565b939692955090935050565b60006020828403121562000c1457600080fd5b815162000a488162000b03565b60a081528560a0820152858760c0830137600060c087830181019190915260208201959095526001600160a01b03938416604082015291831660608301529091166080820152601f909201601f191690910101919050565b60005b8381101562000c9657818101518382015260200162000c7c565b8381111562000ca6576000848401525b50505050565b7f416363657373436f6e74726f6c3a206163636f756e742000000000000000000081526000835162000ce681601785016020880162000c79565b7001034b99036b4b9b9b4b733903937b6329607d1b601791840191820152835162000d1981602884016020880162000c79565b01602801949350505050565b602081526000825180602084015262000d4681604085016020870162000c79565b601f01601f19169190910160400192915050565b6020808252602b908201527f496e697469616c697a61626c653a20636f6e7472616374206973206e6f74206960408201526a6e697469616c697a696e6760a81b606082015260800190565b634e487b7160e01b600052601160045260246000fd5b600081600019048311821515161562000dd85762000dd862000da5565b500290565b6000821982111562000df35762000df362000da5565b500190565b634e487b7160e01b600052604160045260246000fd5b634e487b7160e01b600052603260045260246000fd5b60008162000e365762000e3662000da5565b50600019019056fe60806040523480156200001157600080fd5b50604051620051a5380380620051a58339810160408190526200003491620007e7565b600054610100900460ff16620000515760005460ff16156200005b565b6200005b620003a0565b620000c45760405162461bcd60e51b815260206004820152602e60248201527f496e697469616c697a61626c653a20636f6e747261637420697320616c72656160448201526d191e481a5b9a5d1a585b1a5e995960921b60648201526084015b60405180910390fd5b600054610100900460ff16158015620000e7576000805461ffff19166101011790555b620000f286620003be565b620000fc6200043c565b620001066200043c565b62000110620004b8565b6200011a6200043c565b8551620001309061015f9060208901906200070e565b5061016a85905561016280546001600160a01b038087166001600160a01b03199283161790925561016380548684169083168117909155610166805483169091179055610164805492851692821683179055610167805490911690911790556200019c60003362000528565b620001c87fa49807205ce4d355092ef5a8a18f56e8913cf4a201fbe287825b095693c217753362000528565b620001f47fb19546dff01e856fb3f010c267a7b1c60363cf8a4664e21cc89c26224620214e8562000528565b600061016b60405162000213906562726f6e7a6560d01b815260060190565b908152604051908190036020019020805460ff191660018360048111156200023f576200023f62000908565b0217905550600161016b60405162000263906539b4b63b32b960d11b815260060190565b908152604051908190036020019020805460ff191660018360048111156200028f576200028f62000908565b0217905550600261016b604051620002b1906319dbdb1960e21b815260040190565b908152604051908190036020019020805460ff19166001836004811115620002dd57620002dd62000908565b0217905550600361016b604051620003039067706c6174696e756d60c01b815260080190565b908152604051908190036020019020805460ff191660018360048111156200032f576200032f62000908565b0217905550600461016b604051620003509062185b1b60ea1b815260030190565b908152604051908190036020019020805460ff191660018360048111156200037c576200037c62000908565b0217905550801562000394576000805461ff00191690555b5050505050506200095a565b6000620003b830620005cd60201b6200211b1760201c565b15905090565b600054610100900460ff166200041a5760405162461bcd60e51b815260206004820152602b60248201526000805160206200518583398151915260448201526a6e697469616c697a696e6760a81b6064820152608401620000bb565b62000424620005d3565b6200042e620005d3565b62000439816200062f565b50565b600054610100900460ff16620004985760405162461bcd60e51b815260206004820152602b60248201526000805160206200518583398151915260448201526a6e697469616c697a696e6760a81b6064820152608401620000bb565b620004a2620005d3565b620004ac620005d3565b620004b6620005d3565b565b600054610100900460ff16620005145760405162461bcd60e51b815260206004820152602b60248201526000805160206200518583398151915260448201526a6e697469616c697a696e6760a81b6064820152608401620000bb565b6200051e620005d3565b620004b662000696565b600082815260fb602090815260408083206001600160a01b038516845290915290205460ff16620005c957600082815260fb602090815260408083206001600160a01b03851684529091529020805460ff19166001179055620005883390565b6001600160a01b0316816001600160a01b0316837f2f8788117e7eff1d82e926ec794901d17c78024a50270940304540a733656f0d60405160405180910390a45b5050565b3b151590565b600054610100900460ff16620004b65760405162461bcd60e51b815260206004820152602b60248201526000805160206200518583398151915260448201526a6e697469616c697a696e6760a81b6064820152608401620000bb565b600054610100900460ff166200068b5760405162461bcd60e51b815260206004820152602b60248201526000805160206200518583398151915260448201526a6e697469616c697a696e6760a81b6064820152608401620000bb565b6200043981620006fe565b600054610100900460ff16620006f25760405162461bcd60e51b815260206004820152602b60248201526000805160206200518583398151915260448201526a6e697469616c697a696e6760a81b6064820152608401620000bb565b60c9805460ff19169055565b8051620005c99060679060208401905b8280546200071c906200091e565b90600052602060002090601f0160209004810192826200074057600085556200078b565b82601f106200075b57805160ff19168380011785556200078b565b828001600101855582156200078b579182015b828111156200078b5782518255916020019190600101906200076e565b50620007999291506200079d565b5090565b5b808211156200079957600081556001016200079e565b634e487b7160e01b600052604160045260246000fd5b80516001600160a01b0381168114620007e257600080fd5b919050565b600080600080600060a086880312156200080057600080fd5b85516001600160401b03808211156200081857600080fd5b818801915088601f8301126200082d57600080fd5b815181811115620008425762000842620007b4565b604051601f8201601f19908116603f011681019083821181831017156200086d576200086d620007b4565b81604052828152602093508b848487010111156200088a57600080fd5b600091505b82821015620008ae57848201840151818301850152908301906200088f565b82821115620008c05760008484830101525b8099505050508088015195505050620008dc60408701620007ca565b9250620008ec60608701620007ca565b9150620008fc60808701620007ca565b90509295509295909350565b634e487b7160e01b600052602160045260246000fd5b600181811c908216806200093357607f821691505b6020821081036200095457634e487b7160e01b600052602260045260246000fd5b50919050565b61481b806200096a6000396000f3fe6080604052600436106102715760003560e01c8063651617351161014f578063a91fcf65116100c1578063e7dc5bd71161007a578063e7dc5bd7146107a8578063e985e9c5146107c8578063ed20845714610811578063f242432a14610831578063f2fde38b14610851578063f5298aca1461087157600080fd5b8063a91fcf65146106d5578063bd85b039146106e8578063cbfb168914610715578063d547741f14610735578063e58378bb14610755578063e738c7c81461077757600080fd5b80637ab4339d116101135780637ab4339d146106365780638456cb591461065657806391d148541461066b57806395d89b411461068b578063a217fddf146106a0578063a22cb465146106b557600080fd5b8063651617351461059f5780636b20c454146105bf5780637284e416146105df57806375b238fc146105f4578063798611f51461061657600080fd5b80632f2ff15d116101e85780634f558e79116101ac5780634f558e79146104c457806357f7789e146104f35780635a4dd47d146105135780635b31cb36146105415780635c975abb146105725780635fd8c7101461058a57600080fd5b80632f2ff15d146103f957806336568abe146104195780633f4ba83a1461043957806343af5b3c1461044e5780634e1273f41461049757600080fd5b806304e372c41161023a57806304e372c41461033b57806306fdde03146103525780630e89341c14610374578063248a9ca314610394578063295d3ee8146103c45780632eb2c2d6146103d957600080fd5b8062fdd58e14610276578063014d0585146102a957806301ffc9a7146102c957806302815d79146102f957806302fe530514610319575b600080fd5b34801561028257600080fd5b50610296610291366004613691565b610891565b6040519081526020015b60405180910390f35b3480156102b557600080fd5b506102966102c43660046136bd565b61092d565b3480156102d557600080fd5b506102e96102e4366004613703565b610940565b60405190151581526020016102a0565b34801561030557600080fd5b506102e9610314366004613720565b61094b565b34801561032557600080fd5b506103396103343660046137f2565b610a2b565b005b34801561034757600080fd5b5061029661016a5481565b34801561035e57600080fd5b50610367610a51565b6040516102a0919061387e565b34801561038057600080fd5b5061036761038f366004613891565b610ae0565b3480156103a057600080fd5b506102966103af366004613891565b600090815260fb602052604090206001015490565b3480156103d057600080fd5b50610296610b85565b3480156103e557600080fd5b506103396103f436600461393e565b610b96565b34801561040557600080fd5b506103396104143660046136bd565b610c2d565b34801561042557600080fd5b506103396104343660046136bd565b610c58565b34801561044557600080fd5b50610339610cd2565b34801561045a57600080fd5b5061048a6104693660046137f2565b805160208183018101805161016b8252928201919093012091525460ff1681565b6040516102a09190613a01565b3480156104a357600080fd5b506104b76104b2366004613a29565b610cf6565b6040516102a09190613b30565b3480156104d057600080fd5b506102e96104df366004613891565b600090815260976020526040902054151590565b3480156104ff57600080fd5b5061033961050e366004613b43565b610e1f565b34801561051f57600080fd5b5061029661052e366004613891565b6000908152610171602052604090205490565b34801561054d57600080fd5b506102e961055c366004613891565b600090815261016f602052604090205460ff1690565b34801561057e57600080fd5b5060c95460ff166102e9565b34801561059657600080fd5b50610339610e97565b3480156105ab57600080fd5b506102e96105ba3660046136bd565b610f41565b3480156105cb57600080fd5b506103396105da366004613b7f565b611172565b3480156105eb57600080fd5b506103676111b5565b34801561060057600080fd5b506102966000805160206147c683398151915281565b34801561062257600080fd5b506103676106313660046136bd565b6111c3565b34801561064257600080fd5b50610339610651366004613bf4565b611263565b34801561066257600080fd5b506103396114fa565b34801561067757600080fd5b506102e96106863660046136bd565b61151b565b34801561069757600080fd5b50610367611546565b3480156106ac57600080fd5b50610296600081565b3480156106c157600080fd5b506103396106d0366004613c4a565b611554565b6103396106e3366004613691565b61155f565b3480156106f457600080fd5b50610296610703366004613891565b60009081526097602052604090205490565b34801561072157600080fd5b50610296610730366004613d0b565b61188f565b34801561074157600080fd5b506103396107503660046136bd565b611d8d565b34801561076157600080fd5b506102966000805160206147a683398151915281565b34801561078357600080fd5b506102e9610792366004613891565b6000908152610170602052604090205460ff1690565b3480156107b457600080fd5b506102e96107c3366004613691565b611db3565b3480156107d457600080fd5b506102e96107e3366004613e14565b6001600160a01b03918216600090815260666020908152604080832093909416825291909152205460ff1690565b34801561081d57600080fd5b5061036761082c366004613e42565b611dd7565b34801561083d57600080fd5b5061033961084c366004613e7d565b612062565b34801561085d57600080fd5b5061033961086c366004613720565b6120a7565b34801561087d57600080fd5b5061033961088c366004613ee5565b6120d8565b60006001600160a01b0383166109025760405162461bcd60e51b815260206004820152602b60248201527f455243313135353a2062616c616e636520717565727920666f7220746865207a60448201526a65726f206164647265737360a81b60648201526084015b60405180910390fd5b5060008181526065602090815260408083206001600160a01b03861684529091529020545b92915050565b60006109398284610891565b9392505050565b600061092782612121565b6101665460405163d0f48ec760e01b81526001600160a01b038381166004830152600092839291169063d0f48ec790602401600060405180830381865afa15801561099a573d6000803e3d6000fd5b505050506040513d6000823e601f3d908101601f191682016040526109c29190810190613f1a565b905080516000036109d65750600092915050565b60005b8151811015610a21578181815181106109f4576109f4613fb5565b602002602001015161016a5403610a0f575060019392505050565b80610a1981613fe1565b9150506109d9565b5050600092915050565b6000805160206147c6833981519152610a448133612146565b610a4d826121aa565b5050565b61015f8054610a5f90613ffa565b80601f0160208091040260200160405190810160405280929190818152602001828054610a8b90613ffa565b8015610ad85780601f10610aad57610100808354040283529160200191610ad8565b820191906000526020600020905b815481529060010190602001808311610abb57829003601f168201915b505050505081565b6060610aec8233610f41565b80610afb5750610afb3361094b565b80610b0b5750610b0b3383611db3565b80610b255750600082815261016e602052604090205460ff165b15610b6057600082815261016d60209081526040918290209151610b4a929101614034565b6040516020818303038152906040529050919050565b600082815261016c60209081526040918290209151610b4a929101614034565b919050565b6000610b916101695490565b905090565b6001600160a01b038516331480610bb25750610bb285336107e3565b610c195760405162461bcd60e51b815260206004820152603260248201527f455243313135353a207472616e736665722063616c6c6572206973206e6f74206044820152711bdddb995c881b9bdc88185c1c1c9bdd995960721b60648201526084016108f9565b610c2685858585856121bd565b5050505050565b600082815260fb6020526040902060010154610c498133612146565b610c53838361236a565b505050565b6001600160a01b0381163314610cc85760405162461bcd60e51b815260206004820152602f60248201527f416363657373436f6e74726f6c3a2063616e206f6e6c792072656e6f756e636560448201526e103937b632b9903337b91039b2b63360891b60648201526084016108f9565b610a4d82826123f0565b6000805160206147a6833981519152610ceb8133612146565b610cf3612457565b50565b60608151835114610d5b5760405162461bcd60e51b815260206004820152602960248201527f455243313135353a206163636f756e747320616e6420696473206c656e677468604482015268040dad2e6dac2e8c6d60bb1b60648201526084016108f9565b600083516001600160401b03811115610d7657610d7661373d565b604051908082528060200260200182016040528015610d9f578160200160208202803683370190505b50905060005b8451811015610e1757610dea858281518110610dc357610dc3613fb5565b6020026020010151858381518110610ddd57610ddd613fb5565b6020026020010151610891565b828281518110610dfc57610dfc613fb5565b6020908102919091010152610e1081613fe1565b9050610da5565b509392505050565b6000805160206147a6833981519152610e388133612146565b600083815261016c602052604090208054610e5290613ffa565b159050610e715760405162461bcd60e51b81526004016108f990614106565b600083815261016c602090815260409091208351610e919285019061359e565b50505050565b6000805160206147a6833981519152610eb08133612146565b6040513390600090829047908381818185875af1925050503d8060008114610ef4576040519150601f19603f3d011682016040523d82523d6000602084013e610ef9565b606091505b5050905080610c535760405162461bcd60e51b81526020600482015260146024820152734661696c656420746f2073656e64204d4154494360601b60448201526064016108f9565b6101675461016a5460405163b9c08fd360e01b815260009283926001600160a01b039091169163b9c08fd391610f7d9160040190815260200190565b600060405180830381865afa158015610f9a573d6000803e3d6000fd5b505050506040513d6000823e601f3d908101601f19168201604052610fc29190810190613f1a565b9050600080805b83518110156110b1576101675484516001600160a01b039091169062fdd58e908890879085908110610ffd57610ffd613fb5565b60200260200101516040518363ffffffff1660e01b81526004016110369291906001600160a01b03929092168252602082015260400190565b602060405180830381865afa158015611053573d6000803e3d6000fd5b505050506040513d601f19601f82011682018060405250810190611077919061413d565b60010361109f5783818151811061109057611090613fb5565b60200260200101519150600192505b806110a981613fe1565b915050610fc9565b50811561116957600091506000610172600088815260200190815260200160002080548060200260200160405190810160405280929190818152602001828054801561111c57602002820191906000526020600020905b815481526020019060010190808311611108575b5050505050905060005b81518110156111665781818151811061114157611141613fb5565b6020026020010151830361115457600193505b8061115e81613fe1565b915050611126565b50505b50949350505050565b6001600160a01b03831633148061118e575061118e83336107e3565b6111aa5760405162461bcd60e51b81526004016108f990614156565b610c538383836124ea565b6101608054610a5f90613ffa565b60606111cf8383610f41565b806111de57506111de8261094b565b806111ee57506111ee8284611db3565b806112085750600083815261016e602052604090205460ff165b1561124357600083815261016d6020908152604091829020915161122d929101614034565b6040516020818303038152906040529050610927565b600083815261016c6020908152604091829020915161122d929101614034565b600054610100900460ff1661127e5760005460ff1615611282565b303b155b6112e55760405162461bcd60e51b815260206004820152602e60248201527f496e697469616c697a61626c653a20636f6e747261637420697320616c72656160448201526d191e481a5b9a5d1a585b1a5e995960921b60648201526084016108f9565b600054610100900460ff16158015611307576000805461ffff19166101011790555b6113108361267b565b6113186126bb565b6113206126bb565b6113286126fc565b6113306126bb565b61133b60003361236a565b6113536000805160206147c68339815191523361236a565b61136b6000805160206147a68339815191528361236a565b600061016b604051611389906562726f6e7a6560d01b815260060190565b908152604051908190036020019020805460ff191660018360048111156113b2576113b26139eb565b0217905550600161016b6040516113d5906539b4b63b32b960d11b815260060190565b908152604051908190036020019020805460ff191660018360048111156113fe576113fe6139eb565b0217905550600261016b60405161141f906319dbdb1960e21b815260040190565b908152604051908190036020019020805460ff19166001836004811115611448576114486139eb565b0217905550600361016b60405161146d9067706c6174696e756d60c01b815260080190565b908152604051908190036020019020805460ff19166001836004811115611496576114966139eb565b0217905550600461016b6040516114b69062185b1b60ea1b815260030190565b908152604051908190036020019020805460ff191660018360048111156114df576114df6139eb565b02179055508015610c53576000805461ff0019169055505050565b6000805160206147a68339815191526115138133612146565b610cf3612733565b600091825260fb602090815260408084206001600160a01b0393909316845291905290205460ff1690565b6101618054610a5f90613ffa565b610a4d3383836127ae565b6115936040518060400160405280601181526020017018d85b1b1a5b99c81c1bdcdd081b5a5b9d607a1b815250828461288e565b600080341180156115b357506000828152610170602052604090205460ff165b80156115ce5750600082815261017160205260409020543410155b156115d7575060015b6115e18284610f41565b806115e95750805b6116355760405162461bcd60e51b815260206004820152601e60248201527f596f7520646f206e6f742068617665206d696e74696e6720616363657373000060448201526064016108f9565b600082815261016f602052604090205460ff1615156001146116995760405162461bcd60e51b815260206004820152601960248201527f5468697320706f7374206973206e6f74206d696e7461626c650000000000000060448201526064016108f9565b60005b6001600160a01b03841660009081526101736020526040902054811015611767576001600160a01b0384166000908152610173602052604090208054849190839081106116eb576116eb613fb5565b9060005260206000200154036117555760405162461bcd60e51b815260206004820152602960248201527f536f7272792c20796f75206861766520616c72656164792072656465656d6564604482015268081d1a1a5cc813919560ba1b60648201526084016108f9565b8061175f81613fe1565b91505061169c565b5061178483836001604051806020016040528060008152506128d5565b6001600160a01b038316600081815261017360209081526040808320805460018101825590845292829020909201859055815192835282018490527ffd7b34ca1cd296d9ed91e86f59770a0070e60022411106a8e720555b421b7627910160405180910390a18015610c5357610162546040516001600160a01b0390911690600090829034908381818185875af1925050503d8060008114611842576040519150601f19603f3d011682016040523d82523d6000602084013e611847565b606091505b5050905080610c265760405162461bcd60e51b81526020600482015260146024820152734661696c656420746f2073656e64204d4154494360601b60448201526064016108f9565b600061189a8d61094b565b6118fc5760405162461bcd60e51b815260206004820152602d60248201527f596f75206d75737420626520746865206368616e6e656c206f776e657220746f60448201526c2063726561746520706f73747360981b60648201526084016108f9565b8961197457816119745760405162461bcd60e51b815260206004820152603d60248201527f596f75206d75737420696e636c756465206174206c656173742031206c65766560448201527f6c20746f206372656174652061206e6f6e2d7075626c696320706f737400000060648201526084016108f9565b60006119806101695490565b905061199161016980546001019055565b6119d1818a8a8080601f0160208091040260200160405190810160405280939291908181526020018383808284376000920191909152506129e792505050565b611a118188888080601f016020809104026020016040519081016040528093929190818152602001838380828437600092019190915250612a4092505050565b8a61016e600083815260200190815260200160002060006101000a81548160ff0219169083151502179055508b610170600083815260200190815260200160002060006101000a81548160ff0219169083151502179055508461016f600083815260200190815260200160002060006101000a81548160ff0219169083151502179055508c6101716000838152602001908152602001600020819055508a158015611abb57508215155b15611afd57611afd81858580806020026020016040519081016040528093929190818152602001838360200280828437600092019190915250612a9992505050565b7f9b30522153e7265b744bef3242ddcb51ad0c10651dbfc22a97ce415793523d218e82604051611b429291906001600160a01b03929092168252602082015260400190565b60405180910390a1898015611b5657508215155b15611d7c57606060005b84811015611d7957610167546000906001600160a01b031663951bb35a888885818110611b8f57611b8f613fb5565b905060200201356040518263ffffffff1660e01b8152600401611bb491815260200190565b600060405180830381865afa158015611bd1573d6000803e3d6000fd5b505050506040513d6000823e601f3d908101601f19168201604052611bf9919081019061419f565b905060005b8151811015611d64576000611cd6611c86848481518110611c2157611c21613fb5565b6020026020010151604051602001611c51919060609190911b6bffffffffffffffffffffffff1916815260140190565b60408051601f198184030181528282018252600080845260209384015281518083019092528051825282019181019190915290565b60408051808201825260008082526020918201819052825180840184528a5181528a8301818401908152845180860186528381528401929092528351808501909452518352519082015290612ab9565b9050611ce181511590565b15611d5157611d09838381518110611cfb57611cfb613fb5565b60200260200101518761155f565b611d4e611d21848481518110611c2157611c21613fb5565b60408051808201825260008082526020918201528151808301909252885182528089019082015290612b07565b94505b5080611d5c81613fe1565b915050611bfe565b50508080611d7190613fe1565b915050611b60565b50505b9d9c50505050505050505050505050565b600082815260fb6020526040902060010154611da98133612146565b610c5383836123f0565b600080611dc0838561092d565b1115611dce57506001610927565b50600092915050565b61016854604051627eeac760e11b8152336004820152602481018390526060916001600160a01b03169062fdd58e90604401602060405180830381865afa158015611e26573d6000803e3d6000fd5b505050506040513d601f19601f82011682018060405250810190611e4a919061413d565b600114611ebf5760405162461bcd60e51b815260206004820152603e60248201527f596f75206d7573742062652061206d656d626572206f66207468652073796e6460448201527f696361746520746f2072657472696576652070617977616c6c557269732e000060648201526084016108f9565b600084815261016e602052604090205460ff16611fbf5761016754604051627eeac760e11b81526001600160a01b038781166004830152602482018690529091169062fdd58e90604401602060405180830381865afa158015611f26573d6000803e3d6000fd5b505050506040513d601f19601f82011682018060405250810190611f4a919061413d565b600114611fbf5760405162461bcd60e51b815260206004820152603c60248201527f596f75206d7573742062652061206d656d626572206f6620746865206368616e60448201527f6e656c20746f2072657472696576652070617977616c6c557269732e0000000060648201526084016108f9565b600084815261016d602052604090208054611fd990613ffa565b80601f016020809104026020016040519081016040528092919081815260200182805461200590613ffa565b80156120525780601f1061202757610100808354040283529160200191612052565b820191906000526020600020905b81548152906001019060200180831161203557829003601f168201915b505050505090505b949350505050565b6001600160a01b03851633148061207e575061207e85336107e3565b61209a5760405162461bcd60e51b81526004016108f990614156565b610c268585858585612b96565b6000805160206147c68339815191526120c08133612146565b610a4d6000805160206147a68339815191528361236a565b6001600160a01b0383163314806120f457506120f483336107e3565b6121105760405162461bcd60e51b81526004016108f990614156565b610c53838383612cb7565b3b151590565b60006001600160e01b03198216637965db0b60e01b1480610927575061092782612dbc565b612150828261151b565b610a4d57612168816001600160a01b03166014612e0c565b612173836020612e0c565b604051602001612184929190614238565b60408051601f198184030181529082905262461bcd60e51b82526108f99160040161387e565b8051610a4d90606790602084019061359e565b81518351146121de5760405162461bcd60e51b81526004016108f9906142ad565b6001600160a01b0384166122045760405162461bcd60e51b81526004016108f9906142f5565b33612213818787878787612fa7565b60005b84518110156122fc57600085828151811061223357612233613fb5565b60200260200101519050600085838151811061225157612251613fb5565b60209081029190910181015160008481526065835260408082206001600160a01b038e1683529093529190912054909150818110156122a25760405162461bcd60e51b81526004016108f99061433a565b60008381526065602090815260408083206001600160a01b038e8116855292528083208585039055908b168252812080548492906122e1908490614384565b92505081905550505050806122f590613fe1565b9050612216565b50846001600160a01b0316866001600160a01b0316826001600160a01b03167f4a39dc06d4c0dbc64b70af90fd698a233a518aa5d07e595d983b8c0526c8f7fb878760405161234c92919061439c565b60405180910390a4612362818787878787612ffb565b505050505050565b612374828261151b565b610a4d57600082815260fb602090815260408083206001600160a01b03851684529091529020805460ff191660011790556123ac3390565b6001600160a01b0316816001600160a01b0316837f2f8788117e7eff1d82e926ec794901d17c78024a50270940304540a733656f0d60405160405180910390a45050565b6123fa828261151b565b15610a4d57600082815260fb602090815260408083206001600160a01b0385168085529252808320805460ff1916905551339285917ff6391f5c32d9c69d2a47ea670b442974b53935d1edc7fd64eb21e047a839171b9190a45050565b60c95460ff166124a05760405162461bcd60e51b815260206004820152601460248201527314185d5cd8589b194e881b9bdd081c185d5cd95960621b60448201526064016108f9565b60c9805460ff191690557f5db9ee0a495bf2e6ff9c91a7834c1ba4fdd244a5e8aa4e537bd38aeae4b073aa335b6040516001600160a01b03909116815260200160405180910390a1565b6001600160a01b0383166125105760405162461bcd60e51b81526004016108f9906143c1565b80518251146125315760405162461bcd60e51b81526004016108f9906142ad565b600033905061255481856000868660405180602001604052806000815250612fa7565b60005b835181101561261c57600084828151811061257457612574613fb5565b60200260200101519050600084838151811061259257612592613fb5565b60209081029190910181015160008481526065835260408082206001600160a01b038c1683529093529190912054909150818110156125e35760405162461bcd60e51b81526004016108f990614404565b60009283526065602090815260408085206001600160a01b038b168652909152909220910390558061261481613fe1565b915050612557565b5060006001600160a01b0316846001600160a01b0316826001600160a01b03167f4a39dc06d4c0dbc64b70af90fd698a233a518aa5d07e595d983b8c0526c8f7fb868660405161266d92919061439c565b60405180910390a450505050565b600054610100900460ff166126a25760405162461bcd60e51b81526004016108f990614448565b6126aa613156565b6126b2613156565b610cf38161317d565b600054610100900460ff166126e25760405162461bcd60e51b81526004016108f990614448565b6126ea613156565b6126f2613156565b6126fa613156565b565b600054610100900460ff166127235760405162461bcd60e51b81526004016108f990614448565b61272b613156565b6126fa6131ad565b60c95460ff16156127795760405162461bcd60e51b815260206004820152601060248201526f14185d5cd8589b194e881c185d5cd95960821b60448201526064016108f9565b60c9805460ff191660011790557f62e78cea01bee320cd4e420270b5ea74000d11b0c9f74754ebdbfc544b05a2586124cd3390565b816001600160a01b0316836001600160a01b0316036128215760405162461bcd60e51b815260206004820152602960248201527f455243313135353a2073657474696e6720617070726f76616c20737461747573604482015268103337b91039b2b63360b91b60648201526084016108f9565b6001600160a01b03838116600081815260666020908152604080832094871680845294825291829020805460ff191686151590811790915591519182527f17307eab39ab6107e8899845ad3d59bd9653f200f220920489ca2b5937696c31910160405180910390a3505050565b610c538383836040516024016128a693929190614493565b60408051601f198184030181529190526020810180516001600160e01b031663e3849f7960e01b1790526131e0565b6001600160a01b0384166129355760405162461bcd60e51b815260206004820152602160248201527f455243313135353a206d696e7420746f20746865207a65726f206164647265736044820152607360f81b60648201526084016108f9565b336129558160008761294688613201565b61294f88613201565b87612fa7565b60008481526065602090815260408083206001600160a01b038916845290915281208054859290612987908490614384565b909155505060408051858152602081018590526001600160a01b0380881692600092918516917fc3d58168c5ae7397731d063d5bbf3d657854427343f4c083240f7aacaa2d0f62910160405180910390a4610c268160008787878761324c565b600082815261016c602052604090208054612a0190613ffa565b159050612a205760405162461bcd60e51b81526004016108f990614106565b600082815261016c602090815260409091208251610c539284019061359e565b600082815261016d602052604090208054612a5a90613ffa565b159050612a795760405162461bcd60e51b81526004016108f990614106565b600082815261016d602090815260409091208251610c539284019061359e565b6000828152610172602090815260409091208251610c5392840190613622565b60408051808201909152600080825260208201526000612aeb8460000151856020015185600001518660200151613307565b9050836020015181612afd91906144c6565b8452509192915050565b80518251606091600091612b1b9190614384565b6001600160401b03811115612b3257612b3261373d565b6040519080825280601f01601f191660200182016040528015612b5c576020820181803683370190505b5090506000602082019050612b7a8186602001518760000151613418565b8451610e1790612b8a9083614384565b60208601518651613418565b6001600160a01b038416612bbc5760405162461bcd60e51b81526004016108f9906142f5565b33612bcc81878761294688613201565b60008481526065602090815260408083206001600160a01b038a16845290915290205483811015612c0f5760405162461bcd60e51b81526004016108f99061433a565b60008581526065602090815260408083206001600160a01b038b8116855292528083208785039055908816825281208054869290612c4e908490614384565b909155505060408051868152602081018690526001600160a01b03808916928a821692918616917fc3d58168c5ae7397731d063d5bbf3d657854427343f4c083240f7aacaa2d0f62910160405180910390a4612cae82888888888861324c565b50505050505050565b6001600160a01b038316612cdd5760405162461bcd60e51b81526004016108f9906143c1565b33612d0c81856000612cee87613201565b612cf787613201565b60405180602001604052806000815250612fa7565b60008381526065602090815260408083206001600160a01b038816845290915290205482811015612d4f5760405162461bcd60e51b81526004016108f990614404565b60008481526065602090815260408083206001600160a01b03898116808652918452828520888703905582518981529384018890529092908616917fc3d58168c5ae7397731d063d5bbf3d657854427343f4c083240f7aacaa2d0f62910160405180910390a45050505050565b60006001600160e01b03198216636cdb3d1360e11b1480612ded57506001600160e01b031982166303a24d0760e21b145b8061092757506301ffc9a760e01b6001600160e01b0319831614610927565b60606000612e1b8360026144dd565b612e26906002614384565b6001600160401b03811115612e3d57612e3d61373d565b6040519080825280601f01601f191660200182016040528015612e67576020820181803683370190505b509050600360fc1b81600081518110612e8257612e82613fb5565b60200101906001600160f81b031916908160001a905350600f60fb1b81600181518110612eb157612eb1613fb5565b60200101906001600160f81b031916908160001a9053506000612ed58460026144dd565b612ee0906001614384565b90505b6001811115612f58576f181899199a1a9b1b9c1cb0b131b232b360811b85600f1660108110612f1457612f14613fb5565b1a60f81b828281518110612f2a57612f2a613fb5565b60200101906001600160f81b031916908160001a90535060049490941c93612f51816144fc565b9050612ee3565b5083156109395760405162461bcd60e51b815260206004820181905260248201527f537472696e67733a20686578206c656e67746820696e73756666696369656e7460448201526064016108f9565b60c95460ff1615612fed5760405162461bcd60e51b815260206004820152601060248201526f14185d5cd8589b194e881c185d5cd95960821b60448201526064016108f9565b612362868686868686613492565b6001600160a01b0384163b156123625760405163bc197c8160e01b81526001600160a01b0385169063bc197c819061303f9089908990889088908890600401614513565b6020604051808303816000875af192505050801561307a575060408051601f3d908101601f1916820190925261307791810190614571565b60015b6131265761308661458e565b806308c379a0036130bf575061309a6145aa565b806130a557506130c1565b8060405162461bcd60e51b81526004016108f9919061387e565b505b60405162461bcd60e51b815260206004820152603460248201527f455243313135353a207472616e7366657220746f206e6f6e20455243313135356044820152732932b1b2b4bb32b91034b6b83632b6b2b73a32b960611b60648201526084016108f9565b6001600160e01b0319811663bc197c8160e01b14612cae5760405162461bcd60e51b81526004016108f990614633565b600054610100900460ff166126fa5760405162461bcd60e51b81526004016108f990614448565b600054610100900460ff166131a45760405162461bcd60e51b81526004016108f990614448565b610cf3816121aa565b600054610100900460ff166131d45760405162461bcd60e51b81526004016108f990614448565b60c9805460ff19169055565b80516a636f6e736f6c652e6c6f67602083016000808483855afa5050505050565b6040805160018082528183019092526060916000919060208083019080368337019050509050828160008151811061323b5761323b613fb5565b602090810291909101015292915050565b6001600160a01b0384163b156123625760405163f23a6e6160e01b81526001600160a01b0385169063f23a6e6190613290908990899088908890889060040161467b565b6020604051808303816000875af19250505080156132cb575060408051601f3d908101601f191682019092526132c891810190614571565b60015b6132d75761308661458e565b6001600160e01b0319811663f23a6e6160e01b14612cae5760405162461bcd60e51b81526004016108f990614633565b60008085841161340e57602084116133ba576000841561335257600161332e8660206144c6565b6133399060086144dd565b613344906002614799565b61334e91906144c6565b1990505b83518116856133618989614384565b61336b91906144c6565b805190935082165b8181146133a55787841161338d578794505050505061205a565b83613397816144fc565b945050828451169050613373565b6133af8785614384565b94505050505061205a565b8383206133c785886144c6565b6133d19087614384565b91505b85821061340c578482208082036133f9576133ef8684614384565b935050505061205a565b6134046001846144c6565b9250506133d4565b505b5092949350505050565b60208110613450578151835261342f602084614384565b925061343c602083614384565b91506134496020826144c6565b9050613418565b600019811561347f5760016134668360206144c6565b61347290610100614799565b61347c91906144c6565b90505b9151835183169219169190911790915250565b6001600160a01b0385166135195760005b8351811015613517578281815181106134be576134be613fb5565b6020026020010151609760008684815181106134dc576134dc613fb5565b6020026020010151815260200190815260200160002060008282546135019190614384565b90915550613510905081613fe1565b90506134a3565b505b6001600160a01b0384166123625760005b8351811015612cae5782818151811061354557613545613fb5565b60200260200101516097600086848151811061356357613563613fb5565b60200260200101518152602001908152602001600020600082825461358891906144c6565b90915550613597905081613fe1565b905061352a565b8280546135aa90613ffa565b90600052602060002090601f0160209004810192826135cc5760008555613612565b82601f106135e557805160ff1916838001178555613612565b82800160010185558215613612579182015b828111156136125782518255916020019190600101906135f7565b5061361e92915061365c565b5090565b82805482825590600052602060002090810192821561361257916020028201828111156136125782518255916020019190600101906135f7565b5b8082111561361e576000815560010161365d565b6001600160a01b0381168114610cf357600080fd5b8035610b8081613671565b600080604083850312156136a457600080fd5b82356136af81613671565b946020939093013593505050565b600080604083850312156136d057600080fd5b8235915060208301356136e281613671565b809150509250929050565b6001600160e01b031981168114610cf357600080fd5b60006020828403121561371557600080fd5b8135610939816136ed565b60006020828403121561373257600080fd5b813561093981613671565b634e487b7160e01b600052604160045260246000fd5b601f8201601f191681016001600160401b03811182821017156137785761377861373d565b6040525050565b600082601f83011261379057600080fd5b81356001600160401b038111156137a9576137a961373d565b6040516137c0601f8301601f191660200182613753565b8181528460208386010111156137d557600080fd5b816020850160208301376000918101602001919091529392505050565b60006020828403121561380457600080fd5b81356001600160401b0381111561381a57600080fd5b61205a8482850161377f565b60005b83811015613841578181015183820152602001613829565b83811115610e915750506000910152565b6000815180845261386a816020860160208601613826565b601f01601f19169290920160200192915050565b6020815260006109396020830184613852565b6000602082840312156138a357600080fd5b5035919050565b60006001600160401b038211156138c3576138c361373d565b5060051b60200190565b600082601f8301126138de57600080fd5b813560206138eb826138aa565b6040516138f88282613753565b83815260059390931b850182019282810191508684111561391857600080fd5b8286015b84811015613933578035835291830191830161391c565b509695505050505050565b600080600080600060a0868803121561395657600080fd5b853561396181613671565b9450602086013561397181613671565b935060408601356001600160401b038082111561398d57600080fd5b61399989838a016138cd565b945060608801359150808211156139af57600080fd5b6139bb89838a016138cd565b935060808801359150808211156139d157600080fd5b506139de8882890161377f565b9150509295509295909350565b634e487b7160e01b600052602160045260246000fd5b6020810160058310613a2357634e487b7160e01b600052602160045260246000fd5b91905290565b60008060408385031215613a3c57600080fd5b82356001600160401b0380821115613a5357600080fd5b818501915085601f830112613a6757600080fd5b81356020613a74826138aa565b604051613a818282613753565b83815260059390931b8501820192828101915089841115613aa157600080fd5b948201945b83861015613ac8578535613ab981613671565b82529482019490820190613aa6565b96505086013592505080821115613ade57600080fd5b50613aeb858286016138cd565b9150509250929050565b600081518084526020808501945080840160005b83811015613b2557815187529582019590820190600101613b09565b509495945050505050565b6020815260006109396020830184613af5565b60008060408385031215613b5657600080fd5b8235915060208301356001600160401b03811115613b7357600080fd5b613aeb8582860161377f565b600080600060608486031215613b9457600080fd5b8335613b9f81613671565b925060208401356001600160401b0380821115613bbb57600080fd5b613bc7878388016138cd565b93506040860135915080821115613bdd57600080fd5b50613bea868287016138cd565b9150509250925092565b60008060408385031215613c0757600080fd5b82356001600160401b03811115613c1d57600080fd5b613c298582860161377f565b92505060208301356136e281613671565b80358015158114610b8057600080fd5b60008060408385031215613c5d57600080fd5b8235613c6881613671565b9150613c7660208401613c3a565b90509250929050565b60008083601f840112613c9157600080fd5b5081356001600160401b03811115613ca857600080fd5b602083019150836020828501011115613cc057600080fd5b9250929050565b60008083601f840112613cd957600080fd5b5081356001600160401b03811115613cf057600080fd5b6020830191508360208260051b8501011115613cc057600080fd5b6000806000806000806000806000806000806101208d8f031215613d2e57600080fd5b613d378d613686565b9b5060208d01359a50613d4c60408e01613c3a565b9950613d5a60608e01613c3a565b9850613d6860808e01613c3a565b97506001600160401b0360a08e01351115613d8257600080fd5b613d928e60a08f01358f01613c7f565b90975095506001600160401b0360c08e01351115613daf57600080fd5b613dbf8e60c08f01358f01613c7f565b9095509350613dd060e08e01613c3a565b92506001600160401b036101008e01351115613deb57600080fd5b613dfc8e6101008f01358f01613cc7565b81935080925050509295989b509295989b509295989b565b60008060408385031215613e2757600080fd5b8235613e3281613671565b915060208301356136e281613671565b60008060008060808587031215613e5857600080fd5b8435613e6381613671565b966020860135965060408601359560600135945092505050565b600080600080600060a08688031215613e9557600080fd5b8535613ea081613671565b94506020860135613eb081613671565b9350604086013592506060860135915060808601356001600160401b03811115613ed957600080fd5b6139de8882890161377f565b600080600060608486031215613efa57600080fd5b8335613f0581613671565b95602085013595506040909401359392505050565b60006020808385031215613f2d57600080fd5b82516001600160401b03811115613f4357600080fd5b8301601f81018513613f5457600080fd5b8051613f5f816138aa565b604051613f6c8282613753565b82815260059290921b8301840191848101915087831115613f8c57600080fd5b928401925b82841015613faa57835182529284019290840190613f91565b979650505050505050565b634e487b7160e01b600052603260045260246000fd5b634e487b7160e01b600052601160045260246000fd5b600060018201613ff357613ff3613fcb565b5060010190565b600181811c9082168061400e57607f821691505b60208210810361402e57634e487b7160e01b600052602260045260246000fd5b50919050565b66697066733a2f2f60c81b8152600060076000845481600182811c91508083168061406057607f831692505b6020808410820361407f57634e487b7160e01b86526022600452602486fd5b81801561409357600181146140a8576140d9565b60ff1986168a890152848a01880196506140d9565b60008b81526020902060005b868110156140cf5781548c82018b01529085019083016140b4565b505087858b010196505b5050505050506140fd816d17b6b2ba30b230ba30973539b7b760911b8152600e0190565b95945050505050565b6020808252601a908201527f43616e6e6f74206d6f64696679206578697374696e6720757269000000000000604082015260600190565b60006020828403121561414f57600080fd5b5051919050565b60208082526029908201527f455243313135353a2063616c6c6572206973206e6f74206f776e6572206e6f7260408201526808185c1c1c9bdd995960ba1b606082015260800190565b600060208083850312156141b257600080fd5b82516001600160401b038111156141c857600080fd5b8301601f810185136141d957600080fd5b80516141e4816138aa565b6040516141f18282613753565b82815260059290921b830184019184810191508783111561421157600080fd5b928401925b82841015613faa57835161422981613671565b82529284019290840190614216565b7f416363657373436f6e74726f6c3a206163636f756e7420000000000000000000815260008351614270816017850160208801613826565b7001034b99036b4b9b9b4b733903937b6329607d1b60179184019182015283516142a1816028840160208801613826565b01602801949350505050565b60208082526028908201527f455243313135353a2069647320616e6420616d6f756e7473206c656e677468206040820152670dad2e6dac2e8c6d60c31b606082015260800190565b60208082526025908201527f455243313135353a207472616e7366657220746f20746865207a65726f206164604082015264647265737360d81b606082015260800190565b6020808252602a908201527f455243313135353a20696e73756666696369656e742062616c616e636520666f60408201526939103a3930b739b332b960b11b606082015260800190565b6000821982111561439757614397613fcb565b500190565b6040815260006143af6040830185613af5565b82810360208401526140fd8185613af5565b60208082526023908201527f455243313135353a206275726e2066726f6d20746865207a65726f206164647260408201526265737360e81b606082015260800190565b60208082526024908201527f455243313135353a206275726e20616d6f756e7420657863656564732062616c604082015263616e636560e01b606082015260800190565b6020808252602b908201527f496e697469616c697a61626c653a20636f6e7472616374206973206e6f74206960408201526a6e697469616c697a696e6760a81b606082015260800190565b6060815260006144a66060830186613852565b6020830194909452506001600160a01b0391909116604090910152919050565b6000828210156144d8576144d8613fcb565b500390565b60008160001904831182151516156144f7576144f7613fcb565b500290565b60008161450b5761450b613fcb565b506000190190565b6001600160a01b0386811682528516602082015260a06040820181905260009061453f90830186613af5565b82810360608401526145518186613af5565b905082810360808401526145658185613852565b98975050505050505050565b60006020828403121561458357600080fd5b8151610939816136ed565b600060033d11156145a75760046000803e5060005160e01c5b90565b600060443d10156145b85790565b6040516003193d81016004833e81513d6001600160401b0381602484011181841117156145e757505050505090565b82850191508151818111156145ff5750505050505090565b843d87010160208285010111156146195750505050505090565b61462860208286010187613753565b509095945050505050565b60208082526028908201527f455243313135353a204552433131353552656365697665722072656a656374656040820152676420746f6b656e7360c01b606082015260800190565b6001600160a01b03868116825285166020820152604081018490526060810183905260a060808201819052600090613faa90830184613852565b600181815b808511156146f05781600019048211156146d6576146d6613fcb565b808516156146e357918102915b93841c93908002906146ba565b509250929050565b60008261470757506001610927565b8161471457506000610927565b816001811461472a576002811461473457614750565b6001915050610927565b60ff84111561474557614745613fcb565b50506001821b610927565b5060208310610133831016604e8410600b8410161715614773575081810a610927565b61477d83836146b5565b806000190482111561479157614791613fcb565b029392505050565b600061093983836146f856feb19546dff01e856fb3f010c267a7b1c60363cf8a4664e21cc89c26224620214ea49807205ce4d355092ef5a8a18f56e8913cf4a201fbe287825b095693c21775a264697066735822122005cfd675ab2399e16fb14fbe5817036eea4bf1a59f1f90e81310a440af7a36ae64736f6c634300080d0033496e697469616c697a61626c653a20636f6e7472616374206973206e6f742069a2646970667358221220e8da8e2e703b06fe9bcf5871ecb442b0051ededa60c063dcbc62a248aded347f64736f6c634300080d0033496e697469616c697a61626c653a20636f6e7472616374206973206e6f742069",
    "sourcePath": "c:/Users/jorda/Desktop/Repos/reception/webapp/reception-app/contracts/PostFactory.sol",
    "compiler": {
        "name": "solc",
        "version": "0.8.13+commit.abaa5c0e"
    },
    "functionHashes": {
        "ADMIN_ROLE()": "75b238fc",
        "DEFAULT_ADMIN_ROLE()": "a217fddf",
        "createPostContract(string,uint256,address)": "e16db9a6",
        "getChannelPostContract(uint256)": "a7134e0e",
        "getRoleAdmin(bytes32)": "248a9ca3",
        "grantRole(bytes32,address)": "2f2ff15d",
        "hasRole(bytes32,address)": "91d14854",
        "initialize(address)": "c4d66de8",
        "paused()": "5c975abb",
        "renounceRole(bytes32,address)": "36568abe",
        "revokeRole(bytes32,address)": "d547741f",
        "supportsInterface(bytes4)": "01ffc9a7"
    },
    "gasEstimates": {
        "creation": {
            "codeDepositCost": "4920200",
            "executionCost": "infinite",
            "totalCost": "infinite"
        },
        "external": {
            "ADMIN_ROLE()": "306",
            "DEFAULT_ADMIN_ROLE()": "217",
            "createPostContract(string,uint256,address)": "infinite",
            "getChannelPostContract(uint256)": "4751",
            "getRoleAdmin(bytes32)": "2467",
            "grantRole(bytes32,address)": "infinite",
            "hasRole(bytes32,address)": "2653",
            "initialize(address)": "infinite",
            "paused()": "2382",
            "renounceRole(bytes32,address)": "29067",
            "revokeRole(bytes32,address)": "infinite",
            "supportsInterface(bytes4)": "427"
        }
    }
}