{
  "_format": "hh-sol-artifact-1",
  "contractName": "Memberships",
  "sourceName": "contracts/Memberships.sol",
  "abi": [
    {
      "inputs": [
        {
          "internalType": "string",
          "name": "tokenName",
          "type": "string"
        },
        {
          "internalType": "address",
          "name": "_ownerContract",
          "type": "address"
        },
        {
          "internalType": "address",
          "name": "_channelAddress",
          "type": "address"
        }
      ],
      "stateMutability": "nonpayable",
      "type": "constructor"
    },
    {
      "anonymous": false,
      "inputs": [
        {
          "indexed": true,
          "internalType": "address",
          "name": "account",
          "type": "address"
        },
        {
          "indexed": true,
          "internalType": "address",
          "name": "operator",
          "type": "address"
        },
        {
          "indexed": false,
          "internalType": "bool",
          "name": "approved",
          "type": "bool"
        }
      ],
      "name": "ApprovalForAll",
      "type": "event"
    },
    {
      "anonymous": false,
      "inputs": [
        {
          "indexed": false,
          "internalType": "address",
          "name": "sender",
          "type": "address"
        },
        {
          "indexed": false,
          "internalType": "uint256",
          "name": "tokenId",
          "type": "uint256"
        }
      ],
      "name": "NewMembershipMinted",
      "type": "event"
    },
    {
      "anonymous": false,
      "inputs": [
        {
          "indexed": false,
          "internalType": "address",
          "name": "sender",
          "type": "address"
        },
        {
          "indexed": false,
          "internalType": "uint256",
          "name": "tokenId",
          "type": "uint256"
        }
      ],
      "name": "NewMembershipTokenCreated",
      "type": "event"
    },
    {
      "anonymous": false,
      "inputs": [
        {
          "indexed": false,
          "internalType": "address",
          "name": "account",
          "type": "address"
        }
      ],
      "name": "Paused",
      "type": "event"
    },
    {
      "anonymous": false,
      "inputs": [
        {
          "indexed": true,
          "internalType": "bytes32",
          "name": "role",
          "type": "bytes32"
        },
        {
          "indexed": true,
          "internalType": "bytes32",
          "name": "previousAdminRole",
          "type": "bytes32"
        },
        {
          "indexed": true,
          "internalType": "bytes32",
          "name": "newAdminRole",
          "type": "bytes32"
        }
      ],
      "name": "RoleAdminChanged",
      "type": "event"
    },
    {
      "anonymous": false,
      "inputs": [
        {
          "indexed": true,
          "internalType": "bytes32",
          "name": "role",
          "type": "bytes32"
        },
        {
          "indexed": true,
          "internalType": "address",
          "name": "account",
          "type": "address"
        },
        {
          "indexed": true,
          "internalType": "address",
          "name": "sender",
          "type": "address"
        }
      ],
      "name": "RoleGranted",
      "type": "event"
    },
    {
      "anonymous": false,
      "inputs": [
        {
          "indexed": true,
          "internalType": "bytes32",
          "name": "role",
          "type": "bytes32"
        },
        {
          "indexed": true,
          "internalType": "address",
          "name": "account",
          "type": "address"
        },
        {
          "indexed": true,
          "internalType": "address",
          "name": "sender",
          "type": "address"
        }
      ],
      "name": "RoleRevoked",
      "type": "event"
    },
    {
      "anonymous": false,
      "inputs": [
        {
          "indexed": true,
          "internalType": "address",
          "name": "operator",
          "type": "address"
        },
        {
          "indexed": true,
          "internalType": "address",
          "name": "from",
          "type": "address"
        },
        {
          "indexed": true,
          "internalType": "address",
          "name": "to",
          "type": "address"
        },
        {
          "indexed": false,
          "internalType": "uint256[]",
          "name": "ids",
          "type": "uint256[]"
        },
        {
          "indexed": false,
          "internalType": "uint256[]",
          "name": "values",
          "type": "uint256[]"
        }
      ],
      "name": "TransferBatch",
      "type": "event"
    },
    {
      "anonymous": false,
      "inputs": [
        {
          "indexed": true,
          "internalType": "address",
          "name": "operator",
          "type": "address"
        },
        {
          "indexed": true,
          "internalType": "address",
          "name": "from",
          "type": "address"
        },
        {
          "indexed": true,
          "internalType": "address",
          "name": "to",
          "type": "address"
        },
        {
          "indexed": false,
          "internalType": "uint256",
          "name": "id",
          "type": "uint256"
        },
        {
          "indexed": false,
          "internalType": "uint256",
          "name": "value",
          "type": "uint256"
        }
      ],
      "name": "TransferSingle",
      "type": "event"
    },
    {
      "anonymous": false,
      "inputs": [
        {
          "indexed": false,
          "internalType": "string",
          "name": "value",
          "type": "string"
        },
        {
          "indexed": true,
          "internalType": "uint256",
          "name": "id",
          "type": "uint256"
        }
      ],
      "name": "URI",
      "type": "event"
    },
    {
      "anonymous": false,
      "inputs": [
        {
          "indexed": false,
          "internalType": "address",
          "name": "account",
          "type": "address"
        }
      ],
      "name": "Unpaused",
      "type": "event"
    },
    {
      "inputs": [],
      "name": "ADMIN_ROLE",
      "outputs": [
        {
          "internalType": "bytes32",
          "name": "",
          "type": "bytes32"
        }
      ],
      "stateMutability": "view",
      "type": "function"
    },
    {
      "inputs": [],
      "name": "DEFAULT_ADMIN_ROLE",
      "outputs": [
        {
          "internalType": "bytes32",
          "name": "",
          "type": "bytes32"
        }
      ],
      "stateMutability": "view",
      "type": "function"
    },
    {
      "inputs": [],
      "name": "OWNER_ROLE",
      "outputs": [
        {
          "internalType": "bytes32",
          "name": "",
          "type": "bytes32"
        }
      ],
      "stateMutability": "view",
      "type": "function"
    },
    {
      "inputs": [
        {
          "internalType": "uint256",
          "name": "",
          "type": "uint256"
        },
        {
          "internalType": "uint256",
          "name": "",
          "type": "uint256"
        }
      ],
      "name": "_channelMap",
      "outputs": [
        {
          "internalType": "uint256",
          "name": "",
          "type": "uint256"
        }
      ],
      "stateMutability": "view",
      "type": "function"
    },
    {
      "inputs": [
        {
          "internalType": "uint256",
          "name": "",
          "type": "uint256"
        },
        {
          "internalType": "uint256",
          "name": "",
          "type": "uint256"
        }
      ],
      "name": "_ownershipMap",
      "outputs": [
        {
          "internalType": "address",
          "name": "",
          "type": "address"
        }
      ],
      "stateMutability": "view",
      "type": "function"
    },
    {
      "inputs": [
        {
          "internalType": "address",
          "name": "account",
          "type": "address"
        },
        {
          "internalType": "uint256",
          "name": "id",
          "type": "uint256"
        }
      ],
      "name": "balanceOf",
      "outputs": [
        {
          "internalType": "uint256",
          "name": "",
          "type": "uint256"
        }
      ],
      "stateMutability": "view",
      "type": "function"
    },
    {
      "inputs": [
        {
          "internalType": "address[]",
          "name": "accounts",
          "type": "address[]"
        },
        {
          "internalType": "uint256[]",
          "name": "ids",
          "type": "uint256[]"
        }
      ],
      "name": "balanceOfBatch",
      "outputs": [
        {
          "internalType": "uint256[]",
          "name": "",
          "type": "uint256[]"
        }
      ],
      "stateMutability": "view",
      "type": "function"
    },
    {
      "inputs": [
        {
          "internalType": "address",
          "name": "account",
          "type": "address"
        },
        {
          "internalType": "uint256",
          "name": "id",
          "type": "uint256"
        },
        {
          "internalType": "uint256",
          "name": "value",
          "type": "uint256"
        }
      ],
      "name": "burn",
      "outputs": [],
      "stateMutability": "nonpayable",
      "type": "function"
    },
    {
      "inputs": [
        {
          "internalType": "address",
          "name": "account",
          "type": "address"
        },
        {
          "internalType": "uint256[]",
          "name": "ids",
          "type": "uint256[]"
        },
        {
          "internalType": "uint256[]",
          "name": "values",
          "type": "uint256[]"
        }
      ],
      "name": "burnBatch",
      "outputs": [],
      "stateMutability": "nonpayable",
      "type": "function"
    },
    {
      "inputs": [
        {
          "internalType": "uint256",
          "name": "id",
          "type": "uint256"
        }
      ],
      "name": "exists",
      "outputs": [
        {
          "internalType": "bool",
          "name": "",
          "type": "bool"
        }
      ],
      "stateMutability": "view",
      "type": "function"
    },
    {
      "inputs": [
        {
          "internalType": "uint256",
          "name": "tokenId",
          "type": "uint256"
        },
        {
          "internalType": "address",
          "name": "to",
          "type": "address"
        }
      ],
      "name": "getMembership",
      "outputs": [
        {
          "internalType": "uint256",
          "name": "",
          "type": "uint256"
        }
      ],
      "stateMutability": "view",
      "type": "function"
    },
    {
      "inputs": [
        {
          "internalType": "uint256",
          "name": "channel",
          "type": "uint256"
        }
      ],
      "name": "getMembershipList",
      "outputs": [
        {
          "internalType": "uint256[]",
          "name": "",
          "type": "uint256[]"
        }
      ],
      "stateMutability": "view",
      "type": "function"
    },
    {
      "inputs": [
        {
          "internalType": "uint256",
          "name": "tokenId",
          "type": "uint256"
        }
      ],
      "name": "getOwnershipMap",
      "outputs": [
        {
          "internalType": "address[]",
          "name": "",
          "type": "address[]"
        }
      ],
      "stateMutability": "view",
      "type": "function"
    },
    {
      "inputs": [
        {
          "internalType": "bytes32",
          "name": "role",
          "type": "bytes32"
        }
      ],
      "name": "getRoleAdmin",
      "outputs": [
        {
          "internalType": "bytes32",
          "name": "",
          "type": "bytes32"
        }
      ],
      "stateMutability": "view",
      "type": "function"
    },
    {
      "inputs": [],
      "name": "getTokenIndex",
      "outputs": [
        {
          "internalType": "uint256",
          "name": "",
          "type": "uint256"
        }
      ],
      "stateMutability": "view",
      "type": "function"
    },
    {
      "inputs": [
        {
          "internalType": "bytes32",
          "name": "role",
          "type": "bytes32"
        },
        {
          "internalType": "address",
          "name": "account",
          "type": "address"
        }
      ],
      "name": "grantRole",
      "outputs": [],
      "stateMutability": "nonpayable",
      "type": "function"
    },
    {
      "inputs": [
        {
          "internalType": "bytes32",
          "name": "role",
          "type": "bytes32"
        },
        {
          "internalType": "address",
          "name": "account",
          "type": "address"
        }
      ],
      "name": "hasRole",
      "outputs": [
        {
          "internalType": "bool",
          "name": "",
          "type": "bool"
        }
      ],
      "stateMutability": "view",
      "type": "function"
    },
    {
      "inputs": [
        {
          "internalType": "string",
          "name": "tokenName",
          "type": "string"
        },
        {
          "internalType": "address",
          "name": "_ownerContract",
          "type": "address"
        },
        {
          "internalType": "address",
          "name": "_channelAddress",
          "type": "address"
        }
      ],
      "name": "initialize",
      "outputs": [],
      "stateMutability": "nonpayable",
      "type": "function"
    },
    {
      "inputs": [
        {
          "internalType": "address",
          "name": "account",
          "type": "address"
        },
        {
          "internalType": "address",
          "name": "operator",
          "type": "address"
        }
      ],
      "name": "isApprovedForAll",
      "outputs": [
        {
          "internalType": "bool",
          "name": "",
          "type": "bool"
        }
      ],
      "stateMutability": "view",
      "type": "function"
    },
    {
      "inputs": [
        {
          "internalType": "uint256",
          "name": "membership",
          "type": "uint256"
        },
        {
          "internalType": "address",
          "name": "to",
          "type": "address"
        }
      ],
      "name": "membershipMint",
      "outputs": [],
      "stateMutability": "payable",
      "type": "function"
    },
    {
      "inputs": [
        {
          "internalType": "address",
          "name": "from",
          "type": "address"
        },
        {
          "internalType": "uint256",
          "name": "channel",
          "type": "uint256"
        },
        {
          "internalType": "uint256",
          "name": "cost",
          "type": "uint256"
        },
        {
          "internalType": "string",
          "name": "computedUri",
          "type": "string"
        }
      ],
      "name": "membershipTokenCreate",
      "outputs": [],
      "stateMutability": "nonpayable",
      "type": "function"
    },
    {
      "inputs": [],
      "name": "name",
      "outputs": [
        {
          "internalType": "string",
          "name": "",
          "type": "string"
        }
      ],
      "stateMutability": "view",
      "type": "function"
    },
    {
      "inputs": [],
      "name": "pause",
      "outputs": [],
      "stateMutability": "nonpayable",
      "type": "function"
    },
    {
      "inputs": [],
      "name": "paused",
      "outputs": [
        {
          "internalType": "bool",
          "name": "",
          "type": "bool"
        }
      ],
      "stateMutability": "view",
      "type": "function"
    },
    {
      "inputs": [
        {
          "internalType": "bytes32",
          "name": "role",
          "type": "bytes32"
        },
        {
          "internalType": "address",
          "name": "account",
          "type": "address"
        }
      ],
      "name": "renounceRole",
      "outputs": [],
      "stateMutability": "nonpayable",
      "type": "function"
    },
    {
      "inputs": [
        {
          "internalType": "bytes32",
          "name": "role",
          "type": "bytes32"
        },
        {
          "internalType": "address",
          "name": "account",
          "type": "address"
        }
      ],
      "name": "revokeRole",
      "outputs": [],
      "stateMutability": "nonpayable",
      "type": "function"
    },
    {
      "inputs": [
        {
          "internalType": "address",
          "name": "from",
          "type": "address"
        },
        {
          "internalType": "address",
          "name": "to",
          "type": "address"
        },
        {
          "internalType": "uint256[]",
          "name": "ids",
          "type": "uint256[]"
        },
        {
          "internalType": "uint256[]",
          "name": "amounts",
          "type": "uint256[]"
        },
        {
          "internalType": "bytes",
          "name": "data",
          "type": "bytes"
        }
      ],
      "name": "safeBatchTransferFrom",
      "outputs": [],
      "stateMutability": "nonpayable",
      "type": "function"
    },
    {
      "inputs": [
        {
          "internalType": "address",
          "name": "from",
          "type": "address"
        },
        {
          "internalType": "address",
          "name": "to",
          "type": "address"
        },
        {
          "internalType": "uint256",
          "name": "id",
          "type": "uint256"
        },
        {
          "internalType": "uint256",
          "name": "amount",
          "type": "uint256"
        },
        {
          "internalType": "bytes",
          "name": "data",
          "type": "bytes"
        }
      ],
      "name": "safeTransferFrom",
      "outputs": [],
      "stateMutability": "nonpayable",
      "type": "function"
    },
    {
      "inputs": [
        {
          "internalType": "address",
          "name": "operator",
          "type": "address"
        },
        {
          "internalType": "bool",
          "name": "approved",
          "type": "bool"
        }
      ],
      "name": "setApprovalForAll",
      "outputs": [],
      "stateMutability": "nonpayable",
      "type": "function"
    },
    {
      "inputs": [
        {
          "internalType": "address",
          "name": "_channelAddress",
          "type": "address"
        }
      ],
      "name": "setChannelsAddress",
      "outputs": [],
      "stateMutability": "nonpayable",
      "type": "function"
    },
    {
      "inputs": [
        {
          "internalType": "string",
          "name": "maxMember",
          "type": "string"
        }
      ],
      "name": "setMaxMemberships",
      "outputs": [],
      "stateMutability": "nonpayable",
      "type": "function"
    },
    {
      "inputs": [
        {
          "internalType": "uint256",
          "name": "tokenId",
          "type": "uint256"
        },
        {
          "internalType": "string",
          "name": "newUri",
          "type": "string"
        }
      ],
      "name": "setTokenUri",
      "outputs": [],
      "stateMutability": "nonpayable",
      "type": "function"
    },
    {
      "inputs": [
        {
          "internalType": "string",
          "name": "newuri",
          "type": "string"
        }
      ],
      "name": "setURI",
      "outputs": [],
      "stateMutability": "nonpayable",
      "type": "function"
    },
    {
      "inputs": [
        {
          "internalType": "bytes4",
          "name": "interfaceId",
          "type": "bytes4"
        }
      ],
      "name": "supportsInterface",
      "outputs": [
        {
          "internalType": "bool",
          "name": "",
          "type": "bool"
        }
      ],
      "stateMutability": "view",
      "type": "function"
    },
    {
      "inputs": [],
      "name": "symbol",
      "outputs": [
        {
          "internalType": "string",
          "name": "",
          "type": "string"
        }
      ],
      "stateMutability": "view",
      "type": "function"
    },
    {
      "inputs": [
        {
          "internalType": "uint256",
          "name": "id",
          "type": "uint256"
        }
      ],
      "name": "totalSupply",
      "outputs": [
        {
          "internalType": "uint256",
          "name": "",
          "type": "uint256"
        }
      ],
      "stateMutability": "view",
      "type": "function"
    },
    {
      "inputs": [
        {
          "internalType": "address",
          "name": "to",
          "type": "address"
        }
      ],
      "name": "transferOwnership",
      "outputs": [],
      "stateMutability": "nonpayable",
      "type": "function"
    },
    {
      "inputs": [],
      "name": "unpause",
      "outputs": [],
      "stateMutability": "nonpayable",
      "type": "function"
    },
    {
      "inputs": [
        {
          "internalType": "uint256",
          "name": "tokenId",
          "type": "uint256"
        }
      ],
      "name": "uri",
      "outputs": [
        {
          "internalType": "string",
          "name": "",
          "type": "string"
        }
      ],
      "stateMutability": "view",
      "type": "function"
    },
    {
      "inputs": [],
      "name": "withdrawBalance",
      "outputs": [],
      "stateMutability": "nonpayable",
      "type": "function"
    }
  ],
  "bytecode": "0x6080604052600a610169553480156200001757600080fd5b50604051620041cc380380620041cc8339810160408190526200003a916200054d565b600054610100900460ff16620000575760005460ff161562000061565b62000061620000d6565b620000895760405162461bcd60e51b8152600401620000809062000650565b60405180910390fd5b600054610100900460ff16158015620000ac576000805461ffff19166101011790555b620000b9848484620000f4565b8015620000cc576000805461ff00191690555b505050506200073c565b6000620000ee306200026660201b6200154b1760201c565b15905090565b600054610100900460ff16620001115760005460ff16156200011b565b6200011b620000d6565b6200013a5760405162461bcd60e51b8152600401620000809062000650565b600054610100900460ff161580156200015d576000805461ffff19166101011790555b62000168846200026c565b62000172620002b8565b6200017c620002b8565b6200018662000302565b62000190620002b8565b6200019d60003362000340565b620001b8600080516020620041ac8339815191523362000340565b620001d36000805160206200418c8339815191523362000340565b620001ee600080516020620041ac8339815191528462000340565b620002096000805160206200418c8339815191528462000340565b83516200021f9061015f9060208701906200048a565b5061016180546001600160a01b0384166001600160a01b0319918216811790925561016280549091169091179055801562000260576000805461ff00191690555b50505050565b3b151590565b600054610100900460ff16620002965760405162461bcd60e51b815260040162000080906200069e565b620002a0620003e5565b620002aa620003e5565b620002b5816200040f565b50565b600054610100900460ff16620002e25760405162461bcd60e51b815260040162000080906200069e565b620002ec620003e5565b620002f6620003e5565b62000300620003e5565b565b600054610100900460ff166200032c5760405162461bcd60e51b815260040162000080906200069e565b62000336620003e5565b6200030062000444565b600082815260fb602090815260408083206001600160a01b038516845290915290205460ff16620003e157600082815260fb602090815260408083206001600160a01b03851684529091529020805460ff19166001179055620003a03390565b6001600160a01b0316816001600160a01b0316837f2f8788117e7eff1d82e926ec794901d17c78024a50270940304540a733656f0d60405160405180910390a45b5050565b600054610100900460ff16620003005760405162461bcd60e51b815260040162000080906200069e565b600054610100900460ff16620004395760405162461bcd60e51b815260040162000080906200069e565b620002b5816200047a565b600054610100900460ff166200046e5760405162461bcd60e51b815260040162000080906200069e565b60c9805460ff19169055565b8051620003e19060679060208401905b8280546200049890620006e9565b90600052602060002090601f016020900481019282620004bc576000855562000507565b82601f10620004d757805160ff191683800117855562000507565b8280016001018555821562000507579182015b8281111562000507578251825591602001919060010190620004ea565b506200051592915062000519565b5090565b5b808211156200051557600081556001016200051a565b80516001600160a01b03811681146200054857600080fd5b919050565b6000806000606084860312156200056357600080fd5b83516001600160401b03808211156200057b57600080fd5b818601915086601f8301126200059057600080fd5b815181811115620005a557620005a562000726565b604051601f8201601f19908116603f01168101908382118183101715620005d057620005d062000726565b81604052828152602093508984848701011115620005ed57600080fd5b600091505b82821015620006115784820184015181830185015290830190620005f2565b82821115620006235760008484830101525b96506200063591505086820162000530565b93505050620006476040850162000530565b90509250925092565b6020808252602e908201527f496e697469616c697a61626c653a20636f6e747261637420697320616c72656160408201526d191e481a5b9a5d1a585b1a5e995960921b606082015260800190565b6020808252602b908201527f496e697469616c697a61626c653a20636f6e7472616374206973206e6f74206960408201526a6e697469616c697a696e6760a81b606082015260800190565b600181811c90821680620006fe57607f821691505b602082108114156200072057634e487b7160e01b600052602260045260246000fd5b50919050565b634e487b7160e01b600052604160045260246000fd5b613a40806200074c6000396000f3fe6080604052600436106101ca5760003560e01c8062fdd58e146101cf57806301ffc9a71461020257806302fe53051461023257806306fdde03146102545780630e89341c1461027657806311a2911614610296578063248a9ca3146102b6578063295d3ee8146102d65780632eb2c2d6146102eb5780632f2ff15d1461030b57806336568abe1461032b5780633f4ba83a1461034b578063463fd1af146103605780634e1273f4146103805780634f558e79146103ad57806357f7789e146103dc5780635c975abb146103fc5780635fd8c710146104145780636b20c454146104295780636cf9add51461044957806375b238fc146104765780637856d9e2146104985780638456cb59146104ab57806391d14854146104c0578063951bb35a146104e057806395d89b411461050d578063a217fddf14610522578063a22cb46514610537578063b9c08fd314610557578063bd85b03914610577578063c27855f6146105a4578063d466645e146105c4578063d547741f146105e4578063d644283614610604578063dc63205c14610624578063e58378bb14610644578063e985e9c514610666578063f242432a146106af578063f2fde38b146106cf578063f5298aca146106ef575b600080fd5b3480156101db57600080fd5b506101ef6101ea366004612da5565b61070f565b6040519081526020015b60405180910390f35b34801561020e57600080fd5b5061022261021d366004612f7f565b6107a8565b60405190151581526020016101f9565b34801561023e57600080fd5b5061025261024d366004612ffa565b6107b9565b005b34801561026057600080fd5b506102696107df565b6040516101f991906133f5565b34801561028257600080fd5b50610269610291366004612f41565b61086e565b3480156102a257600080fd5b506102526102b1366004612e06565b6108aa565b3480156102c257600080fd5b506101ef6102d1366004612f41565b610aaf565b3480156102e257600080fd5b506101ef610ac4565b3480156102f757600080fd5b50610252610306366004612be8565b610ad5565b34801561031757600080fd5b50610252610326366004612f5a565b610b6c565b34801561033757600080fd5b50610252610346366004612f5a565b610b8e565b34801561035757600080fd5b50610252610c08565b34801561036c57600080fd5b5061025261037b366004613036565b610c2c565b34801561038c57600080fd5b506103a061039b366004612e6f565b610dbe565b6040516101f991906133bd565b3480156103b957600080fd5b506102226103c8366004612f41565b600090815260976020526040902054151590565b3480156103e857600080fd5b506102526103f7366004613099565b610ee7565b34801561040857600080fd5b5060c95460ff16610222565b34801561042057600080fd5b50610252610f59565b34801561043557600080fd5b50610252610444366004612cfd565b610fde565b34801561045557600080fd5b506104696104643660046130d5565b611021565b6040516101f991906132a0565b34801561048257600080fd5b506101ef6000805160206139eb83398151915281565b6102526104a6366004612f5a565b61105a565b3480156104b757600080fd5b50610252611250565b3480156104cc57600080fd5b506102226104db366004612f5a565b611271565b3480156104ec57600080fd5b506105006104fb366004612f41565b61129c565b6040516101f99190613370565b34801561051957600080fd5b50610269611309565b34801561052e57600080fd5b506101ef600081565b34801561054357600080fd5b50610252610552366004612d72565b611317565b34801561056357600080fd5b506103a0610572366004612f41565b611322565b34801561058357600080fd5b506101ef610592366004612f41565b60009081526097602052604090205490565b3480156105b057600080fd5b506102526105bf366004612b75565b611384565b3480156105d057600080fd5b506102526105df366004612fb9565b6113cc565b3480156105f057600080fd5b506102526105ff366004612f5a565b611430565b34801561061057600080fd5b506101ef61061f366004612f5a565b61144d565b34801561063057600080fd5b506101ef61063f3660046130d5565b611460565b34801561065057600080fd5b506101ef6000805160206139cb83398151915281565b34801561067257600080fd5b50610222610681366004612baf565b6001600160a01b03918216600090815260666020908152604080832093909416825291909152205460ff1690565b3480156106bb57600080fd5b506102526106ca366004612c95565b611492565b3480156106db57600080fd5b506102526106ea366004612b75565b6114d7565b3480156106fb57600080fd5b5061025261070a366004612dd1565b611508565b60006001600160a01b0383166107805760405162461bcd60e51b815260206004820152602b60248201527f455243313135353a2062616c616e636520717565727920666f7220746865207a60448201526a65726f206164647265737360a81b60648201526084015b60405180910390fd5b5060009081526065602090815260408083206001600160a01b03949094168352929052205490565b60006107b382611551565b92915050565b6000805160206139eb8339815191526107d28133611576565b6107db826115da565b5050565b61015f80546107ed906137ca565b80601f0160208091040260200160405190810160405280929190818152602001828054610819906137ca565b80156108665780601f1061083b57610100808354040283529160200191610866565b820191906000526020600020905b81548152906001019060200180831161084957829003601f168201915b505050505081565b60606101646000838152602001908152602001600020604051602001610894919061315e565b6040516020818303038152906040529050919050565b6000805160206139cb8339815191526108c38133611576565b6101615461016280546001600160a01b0319166001600160a01b0390921691821790556040516331a9108f60e11b81526004810187905260009190636352211e9060240160206040518083038186803b15801561091f57600080fd5b505afa158015610933573d6000803e3d6000fd5b505050506040513d601f19601f820116820180604052508101906109579190612b92565b9050806001600160a01b0316876001600160a01b0316146109d65760405162461bcd60e51b815260206004820152603360248201527f596f75206d75737420626520746865206368616e6e656c206f776e657220746f60448201527220637265617465206d656d626572736869707360681b6064820152608401610777565b60006109e26101635490565b90506109f361016380546001019055565b60008781526101656020908152604080832080546001810182559084528284200184905583835261016782528083208990556101688252918290208990558151601f8701829004820281018201909252858252610a6c91839188908890819084018382808284376000920191909152506115ed92505050565b7fbbc2bd2c0eaa795a53fbbb48b3ad77f6e5719e4b44166a7945aa12e93fcf677f3382604051610a9d929190613357565b60405180910390a15050505050505050565b600090815260fb602052604090206001015490565b6000610ad06101635490565b905090565b6001600160a01b038516331480610af15750610af18533610681565b610b585760405162461bcd60e51b815260206004820152603260248201527f455243313135353a207472616e736665722063616c6c6572206973206e6f74206044820152711bdddb995c881b9bdc88185c1c1c9bdd995960721b6064820152608401610777565b610b658585858585611646565b5050505050565b610b7582610aaf565b610b7f8133611576565b610b8983836117e1565b505050565b6001600160a01b0381163314610bfe5760405162461bcd60e51b815260206004820152602f60248201527f416363657373436f6e74726f6c3a2063616e206f6e6c792072656e6f756e636560448201526e103937b632b9903337b91039b2b63360891b6064820152608401610777565b6107db8282611867565b6000805160206139cb833981519152610c218133611576565b610c296118ce565b50565b600054610100900460ff16610c475760005460ff1615610c4b565b303b155b610cae5760405162461bcd60e51b815260206004820152602e60248201527f496e697469616c697a61626c653a20636f6e747261637420697320616c72656160448201526d191e481a5b9a5d1a585b1a5e995960921b6064820152608401610777565b600054610100900460ff16158015610cd0576000805461ffff19166101011790555b610cd98461195b565b610ce161199b565b610ce961199b565b610cf16119dc565b610cf961199b565b610d046000336117e1565b610d1c6000805160206139eb833981519152336117e1565b610d346000805160206139cb833981519152336117e1565b610d4c6000805160206139eb833981519152846117e1565b610d646000805160206139cb833981519152846117e1565b8351610d789061015f9060208701906129aa565b5061016180546001600160a01b0384166001600160a01b03199182168117909255610162805490911690911790558015610db8576000805461ff00191690555b50505050565b60608151835114610e235760405162461bcd60e51b815260206004820152602960248201527f455243313135353a206163636f756e747320616e6420696473206c656e677468604482015268040dad2e6dac2e8c6d60bb1b6064820152608401610777565b600083516001600160401b03811115610e3e57610e3e6138a4565b604051908082528060200260200182016040528015610e67578160200160208202803683370190505b50905060005b8451811015610edf57610eb2858281518110610e8b57610e8b61388e565b6020026020010151858381518110610ea557610ea561388e565b602002602001015161070f565b828281518110610ec457610ec461388e565b6020908102919091010152610ed881613831565b9050610e6d565b509392505050565b6000805160206139cb833981519152610f008133611576565b6000838152610164602052604090208054610f1a906137ca565b159050610f395760405162461bcd60e51b815260040161077790613649565b6000838152610164602090815260409091208351610db8928501906129aa565b6000805160206139cb833981519152610f728133611576565b60405133904790600090839083908381818185875af1925050503d8060008114610fb8576040519150601f19603f3d011682016040523d82523d6000602084013e610fbd565b606091505b5050905080610db85760405162461bcd60e51b81526004016107779061367d565b6001600160a01b038316331480610ffa5750610ffa8333610681565b6110165760405162461bcd60e51b8152600401610777906134b9565b610b89838383611a13565b610166602052816000526040600020818154811061103e57600080fd5b6000918252602090912001546001600160a01b03169150829050565b600082815261016760205260409020543481106110a8576110a8604051806040016040528060148152602001736e6f7420656e6f756768206d6f6e65796261677360601b8152508234611b92565b803410156110ec5760405162461bcd60e51b815260206004820152601160248201527002737ba1032b737bab3b4101212101d141607d1b6044820152606401610777565b61016254600084815261016860205260408082205490516331a9108f60e11b815291926001600160a01b031691636352211e9161112f9160040190815260200190565b60206040518083038186803b15801561114757600080fd5b505afa15801561115b573d6000803e3d6000fd5b505050506040513d601f19601f8201168201806040525081019061117f9190612b92565b90506000816001600160a01b03163460405160006040518083038185875af1925050503d80600081146111ce576040519150601f19603f3d011682016040523d82523d6000602084013e6111d3565b606091505b50509050806111f45760405162461bcd60e51b81526004016107779061367d565b6112108486600160405180602001604052806000815250611bd9565b7ffe532499518ab958be1855c68f1cf6c3cd1ad50b40dcb9dfb1c5185da7511de78486604051611241929190613357565b60405180910390a15050505050565b6000805160206139cb8339815191526112698133611576565b610c29611cd9565b600091825260fb602090815260408084206001600160a01b0393909316845291905290205460ff1690565b600081815261016660209081526040918290208054835181840281018401909452808452606093928301828280156112fd57602002820191906000526020600020905b81546001600160a01b031681526001909101906020018083116112df575b50505050509050919050565b61016080546107ed906137ca565b6107db338383611d31565b600081815261016560209081526040918290208054835181840281018401909452808452606093928301828280156112fd57602002820191906000526020600020905b8154815260200190600101908083116113655750505050509050919050565b6000805160206139cb83398151915261139d8133611576565b5061016180546001600160a01b039092166001600160a01b031992831681179091556101628054909216179055565b6000805160206139cb8339815191526113e58133611576565b600061142684848080601f016020809104026020016040519081016040528093929190818152602001838380828437600092019190915250611e1292505050565b6101695550505050565b61143982610aaf565b6114438133611576565b610b898383611867565b6000611459828461070f565b9392505050565b610165602052816000526040600020818154811061147d57600080fd5b90600052602060002001600091509150505481565b6001600160a01b0385163314806114ae57506114ae8533610681565b6114ca5760405162461bcd60e51b8152600401610777906134b9565b610b658585858585611eec565b6000805160206139eb8339815191526114f08133611576565b6107db6000805160206139cb833981519152836117e1565b6001600160a01b03831633148061152457506115248333610681565b6115405760405162461bcd60e51b8152600401610777906134b9565b610b89838383611ffb565b3b151590565b60006001600160e01b03198216637965db0b60e01b14806107b357506107b3826120ee565b6115808282611271565b6107db57611598816001600160a01b0316601461213e565b6115a383602061213e565b6040516020016115b4929190613231565b60408051601f198184030181529082905262461bcd60e51b8252610777916004016133f5565b80516107db9060679060208401906129aa565b6000828152610164602052604090208054611607906137ca565b1590506116265760405162461bcd60e51b815260040161077790613649565b6000828152610164602090815260409091208251610b89928401906129aa565b81518351146116675760405162461bcd60e51b8152600401610777906136ab565b6001600160a01b03841661168d5760405162461bcd60e51b81526004016107779061352c565b3361169c8187878787876122d9565b60005b84518110156117855760008582815181106116bc576116bc61388e565b6020026020010151905060008583815181106116da576116da61388e565b60209081029190910181015160008481526065835260408082206001600160a01b038e16835290935291909120549091508181101561172b5760405162461bcd60e51b8152600401610777906135b4565b60008381526065602090815260408083206001600160a01b038e8116855292528083208585039055908b1682528120805484929061176a908490613716565b925050819055505050508061177e90613831565b905061169f565b50846001600160a01b0316866001600160a01b0316826001600160a01b031660008051602061398b83398151915287876040516117c39291906133d0565b60405180910390a46117d9818787878787612573565b505050505050565b6117eb8282611271565b6107db57600082815260fb602090815260408083206001600160a01b03851684529091529020805460ff191660011790556118233390565b6001600160a01b0316816001600160a01b0316837f2f8788117e7eff1d82e926ec794901d17c78024a50270940304540a733656f0d60405160405180910390a45050565b6118718282611271565b156107db57600082815260fb602090815260408083206001600160a01b0385168085529252808320805460ff1916905551339285917ff6391f5c32d9c69d2a47ea670b442974b53935d1edc7fd64eb21e047a839171b9190a45050565b60c95460ff166119175760405162461bcd60e51b815260206004820152601460248201527314185d5cd8589b194e881b9bdd081c185d5cd95960621b6044820152606401610777565b60c9805460ff191690557f5db9ee0a495bf2e6ff9c91a7834c1ba4fdd244a5e8aa4e537bd38aeae4b073aa335b60405161195191906132a0565b60405180910390a1565b600054610100900460ff166119825760405162461bcd60e51b8152600401610777906135fe565b61198a6126de565b6119926126de565b610c2981612705565b600054610100900460ff166119c25760405162461bcd60e51b8152600401610777906135fe565b6119ca6126de565b6119d26126de565b6119da6126de565b565b600054610100900460ff16611a035760405162461bcd60e51b8152600401610777906135fe565b611a0b6126de565b6119da612735565b6001600160a01b038316611a395760405162461bcd60e51b815260040161077790613571565b8051825114611a5a5760405162461bcd60e51b8152600401610777906136ab565b6000339050611a7d818560008686604051806020016040528060008152506122d9565b60005b8351811015611b45576000848281518110611a9d57611a9d61388e565b602002602001015190506000848381518110611abb57611abb61388e565b60209081029190910181015160008481526065835260408082206001600160a01b038c168352909352919091205490915081811015611b0c5760405162461bcd60e51b815260040161077790613475565b60009283526065602090815260408085206001600160a01b038b1686529091529092209103905580611b3d81613831565b915050611a80565b5060006001600160a01b0316846001600160a01b0316826001600160a01b031660008051602061398b8339815191528686604051611b849291906133d0565b60405180910390a450505050565b610b89838383604051602401611baa93929190613408565b60408051601f198184030181529190526020810180516001600160e01b031663969cdd0360e01b179052612768565b6001600160a01b038416611c395760405162461bcd60e51b815260206004820152602160248201527f455243313135353a206d696e7420746f20746865207a65726f206164647265736044820152607360f81b6064820152608401610777565b33611c5981600087611c4a88612789565b611c5388612789565b876122d9565b60008481526065602090815260408083206001600160a01b038916845290915281208054859290611c8b908490613716565b909155505060408051858152602081018590526001600160a01b0380881692600092918516916000805160206139ab833981519152910160405180910390a4610b65816000878787876127d4565b60c95460ff1615611cfc5760405162461bcd60e51b815260040161077790613502565b60c9805460ff191660011790557f62e78cea01bee320cd4e420270b5ea74000d11b0c9f74754ebdbfc544b05a2586119443390565b816001600160a01b0316836001600160a01b03161415611da55760405162461bcd60e51b815260206004820152602960248201527f455243313135353a2073657474696e6720617070726f76616c20737461747573604482015268103337b91039b2b63360b91b6064820152608401610777565b6001600160a01b03838116600081815260666020908152604080832094871680845294825291829020805460ff191686151590811790915591519182527f17307eab39ab6107e8899845ad3d59bd9653f200f220920489ca2b5937696c31910160405180910390a3505050565b805160009082906001908390611e2990839061374d565b90505b8251811015611ee4576030838281518110611e4957611e4961388e565b016020015160f81c10801590611e7957506039838281518110611e6e57611e6e61388e565b016020015160f81c11155b611e8557611e8561384c565b816030848381518110611e9a57611e9a61388e565b0160200151611eac919060f81c613764565b60ff16611eb9919061372e565b611ec39085613716565b9350611ed0600a8361372e565b915080611edc816137b3565b915050611e2c565b505050919050565b6001600160a01b038416611f125760405162461bcd60e51b81526004016107779061352c565b33611f22818787611c4a88612789565b60008481526065602090815260408083206001600160a01b038a16845290915290205483811015611f655760405162461bcd60e51b8152600401610777906135b4565b60008581526065602090815260408083206001600160a01b038b8116855292528083208785039055908816825281208054869290611fa4908490613716565b909155505060408051868152602081018690526001600160a01b03808916928a821692918616916000805160206139ab833981519152910160405180910390a4611ff28288888888886127d4565b50505050505050565b6001600160a01b0383166120215760405162461bcd60e51b815260040161077790613571565b336120508185600061203287612789565b61203b87612789565b604051806020016040528060008152506122d9565b60008381526065602090815260408083206001600160a01b0388168452909152902054828110156120935760405162461bcd60e51b815260040161077790613475565b60008481526065602090815260408083206001600160a01b03898116808652918452828520888703905582518981529384018890529092908616916000805160206139ab833981519152910160405180910390a45050505050565b60006001600160e01b03198216636cdb3d1360e11b148061211f57506001600160e01b031982166303a24d0760e21b145b806107b357506301ffc9a760e01b6001600160e01b03198316146107b3565b6060600061214d83600261372e565b612158906002613716565b6001600160401b0381111561216f5761216f6138a4565b6040519080825280601f01601f191660200182016040528015612199576020820181803683370190505b509050600360fc1b816000815181106121b4576121b461388e565b60200101906001600160f81b031916908160001a905350600f60fb1b816001815181106121e3576121e361388e565b60200101906001600160f81b031916908160001a905350600061220784600261372e565b612212906001613716565b90505b600181111561228a576f181899199a1a9b1b9c1cb0b131b232b360811b85600f16601081106122465761224661388e565b1a60f81b82828151811061225c5761225c61388e565b60200101906001600160f81b031916908160001a90535060049490941c93612283816137b3565b9050612215565b5083156114595760405162461bcd60e51b815260206004820181905260248201527f537472696e67733a20686578206c656e67746820696e73756666696369656e746044820152606401610777565b60c95460ff16156122fc5760405162461bcd60e51b815260040161077790613502565b60005b83518110156125645760005b61016660008684815181106123225761232261388e565b602002602001015181526020019081526020016000208054905081101561251957866001600160a01b031661016660008785815181106123645761236461388e565b60200260200101518152602001908152602001600020828154811061238b5761238b61388e565b6000918252602090912001546001600160a01b031614156125075761016660008684815181106123bd576123bd61388e565b60200260200101518152602001908152602001600020600161016660008886815181106123ec576123ec61388e565b6020026020010151815260200190815260200160002080549050612410919061374d565b815481106124205761242061388e565b600091825260208220015486516001600160a01b03909116916101669188908690811061244f5761244f61388e565b6020026020010151815260200190815260200160002082815481106124765761247661388e565b9060005260206000200160006101000a8154816001600160a01b0302191690836001600160a01b0316021790555061016660008684815181106124bb576124bb61388e565b602002602001015181526020019081526020016000208054806124e0576124e0613878565b600082815260209020810160001990810180546001600160a01b0319169055019055612519565b8061251181613831565b91505061230b565b506000818152610166602090815260408220805460018101825590835291200180546001600160a01b0319166001600160a01b0387161790558061255c81613831565b9150506122ff565b506117d986868686868661289e565b6001600160a01b0384163b156117d95760405163bc197c8160e01b81526001600160a01b0385169063bc197c81906125b790899089908890889088906004016132b4565b602060405180830381600087803b1580156125d157600080fd5b505af1925050508015612601575060408051601f3d908101601f191682019092526125fe91810190612f9c565b60015b6126ae5761260d6138ba565b806308c379a0141561264757506126226138d6565b8061262d5750612649565b8060405162461bcd60e51b815260040161077791906133f5565b505b60405162461bcd60e51b815260206004820152603460248201527f455243313135353a207472616e7366657220746f206e6f6e20455243313135356044820152732932b1b2b4bb32b91034b6b83632b6b2b73a32b960611b6064820152608401610777565b6001600160e01b0319811663bc197c8160e01b14611ff25760405162461bcd60e51b81526004016107779061342d565b600054610100900460ff166119da5760405162461bcd60e51b8152600401610777906135fe565b600054610100900460ff1661272c5760405162461bcd60e51b8152600401610777906135fe565b610c29816115da565b600054610100900460ff1661275c5760405162461bcd60e51b8152600401610777906135fe565b60c9805460ff19169055565b80516a636f6e736f6c652e6c6f67602083016000808483855afa5050505050565b604080516001808252818301909252606091600091906020808301908036833701905050905082816000815181106127c3576127c361388e565b602090810291909101015292915050565b6001600160a01b0384163b156117d95760405163f23a6e6160e01b81526001600160a01b0385169063f23a6e61906128189089908990889088908890600401613312565b602060405180830381600087803b15801561283257600080fd5b505af1925050508015612862575060408051601f3d908101601f1916820190925261285f91810190612f9c565b60015b61286e5761260d6138ba565b6001600160e01b0319811663f23a6e6160e01b14611ff25760405162461bcd60e51b81526004016107779061342d565b6001600160a01b0385166129255760005b8351811015612923578281815181106128ca576128ca61388e565b6020026020010151609760008684815181106128e8576128e861388e565b60200260200101518152602001908152602001600020600082825461290d9190613716565b9091555061291c905081613831565b90506128af565b505b6001600160a01b0384166117d95760005b8351811015611ff2578281815181106129515761295161388e565b60200260200101516097600086848151811061296f5761296f61388e565b602002602001015181526020019081526020016000206000828254612994919061374d565b909155506129a3905081613831565b9050612936565b8280546129b6906137ca565b90600052602060002090601f0160209004810192826129d85760008555612a1e565b82601f106129f157805160ff1916838001178555612a1e565b82800160010185558215612a1e579182015b82811115612a1e578251825591602001919060010190612a03565b50612a2a929150612a2e565b5090565b5b80821115612a2a5760008155600101612a2f565b600082601f830112612a5457600080fd5b81356020612a61826136f3565b604051612a6e8282613805565b8381528281019150858301600585901b87018401881015612a8e57600080fd5b60005b85811015612aad57813584529284019290840190600101612a91565b5090979650505050505050565b600082601f830112612acb57600080fd5b81356001600160401b03811115612ae457612ae46138a4565b604051612afb601f8301601f191660200182613805565b818152846020838601011115612b1057600080fd5b816020850160208301376000918101602001919091529392505050565b60008083601f840112612b3f57600080fd5b5081356001600160401b03811115612b5657600080fd5b602083019150836020828501011115612b6e57600080fd5b9250929050565b600060208284031215612b8757600080fd5b81356114598161395f565b600060208284031215612ba457600080fd5b81516114598161395f565b60008060408385031215612bc257600080fd5b8235612bcd8161395f565b91506020830135612bdd8161395f565b809150509250929050565b600080600080600060a08688031215612c0057600080fd5b8535612c0b8161395f565b94506020860135612c1b8161395f565b935060408601356001600160401b0380821115612c3757600080fd5b612c4389838a01612a43565b94506060880135915080821115612c5957600080fd5b612c6589838a01612a43565b93506080880135915080821115612c7b57600080fd5b50612c8888828901612aba565b9150509295509295909350565b600080600080600060a08688031215612cad57600080fd5b8535612cb88161395f565b94506020860135612cc88161395f565b9350604086013592506060860135915060808601356001600160401b03811115612cf157600080fd5b612c8888828901612aba565b600080600060608486031215612d1257600080fd5b8335612d1d8161395f565b925060208401356001600160401b0380821115612d3957600080fd5b612d4587838801612a43565b93506040860135915080821115612d5b57600080fd5b50612d6886828701612a43565b9150509250925092565b60008060408385031215612d8557600080fd5b8235612d908161395f565b915060208301358015158114612bdd57600080fd5b60008060408385031215612db857600080fd5b8235612dc38161395f565b946020939093013593505050565b600080600060608486031215612de657600080fd5b8335612df18161395f565b95602085013595506040909401359392505050565b600080600080600060808688031215612e1e57600080fd5b8535612e298161395f565b9450602086013593506040860135925060608601356001600160401b03811115612e5257600080fd5b612e5e88828901612b2d565b969995985093965092949392505050565b60008060408385031215612e8257600080fd5b82356001600160401b0380821115612e9957600080fd5b818501915085601f830112612ead57600080fd5b81356020612eba826136f3565b604051612ec78282613805565b8381528281019150858301600585901b870184018b1015612ee757600080fd5b600096505b84871015612f13578035612eff8161395f565b835260019690960195918301918301612eec565b5096505086013592505080821115612f2a57600080fd5b50612f3785828601612a43565b9150509250929050565b600060208284031215612f5357600080fd5b5035919050565b60008060408385031215612f6d57600080fd5b823591506020830135612bdd8161395f565b600060208284031215612f9157600080fd5b813561145981613974565b600060208284031215612fae57600080fd5b815161145981613974565b60008060208385031215612fcc57600080fd5b82356001600160401b03811115612fe257600080fd5b612fee85828601612b2d565b90969095509350505050565b60006020828403121561300c57600080fd5b81356001600160401b0381111561302257600080fd5b61302e84828501612aba565b949350505050565b60008060006060848603121561304b57600080fd5b83356001600160401b0381111561306157600080fd5b61306d86828701612aba565b935050602084013561307e8161395f565b9150604084013561308e8161395f565b809150509250925092565b600080604083850312156130ac57600080fd5b8235915060208301356001600160401b038111156130c957600080fd5b612f3785828601612aba565b600080604083850312156130e857600080fd5b50508035926020909101359150565b600081518084526020808501945080840160005b838110156131275781518752958201959082019060010161310b565b509495945050505050565b6000815180845261314a816020860160208601613787565b601f01601f19169290920160200192915050565b66697066733a2f2f60c81b8152600060076000845481600182811c91508083168061318a57607f831692505b60208084108214156131aa57634e487b7160e01b86526022600452602486fd5b8180156131be57600181146131d357613204565b60ff1986168a890152848a0188019650613204565b60008b81526020902060005b868110156131fa5781548c82018b01529085019083016131df565b505087858b010196505b505050505050613228816d17b6b2ba30b230ba30973539b7b760911b8152600e0190565b95945050505050565b76020b1b1b2b9b9a1b7b73a3937b61d1030b1b1b7bab73a1604d1b815260008351613263816017850160208801613787565b7001034b99036b4b9b9b4b733903937b6329607d1b6017918401918201528351613294816028840160208801613787565b01602801949350505050565b6001600160a01b0391909116815260200190565b6001600160a01b0386811682528516602082015260a0604082018190526000906132e0908301866130f7565b82810360608401526132f281866130f7565b905082810360808401526133068185613132565b98975050505050505050565b6001600160a01b03868116825285166020820152604081018490526060810183905260a06080820181905260009061334c90830184613132565b979650505050505050565b6001600160a01b03929092168252602082015260400190565b6020808252825182820181905260009190848201906040850190845b818110156133b15783516001600160a01b03168352928401929184019160010161338c565b50909695505050505050565b60208152600061145960208301846130f7565b6040815260006133e360408301856130f7565b828103602084015261322881856130f7565b6020815260006114596020830184613132565b60608152600061341b6060830186613132565b60208301949094525060400152919050565b60208082526028908201527f455243313135353a204552433131353552656365697665722072656a656374656040820152676420746f6b656e7360c01b606082015260800190565b60208082526024908201527f455243313135353a206275726e20616d6f756e7420657863656564732062616c604082015263616e636560e01b606082015260800190565b60208082526029908201527f455243313135353a2063616c6c6572206973206e6f74206f776e6572206e6f7260408201526808185c1c1c9bdd995960ba1b606082015260800190565b60208082526010908201526f14185d5cd8589b194e881c185d5cd95960821b604082015260600190565b60208082526025908201527f455243313135353a207472616e7366657220746f20746865207a65726f206164604082015264647265737360d81b606082015260800190565b60208082526023908201527f455243313135353a206275726e2066726f6d20746865207a65726f206164647260408201526265737360e81b606082015260800190565b6020808252602a908201527f455243313135353a20696e73756666696369656e742062616c616e636520666f60408201526939103a3930b739b332b960b11b606082015260800190565b6020808252602b908201527f496e697469616c697a61626c653a20636f6e7472616374206973206e6f74206960408201526a6e697469616c697a696e6760a81b606082015260800190565b6020808252601a908201527943616e6e6f74206d6f64696679206578697374696e672075726960301b604082015260600190565b6020808252601490820152734661696c656420746f2073656e64204d4154494360601b604082015260600190565b60208082526028908201527f455243313135353a2069647320616e6420616d6f756e7473206c656e677468206040820152670dad2e6dac2e8c6d60c31b606082015260800190565b60006001600160401b0382111561370c5761370c6138a4565b5060051b60200190565b6000821982111561372957613729613862565b500190565b600081600019048311821515161561374857613748613862565b500290565b60008282101561375f5761375f613862565b500390565b600060ff821660ff84168082101561377e5761377e613862565b90039392505050565b60005b838110156137a257818101518382015260200161378a565b83811115610db85750506000910152565b6000816137c2576137c2613862565b506000190190565b600181811c908216806137de57607f821691505b602082108114156137ff57634e487b7160e01b600052602260045260246000fd5b50919050565b601f8201601f191681016001600160401b038111828210171561382a5761382a6138a4565b6040525050565b600060001982141561384557613845613862565b5060010190565b634e487b7160e01b600052600160045260246000fd5b634e487b7160e01b600052601160045260246000fd5b634e487b7160e01b600052603160045260246000fd5b634e487b7160e01b600052603260045260246000fd5b634e487b7160e01b600052604160045260246000fd5b600060033d11156138d35760046000803e5060005160e01c5b90565b600060443d10156138e45790565b6040516003193d81016004833e81513d6001600160401b03808311602484018310171561391357505050505090565b828501915081518181111561392b5750505050505090565b843d87010160208285010111156139455750505050505090565b61395460208286010187613805565b509095945050505050565b6001600160a01b0381168114610c2957600080fd5b6001600160e01b031981168114610c2957600080fdfe4a39dc06d4c0dbc64b70af90fd698a233a518aa5d07e595d983b8c0526c8f7fbc3d58168c5ae7397731d063d5bbf3d657854427343f4c083240f7aacaa2d0f62b19546dff01e856fb3f010c267a7b1c60363cf8a4664e21cc89c26224620214ea49807205ce4d355092ef5a8a18f56e8913cf4a201fbe287825b095693c21775a26469706673582212201a07859548498dd8e04ede7187f38c1e5f8c46efb5c7c40c4c5b373e1109b13164736f6c63430008070033b19546dff01e856fb3f010c267a7b1c60363cf8a4664e21cc89c26224620214ea49807205ce4d355092ef5a8a18f56e8913cf4a201fbe287825b095693c21775",
  "linkReferences": {},
  "deployedLinkReferences": {}
}