{
  "_format": "hh-sol-artifact-1",
  "contractName": "Memberships",
  "sourceName": "contracts/Memberships.sol",
  "abi": [
    {
      "inputs": [
        {
          "internalType": "string",
          "name": "tokenName",
          "type": "string"
        },
        {
          "internalType": "address",
          "name": "_ownerContract",
          "type": "address"
        },
        {
          "internalType": "address",
          "name": "_channelAddress",
          "type": "address"
        }
      ],
      "stateMutability": "nonpayable",
      "type": "constructor"
    },
    {
      "anonymous": false,
      "inputs": [
        {
          "indexed": true,
          "internalType": "address",
          "name": "account",
          "type": "address"
        },
        {
          "indexed": true,
          "internalType": "address",
          "name": "operator",
          "type": "address"
        },
        {
          "indexed": false,
          "internalType": "bool",
          "name": "approved",
          "type": "bool"
        }
      ],
      "name": "ApprovalForAll",
      "type": "event"
    },
    {
      "anonymous": false,
      "inputs": [
        {
          "indexed": false,
          "internalType": "address",
          "name": "sender",
          "type": "address"
        },
        {
          "indexed": false,
          "internalType": "uint256",
          "name": "tokenId",
          "type": "uint256"
        }
      ],
      "name": "NewMembershipMinted",
      "type": "event"
    },
    {
      "anonymous": false,
      "inputs": [
        {
          "indexed": false,
          "internalType": "address",
          "name": "sender",
          "type": "address"
        },
        {
          "indexed": false,
          "internalType": "uint256",
          "name": "tokenId",
          "type": "uint256"
        }
      ],
      "name": "NewMembershipTokenCreated",
      "type": "event"
    },
    {
      "anonymous": false,
      "inputs": [
        {
          "indexed": false,
          "internalType": "address",
          "name": "account",
          "type": "address"
        }
      ],
      "name": "Paused",
      "type": "event"
    },
    {
      "anonymous": false,
      "inputs": [
        {
          "indexed": true,
          "internalType": "bytes32",
          "name": "role",
          "type": "bytes32"
        },
        {
          "indexed": true,
          "internalType": "bytes32",
          "name": "previousAdminRole",
          "type": "bytes32"
        },
        {
          "indexed": true,
          "internalType": "bytes32",
          "name": "newAdminRole",
          "type": "bytes32"
        }
      ],
      "name": "RoleAdminChanged",
      "type": "event"
    },
    {
      "anonymous": false,
      "inputs": [
        {
          "indexed": true,
          "internalType": "bytes32",
          "name": "role",
          "type": "bytes32"
        },
        {
          "indexed": true,
          "internalType": "address",
          "name": "account",
          "type": "address"
        },
        {
          "indexed": true,
          "internalType": "address",
          "name": "sender",
          "type": "address"
        }
      ],
      "name": "RoleGranted",
      "type": "event"
    },
    {
      "anonymous": false,
      "inputs": [
        {
          "indexed": true,
          "internalType": "bytes32",
          "name": "role",
          "type": "bytes32"
        },
        {
          "indexed": true,
          "internalType": "address",
          "name": "account",
          "type": "address"
        },
        {
          "indexed": true,
          "internalType": "address",
          "name": "sender",
          "type": "address"
        }
      ],
      "name": "RoleRevoked",
      "type": "event"
    },
    {
      "anonymous": false,
      "inputs": [
        {
          "indexed": true,
          "internalType": "address",
          "name": "operator",
          "type": "address"
        },
        {
          "indexed": true,
          "internalType": "address",
          "name": "from",
          "type": "address"
        },
        {
          "indexed": true,
          "internalType": "address",
          "name": "to",
          "type": "address"
        },
        {
          "indexed": false,
          "internalType": "uint256[]",
          "name": "ids",
          "type": "uint256[]"
        },
        {
          "indexed": false,
          "internalType": "uint256[]",
          "name": "values",
          "type": "uint256[]"
        }
      ],
      "name": "TransferBatch",
      "type": "event"
    },
    {
      "anonymous": false,
      "inputs": [
        {
          "indexed": true,
          "internalType": "address",
          "name": "operator",
          "type": "address"
        },
        {
          "indexed": true,
          "internalType": "address",
          "name": "from",
          "type": "address"
        },
        {
          "indexed": true,
          "internalType": "address",
          "name": "to",
          "type": "address"
        },
        {
          "indexed": false,
          "internalType": "uint256",
          "name": "id",
          "type": "uint256"
        },
        {
          "indexed": false,
          "internalType": "uint256",
          "name": "value",
          "type": "uint256"
        }
      ],
      "name": "TransferSingle",
      "type": "event"
    },
    {
      "anonymous": false,
      "inputs": [
        {
          "indexed": false,
          "internalType": "string",
          "name": "value",
          "type": "string"
        },
        {
          "indexed": true,
          "internalType": "uint256",
          "name": "id",
          "type": "uint256"
        }
      ],
      "name": "URI",
      "type": "event"
    },
    {
      "anonymous": false,
      "inputs": [
        {
          "indexed": false,
          "internalType": "address",
          "name": "account",
          "type": "address"
        }
      ],
      "name": "Unpaused",
      "type": "event"
    },
    {
      "inputs": [],
      "name": "ADMIN_ROLE",
      "outputs": [
        {
          "internalType": "bytes32",
          "name": "",
          "type": "bytes32"
        }
      ],
      "stateMutability": "view",
      "type": "function"
    },
    {
      "inputs": [],
      "name": "DEFAULT_ADMIN_ROLE",
      "outputs": [
        {
          "internalType": "bytes32",
          "name": "",
          "type": "bytes32"
        }
      ],
      "stateMutability": "view",
      "type": "function"
    },
    {
      "inputs": [],
      "name": "OWNER_ROLE",
      "outputs": [
        {
          "internalType": "bytes32",
          "name": "",
          "type": "bytes32"
        }
      ],
      "stateMutability": "view",
      "type": "function"
    },
    {
      "inputs": [
        {
          "internalType": "address",
          "name": "account",
          "type": "address"
        },
        {
          "internalType": "uint256",
          "name": "id",
          "type": "uint256"
        }
      ],
      "name": "balanceOf",
      "outputs": [
        {
          "internalType": "uint256",
          "name": "",
          "type": "uint256"
        }
      ],
      "stateMutability": "view",
      "type": "function"
    },
    {
      "inputs": [
        {
          "internalType": "address[]",
          "name": "accounts",
          "type": "address[]"
        },
        {
          "internalType": "uint256[]",
          "name": "ids",
          "type": "uint256[]"
        }
      ],
      "name": "balanceOfBatch",
      "outputs": [
        {
          "internalType": "uint256[]",
          "name": "",
          "type": "uint256[]"
        }
      ],
      "stateMutability": "view",
      "type": "function"
    },
    {
      "inputs": [
        {
          "internalType": "address",
          "name": "account",
          "type": "address"
        },
        {
          "internalType": "uint256",
          "name": "id",
          "type": "uint256"
        },
        {
          "internalType": "uint256",
          "name": "value",
          "type": "uint256"
        }
      ],
      "name": "burn",
      "outputs": [],
      "stateMutability": "nonpayable",
      "type": "function"
    },
    {
      "inputs": [
        {
          "internalType": "address",
          "name": "account",
          "type": "address"
        },
        {
          "internalType": "uint256[]",
          "name": "ids",
          "type": "uint256[]"
        },
        {
          "internalType": "uint256[]",
          "name": "values",
          "type": "uint256[]"
        }
      ],
      "name": "burnBatch",
      "outputs": [],
      "stateMutability": "nonpayable",
      "type": "function"
    },
    {
      "inputs": [
        {
          "internalType": "uint256",
          "name": "id",
          "type": "uint256"
        }
      ],
      "name": "exists",
      "outputs": [
        {
          "internalType": "bool",
          "name": "",
          "type": "bool"
        }
      ],
      "stateMutability": "view",
      "type": "function"
    },
    {
      "inputs": [
        {
          "internalType": "uint256",
          "name": "tokenId",
          "type": "uint256"
        }
      ],
      "name": "getMembership",
      "outputs": [
        {
          "internalType": "uint256",
          "name": "",
          "type": "uint256"
        }
      ],
      "stateMutability": "view",
      "type": "function"
    },
    {
      "inputs": [
        {
          "internalType": "uint256",
          "name": "channel",
          "type": "uint256"
        }
      ],
      "name": "getMembershipList",
      "outputs": [
        {
          "internalType": "uint256[]",
          "name": "",
          "type": "uint256[]"
        }
      ],
      "stateMutability": "view",
      "type": "function"
    },
    {
      "inputs": [
        {
          "internalType": "bytes32",
          "name": "role",
          "type": "bytes32"
        }
      ],
      "name": "getRoleAdmin",
      "outputs": [
        {
          "internalType": "bytes32",
          "name": "",
          "type": "bytes32"
        }
      ],
      "stateMutability": "view",
      "type": "function"
    },
    {
      "inputs": [],
      "name": "getTokenIndex",
      "outputs": [
        {
          "internalType": "uint256",
          "name": "",
          "type": "uint256"
        }
      ],
      "stateMutability": "view",
      "type": "function"
    },
    {
      "inputs": [
        {
          "internalType": "uint256",
          "name": "tokenId",
          "type": "uint256"
        }
      ],
      "name": "getTokenLevel",
      "outputs": [
        {
          "internalType": "enum Structs.Level",
          "name": "",
          "type": "uint8"
        }
      ],
      "stateMutability": "view",
      "type": "function"
    },
    {
      "inputs": [
        {
          "internalType": "bytes32",
          "name": "role",
          "type": "bytes32"
        },
        {
          "internalType": "address",
          "name": "account",
          "type": "address"
        }
      ],
      "name": "grantRole",
      "outputs": [],
      "stateMutability": "nonpayable",
      "type": "function"
    },
    {
      "inputs": [
        {
          "internalType": "bytes32",
          "name": "role",
          "type": "bytes32"
        },
        {
          "internalType": "address",
          "name": "account",
          "type": "address"
        }
      ],
      "name": "hasRole",
      "outputs": [
        {
          "internalType": "bool",
          "name": "",
          "type": "bool"
        }
      ],
      "stateMutability": "view",
      "type": "function"
    },
    {
      "inputs": [
        {
          "internalType": "string",
          "name": "tokenName",
          "type": "string"
        },
        {
          "internalType": "address",
          "name": "_ownerContract",
          "type": "address"
        },
        {
          "internalType": "address",
          "name": "_channelAddress",
          "type": "address"
        }
      ],
      "name": "initialize",
      "outputs": [],
      "stateMutability": "nonpayable",
      "type": "function"
    },
    {
      "inputs": [
        {
          "internalType": "address",
          "name": "account",
          "type": "address"
        },
        {
          "internalType": "address",
          "name": "operator",
          "type": "address"
        }
      ],
      "name": "isApprovedForAll",
      "outputs": [
        {
          "internalType": "bool",
          "name": "",
          "type": "bool"
        }
      ],
      "stateMutability": "view",
      "type": "function"
    },
    {
      "inputs": [
        {
          "internalType": "string",
          "name": "",
          "type": "string"
        }
      ],
      "name": "levelMapping",
      "outputs": [
        {
          "internalType": "enum Structs.Level",
          "name": "",
          "type": "uint8"
        }
      ],
      "stateMutability": "view",
      "type": "function"
    },
    {
      "inputs": [
        {
          "internalType": "uint256",
          "name": "channel",
          "type": "uint256"
        },
        {
          "internalType": "string",
          "name": "level",
          "type": "string"
        },
        {
          "internalType": "address",
          "name": "to",
          "type": "address"
        }
      ],
      "name": "membershipMint",
      "outputs": [],
      "stateMutability": "payable",
      "type": "function"
    },
    {
      "inputs": [
        {
          "internalType": "address",
          "name": "from",
          "type": "address"
        },
        {
          "internalType": "uint256",
          "name": "channel",
          "type": "uint256"
        },
        {
          "internalType": "uint256",
          "name": "cost",
          "type": "uint256"
        },
        {
          "internalType": "string",
          "name": "level",
          "type": "string"
        },
        {
          "internalType": "string",
          "name": "computedUri",
          "type": "string"
        }
      ],
      "name": "membershipTokenCreate",
      "outputs": [],
      "stateMutability": "nonpayable",
      "type": "function"
    },
    {
      "inputs": [],
      "name": "name",
      "outputs": [
        {
          "internalType": "string",
          "name": "",
          "type": "string"
        }
      ],
      "stateMutability": "view",
      "type": "function"
    },
    {
      "inputs": [],
      "name": "pause",
      "outputs": [],
      "stateMutability": "nonpayable",
      "type": "function"
    },
    {
      "inputs": [],
      "name": "paused",
      "outputs": [
        {
          "internalType": "bool",
          "name": "",
          "type": "bool"
        }
      ],
      "stateMutability": "view",
      "type": "function"
    },
    {
      "inputs": [
        {
          "internalType": "bytes32",
          "name": "role",
          "type": "bytes32"
        },
        {
          "internalType": "address",
          "name": "account",
          "type": "address"
        }
      ],
      "name": "renounceRole",
      "outputs": [],
      "stateMutability": "nonpayable",
      "type": "function"
    },
    {
      "inputs": [
        {
          "internalType": "bytes32",
          "name": "role",
          "type": "bytes32"
        },
        {
          "internalType": "address",
          "name": "account",
          "type": "address"
        }
      ],
      "name": "revokeRole",
      "outputs": [],
      "stateMutability": "nonpayable",
      "type": "function"
    },
    {
      "inputs": [
        {
          "internalType": "address",
          "name": "from",
          "type": "address"
        },
        {
          "internalType": "address",
          "name": "to",
          "type": "address"
        },
        {
          "internalType": "uint256[]",
          "name": "ids",
          "type": "uint256[]"
        },
        {
          "internalType": "uint256[]",
          "name": "amounts",
          "type": "uint256[]"
        },
        {
          "internalType": "bytes",
          "name": "data",
          "type": "bytes"
        }
      ],
      "name": "safeBatchTransferFrom",
      "outputs": [],
      "stateMutability": "nonpayable",
      "type": "function"
    },
    {
      "inputs": [
        {
          "internalType": "address",
          "name": "from",
          "type": "address"
        },
        {
          "internalType": "address",
          "name": "to",
          "type": "address"
        },
        {
          "internalType": "uint256",
          "name": "id",
          "type": "uint256"
        },
        {
          "internalType": "uint256",
          "name": "amount",
          "type": "uint256"
        },
        {
          "internalType": "bytes",
          "name": "data",
          "type": "bytes"
        }
      ],
      "name": "safeTransferFrom",
      "outputs": [],
      "stateMutability": "nonpayable",
      "type": "function"
    },
    {
      "inputs": [
        {
          "internalType": "address",
          "name": "operator",
          "type": "address"
        },
        {
          "internalType": "bool",
          "name": "approved",
          "type": "bool"
        }
      ],
      "name": "setApprovalForAll",
      "outputs": [],
      "stateMutability": "nonpayable",
      "type": "function"
    },
    {
      "inputs": [
        {
          "internalType": "address",
          "name": "_channelAddress",
          "type": "address"
        }
      ],
      "name": "setChannelsAddress",
      "outputs": [],
      "stateMutability": "nonpayable",
      "type": "function"
    },
    {
      "inputs": [
        {
          "internalType": "string",
          "name": "maxMember",
          "type": "string"
        }
      ],
      "name": "setMaxMemberships",
      "outputs": [],
      "stateMutability": "nonpayable",
      "type": "function"
    },
    {
      "inputs": [
        {
          "internalType": "uint256",
          "name": "tokenId",
          "type": "uint256"
        },
        {
          "internalType": "string",
          "name": "newUri",
          "type": "string"
        }
      ],
      "name": "setTokenUri",
      "outputs": [],
      "stateMutability": "nonpayable",
      "type": "function"
    },
    {
      "inputs": [
        {
          "internalType": "string",
          "name": "newuri",
          "type": "string"
        }
      ],
      "name": "setURI",
      "outputs": [],
      "stateMutability": "nonpayable",
      "type": "function"
    },
    {
      "inputs": [
        {
          "internalType": "bytes4",
          "name": "interfaceId",
          "type": "bytes4"
        }
      ],
      "name": "supportsInterface",
      "outputs": [
        {
          "internalType": "bool",
          "name": "",
          "type": "bool"
        }
      ],
      "stateMutability": "view",
      "type": "function"
    },
    {
      "inputs": [],
      "name": "symbol",
      "outputs": [
        {
          "internalType": "string",
          "name": "",
          "type": "string"
        }
      ],
      "stateMutability": "view",
      "type": "function"
    },
    {
      "inputs": [
        {
          "internalType": "uint256",
          "name": "id",
          "type": "uint256"
        }
      ],
      "name": "totalSupply",
      "outputs": [
        {
          "internalType": "uint256",
          "name": "",
          "type": "uint256"
        }
      ],
      "stateMutability": "view",
      "type": "function"
    },
    {
      "inputs": [
        {
          "internalType": "address",
          "name": "to",
          "type": "address"
        }
      ],
      "name": "transferOwnership",
      "outputs": [],
      "stateMutability": "nonpayable",
      "type": "function"
    },
    {
      "inputs": [],
      "name": "unpause",
      "outputs": [],
      "stateMutability": "nonpayable",
      "type": "function"
    },
    {
      "inputs": [
        {
          "internalType": "uint256",
          "name": "tokenId",
          "type": "uint256"
        }
      ],
      "name": "uri",
      "outputs": [
        {
          "internalType": "string",
          "name": "",
          "type": "string"
        }
      ],
      "stateMutability": "view",
      "type": "function"
    },
    {
      "inputs": [],
      "name": "withdrawBalance",
      "outputs": [],
      "stateMutability": "nonpayable",
      "type": "function"
    }
  ],
  "bytecode": "0x6080604052600a610169553480156200001757600080fd5b5060405162003deb38038062003deb8339810160408190526200003a9162000305565b600054610100900460ff16620000575760005460ff161562000061565b6200006162000179565b620000c95760405162461bcd60e51b815260206004820152602e60248201527f496e697469616c697a61626c653a20636f6e747261637420697320616c72656160448201526d191e481a5b9a5d1a585b1a5e995960921b606482015260840160405180910390fd5b600054610100900460ff16158015620000ec576000805461ffff19166101011790555b61016180546001600160a01b0384166001600160a01b031991821681179092556101628054909116909117905583516200012f9061015f90602087019062000242565b506200015c7fb19546dff01e856fb3f010c267a7b1c60363cf8a4664e21cc89c26224620214e8462000197565b80156200016f576000805461ff00191690555b505050506200045b565b600062000191306200023c60201b620017621760201c565b15905090565b600082815260fb602090815260408083206001600160a01b038516845290915290205460ff166200023857600082815260fb602090815260408083206001600160a01b03851684529091529020805460ff19166001179055620001f73390565b6001600160a01b0316816001600160a01b0316837f2f8788117e7eff1d82e926ec794901d17c78024a50270940304540a733656f0d60405160405180910390a45b5050565b3b151590565b828054620002509062000408565b90600052602060002090601f016020900481019282620002745760008555620002bf565b82601f106200028f57805160ff1916838001178555620002bf565b82800160010185558215620002bf579182015b82811115620002bf578251825591602001919060010190620002a2565b50620002cd929150620002d1565b5090565b5b80821115620002cd5760008155600101620002d2565b80516001600160a01b03811681146200030057600080fd5b919050565b6000806000606084860312156200031b57600080fd5b83516001600160401b03808211156200033357600080fd5b818601915086601f8301126200034857600080fd5b8151818111156200035d576200035d62000445565b604051601f8201601f19908116603f0116810190838211818310171562000388576200038862000445565b81604052828152602093508984848701011115620003a557600080fd5b600091505b82821015620003c95784820184015181830185015290830190620003aa565b82821115620003db5760008484830101525b9650620003ed915050868201620002e8565b93505050620003ff60408501620002e8565b90509250925092565b600181811c908216806200041d57607f821691505b602082108114156200043f57634e487b7160e01b600052602260045260246000fd5b50919050565b634e487b7160e01b600052604160045260246000fd5b613980806200046b6000396000f3fe60806040526004361061022f5760003560e01c80636b20c4541161012e578063c27855f6116100ab578063e58378bb1161006f578063e58378bb146106b9578063e985e9c5146106db578063f242432a14610724578063f2fde38b14610744578063f5298aca1461076457600080fd5b8063c27855f614610608578063cb2de9d914610628578063d011645c14610648578063d466645e14610679578063d547741f1461069957600080fd5b8063a217fddf116100f2578063a217fddf14610573578063a22cb46514610588578063a44ed535146105a8578063b9c08fd3146105bb578063bd85b039146105db57600080fd5b80636b20c454146104e757806375b238fc146105075780638456cb591461052957806391d148541461053e57806395d89b411461055e57600080fd5b806336568abe116101bc5780634e1273f4116101805780634e1273f41461043e5780634f558e791461046b57806357f7789e1461049a5780635c975abb146104ba5780635fd8c710146104d257600080fd5b806336568abe1461038057806338fbf2c6146103a05780633f4ba83a146103c057806345198254146103d5578063463fd1af1461041e57600080fd5b80630e89341c116102035780630e89341c146102db578063248a9ca3146102fb578063295d3ee81461032b5780632eb2c2d6146103405780632f2ff15d1461036057600080fd5b8062fdd58e1461023457806301ffc9a71461026757806302fe53051461029757806306fdde03146102b9575b600080fd5b34801561024057600080fd5b5061025461024f366004612e74565b610784565b6040519081526020015b60405180910390f35b34801561027357600080fd5b5061028761028236600461307a565b61081d565b604051901515815260200161025e565b3480156102a357600080fd5b506102b76102b23660046130f5565b61082e565b005b3480156102c557600080fd5b506102ce610854565b60405161025e9190613426565b3480156102e757600080fd5b506102ce6102f636600461303c565b6108e3565b34801561030757600080fd5b5061025461031636600461303c565b600090815260fb602052604090206001015490565b34801561033757600080fd5b50610254610986565b34801561034c57600080fd5b506102b761035b366004612cb7565b610997565b34801561036c57600080fd5b506102b761037b366004613055565b610a2e565b34801561038c57600080fd5b506102b761039b366004613055565b610a59565b3480156103ac57600080fd5b506102546103bb36600461303c565b610ad3565b3480156103cc57600080fd5b506102b7610adf565b3480156103e157600080fd5b506104116103f03660046130f5565b80516020818301810180516101648252928201919093012091525460ff1681565b60405161025e91906133fe565b34801561042a57600080fd5b506102b7610439366004613131565b610b03565b34801561044a57600080fd5b5061045e610459366004612f6a565b610da1565b60405161025e91906133bd565b34801561047757600080fd5b5061028761048636600461303c565b600090815260976020526040902054151590565b3480156104a657600080fd5b506102b76104b53660046131f2565b610eca565b3480156104c657600080fd5b5060c95460ff16610287565b3480156104de57600080fd5b506102b7610f6c565b3480156104f357600080fd5b506102b7610502366004612dcc565b611018565b34801561051357600080fd5b5061025460008051602061392b83398151915281565b34801561053557600080fd5b506102b761105b565b34801561054a57600080fd5b50610287610559366004613055565b61107c565b34801561056a57600080fd5b506102ce6110a7565b34801561057f57600080fd5b50610254600081565b34801561059457600080fd5b506102b76105a3366004612e41565b6110b5565b6102b76105b6366004613194565b6110c0565b3480156105c757600080fd5b5061045e6105d636600461303c565b611321565b3480156105e757600080fd5b506102546105f636600461303c565b60009081526097602052604090205490565b34801561061457600080fd5b506102b7610623366004612c44565b611383565b34801561063457600080fd5b506102b7610643366004612ed5565b6113cb565b34801561065457600080fd5b5061041161066336600461303c565b6000908152610168602052604090205460ff1690565b34801561068557600080fd5b506102b76106943660046130b4565b61161f565b3480156106a557600080fd5b506102b76106b4366004613055565b611683565b3480156106c557600080fd5b5061025460008051602061390b83398151915281565b3480156106e757600080fd5b506102876106f6366004612c7e565b6001600160a01b03918216600090815260666020908152604080832093909416825291909152205460ff1690565b34801561073057600080fd5b506102b761073f366004612d64565b6116a9565b34801561075057600080fd5b506102b761075f366004612c44565b6116ee565b34801561077057600080fd5b506102b761077f366004612ea0565b61171f565b60006001600160a01b0383166107f55760405162461bcd60e51b815260206004820152602b60248201527f455243313135353a2062616c616e636520717565727920666f7220746865207a60448201526a65726f206164647265737360a81b60648201526084015b60405180910390fd5b5060009081526065602090815260408083206001600160a01b03949094168352929052205490565b600061082882611768565b92915050565b60008051602061392b833981519152610847813361178d565b610850826117f1565b5050565b61015f80546108629061374a565b80601f016020809104026020016040519081016040528092919081815260200182805461088e9061374a565b80156108db5780601f106108b0576101008083540402835291602001916108db565b820191906000526020600020905b8154815290600101906020018083116108be57829003601f168201915b505050505081565b6000818152610165602052604090208054606091906109019061374a565b80601f016020809104026020016040519081016040528092919081815260200182805461092d9061374a565b801561097a5780601f1061094f5761010080835404028352916020019161097a565b820191906000526020600020905b81548152906001019060200180831161095d57829003601f168201915b50505050509050919050565b60006109926101635490565b905090565b6001600160a01b0385163314806109b357506109b385336106f6565b610a1a5760405162461bcd60e51b815260206004820152603260248201527f455243313135353a207472616e736665722063616c6c6572206973206e6f74206044820152711bdddb995c881b9bdc88185c1c1c9bdd995960721b60648201526084016107ec565b610a278585858585611804565b5050505050565b600082815260fb6020526040902060010154610a4a813361178d565b610a5483836119b1565b505050565b6001600160a01b0381163314610ac95760405162461bcd60e51b815260206004820152602f60248201527f416363657373436f6e74726f6c3a2063616e206f6e6c792072656e6f756e636560448201526e103937b632b9903337b91039b2b63360891b60648201526084016107ec565b6108508282611a37565b60006108283383610784565b60008051602061390b833981519152610af8813361178d565b610b00611a9e565b50565b600054610100900460ff16610b1e5760005460ff1615610b22565b303b155b610b855760405162461bcd60e51b815260206004820152602e60248201527f496e697469616c697a61626c653a20636f6e747261637420697320616c72656160448201526d191e481a5b9a5d1a585b1a5e995960921b60648201526084016107ec565b600054610100900460ff16158015610ba7576000805461ffff19166101011790555b610bb084611b31565b610bb8611b71565b610bc0611b71565b610bc8611bb2565b610bd0611b71565b610bdb6000336119b1565b610bf360008051602061392b833981519152336119b1565b610c0b60008051602061390b833981519152336119b1565b610c2360008051602061392b833981519152846119b1565b610c3b60008051602061390b833981519152846119b1565b6000610164604051610c59906562726f6e7a6560d01b815260060190565b908152604051908190036020019020805460ff19166001836004811115610c8257610c826137f8565b02179055506001610164604051610ca5906539b4b63b32b960d11b815260060190565b908152604051908190036020019020805460ff19166001836004811115610cce57610cce6137f8565b02179055506002610164604051610cef906319dbdb1960e21b815260040190565b908152604051908190036020019020805460ff19166001836004811115610d1857610d186137f8565b02179055506003610164604051610d3d9067706c6174696e756d60c01b815260080190565b908152604051908190036020019020805460ff19166001836004811115610d6657610d666137f8565b02179055508351610d7f9061015f906020870190612a79565b50610d8982611be9565b8015610d9b576000805461ff00191690555b50505050565b60608151835114610e065760405162461bcd60e51b815260206004820152602960248201527f455243313135353a206163636f756e747320616e6420696473206c656e677468604482015268040dad2e6dac2e8c6d60bb1b60648201526084016107ec565b600083516001600160401b03811115610e2157610e21613824565b604051908082528060200260200182016040528015610e4a578160200160208202803683370190505b50905060005b8451811015610ec257610e95858281518110610e6e57610e6e61380e565b6020026020010151858381518110610e8857610e8861380e565b6020026020010151610784565b828281518110610ea757610ea761380e565b6020908102919091010152610ebb816137b1565b9050610e50565b509392505050565b60008051602061390b833981519152610ee3813361178d565b6000838152610165602052604090208054610efd9061374a565b159050610f4c5760405162461bcd60e51b815260206004820152601a60248201527f43616e6e6f74206d6f64696679206578697374696e672075726900000000000060448201526064016107ec565b6000838152610165602090815260409091208351610d9b92850190612a79565b60008051602061390b833981519152610f85813361178d565b60405133904790600090839083908381818185875af1925050503d8060008114610fcb576040519150601f19603f3d011682016040523d82523d6000602084013e610fd0565b606091505b5050905080610d9b5760405162461bcd60e51b81526020600482015260146024820152734661696c656420746f2073656e64204d4154494360601b60448201526064016107ec565b6001600160a01b038316331480611034575061103483336106f6565b6110505760405162461bcd60e51b81526004016107ec906134c5565b610a54838383611c31565b60008051602061390b833981519152611074813361178d565b610b00611dc2565b600091825260fb602090815260408084206001600160a01b0393909316845291905290205460ff1690565b61016080546108629061374a565b610850338383611e3d565b6000848152610166602090815260408083208054825181850281018501909352808352919290919083018282801561111757602002820191906000526020600020905b815481526020019060010190808311611103575b50505050509050600081511161117e5760405162461bcd60e51b815260206004820152602660248201527f4e6f206d656d6265727368697073206d696e74656420666f72207468697320636044820152651a185b9b995b60d21b60648201526084016107ec565b6000805b825181101561124957600061016860008584815181106111a4576111a461380e565b6020026020010151815260200190815260200160002060009054906101000a900460ff16905061016487876040516111dd929190613295565b9081526040519081900360200190205460ff166004811115611201576112016137f8565b816004811115611213576112136137f8565b14156112365783828151811061122b5761122b61380e565b602002602001015192505b5080611241816137b1565b915050611182565b506000818152610167602052604090205434811061129657611296604051806040016040528060148152602001736e6f7420656e6f756768206d6f6e65796261677360601b815250611f1e565b6112b28483600160405180602001604052806000815250611f61565b60008781526101666020908152604080832080546001810182559084529282902090920184905581516001600160a01b03871681529081018490527ffe532499518ab958be1855c68f1cf6c3cd1ad50b40dcb9dfb1c5185da7511de7910160405180910390a150505050505050565b6000818152610166602090815260409182902080548351818402810184019094528084526060939283018282801561097a57602002820191906000526020600020905b8154815260200190600101908083116113645750505050509050919050565b60008051602061390b83398151915261139c813361178d565b5061016180546001600160a01b039092166001600160a01b031992831681179091556101628054909216179055565b610161546113e1906001600160a01b0316611be9565b6101615461016280546001600160a01b0319166001600160a01b0390921691821790556040516331a9108f60e11b81526004810188905260009190636352211e9060240160206040518083038186803b15801561143d57600080fd5b505afa158015611451573d6000803e3d6000fd5b505050506040513d601f19601f820116820180604052508101906114759190612c61565b9050806001600160a01b0316886001600160a01b0316146114f45760405162461bcd60e51b815260206004820152603360248201527f596f75206d75737420626520746865206368616e6e656c206f776e657220746f60448201527220637265617465206d656d626572736869707360681b60648201526084016107ec565b60006115006101635490565b905061151161016380546001019055565b6000888152610166602090815260408083208054600181018255908452828420018490558383526101679091529081902088905551610164906115579088908890613295565b90815260408051602092819003830190205460008481526101689093529120805460ff9092169160ff19166001836004811115611596576115966137f8565b02179055506115db8185858080601f01602080910402602001604051908101604052809392919081815260200183838082843760009201919091525061207392505050565b60408051338152602081018390527fbbc2bd2c0eaa795a53fbbb48b3ad77f6e5719e4b44166a7945aa12e93fcf677f910160405180910390a1505050505050505050565b60008051602061390b833981519152611638813361178d565b600061167984848080601f0160208091040260200160405190810160405280939291908181526020018383808284376000920191909152506120fc92505050565b6101695550505050565b600082815260fb602052604090206001015461169f813361178d565b610a548383611a37565b6001600160a01b0385163314806116c557506116c585336106f6565b6116e15760405162461bcd60e51b81526004016107ec906134c5565b610a2785858585856121d6565b60008051602061392b833981519152611707813361178d565b61085060008051602061390b833981519152836119b1565b6001600160a01b03831633148061173b575061173b83336106f6565b6117575760405162461bcd60e51b81526004016107ec906134c5565b610a548383836122f7565b3b151590565b60006001600160e01b03198216637965db0b60e01b14806108285750610828826123fc565b611797828261107c565b610850576117af816001600160a01b0316601461244c565b6117ba83602061244c565b6040516020016117cb9291906132a5565b60408051601f198184030181529082905262461bcd60e51b82526107ec91600401613426565b8051610850906067906020840190612a79565b81518351146118255760405162461bcd60e51b81526004016107ec9061362b565b6001600160a01b03841661184b5760405162461bcd60e51b81526004016107ec9061350e565b3361185a8187878787876125ee565b60005b845181101561194357600085828151811061187a5761187a61380e565b6020026020010151905060008583815181106118985761189861380e565b60209081029190910181015160008481526065835260408082206001600160a01b038e1683529093529190912054909150818110156118e95760405162461bcd60e51b81526004016107ec90613596565b60008381526065602090815260408083206001600160a01b038e8116855292528083208585039055908b16825281208054849290611928908490613696565b925050819055505050508061193c906137b1565b905061185d565b50846001600160a01b0316866001600160a01b0316826001600160a01b03167f4a39dc06d4c0dbc64b70af90fd698a233a518aa5d07e595d983b8c0526c8f7fb87876040516119939291906133d0565b60405180910390a46119a9818787878787612642565b505050505050565b6119bb828261107c565b61085057600082815260fb602090815260408083206001600160a01b03851684529091529020805460ff191660011790556119f33390565b6001600160a01b0316816001600160a01b0316837f2f8788117e7eff1d82e926ec794901d17c78024a50270940304540a733656f0d60405160405180910390a45050565b611a41828261107c565b1561085057600082815260fb602090815260408083206001600160a01b0385168085529252808320805460ff1916905551339285917ff6391f5c32d9c69d2a47ea670b442974b53935d1edc7fd64eb21e047a839171b9190a45050565b60c95460ff16611ae75760405162461bcd60e51b815260206004820152601460248201527314185d5cd8589b194e881b9bdd081c185d5cd95960621b60448201526064016107ec565b60c9805460ff191690557f5db9ee0a495bf2e6ff9c91a7834c1ba4fdd244a5e8aa4e537bd38aeae4b073aa335b6040516001600160a01b03909116815260200160405180910390a1565b600054610100900460ff16611b585760405162461bcd60e51b81526004016107ec906135e0565b611b606127ad565b611b686127ad565b610b00816127d4565b600054610100900460ff16611b985760405162461bcd60e51b81526004016107ec906135e0565b611ba06127ad565b611ba86127ad565b611bb06127ad565b565b600054610100900460ff16611bd95760405162461bcd60e51b81526004016107ec906135e0565b611be16127ad565b611bb0612804565b6040516001600160a01b0382166024820152610b009060440160408051601f198184030181529190526020810180516001600160e01b031663161765e160e11b179052612837565b6001600160a01b038316611c575760405162461bcd60e51b81526004016107ec90613553565b8051825114611c785760405162461bcd60e51b81526004016107ec9061362b565b6000339050611c9b818560008686604051806020016040528060008152506125ee565b60005b8351811015611d63576000848281518110611cbb57611cbb61380e565b602002602001015190506000848381518110611cd957611cd961380e565b60209081029190910181015160008481526065835260408082206001600160a01b038c168352909352919091205490915081811015611d2a5760405162461bcd60e51b81526004016107ec90613481565b60009283526065602090815260408085206001600160a01b038b1686529091529092209103905580611d5b816137b1565b915050611c9e565b5060006001600160a01b0316846001600160a01b0316826001600160a01b03167f4a39dc06d4c0dbc64b70af90fd698a233a518aa5d07e595d983b8c0526c8f7fb8686604051611db49291906133d0565b60405180910390a450505050565b60c95460ff1615611e085760405162461bcd60e51b815260206004820152601060248201526f14185d5cd8589b194e881c185d5cd95960821b60448201526064016107ec565b60c9805460ff191660011790557f62e78cea01bee320cd4e420270b5ea74000d11b0c9f74754ebdbfc544b05a258611b143390565b816001600160a01b0316836001600160a01b03161415611eb15760405162461bcd60e51b815260206004820152602960248201527f455243313135353a2073657474696e6720617070726f76616c20737461747573604482015268103337b91039b2b63360b91b60648201526084016107ec565b6001600160a01b03838116600081815260666020908152604080832094871680845294825291829020805460ff191686151590811790915591519182527f17307eab39ab6107e8899845ad3d59bd9653f200f220920489ca2b5937696c31910160405180910390a3505050565b610b0081604051602401611f329190613426565b60408051601f198184030181529190526020810180516001600160e01b031663104c13eb60e21b179052612837565b6001600160a01b038416611fc15760405162461bcd60e51b815260206004820152602160248201527f455243313135353a206d696e7420746f20746865207a65726f206164647265736044820152607360f81b60648201526084016107ec565b33611fe181600087611fd288612858565b611fdb88612858565b876125ee565b60008481526065602090815260408083206001600160a01b038916845290915281208054859290612013908490613696565b909155505060408051858152602081018590526001600160a01b0380881692600092918516917fc3d58168c5ae7397731d063d5bbf3d657854427343f4c083240f7aacaa2d0f62910160405180910390a4610a27816000878787876128a3565b600082815261016560205260409020805461208d9061374a565b1590506120dc5760405162461bcd60e51b815260206004820152601a60248201527f43616e6e6f74206d6f64696679206578697374696e672075726900000000000060448201526064016107ec565b6000828152610165602090815260409091208251610a5492840190612a79565b8051600090829060019083906121139083906136cd565b90505b82518110156121ce5760308382815181106121335761213361380e565b016020015160f81c10801590612163575060398382815181106121585761215861380e565b016020015160f81c11155b61216f5761216f6137cc565b8160308483815181106121845761218461380e565b0160200151612196919060f81c6136e4565b60ff166121a391906136ae565b6121ad9085613696565b93506121ba600a836136ae565b9150806121c681613733565b915050612116565b505050919050565b6001600160a01b0384166121fc5760405162461bcd60e51b81526004016107ec9061350e565b3361220c818787611fd288612858565b60008481526065602090815260408083206001600160a01b038a1684529091529020548381101561224f5760405162461bcd60e51b81526004016107ec90613596565b60008581526065602090815260408083206001600160a01b038b811685529252808320878503905590881682528120805486929061228e908490613696565b909155505060408051868152602081018690526001600160a01b03808916928a821692918616917fc3d58168c5ae7397731d063d5bbf3d657854427343f4c083240f7aacaa2d0f62910160405180910390a46122ee8288888888886128a3565b50505050505050565b6001600160a01b03831661231d5760405162461bcd60e51b81526004016107ec90613553565b3361234c8185600061232e87612858565b61233787612858565b604051806020016040528060008152506125ee565b60008381526065602090815260408083206001600160a01b03881684529091529020548281101561238f5760405162461bcd60e51b81526004016107ec90613481565b60008481526065602090815260408083206001600160a01b03898116808652918452828520888703905582518981529384018890529092908616917fc3d58168c5ae7397731d063d5bbf3d657854427343f4c083240f7aacaa2d0f62910160405180910390a45050505050565b60006001600160e01b03198216636cdb3d1360e11b148061242d57506001600160e01b031982166303a24d0760e21b145b8061082857506301ffc9a760e01b6001600160e01b0319831614610828565b6060600061245b8360026136ae565b612466906002613696565b6001600160401b0381111561247d5761247d613824565b6040519080825280601f01601f1916602001820160405280156124a7576020820181803683370190505b509050600360fc1b816000815181106124c2576124c261380e565b60200101906001600160f81b031916908160001a905350600f60fb1b816001815181106124f1576124f161380e565b60200101906001600160f81b031916908160001a90535060006125158460026136ae565b612520906001613696565b90505b6001811115612598576f181899199a1a9b1b9c1cb0b131b232b360811b85600f16601081106125545761255461380e565b1a60f81b82828151811061256a5761256a61380e565b60200101906001600160f81b031916908160001a90535060049490941c9361259181613733565b9050612523565b5083156125e75760405162461bcd60e51b815260206004820181905260248201527f537472696e67733a20686578206c656e67746820696e73756666696369656e7460448201526064016107ec565b9392505050565b60c95460ff16156126345760405162461bcd60e51b815260206004820152601060248201526f14185d5cd8589b194e881c185d5cd95960821b60448201526064016107ec565b6119a986868686868661296d565b6001600160a01b0384163b156119a95760405163bc197c8160e01b81526001600160a01b0385169063bc197c8190612686908990899088908890889060040161331a565b602060405180830381600087803b1580156126a057600080fd5b505af19250505080156126d0575060408051601f3d908101601f191682019092526126cd91810190613097565b60015b61277d576126dc61383a565b806308c379a0141561271657506126f1613856565b806126fc5750612718565b8060405162461bcd60e51b81526004016107ec9190613426565b505b60405162461bcd60e51b815260206004820152603460248201527f455243313135353a207472616e7366657220746f206e6f6e20455243313135356044820152732932b1b2b4bb32b91034b6b83632b6b2b73a32b960611b60648201526084016107ec565b6001600160e01b0319811663bc197c8160e01b146122ee5760405162461bcd60e51b81526004016107ec90613439565b600054610100900460ff16611bb05760405162461bcd60e51b81526004016107ec906135e0565b600054610100900460ff166127fb5760405162461bcd60e51b81526004016107ec906135e0565b610b00816117f1565b600054610100900460ff1661282b5760405162461bcd60e51b81526004016107ec906135e0565b60c9805460ff19169055565b80516a636f6e736f6c652e6c6f67602083016000808483855afa5050505050565b604080516001808252818301909252606091600091906020808301908036833701905050905082816000815181106128925761289261380e565b602090810291909101015292915050565b6001600160a01b0384163b156119a95760405163f23a6e6160e01b81526001600160a01b0385169063f23a6e61906128e79089908990889088908890600401613378565b602060405180830381600087803b15801561290157600080fd5b505af1925050508015612931575060408051601f3d908101601f1916820190925261292e91810190613097565b60015b61293d576126dc61383a565b6001600160e01b0319811663f23a6e6160e01b146122ee5760405162461bcd60e51b81526004016107ec90613439565b6001600160a01b0385166129f45760005b83518110156129f2578281815181106129995761299961380e565b6020026020010151609760008684815181106129b7576129b761380e565b6020026020010151815260200190815260200160002060008282546129dc9190613696565b909155506129eb9050816137b1565b905061297e565b505b6001600160a01b0384166119a95760005b83518110156122ee57828181518110612a2057612a2061380e565b602002602001015160976000868481518110612a3e57612a3e61380e565b602002602001015181526020019081526020016000206000828254612a6391906136cd565b90915550612a729050816137b1565b9050612a05565b828054612a859061374a565b90600052602060002090601f016020900481019282612aa75760008555612aed565b82601f10612ac057805160ff1916838001178555612aed565b82800160010185558215612aed579182015b82811115612aed578251825591602001919060010190612ad2565b50612af9929150612afd565b5090565b5b80821115612af95760008155600101612afe565b600082601f830112612b2357600080fd5b81356020612b3082613673565b604051612b3d8282613785565b8381528281019150858301600585901b87018401881015612b5d57600080fd5b60005b85811015612b7c57813584529284019290840190600101612b60565b5090979650505050505050565b600082601f830112612b9a57600080fd5b81356001600160401b03811115612bb357612bb3613824565b604051612bca601f8301601f191660200182613785565b818152846020838601011115612bdf57600080fd5b816020850160208301376000918101602001919091529392505050565b60008083601f840112612c0e57600080fd5b5081356001600160401b03811115612c2557600080fd5b602083019150836020828501011115612c3d57600080fd5b9250929050565b600060208284031215612c5657600080fd5b81356125e7816138df565b600060208284031215612c7357600080fd5b81516125e7816138df565b60008060408385031215612c9157600080fd5b8235612c9c816138df565b91506020830135612cac816138df565b809150509250929050565b600080600080600060a08688031215612ccf57600080fd5b8535612cda816138df565b94506020860135612cea816138df565b935060408601356001600160401b0380821115612d0657600080fd5b612d1289838a01612b12565b94506060880135915080821115612d2857600080fd5b612d3489838a01612b12565b93506080880135915080821115612d4a57600080fd5b50612d5788828901612b89565b9150509295509295909350565b600080600080600060a08688031215612d7c57600080fd5b8535612d87816138df565b94506020860135612d97816138df565b9350604086013592506060860135915060808601356001600160401b03811115612dc057600080fd5b612d5788828901612b89565b600080600060608486031215612de157600080fd5b8335612dec816138df565b925060208401356001600160401b0380821115612e0857600080fd5b612e1487838801612b12565b93506040860135915080821115612e2a57600080fd5b50612e3786828701612b12565b9150509250925092565b60008060408385031215612e5457600080fd5b8235612e5f816138df565b915060208301358015158114612cac57600080fd5b60008060408385031215612e8757600080fd5b8235612e92816138df565b946020939093013593505050565b600080600060608486031215612eb557600080fd5b8335612ec0816138df565b95602085013595506040909401359392505050565b600080600080600080600060a0888a031215612ef057600080fd5b8735612efb816138df565b9650602088013595506040880135945060608801356001600160401b0380821115612f2557600080fd5b612f318b838c01612bfc565b909650945060808a0135915080821115612f4a57600080fd5b50612f578a828b01612bfc565b989b979a50959850939692959293505050565b60008060408385031215612f7d57600080fd5b82356001600160401b0380821115612f9457600080fd5b818501915085601f830112612fa857600080fd5b81356020612fb582613673565b604051612fc28282613785565b8381528281019150858301600585901b870184018b1015612fe257600080fd5b600096505b8487101561300e578035612ffa816138df565b835260019690960195918301918301612fe7565b509650508601359250508082111561302557600080fd5b5061303285828601612b12565b9150509250929050565b60006020828403121561304e57600080fd5b5035919050565b6000806040838503121561306857600080fd5b823591506020830135612cac816138df565b60006020828403121561308c57600080fd5b81356125e7816138f4565b6000602082840312156130a957600080fd5b81516125e7816138f4565b600080602083850312156130c757600080fd5b82356001600160401b038111156130dd57600080fd5b6130e985828601612bfc565b90969095509350505050565b60006020828403121561310757600080fd5b81356001600160401b0381111561311d57600080fd5b61312984828501612b89565b949350505050565b60008060006060848603121561314657600080fd5b83356001600160401b0381111561315c57600080fd5b61316886828701612b89565b9350506020840135613179816138df565b91506040840135613189816138df565b809150509250925092565b600080600080606085870312156131aa57600080fd5b8435935060208501356001600160401b038111156131c757600080fd5b6131d387828801612bfc565b90945092505060408501356131e7816138df565b939692955090935050565b6000806040838503121561320557600080fd5b8235915060208301356001600160401b0381111561322257600080fd5b61303285828601612b89565b600081518084526020808501945080840160005b8381101561325e57815187529582019590820190600101613242565b509495945050505050565b60008151808452613281816020860160208601613707565b601f01601f19169290920160200192915050565b8183823760009101908152919050565b7f416363657373436f6e74726f6c3a206163636f756e74200000000000000000008152600083516132dd816017850160208801613707565b7001034b99036b4b9b9b4b733903937b6329607d1b601791840191820152835161330e816028840160208801613707565b01602801949350505050565b6001600160a01b0386811682528516602082015260a0604082018190526000906133469083018661322e565b8281036060840152613358818661322e565b9050828103608084015261336c8185613269565b98975050505050505050565b6001600160a01b03868116825285166020820152604081018490526060810183905260a0608082018190526000906133b290830184613269565b979650505050505050565b6020815260006125e7602083018461322e565b6040815260006133e3604083018561322e565b82810360208401526133f5818561322e565b95945050505050565b602081016005831061342057634e487b7160e01b600052602160045260246000fd5b91905290565b6020815260006125e76020830184613269565b60208082526028908201527f455243313135353a204552433131353552656365697665722072656a656374656040820152676420746f6b656e7360c01b606082015260800190565b60208082526024908201527f455243313135353a206275726e20616d6f756e7420657863656564732062616c604082015263616e636560e01b606082015260800190565b60208082526029908201527f455243313135353a2063616c6c6572206973206e6f74206f776e6572206e6f7260408201526808185c1c1c9bdd995960ba1b606082015260800190565b60208082526025908201527f455243313135353a207472616e7366657220746f20746865207a65726f206164604082015264647265737360d81b606082015260800190565b60208082526023908201527f455243313135353a206275726e2066726f6d20746865207a65726f206164647260408201526265737360e81b606082015260800190565b6020808252602a908201527f455243313135353a20696e73756666696369656e742062616c616e636520666f60408201526939103a3930b739b332b960b11b606082015260800190565b6020808252602b908201527f496e697469616c697a61626c653a20636f6e7472616374206973206e6f74206960408201526a6e697469616c697a696e6760a81b606082015260800190565b60208082526028908201527f455243313135353a2069647320616e6420616d6f756e7473206c656e677468206040820152670dad2e6dac2e8c6d60c31b606082015260800190565b60006001600160401b0382111561368c5761368c613824565b5060051b60200190565b600082198211156136a9576136a96137e2565b500190565b60008160001904831182151516156136c8576136c86137e2565b500290565b6000828210156136df576136df6137e2565b500390565b600060ff821660ff8416808210156136fe576136fe6137e2565b90039392505050565b60005b8381101561372257818101518382015260200161370a565b83811115610d9b5750506000910152565b600081613742576137426137e2565b506000190190565b600181811c9082168061375e57607f821691505b6020821081141561377f57634e487b7160e01b600052602260045260246000fd5b50919050565b601f8201601f191681016001600160401b03811182821017156137aa576137aa613824565b6040525050565b60006000198214156137c5576137c56137e2565b5060010190565b634e487b7160e01b600052600160045260246000fd5b634e487b7160e01b600052601160045260246000fd5b634e487b7160e01b600052602160045260246000fd5b634e487b7160e01b600052603260045260246000fd5b634e487b7160e01b600052604160045260246000fd5b600060033d11156138535760046000803e5060005160e01c5b90565b600060443d10156138645790565b6040516003193d81016004833e81513d6001600160401b03816024840111818411171561389357505050505090565b82850191508151818111156138ab5750505050505090565b843d87010160208285010111156138c55750505050505090565b6138d460208286010187613785565b509095945050505050565b6001600160a01b0381168114610b0057600080fd5b6001600160e01b031981168114610b0057600080fdfeb19546dff01e856fb3f010c267a7b1c60363cf8a4664e21cc89c26224620214ea49807205ce4d355092ef5a8a18f56e8913cf4a201fbe287825b095693c21775a2646970667358221220f9f0b09f49dc8359cfb335e2d2d432994b3d511c6cc7504a91b286c31b55b25c64736f6c63430008070033",
  "linkReferences": {},
  "deployedLinkReferences": {}
}