{
  "_format": "hh-sol-artifact-1",
  "contractName": "Memberships",
  "sourceName": "contracts/Memberships.sol",
  "abi": [
    {
      "inputs": [
        {
          "internalType": "string",
          "name": "tokenName",
          "type": "string"
        },
        {
          "internalType": "address",
          "name": "_ownerContract",
          "type": "address"
        },
        {
          "internalType": "address",
          "name": "_channelAddress",
          "type": "address"
        }
      ],
      "stateMutability": "nonpayable",
      "type": "constructor"
    },
    {
      "anonymous": false,
      "inputs": [
        {
          "indexed": true,
          "internalType": "address",
          "name": "account",
          "type": "address"
        },
        {
          "indexed": true,
          "internalType": "address",
          "name": "operator",
          "type": "address"
        },
        {
          "indexed": false,
          "internalType": "bool",
          "name": "approved",
          "type": "bool"
        }
      ],
      "name": "ApprovalForAll",
      "type": "event"
    },
    {
      "anonymous": false,
      "inputs": [
        {
          "indexed": false,
          "internalType": "address",
          "name": "sender",
          "type": "address"
        },
        {
          "indexed": false,
          "internalType": "uint256",
          "name": "tokenId",
          "type": "uint256"
        }
      ],
      "name": "NewMembershipMinted",
      "type": "event"
    },
    {
      "anonymous": false,
      "inputs": [
        {
          "indexed": false,
          "internalType": "address",
          "name": "sender",
          "type": "address"
        },
        {
          "indexed": false,
          "internalType": "uint256",
          "name": "tokenId",
          "type": "uint256"
        }
      ],
      "name": "NewMembershipTokenCreated",
      "type": "event"
    },
    {
      "anonymous": false,
      "inputs": [
        {
          "indexed": false,
          "internalType": "address",
          "name": "account",
          "type": "address"
        }
      ],
      "name": "Paused",
      "type": "event"
    },
    {
      "anonymous": false,
      "inputs": [
        {
          "indexed": true,
          "internalType": "bytes32",
          "name": "role",
          "type": "bytes32"
        },
        {
          "indexed": true,
          "internalType": "bytes32",
          "name": "previousAdminRole",
          "type": "bytes32"
        },
        {
          "indexed": true,
          "internalType": "bytes32",
          "name": "newAdminRole",
          "type": "bytes32"
        }
      ],
      "name": "RoleAdminChanged",
      "type": "event"
    },
    {
      "anonymous": false,
      "inputs": [
        {
          "indexed": true,
          "internalType": "bytes32",
          "name": "role",
          "type": "bytes32"
        },
        {
          "indexed": true,
          "internalType": "address",
          "name": "account",
          "type": "address"
        },
        {
          "indexed": true,
          "internalType": "address",
          "name": "sender",
          "type": "address"
        }
      ],
      "name": "RoleGranted",
      "type": "event"
    },
    {
      "anonymous": false,
      "inputs": [
        {
          "indexed": true,
          "internalType": "bytes32",
          "name": "role",
          "type": "bytes32"
        },
        {
          "indexed": true,
          "internalType": "address",
          "name": "account",
          "type": "address"
        },
        {
          "indexed": true,
          "internalType": "address",
          "name": "sender",
          "type": "address"
        }
      ],
      "name": "RoleRevoked",
      "type": "event"
    },
    {
      "anonymous": false,
      "inputs": [
        {
          "indexed": true,
          "internalType": "address",
          "name": "operator",
          "type": "address"
        },
        {
          "indexed": true,
          "internalType": "address",
          "name": "from",
          "type": "address"
        },
        {
          "indexed": true,
          "internalType": "address",
          "name": "to",
          "type": "address"
        },
        {
          "indexed": false,
          "internalType": "uint256[]",
          "name": "ids",
          "type": "uint256[]"
        },
        {
          "indexed": false,
          "internalType": "uint256[]",
          "name": "values",
          "type": "uint256[]"
        }
      ],
      "name": "TransferBatch",
      "type": "event"
    },
    {
      "anonymous": false,
      "inputs": [
        {
          "indexed": true,
          "internalType": "address",
          "name": "operator",
          "type": "address"
        },
        {
          "indexed": true,
          "internalType": "address",
          "name": "from",
          "type": "address"
        },
        {
          "indexed": true,
          "internalType": "address",
          "name": "to",
          "type": "address"
        },
        {
          "indexed": false,
          "internalType": "uint256",
          "name": "id",
          "type": "uint256"
        },
        {
          "indexed": false,
          "internalType": "uint256",
          "name": "value",
          "type": "uint256"
        }
      ],
      "name": "TransferSingle",
      "type": "event"
    },
    {
      "anonymous": false,
      "inputs": [
        {
          "indexed": false,
          "internalType": "string",
          "name": "value",
          "type": "string"
        },
        {
          "indexed": true,
          "internalType": "uint256",
          "name": "id",
          "type": "uint256"
        }
      ],
      "name": "URI",
      "type": "event"
    },
    {
      "anonymous": false,
      "inputs": [
        {
          "indexed": false,
          "internalType": "address",
          "name": "account",
          "type": "address"
        }
      ],
      "name": "Unpaused",
      "type": "event"
    },
    {
      "inputs": [],
      "name": "ADMIN_ROLE",
      "outputs": [
        {
          "internalType": "bytes32",
          "name": "",
          "type": "bytes32"
        }
      ],
      "stateMutability": "view",
      "type": "function"
    },
    {
      "inputs": [],
      "name": "DEFAULT_ADMIN_ROLE",
      "outputs": [
        {
          "internalType": "bytes32",
          "name": "",
          "type": "bytes32"
        }
      ],
      "stateMutability": "view",
      "type": "function"
    },
    {
      "inputs": [],
      "name": "OWNER_ROLE",
      "outputs": [
        {
          "internalType": "bytes32",
          "name": "",
          "type": "bytes32"
        }
      ],
      "stateMutability": "view",
      "type": "function"
    },
    {
      "inputs": [
        {
          "internalType": "uint256",
          "name": "",
          "type": "uint256"
        },
        {
          "internalType": "uint256",
          "name": "",
          "type": "uint256"
        }
      ],
      "name": "_channelMap",
      "outputs": [
        {
          "internalType": "uint256",
          "name": "",
          "type": "uint256"
        }
      ],
      "stateMutability": "view",
      "type": "function"
    },
    {
      "inputs": [
        {
          "internalType": "address",
          "name": "account",
          "type": "address"
        },
        {
          "internalType": "uint256",
          "name": "id",
          "type": "uint256"
        }
      ],
      "name": "balanceOf",
      "outputs": [
        {
          "internalType": "uint256",
          "name": "",
          "type": "uint256"
        }
      ],
      "stateMutability": "view",
      "type": "function"
    },
    {
      "inputs": [
        {
          "internalType": "address[]",
          "name": "accounts",
          "type": "address[]"
        },
        {
          "internalType": "uint256[]",
          "name": "ids",
          "type": "uint256[]"
        }
      ],
      "name": "balanceOfBatch",
      "outputs": [
        {
          "internalType": "uint256[]",
          "name": "",
          "type": "uint256[]"
        }
      ],
      "stateMutability": "view",
      "type": "function"
    },
    {
      "inputs": [
        {
          "internalType": "address",
          "name": "account",
          "type": "address"
        },
        {
          "internalType": "uint256",
          "name": "id",
          "type": "uint256"
        },
        {
          "internalType": "uint256",
          "name": "value",
          "type": "uint256"
        }
      ],
      "name": "burn",
      "outputs": [],
      "stateMutability": "nonpayable",
      "type": "function"
    },
    {
      "inputs": [
        {
          "internalType": "address",
          "name": "account",
          "type": "address"
        },
        {
          "internalType": "uint256[]",
          "name": "ids",
          "type": "uint256[]"
        },
        {
          "internalType": "uint256[]",
          "name": "values",
          "type": "uint256[]"
        }
      ],
      "name": "burnBatch",
      "outputs": [],
      "stateMutability": "nonpayable",
      "type": "function"
    },
    {
      "inputs": [
        {
          "internalType": "uint256",
          "name": "id",
          "type": "uint256"
        }
      ],
      "name": "exists",
      "outputs": [
        {
          "internalType": "bool",
          "name": "",
          "type": "bool"
        }
      ],
      "stateMutability": "view",
      "type": "function"
    },
    {
      "inputs": [
        {
          "internalType": "uint256",
          "name": "tokenId",
          "type": "uint256"
        },
        {
          "internalType": "address",
          "name": "to",
          "type": "address"
        }
      ],
      "name": "getMembership",
      "outputs": [
        {
          "internalType": "uint256",
          "name": "",
          "type": "uint256"
        }
      ],
      "stateMutability": "view",
      "type": "function"
    },
    {
      "inputs": [
        {
          "internalType": "uint256",
          "name": "channel",
          "type": "uint256"
        }
      ],
      "name": "getMembershipList",
      "outputs": [
        {
          "internalType": "uint256[]",
          "name": "",
          "type": "uint256[]"
        }
      ],
      "stateMutability": "view",
      "type": "function"
    },
    {
      "inputs": [
        {
          "internalType": "bytes32",
          "name": "role",
          "type": "bytes32"
        }
      ],
      "name": "getRoleAdmin",
      "outputs": [
        {
          "internalType": "bytes32",
          "name": "",
          "type": "bytes32"
        }
      ],
      "stateMutability": "view",
      "type": "function"
    },
    {
      "inputs": [],
      "name": "getTokenIndex",
      "outputs": [
        {
          "internalType": "uint256",
          "name": "",
          "type": "uint256"
        }
      ],
      "stateMutability": "view",
      "type": "function"
    },
    {
      "inputs": [
        {
          "internalType": "uint256",
          "name": "tokenId",
          "type": "uint256"
        }
      ],
      "name": "getTokenLevel",
      "outputs": [
        {
          "internalType": "enum Structs.Level",
          "name": "",
          "type": "uint8"
        }
      ],
      "stateMutability": "view",
      "type": "function"
    },
    {
      "inputs": [
        {
          "internalType": "bytes32",
          "name": "role",
          "type": "bytes32"
        },
        {
          "internalType": "address",
          "name": "account",
          "type": "address"
        }
      ],
      "name": "grantRole",
      "outputs": [],
      "stateMutability": "nonpayable",
      "type": "function"
    },
    {
      "inputs": [
        {
          "internalType": "bytes32",
          "name": "role",
          "type": "bytes32"
        },
        {
          "internalType": "address",
          "name": "account",
          "type": "address"
        }
      ],
      "name": "hasRole",
      "outputs": [
        {
          "internalType": "bool",
          "name": "",
          "type": "bool"
        }
      ],
      "stateMutability": "view",
      "type": "function"
    },
    {
      "inputs": [
        {
          "internalType": "string",
          "name": "tokenName",
          "type": "string"
        },
        {
          "internalType": "address",
          "name": "_ownerContract",
          "type": "address"
        }
      ],
      "name": "initialize",
      "outputs": [],
      "stateMutability": "nonpayable",
      "type": "function"
    },
    {
      "inputs": [
        {
          "internalType": "address",
          "name": "account",
          "type": "address"
        },
        {
          "internalType": "address",
          "name": "operator",
          "type": "address"
        }
      ],
      "name": "isApprovedForAll",
      "outputs": [
        {
          "internalType": "bool",
          "name": "",
          "type": "bool"
        }
      ],
      "stateMutability": "view",
      "type": "function"
    },
    {
      "inputs": [
        {
          "internalType": "string",
          "name": "",
          "type": "string"
        }
      ],
      "name": "levelMapping",
      "outputs": [
        {
          "internalType": "enum Structs.Level",
          "name": "",
          "type": "uint8"
        }
      ],
      "stateMutability": "view",
      "type": "function"
    },
    {
      "inputs": [
        {
          "internalType": "uint256",
          "name": "channel",
          "type": "uint256"
        },
        {
          "internalType": "string",
          "name": "level",
          "type": "string"
        },
        {
          "internalType": "address",
          "name": "to",
          "type": "address"
        }
      ],
      "name": "membershipMint",
      "outputs": [],
      "stateMutability": "payable",
      "type": "function"
    },
    {
      "inputs": [
        {
          "internalType": "address",
          "name": "from",
          "type": "address"
        },
        {
          "internalType": "uint256",
          "name": "channel",
          "type": "uint256"
        },
        {
          "internalType": "uint256",
          "name": "cost",
          "type": "uint256"
        },
        {
          "internalType": "string",
          "name": "level",
          "type": "string"
        },
        {
          "internalType": "string",
          "name": "computedUri",
          "type": "string"
        }
      ],
      "name": "membershipTokenCreate",
      "outputs": [],
      "stateMutability": "nonpayable",
      "type": "function"
    },
    {
      "inputs": [],
      "name": "name",
      "outputs": [
        {
          "internalType": "string",
          "name": "",
          "type": "string"
        }
      ],
      "stateMutability": "view",
      "type": "function"
    },
    {
      "inputs": [],
      "name": "pause",
      "outputs": [],
      "stateMutability": "nonpayable",
      "type": "function"
    },
    {
      "inputs": [],
      "name": "paused",
      "outputs": [
        {
          "internalType": "bool",
          "name": "",
          "type": "bool"
        }
      ],
      "stateMutability": "view",
      "type": "function"
    },
    {
      "inputs": [
        {
          "internalType": "bytes32",
          "name": "role",
          "type": "bytes32"
        },
        {
          "internalType": "address",
          "name": "account",
          "type": "address"
        }
      ],
      "name": "renounceRole",
      "outputs": [],
      "stateMutability": "nonpayable",
      "type": "function"
    },
    {
      "inputs": [
        {
          "internalType": "bytes32",
          "name": "role",
          "type": "bytes32"
        },
        {
          "internalType": "address",
          "name": "account",
          "type": "address"
        }
      ],
      "name": "revokeRole",
      "outputs": [],
      "stateMutability": "nonpayable",
      "type": "function"
    },
    {
      "inputs": [
        {
          "internalType": "address",
          "name": "from",
          "type": "address"
        },
        {
          "internalType": "address",
          "name": "to",
          "type": "address"
        },
        {
          "internalType": "uint256[]",
          "name": "ids",
          "type": "uint256[]"
        },
        {
          "internalType": "uint256[]",
          "name": "amounts",
          "type": "uint256[]"
        },
        {
          "internalType": "bytes",
          "name": "data",
          "type": "bytes"
        }
      ],
      "name": "safeBatchTransferFrom",
      "outputs": [],
      "stateMutability": "nonpayable",
      "type": "function"
    },
    {
      "inputs": [
        {
          "internalType": "address",
          "name": "from",
          "type": "address"
        },
        {
          "internalType": "address",
          "name": "to",
          "type": "address"
        },
        {
          "internalType": "uint256",
          "name": "id",
          "type": "uint256"
        },
        {
          "internalType": "uint256",
          "name": "amount",
          "type": "uint256"
        },
        {
          "internalType": "bytes",
          "name": "data",
          "type": "bytes"
        }
      ],
      "name": "safeTransferFrom",
      "outputs": [],
      "stateMutability": "nonpayable",
      "type": "function"
    },
    {
      "inputs": [
        {
          "internalType": "address",
          "name": "operator",
          "type": "address"
        },
        {
          "internalType": "bool",
          "name": "approved",
          "type": "bool"
        }
      ],
      "name": "setApprovalForAll",
      "outputs": [],
      "stateMutability": "nonpayable",
      "type": "function"
    },
    {
      "inputs": [
        {
          "internalType": "address",
          "name": "_channelAddress",
          "type": "address"
        }
      ],
      "name": "setChannelsAddress",
      "outputs": [],
      "stateMutability": "nonpayable",
      "type": "function"
    },
    {
      "inputs": [
        {
          "internalType": "string",
          "name": "maxMember",
          "type": "string"
        }
      ],
      "name": "setMaxMemberships",
      "outputs": [],
      "stateMutability": "nonpayable",
      "type": "function"
    },
    {
      "inputs": [
        {
          "internalType": "uint256",
          "name": "tokenId",
          "type": "uint256"
        },
        {
          "internalType": "string",
          "name": "newUri",
          "type": "string"
        }
      ],
      "name": "setTokenUri",
      "outputs": [],
      "stateMutability": "nonpayable",
      "type": "function"
    },
    {
      "inputs": [
        {
          "internalType": "string",
          "name": "newuri",
          "type": "string"
        }
      ],
      "name": "setURI",
      "outputs": [],
      "stateMutability": "nonpayable",
      "type": "function"
    },
    {
      "inputs": [
        {
          "internalType": "bytes4",
          "name": "interfaceId",
          "type": "bytes4"
        }
      ],
      "name": "supportsInterface",
      "outputs": [
        {
          "internalType": "bool",
          "name": "",
          "type": "bool"
        }
      ],
      "stateMutability": "view",
      "type": "function"
    },
    {
      "inputs": [],
      "name": "symbol",
      "outputs": [
        {
          "internalType": "string",
          "name": "",
          "type": "string"
        }
      ],
      "stateMutability": "view",
      "type": "function"
    },
    {
      "inputs": [
        {
          "internalType": "uint256",
          "name": "id",
          "type": "uint256"
        }
      ],
      "name": "totalSupply",
      "outputs": [
        {
          "internalType": "uint256",
          "name": "",
          "type": "uint256"
        }
      ],
      "stateMutability": "view",
      "type": "function"
    },
    {
      "inputs": [
        {
          "internalType": "address",
          "name": "to",
          "type": "address"
        }
      ],
      "name": "transferOwnership",
      "outputs": [],
      "stateMutability": "nonpayable",
      "type": "function"
    },
    {
      "inputs": [],
      "name": "unpause",
      "outputs": [],
      "stateMutability": "nonpayable",
      "type": "function"
    },
    {
      "inputs": [
        {
          "internalType": "uint256",
          "name": "tokenId",
          "type": "uint256"
        }
      ],
      "name": "uri",
      "outputs": [
        {
          "internalType": "string",
          "name": "",
          "type": "string"
        }
      ],
      "stateMutability": "view",
      "type": "function"
    },
    {
      "inputs": [],
      "name": "withdrawBalance",
      "outputs": [],
      "stateMutability": "nonpayable",
      "type": "function"
    }
  ],
  "bytecode": "0x6080604052600a610169553480156200001757600080fd5b5060405162003f4438038062003f448339810160408190526200003a9162000305565b600054610100900460ff16620000575760005460ff161562000061565b6200006162000179565b620000c95760405162461bcd60e51b815260206004820152602e60248201527f496e697469616c697a61626c653a20636f6e747261637420697320616c72656160448201526d191e481a5b9a5d1a585b1a5e995960921b606482015260840160405180910390fd5b600054610100900460ff16158015620000ec576000805461ffff19166101011790555b61016180546001600160a01b0384166001600160a01b031991821681179092556101628054909116909117905583516200012f9061015f90602087019062000242565b506200015c7fb19546dff01e856fb3f010c267a7b1c60363cf8a4664e21cc89c26224620214e8462000197565b80156200016f576000805461ff00191690555b505050506200045b565b600062000191306200023c60201b620018dc1760201c565b15905090565b600082815260fb602090815260408083206001600160a01b038516845290915290205460ff166200023857600082815260fb602090815260408083206001600160a01b03851684529091529020805460ff19166001179055620001f73390565b6001600160a01b0316816001600160a01b0316837f2f8788117e7eff1d82e926ec794901d17c78024a50270940304540a733656f0d60405160405180910390a45b5050565b3b151590565b828054620002509062000408565b90600052602060002090601f016020900481019282620002745760008555620002bf565b82601f106200028f57805160ff1916838001178555620002bf565b82800160010185558215620002bf579182015b82811115620002bf578251825591602001919060010190620002a2565b50620002cd929150620002d1565b5090565b5b80821115620002cd5760008155600101620002d2565b80516001600160a01b03811681146200030057600080fd5b919050565b6000806000606084860312156200031b57600080fd5b83516001600160401b03808211156200033357600080fd5b818601915086601f8301126200034857600080fd5b8151818111156200035d576200035d62000445565b604051601f8201601f19908116603f0116810190838211818310171562000388576200038862000445565b81604052828152602093508984848701011115620003a557600080fd5b600091505b82821015620003c95784820184015181830185015290830190620003aa565b82821115620003db5760008484830101525b9650620003ed915050868201620002e8565b93505050620003ff60408501620002e8565b90509250925092565b600181811c908216806200041d57607f821691505b602082108114156200043f57634e487b7160e01b600052602260045260246000fd5b50919050565b634e487b7160e01b600052604160045260246000fd5b613ad9806200046b6000396000f3fe60806040526004361061023a5760003560e01c80638456cb591161012e578063d011645c116100ab578063e58378bb1161006f578063e58378bb146106e4578063e985e9c514610706578063f242432a1461074f578063f2fde38b1461076f578063f5298aca1461078f57600080fd5b8063d011645c14610633578063d466645e14610664578063d547741f14610684578063d6442836146106a4578063dc63205c146106c457600080fd5b8063a44ed535116100f2578063a44ed53514610593578063b9c08fd3146105a6578063bd85b039146105c6578063c27855f6146105f3578063cb2de9d91461061357600080fd5b80638456cb591461051457806391d148541461052957806395d89b4114610549578063a217fddf1461055e578063a22cb4651461057357600080fd5b80633f4ba83a116101bc5780635c975abb116101805780635c975abb146104855780635fd8c7101461049d5780636b20c454146104b257806375b238fc146104d25780637ab4339d146104f457600080fd5b80633f4ba83a146103ab57806345198254146103c05780634e1273f4146104095780634f558e791461043657806357f7789e1461046557600080fd5b8063248a9ca311610203578063248a9ca314610306578063295d3ee8146103365780632eb2c2d61461034b5780632f2ff15d1461036b57806336568abe1461038b57600080fd5b8062fdd58e1461023f57806301ffc9a71461027257806302fe5305146102a257806306fdde03146102c45780630e89341c146102e6575b600080fd5b34801561024b57600080fd5b5061025f61025a366004612fa3565b6107af565b6040519081526020015b60405180910390f35b34801561027e57600080fd5b5061029261028d3660046131a9565b610848565b6040519015158152602001610269565b3480156102ae57600080fd5b506102c26102bd366004613224565b610859565b005b3480156102d057600080fd5b506102d961087f565b604051610269919061355a565b3480156102f257600080fd5b506102d961030136600461316b565b61090e565b34801561031257600080fd5b5061025f61032136600461316b565b600090815260fb602052604090206001015490565b34801561034257600080fd5b5061025f6109b1565b34801561035757600080fd5b506102c2610366366004612de6565b6109c2565b34801561037757600080fd5b506102c2610386366004613184565b610a59565b34801561039757600080fd5b506102c26103a6366004613184565b610a84565b3480156103b757600080fd5b506102c2610afe565b3480156103cc57600080fd5b506103fc6103db366004613224565b80516020818301810180516101648252928201919093012091525460ff1681565b6040516102699190613532565b34801561041557600080fd5b50610429610424366004613099565b610b22565b60405161026991906134f1565b34801561044257600080fd5b5061029261045136600461316b565b600090815260976020526040902054151590565b34801561047157600080fd5b506102c2610480366004613304565b610c4b565b34801561049157600080fd5b5060c95460ff16610292565b3480156104a957600080fd5b506102c2610cf3565b3480156104be57600080fd5b506102c26104cd366004612efb565b610d9f565b3480156104de57600080fd5b5061025f600080516020613a8483398151915281565b34801561050057600080fd5b506102c261050f366004613260565b610de2565b34801561052057600080fd5b506102c2611075565b34801561053557600080fd5b50610292610544366004613184565b611096565b34801561055557600080fd5b506102d96110c1565b34801561056a57600080fd5b5061025f600081565b34801561057f57600080fd5b506102c261058e366004612f70565b6110cf565b6102c26105a13660046132a6565b6110da565b3480156105b257600080fd5b506104296105c136600461316b565b61147a565b3480156105d257600080fd5b5061025f6105e136600461316b565b60009081526097602052604090205490565b3480156105ff57600080fd5b506102c261060e366004612d73565b6114dc565b34801561061f57600080fd5b506102c261062e366004613004565b611524565b34801561063f57600080fd5b506103fc61064e36600461316b565b6000908152610168602052604090205460ff1690565b34801561067057600080fd5b506102c261067f3660046131e3565b611754565b34801561069057600080fd5b506102c261069f366004613184565b6117b8565b3480156106b057600080fd5b5061025f6106bf366004613184565b6117de565b3480156106d057600080fd5b5061025f6106df366004613340565b6117f1565b3480156106f057600080fd5b5061025f600080516020613a6483398151915281565b34801561071257600080fd5b50610292610721366004612dad565b6001600160a01b03918216600090815260666020908152604080832093909416825291909152205460ff1690565b34801561075b57600080fd5b506102c261076a366004612e93565b611823565b34801561077b57600080fd5b506102c261078a366004612d73565b611868565b34801561079b57600080fd5b506102c26107aa366004612fcf565b611899565b60006001600160a01b0383166108205760405162461bcd60e51b815260206004820152602b60248201527f455243313135353a2062616c616e636520717565727920666f7220746865207a60448201526a65726f206164647265737360a81b60648201526084015b60405180910390fd5b5060009081526065602090815260408083206001600160a01b03949094168352929052205490565b6000610853826118e2565b92915050565b600080516020613a848339815191526108728133611907565b61087b8261196b565b5050565b61015f805461088d906138a3565b80601f01602080910402602001604051908101604052809291908181526020018280546108b9906138a3565b80156109065780601f106108db57610100808354040283529160200191610906565b820191906000526020600020905b8154815290600101906020018083116108e957829003601f168201915b505050505081565b60008181526101656020526040902080546060919061092c906138a3565b80601f0160208091040260200160405190810160405280929190818152602001828054610958906138a3565b80156109a55780601f1061097a576101008083540402835291602001916109a5565b820191906000526020600020905b81548152906001019060200180831161098857829003601f168201915b50505050509050919050565b60006109bd6101635490565b905090565b6001600160a01b0385163314806109de57506109de8533610721565b610a455760405162461bcd60e51b815260206004820152603260248201527f455243313135353a207472616e736665722063616c6c6572206973206e6f74206044820152711bdddb995c881b9bdc88185c1c1c9bdd995960721b6064820152608401610817565b610a52858585858561197e565b5050505050565b600082815260fb6020526040902060010154610a758133611907565b610a7f8383611b2b565b505050565b6001600160a01b0381163314610af45760405162461bcd60e51b815260206004820152602f60248201527f416363657373436f6e74726f6c3a2063616e206f6e6c792072656e6f756e636560448201526e103937b632b9903337b91039b2b63360891b6064820152608401610817565b61087b8282611bb1565b600080516020613a64833981519152610b178133611907565b610b1f611c18565b50565b60608151835114610b875760405162461bcd60e51b815260206004820152602960248201527f455243313135353a206163636f756e747320616e6420696473206c656e677468604482015268040dad2e6dac2e8c6d60bb1b6064820152608401610817565b600083516001600160401b03811115610ba257610ba261397d565b604051908082528060200260200182016040528015610bcb578160200160208202803683370190505b50905060005b8451811015610c4357610c16858281518110610bef57610bef613967565b6020026020010151858381518110610c0957610c09613967565b60200260200101516107af565b828281518110610c2857610c28613967565b6020908102919091010152610c3c8161390a565b9050610bd1565b509392505050565b600080516020613a64833981519152610c648133611907565b6000838152610165602052604090208054610c7e906138a3565b159050610ccd5760405162461bcd60e51b815260206004820152601a60248201527f43616e6e6f74206d6f64696679206578697374696e67207572690000000000006044820152606401610817565b6000838152610165602090815260409091208351610ced92850190612ba8565b50505050565b600080516020613a64833981519152610d0c8133611907565b60405133904790600090839083908381818185875af1925050503d8060008114610d52576040519150601f19603f3d011682016040523d82523d6000602084013e610d57565b606091505b5050905080610ced5760405162461bcd60e51b81526020600482015260146024820152734661696c656420746f2073656e64204d4154494360601b6044820152606401610817565b6001600160a01b038316331480610dbb5750610dbb8333610721565b610dd75760405162461bcd60e51b81526004016108179061361e565b610a7f838383611cab565b600054610100900460ff16610dfd5760005460ff1615610e01565b303b155b610e645760405162461bcd60e51b815260206004820152602e60248201527f496e697469616c697a61626c653a20636f6e747261637420697320616c72656160448201526d191e481a5b9a5d1a585b1a5e995960921b6064820152608401610817565b600054610100900460ff16158015610e86576000805461ffff19166101011790555b610e8f83611e3c565b610e97611e7c565b610e9f611e7c565b610ea7611ebd565b610eaf611e7c565b610eba600033611b2b565b610ed2600080516020613a8483398151915233611b2b565b610eea600080516020613a6483398151915233611b2b565b610f02600080516020613a8483398151915283611b2b565b610f1a600080516020613a6483398151915283611b2b565b6000610164604051610f38906562726f6e7a6560d01b815260060190565b908152604051908190036020019020805460ff19166001836004811115610f6157610f61613951565b02179055506001610164604051610f84906539b4b63b32b960d11b815260060190565b908152604051908190036020019020805460ff19166001836004811115610fad57610fad613951565b02179055506002610164604051610fce906319dbdb1960e21b815260040190565b908152604051908190036020019020805460ff19166001836004811115610ff757610ff7613951565b0217905550600361016460405161101c9067706c6174696e756d60c01b815260080190565b908152604051908190036020019020805460ff1916600183600481111561104557611045613951565b0217905550825161105e9061015f906020860190612ba8565b508015610a7f576000805461ff0019169055505050565b600080516020613a6483398151915261108e8133611907565b610b1f611ef4565b600091825260fb602090815260408084206001600160a01b0393909316845291905290205460ff1690565b610160805461088d906138a3565b61087b338383611f6f565b6000848152610166602090815260408083208054825181850281018501909352808352919290919083018282801561113157602002820191906000526020600020905b81548152602001906001019080831161111d575b5050505050905060008151116111985760405162461bcd60e51b815260206004820152602660248201527f4e6f206d656d6265727368697073206d696e74656420666f72207468697320636044820152651a185b9b995b60d21b6064820152608401610817565b6000805b825181101561126357600061016860008584815181106111be576111be613967565b6020026020010151815260200190815260200160002060009054906101000a900460ff16905061016487876040516111f79291906133c9565b9081526040519081900360200190205460ff16600481111561121b5761121b613951565b81600481111561122d5761122d613951565b14156112505783828151811061124557611245613967565b602002602001015192505b508061125b8161390a565b91505061119c565b50600081815261016760205260409020543481106112b2576112b2604051806040016040528060148152602001736e6f7420656e6f756768206d6f6e65796261677360601b8152508234612050565b803410156112f65760405162461bcd60e51b815260206004820152601160248201527002737ba1032b737bab3b4101212101d141607d1b6044820152606401610817565b610162546040516331a9108f60e11b8152600481018990526000916001600160a01b031690636352211e9060240160206040518083038186803b15801561133c57600080fd5b505afa158015611350573d6000803e3d6000fd5b505050506040513d601f19601f820116820180604052508101906113749190612d90565b90506000816001600160a01b03163460405160006040518083038185875af1925050503d80600081146113c3576040519150601f19603f3d011682016040523d82523d6000602084013e6113c8565b606091505b50509050806114105760405162461bcd60e51b81526020600482015260146024820152734661696c656420746f2073656e64204d4154494360601b6044820152606401610817565b61142c8685600160405180602001604052806000815250612097565b604080516001600160a01b0388168152602081018690527ffe532499518ab958be1855c68f1cf6c3cd1ad50b40dcb9dfb1c5185da7511de791015b60405180910390a1505050505050505050565b600081815261016660209081526040918290208054835181840281018401909452808452606093928301828280156109a557602002820191906000526020600020905b8154815260200190600101908083116114bd5750505050509050919050565b600080516020613a648339815191526114f58133611907565b5061016180546001600160a01b039092166001600160a01b031992831681179091556101628054909216179055565b6101615461016280546001600160a01b0319166001600160a01b0390921691821790556040516331a9108f60e11b81526004810188905260009190636352211e9060240160206040518083038186803b15801561158057600080fd5b505afa158015611594573d6000803e3d6000fd5b505050506040513d601f19601f820116820180604052508101906115b89190612d90565b9050806001600160a01b0316886001600160a01b0316146116375760405162461bcd60e51b815260206004820152603360248201527f596f75206d75737420626520746865206368616e6e656c206f776e657220746f60448201527220637265617465206d656d626572736869707360681b6064820152608401610817565b60006116436101635490565b905061165461016380546001019055565b60008881526101666020908152604080832080546001810182559084528284200184905583835261016790915290819020889055516101649061169a90889088906133c9565b90815260408051602092819003830190205460008481526101689093529120805460ff9092169160ff191660018360048111156116d9576116d9613951565b021790555061171e8185858080601f0160208091040260200160405190810160405280939291908181526020018383808284376000920191909152506121a992505050565b60408051338152602081018390527fbbc2bd2c0eaa795a53fbbb48b3ad77f6e5719e4b44166a7945aa12e93fcf677f9101611467565b600080516020613a6483398151915261176d8133611907565b60006117ae84848080601f01602080910402602001604051908101604052809392919081815260200183838082843760009201919091525061223292505050565b6101695550505050565b600082815260fb60205260409020600101546117d48133611907565b610a7f8383611bb1565b60006117ea82846107af565b9392505050565b610166602052816000526040600020818154811061180e57600080fd5b90600052602060002001600091509150505481565b6001600160a01b03851633148061183f575061183f8533610721565b61185b5760405162461bcd60e51b81526004016108179061361e565b610a52858585858561230c565b600080516020613a848339815191526118818133611907565b61087b600080516020613a6483398151915283611b2b565b6001600160a01b0383163314806118b557506118b58333610721565b6118d15760405162461bcd60e51b81526004016108179061361e565b610a7f83838361242d565b3b151590565b60006001600160e01b03198216637965db0b60e01b1480610853575061085382612532565b6119118282611096565b61087b57611929816001600160a01b03166014612582565b611934836020612582565b6040516020016119459291906133d9565b60408051601f198184030181529082905262461bcd60e51b82526108179160040161355a565b805161087b906067906020840190612ba8565b815183511461199f5760405162461bcd60e51b815260040161081790613784565b6001600160a01b0384166119c55760405162461bcd60e51b815260040161081790613667565b336119d481878787878761271d565b60005b8451811015611abd5760008582815181106119f4576119f4613967565b602002602001015190506000858381518110611a1257611a12613967565b60209081029190910181015160008481526065835260408082206001600160a01b038e168352909352919091205490915081811015611a635760405162461bcd60e51b8152600401610817906136ef565b60008381526065602090815260408083206001600160a01b038e8116855292528083208585039055908b16825281208054849290611aa29084906137ef565b9250508190555050505080611ab69061390a565b90506119d7565b50846001600160a01b0316866001600160a01b0316826001600160a01b03167f4a39dc06d4c0dbc64b70af90fd698a233a518aa5d07e595d983b8c0526c8f7fb8787604051611b0d929190613504565b60405180910390a4611b23818787878787612771565b505050505050565b611b358282611096565b61087b57600082815260fb602090815260408083206001600160a01b03851684529091529020805460ff19166001179055611b6d3390565b6001600160a01b0316816001600160a01b0316837f2f8788117e7eff1d82e926ec794901d17c78024a50270940304540a733656f0d60405160405180910390a45050565b611bbb8282611096565b1561087b57600082815260fb602090815260408083206001600160a01b0385168085529252808320805460ff1916905551339285917ff6391f5c32d9c69d2a47ea670b442974b53935d1edc7fd64eb21e047a839171b9190a45050565b60c95460ff16611c615760405162461bcd60e51b815260206004820152601460248201527314185d5cd8589b194e881b9bdd081c185d5cd95960621b6044820152606401610817565b60c9805460ff191690557f5db9ee0a495bf2e6ff9c91a7834c1ba4fdd244a5e8aa4e537bd38aeae4b073aa335b6040516001600160a01b03909116815260200160405180910390a1565b6001600160a01b038316611cd15760405162461bcd60e51b8152600401610817906136ac565b8051825114611cf25760405162461bcd60e51b815260040161081790613784565b6000339050611d158185600086866040518060200160405280600081525061271d565b60005b8351811015611ddd576000848281518110611d3557611d35613967565b602002602001015190506000848381518110611d5357611d53613967565b60209081029190910181015160008481526065835260408082206001600160a01b038c168352909352919091205490915081811015611da45760405162461bcd60e51b8152600401610817906135da565b60009283526065602090815260408085206001600160a01b038b1686529091529092209103905580611dd58161390a565b915050611d18565b5060006001600160a01b0316846001600160a01b0316826001600160a01b03167f4a39dc06d4c0dbc64b70af90fd698a233a518aa5d07e595d983b8c0526c8f7fb8686604051611e2e929190613504565b60405180910390a450505050565b600054610100900460ff16611e635760405162461bcd60e51b815260040161081790613739565b611e6b6128dc565b611e736128dc565b610b1f81612903565b600054610100900460ff16611ea35760405162461bcd60e51b815260040161081790613739565b611eab6128dc565b611eb36128dc565b611ebb6128dc565b565b600054610100900460ff16611ee45760405162461bcd60e51b815260040161081790613739565b611eec6128dc565b611ebb612933565b60c95460ff1615611f3a5760405162461bcd60e51b815260206004820152601060248201526f14185d5cd8589b194e881c185d5cd95960821b6044820152606401610817565b60c9805460ff191660011790557f62e78cea01bee320cd4e420270b5ea74000d11b0c9f74754ebdbfc544b05a258611c8e3390565b816001600160a01b0316836001600160a01b03161415611fe35760405162461bcd60e51b815260206004820152602960248201527f455243313135353a2073657474696e6720617070726f76616c20737461747573604482015268103337b91039b2b63360b91b6064820152608401610817565b6001600160a01b03838116600081815260666020908152604080832094871680845294825291829020805460ff191686151590811790915591519182527f17307eab39ab6107e8899845ad3d59bd9653f200f220920489ca2b5937696c31910160405180910390a3505050565b610a7f8383836040516024016120689392919061356d565b60408051601f198184030181529190526020810180516001600160e01b031663969cdd0360e01b179052612966565b6001600160a01b0384166120f75760405162461bcd60e51b815260206004820152602160248201527f455243313135353a206d696e7420746f20746865207a65726f206164647265736044820152607360f81b6064820152608401610817565b336121178160008761210888612987565b61211188612987565b8761271d565b60008481526065602090815260408083206001600160a01b0389168452909152812080548592906121499084906137ef565b909155505060408051858152602081018590526001600160a01b0380881692600092918516917fc3d58168c5ae7397731d063d5bbf3d657854427343f4c083240f7aacaa2d0f62910160405180910390a4610a52816000878787876129d2565b60008281526101656020526040902080546121c3906138a3565b1590506122125760405162461bcd60e51b815260206004820152601a60248201527f43616e6e6f74206d6f64696679206578697374696e67207572690000000000006044820152606401610817565b6000828152610165602090815260409091208251610a7f92840190612ba8565b805160009082906001908390612249908390613826565b90505b825181101561230457603083828151811061226957612269613967565b016020015160f81c108015906122995750603983828151811061228e5761228e613967565b016020015160f81c11155b6122a5576122a5613925565b8160308483815181106122ba576122ba613967565b01602001516122cc919060f81c61383d565b60ff166122d99190613807565b6122e390856137ef565b93506122f0600a83613807565b9150806122fc8161388c565b91505061224c565b505050919050565b6001600160a01b0384166123325760405162461bcd60e51b815260040161081790613667565b3361234281878761210888612987565b60008481526065602090815260408083206001600160a01b038a168452909152902054838110156123855760405162461bcd60e51b8152600401610817906136ef565b60008581526065602090815260408083206001600160a01b038b81168552925280832087850390559088168252812080548692906123c49084906137ef565b909155505060408051868152602081018690526001600160a01b03808916928a821692918616917fc3d58168c5ae7397731d063d5bbf3d657854427343f4c083240f7aacaa2d0f62910160405180910390a46124248288888888886129d2565b50505050505050565b6001600160a01b0383166124535760405162461bcd60e51b8152600401610817906136ac565b336124828185600061246487612987565b61246d87612987565b6040518060200160405280600081525061271d565b60008381526065602090815260408083206001600160a01b0388168452909152902054828110156124c55760405162461bcd60e51b8152600401610817906135da565b60008481526065602090815260408083206001600160a01b03898116808652918452828520888703905582518981529384018890529092908616917fc3d58168c5ae7397731d063d5bbf3d657854427343f4c083240f7aacaa2d0f62910160405180910390a45050505050565b60006001600160e01b03198216636cdb3d1360e11b148061256357506001600160e01b031982166303a24d0760e21b145b8061085357506301ffc9a760e01b6001600160e01b0319831614610853565b60606000612591836002613807565b61259c9060026137ef565b6001600160401b038111156125b3576125b361397d565b6040519080825280601f01601f1916602001820160405280156125dd576020820181803683370190505b509050600360fc1b816000815181106125f8576125f8613967565b60200101906001600160f81b031916908160001a905350600f60fb1b8160018151811061262757612627613967565b60200101906001600160f81b031916908160001a905350600061264b846002613807565b6126569060016137ef565b90505b60018111156126ce576f181899199a1a9b1b9c1cb0b131b232b360811b85600f166010811061268a5761268a613967565b1a60f81b8282815181106126a0576126a0613967565b60200101906001600160f81b031916908160001a90535060049490941c936126c78161388c565b9050612659565b5083156117ea5760405162461bcd60e51b815260206004820181905260248201527f537472696e67733a20686578206c656e67746820696e73756666696369656e746044820152606401610817565b60c95460ff16156127635760405162461bcd60e51b815260206004820152601060248201526f14185d5cd8589b194e881c185d5cd95960821b6044820152606401610817565b611b23868686868686612a9c565b6001600160a01b0384163b15611b235760405163bc197c8160e01b81526001600160a01b0385169063bc197c81906127b5908990899088908890889060040161344e565b602060405180830381600087803b1580156127cf57600080fd5b505af19250505080156127ff575060408051601f3d908101601f191682019092526127fc918101906131c6565b60015b6128ac5761280b613993565b806308c379a0141561284557506128206139af565b8061282b5750612847565b8060405162461bcd60e51b8152600401610817919061355a565b505b60405162461bcd60e51b815260206004820152603460248201527f455243313135353a207472616e7366657220746f206e6f6e20455243313135356044820152732932b1b2b4bb32b91034b6b83632b6b2b73a32b960611b6064820152608401610817565b6001600160e01b0319811663bc197c8160e01b146124245760405162461bcd60e51b815260040161081790613592565b600054610100900460ff16611ebb5760405162461bcd60e51b815260040161081790613739565b600054610100900460ff1661292a5760405162461bcd60e51b815260040161081790613739565b610b1f8161196b565b600054610100900460ff1661295a5760405162461bcd60e51b815260040161081790613739565b60c9805460ff19169055565b80516a636f6e736f6c652e6c6f67602083016000808483855afa5050505050565b604080516001808252818301909252606091600091906020808301908036833701905050905082816000815181106129c1576129c1613967565b602090810291909101015292915050565b6001600160a01b0384163b15611b235760405163f23a6e6160e01b81526001600160a01b0385169063f23a6e6190612a1690899089908890889088906004016134ac565b602060405180830381600087803b158015612a3057600080fd5b505af1925050508015612a60575060408051601f3d908101601f19168201909252612a5d918101906131c6565b60015b612a6c5761280b613993565b6001600160e01b0319811663f23a6e6160e01b146124245760405162461bcd60e51b815260040161081790613592565b6001600160a01b038516612b235760005b8351811015612b2157828181518110612ac857612ac8613967565b602002602001015160976000868481518110612ae657612ae6613967565b602002602001015181526020019081526020016000206000828254612b0b91906137ef565b90915550612b1a90508161390a565b9050612aad565b505b6001600160a01b038416611b235760005b835181101561242457828181518110612b4f57612b4f613967565b602002602001015160976000868481518110612b6d57612b6d613967565b602002602001015181526020019081526020016000206000828254612b929190613826565b90915550612ba190508161390a565b9050612b34565b828054612bb4906138a3565b90600052602060002090601f016020900481019282612bd65760008555612c1c565b82601f10612bef57805160ff1916838001178555612c1c565b82800160010185558215612c1c579182015b82811115612c1c578251825591602001919060010190612c01565b50612c28929150612c2c565b5090565b5b80821115612c285760008155600101612c2d565b600082601f830112612c5257600080fd5b81356020612c5f826137cc565b604051612c6c82826138de565b8381528281019150858301600585901b87018401881015612c8c57600080fd5b60005b85811015612cab57813584529284019290840190600101612c8f565b5090979650505050505050565b600082601f830112612cc957600080fd5b81356001600160401b03811115612ce257612ce261397d565b604051612cf9601f8301601f1916602001826138de565b818152846020838601011115612d0e57600080fd5b816020850160208301376000918101602001919091529392505050565b60008083601f840112612d3d57600080fd5b5081356001600160401b03811115612d5457600080fd5b602083019150836020828501011115612d6c57600080fd5b9250929050565b600060208284031215612d8557600080fd5b81356117ea81613a38565b600060208284031215612da257600080fd5b81516117ea81613a38565b60008060408385031215612dc057600080fd5b8235612dcb81613a38565b91506020830135612ddb81613a38565b809150509250929050565b600080600080600060a08688031215612dfe57600080fd5b8535612e0981613a38565b94506020860135612e1981613a38565b935060408601356001600160401b0380821115612e3557600080fd5b612e4189838a01612c41565b94506060880135915080821115612e5757600080fd5b612e6389838a01612c41565b93506080880135915080821115612e7957600080fd5b50612e8688828901612cb8565b9150509295509295909350565b600080600080600060a08688031215612eab57600080fd5b8535612eb681613a38565b94506020860135612ec681613a38565b9350604086013592506060860135915060808601356001600160401b03811115612eef57600080fd5b612e8688828901612cb8565b600080600060608486031215612f1057600080fd5b8335612f1b81613a38565b925060208401356001600160401b0380821115612f3757600080fd5b612f4387838801612c41565b93506040860135915080821115612f5957600080fd5b50612f6686828701612c41565b9150509250925092565b60008060408385031215612f8357600080fd5b8235612f8e81613a38565b915060208301358015158114612ddb57600080fd5b60008060408385031215612fb657600080fd5b8235612fc181613a38565b946020939093013593505050565b600080600060608486031215612fe457600080fd5b8335612fef81613a38565b95602085013595506040909401359392505050565b600080600080600080600060a0888a03121561301f57600080fd5b873561302a81613a38565b9650602088013595506040880135945060608801356001600160401b038082111561305457600080fd5b6130608b838c01612d2b565b909650945060808a013591508082111561307957600080fd5b506130868a828b01612d2b565b989b979a50959850939692959293505050565b600080604083850312156130ac57600080fd5b82356001600160401b03808211156130c357600080fd5b818501915085601f8301126130d757600080fd5b813560206130e4826137cc565b6040516130f182826138de565b8381528281019150858301600585901b870184018b101561311157600080fd5b600096505b8487101561313d57803561312981613a38565b835260019690960195918301918301613116565b509650508601359250508082111561315457600080fd5b5061316185828601612c41565b9150509250929050565b60006020828403121561317d57600080fd5b5035919050565b6000806040838503121561319757600080fd5b823591506020830135612ddb81613a38565b6000602082840312156131bb57600080fd5b81356117ea81613a4d565b6000602082840312156131d857600080fd5b81516117ea81613a4d565b600080602083850312156131f657600080fd5b82356001600160401b0381111561320c57600080fd5b61321885828601612d2b565b90969095509350505050565b60006020828403121561323657600080fd5b81356001600160401b0381111561324c57600080fd5b61325884828501612cb8565b949350505050565b6000806040838503121561327357600080fd5b82356001600160401b0381111561328957600080fd5b61329585828601612cb8565b9250506020830135612ddb81613a38565b600080600080606085870312156132bc57600080fd5b8435935060208501356001600160401b038111156132d957600080fd5b6132e587828801612d2b565b90945092505060408501356132f981613a38565b939692955090935050565b6000806040838503121561331757600080fd5b8235915060208301356001600160401b0381111561333457600080fd5b61316185828601612cb8565b6000806040838503121561335357600080fd5b50508035926020909101359150565b600081518084526020808501945080840160005b8381101561339257815187529582019590820190600101613376565b509495945050505050565b600081518084526133b5816020860160208601613860565b601f01601f19169290920160200192915050565b8183823760009101908152919050565b7f416363657373436f6e74726f6c3a206163636f756e7420000000000000000000815260008351613411816017850160208801613860565b7001034b99036b4b9b9b4b733903937b6329607d1b6017918401918201528351613442816028840160208801613860565b01602801949350505050565b6001600160a01b0386811682528516602082015260a06040820181905260009061347a90830186613362565b828103606084015261348c8186613362565b905082810360808401526134a0818561339d565b98975050505050505050565b6001600160a01b03868116825285166020820152604081018490526060810183905260a0608082018190526000906134e69083018461339d565b979650505050505050565b6020815260006117ea6020830184613362565b6040815260006135176040830185613362565b82810360208401526135298185613362565b95945050505050565b602081016005831061355457634e487b7160e01b600052602160045260246000fd5b91905290565b6020815260006117ea602083018461339d565b606081526000613580606083018661339d565b60208301949094525060400152919050565b60208082526028908201527f455243313135353a204552433131353552656365697665722072656a656374656040820152676420746f6b656e7360c01b606082015260800190565b60208082526024908201527f455243313135353a206275726e20616d6f756e7420657863656564732062616c604082015263616e636560e01b606082015260800190565b60208082526029908201527f455243313135353a2063616c6c6572206973206e6f74206f776e6572206e6f7260408201526808185c1c1c9bdd995960ba1b606082015260800190565b60208082526025908201527f455243313135353a207472616e7366657220746f20746865207a65726f206164604082015264647265737360d81b606082015260800190565b60208082526023908201527f455243313135353a206275726e2066726f6d20746865207a65726f206164647260408201526265737360e81b606082015260800190565b6020808252602a908201527f455243313135353a20696e73756666696369656e742062616c616e636520666f60408201526939103a3930b739b332b960b11b606082015260800190565b6020808252602b908201527f496e697469616c697a61626c653a20636f6e7472616374206973206e6f74206960408201526a6e697469616c697a696e6760a81b606082015260800190565b60208082526028908201527f455243313135353a2069647320616e6420616d6f756e7473206c656e677468206040820152670dad2e6dac2e8c6d60c31b606082015260800190565b60006001600160401b038211156137e5576137e561397d565b5060051b60200190565b600082198211156138025761380261393b565b500190565b60008160001904831182151516156138215761382161393b565b500290565b6000828210156138385761383861393b565b500390565b600060ff821660ff8416808210156138575761385761393b565b90039392505050565b60005b8381101561387b578181015183820152602001613863565b83811115610ced5750506000910152565b60008161389b5761389b61393b565b506000190190565b600181811c908216806138b757607f821691505b602082108114156138d857634e487b7160e01b600052602260045260246000fd5b50919050565b601f8201601f191681016001600160401b03811182821017156139035761390361397d565b6040525050565b600060001982141561391e5761391e61393b565b5060010190565b634e487b7160e01b600052600160045260246000fd5b634e487b7160e01b600052601160045260246000fd5b634e487b7160e01b600052602160045260246000fd5b634e487b7160e01b600052603260045260246000fd5b634e487b7160e01b600052604160045260246000fd5b600060033d11156139ac5760046000803e5060005160e01c5b90565b600060443d10156139bd5790565b6040516003193d81016004833e81513d6001600160401b0381602484011181841117156139ec57505050505090565b8285019150815181811115613a045750505050505090565b843d8701016020828501011115613a1e5750505050505090565b613a2d602082860101876138de565b509095945050505050565b6001600160a01b0381168114610b1f57600080fd5b6001600160e01b031981168114610b1f57600080fdfeb19546dff01e856fb3f010c267a7b1c60363cf8a4664e21cc89c26224620214ea49807205ce4d355092ef5a8a18f56e8913cf4a201fbe287825b095693c21775a2646970667358221220e4c3335dd1d68ae108d19e69f7b1f649281f83dbaa3dbd703229b107e5fee24164736f6c63430008070033",
  "linkReferences": {},
  "deployedLinkReferences": {}
}