{
  "_format": "hh-sol-artifact-1",
  "contractName": "Memberships",
  "sourceName": "contracts/Memberships.sol",
  "abi": [
    {
      "inputs": [
        {
          "internalType": "string",
          "name": "tokenName",
          "type": "string"
        },
        {
          "internalType": "string",
          "name": "tokenCode",
          "type": "string"
        }
      ],
      "stateMutability": "nonpayable",
      "type": "constructor"
    },
    {
      "anonymous": false,
      "inputs": [
        {
          "indexed": true,
          "internalType": "address",
          "name": "account",
          "type": "address"
        },
        {
          "indexed": true,
          "internalType": "address",
          "name": "operator",
          "type": "address"
        },
        {
          "indexed": false,
          "internalType": "bool",
          "name": "approved",
          "type": "bool"
        }
      ],
      "name": "ApprovalForAll",
      "type": "event"
    },
    {
      "anonymous": false,
      "inputs": [
        {
          "indexed": false,
          "internalType": "address",
          "name": "sender",
          "type": "address"
        },
        {
          "indexed": false,
          "internalType": "uint256",
          "name": "tokenId",
          "type": "uint256"
        }
      ],
      "name": "NewMembershipMinted",
      "type": "event"
    },
    {
      "anonymous": false,
      "inputs": [
        {
          "indexed": false,
          "internalType": "address",
          "name": "sender",
          "type": "address"
        },
        {
          "indexed": false,
          "internalType": "uint256",
          "name": "tokenId",
          "type": "uint256"
        }
      ],
      "name": "NewMembershipTokenCreated",
      "type": "event"
    },
    {
      "anonymous": false,
      "inputs": [
        {
          "indexed": false,
          "internalType": "address",
          "name": "account",
          "type": "address"
        }
      ],
      "name": "Paused",
      "type": "event"
    },
    {
      "anonymous": false,
      "inputs": [
        {
          "indexed": true,
          "internalType": "bytes32",
          "name": "role",
          "type": "bytes32"
        },
        {
          "indexed": true,
          "internalType": "bytes32",
          "name": "previousAdminRole",
          "type": "bytes32"
        },
        {
          "indexed": true,
          "internalType": "bytes32",
          "name": "newAdminRole",
          "type": "bytes32"
        }
      ],
      "name": "RoleAdminChanged",
      "type": "event"
    },
    {
      "anonymous": false,
      "inputs": [
        {
          "indexed": true,
          "internalType": "bytes32",
          "name": "role",
          "type": "bytes32"
        },
        {
          "indexed": true,
          "internalType": "address",
          "name": "account",
          "type": "address"
        },
        {
          "indexed": true,
          "internalType": "address",
          "name": "sender",
          "type": "address"
        }
      ],
      "name": "RoleGranted",
      "type": "event"
    },
    {
      "anonymous": false,
      "inputs": [
        {
          "indexed": true,
          "internalType": "bytes32",
          "name": "role",
          "type": "bytes32"
        },
        {
          "indexed": true,
          "internalType": "address",
          "name": "account",
          "type": "address"
        },
        {
          "indexed": true,
          "internalType": "address",
          "name": "sender",
          "type": "address"
        }
      ],
      "name": "RoleRevoked",
      "type": "event"
    },
    {
      "anonymous": false,
      "inputs": [
        {
          "indexed": true,
          "internalType": "address",
          "name": "operator",
          "type": "address"
        },
        {
          "indexed": true,
          "internalType": "address",
          "name": "from",
          "type": "address"
        },
        {
          "indexed": true,
          "internalType": "address",
          "name": "to",
          "type": "address"
        },
        {
          "indexed": false,
          "internalType": "uint256[]",
          "name": "ids",
          "type": "uint256[]"
        },
        {
          "indexed": false,
          "internalType": "uint256[]",
          "name": "values",
          "type": "uint256[]"
        }
      ],
      "name": "TransferBatch",
      "type": "event"
    },
    {
      "anonymous": false,
      "inputs": [
        {
          "indexed": true,
          "internalType": "address",
          "name": "operator",
          "type": "address"
        },
        {
          "indexed": true,
          "internalType": "address",
          "name": "from",
          "type": "address"
        },
        {
          "indexed": true,
          "internalType": "address",
          "name": "to",
          "type": "address"
        },
        {
          "indexed": false,
          "internalType": "uint256",
          "name": "id",
          "type": "uint256"
        },
        {
          "indexed": false,
          "internalType": "uint256",
          "name": "value",
          "type": "uint256"
        }
      ],
      "name": "TransferSingle",
      "type": "event"
    },
    {
      "anonymous": false,
      "inputs": [
        {
          "indexed": false,
          "internalType": "string",
          "name": "value",
          "type": "string"
        },
        {
          "indexed": true,
          "internalType": "uint256",
          "name": "id",
          "type": "uint256"
        }
      ],
      "name": "URI",
      "type": "event"
    },
    {
      "anonymous": false,
      "inputs": [
        {
          "indexed": false,
          "internalType": "address",
          "name": "account",
          "type": "address"
        }
      ],
      "name": "Unpaused",
      "type": "event"
    },
    {
      "inputs": [],
      "name": "ADMIN_ROLE",
      "outputs": [
        {
          "internalType": "bytes32",
          "name": "",
          "type": "bytes32"
        }
      ],
      "stateMutability": "view",
      "type": "function"
    },
    {
      "inputs": [],
      "name": "DEFAULT_ADMIN_ROLE",
      "outputs": [
        {
          "internalType": "bytes32",
          "name": "",
          "type": "bytes32"
        }
      ],
      "stateMutability": "view",
      "type": "function"
    },
    {
      "inputs": [],
      "name": "OWNER_ROLE",
      "outputs": [
        {
          "internalType": "bytes32",
          "name": "",
          "type": "bytes32"
        }
      ],
      "stateMutability": "view",
      "type": "function"
    },
    {
      "inputs": [],
      "name": "RECEPTION_ACCOUNT",
      "outputs": [
        {
          "internalType": "address",
          "name": "",
          "type": "address"
        }
      ],
      "stateMutability": "view",
      "type": "function"
    },
    {
      "inputs": [
        {
          "internalType": "address",
          "name": "account",
          "type": "address"
        },
        {
          "internalType": "uint256",
          "name": "id",
          "type": "uint256"
        }
      ],
      "name": "balanceOf",
      "outputs": [
        {
          "internalType": "uint256",
          "name": "",
          "type": "uint256"
        }
      ],
      "stateMutability": "view",
      "type": "function"
    },
    {
      "inputs": [
        {
          "internalType": "address[]",
          "name": "accounts",
          "type": "address[]"
        },
        {
          "internalType": "uint256[]",
          "name": "ids",
          "type": "uint256[]"
        }
      ],
      "name": "balanceOfBatch",
      "outputs": [
        {
          "internalType": "uint256[]",
          "name": "",
          "type": "uint256[]"
        }
      ],
      "stateMutability": "view",
      "type": "function"
    },
    {
      "inputs": [
        {
          "internalType": "address",
          "name": "account",
          "type": "address"
        },
        {
          "internalType": "uint256",
          "name": "id",
          "type": "uint256"
        },
        {
          "internalType": "uint256",
          "name": "value",
          "type": "uint256"
        }
      ],
      "name": "burn",
      "outputs": [],
      "stateMutability": "nonpayable",
      "type": "function"
    },
    {
      "inputs": [
        {
          "internalType": "address",
          "name": "account",
          "type": "address"
        },
        {
          "internalType": "uint256[]",
          "name": "ids",
          "type": "uint256[]"
        },
        {
          "internalType": "uint256[]",
          "name": "values",
          "type": "uint256[]"
        }
      ],
      "name": "burnBatch",
      "outputs": [],
      "stateMutability": "nonpayable",
      "type": "function"
    },
    {
      "inputs": [
        {
          "internalType": "uint256",
          "name": "id",
          "type": "uint256"
        }
      ],
      "name": "exists",
      "outputs": [
        {
          "internalType": "bool",
          "name": "",
          "type": "bool"
        }
      ],
      "stateMutability": "view",
      "type": "function"
    },
    {
      "inputs": [
        {
          "internalType": "uint256",
          "name": "tokenId",
          "type": "uint256"
        }
      ],
      "name": "getMembership",
      "outputs": [
        {
          "internalType": "uint256",
          "name": "",
          "type": "uint256"
        }
      ],
      "stateMutability": "view",
      "type": "function"
    },
    {
      "inputs": [
        {
          "internalType": "uint256",
          "name": "channel",
          "type": "uint256"
        }
      ],
      "name": "getMembershipList",
      "outputs": [
        {
          "internalType": "uint256[]",
          "name": "",
          "type": "uint256[]"
        }
      ],
      "stateMutability": "view",
      "type": "function"
    },
    {
      "inputs": [
        {
          "internalType": "bytes32",
          "name": "role",
          "type": "bytes32"
        }
      ],
      "name": "getRoleAdmin",
      "outputs": [
        {
          "internalType": "bytes32",
          "name": "",
          "type": "bytes32"
        }
      ],
      "stateMutability": "view",
      "type": "function"
    },
    {
      "inputs": [],
      "name": "getTokenIndex",
      "outputs": [
        {
          "internalType": "uint256",
          "name": "",
          "type": "uint256"
        }
      ],
      "stateMutability": "view",
      "type": "function"
    },
    {
      "inputs": [
        {
          "internalType": "bytes32",
          "name": "role",
          "type": "bytes32"
        },
        {
          "internalType": "address",
          "name": "account",
          "type": "address"
        }
      ],
      "name": "grantRole",
      "outputs": [],
      "stateMutability": "nonpayable",
      "type": "function"
    },
    {
      "inputs": [
        {
          "internalType": "bytes32",
          "name": "role",
          "type": "bytes32"
        },
        {
          "internalType": "address",
          "name": "account",
          "type": "address"
        }
      ],
      "name": "hasRole",
      "outputs": [
        {
          "internalType": "bool",
          "name": "",
          "type": "bool"
        }
      ],
      "stateMutability": "view",
      "type": "function"
    },
    {
      "inputs": [
        {
          "internalType": "string",
          "name": "tokenName",
          "type": "string"
        },
        {
          "internalType": "string",
          "name": "tokenCode",
          "type": "string"
        }
      ],
      "name": "initialize",
      "outputs": [],
      "stateMutability": "nonpayable",
      "type": "function"
    },
    {
      "inputs": [
        {
          "internalType": "address",
          "name": "account",
          "type": "address"
        },
        {
          "internalType": "address",
          "name": "operator",
          "type": "address"
        }
      ],
      "name": "isApprovedForAll",
      "outputs": [
        {
          "internalType": "bool",
          "name": "",
          "type": "bool"
        }
      ],
      "stateMutability": "view",
      "type": "function"
    },
    {
      "inputs": [
        {
          "internalType": "string",
          "name": "",
          "type": "string"
        }
      ],
      "name": "levelMapping",
      "outputs": [
        {
          "internalType": "enum Memberships.Levels",
          "name": "",
          "type": "uint8"
        }
      ],
      "stateMutability": "view",
      "type": "function"
    },
    {
      "inputs": [
        {
          "internalType": "uint256",
          "name": "channel",
          "type": "uint256"
        },
        {
          "internalType": "string",
          "name": "level",
          "type": "string"
        }
      ],
      "name": "membershipMint",
      "outputs": [],
      "stateMutability": "payable",
      "type": "function"
    },
    {
      "inputs": [
        {
          "internalType": "uint256",
          "name": "channel",
          "type": "uint256"
        },
        {
          "internalType": "uint256",
          "name": "cost",
          "type": "uint256"
        },
        {
          "internalType": "string",
          "name": "level",
          "type": "string"
        },
        {
          "internalType": "string",
          "name": "computedUri",
          "type": "string"
        }
      ],
      "name": "membershipTokenCreate",
      "outputs": [],
      "stateMutability": "nonpayable",
      "type": "function"
    },
    {
      "inputs": [],
      "name": "name",
      "outputs": [
        {
          "internalType": "string",
          "name": "",
          "type": "string"
        }
      ],
      "stateMutability": "view",
      "type": "function"
    },
    {
      "inputs": [],
      "name": "pause",
      "outputs": [],
      "stateMutability": "nonpayable",
      "type": "function"
    },
    {
      "inputs": [],
      "name": "paused",
      "outputs": [
        {
          "internalType": "bool",
          "name": "",
          "type": "bool"
        }
      ],
      "stateMutability": "view",
      "type": "function"
    },
    {
      "inputs": [
        {
          "internalType": "bytes32",
          "name": "role",
          "type": "bytes32"
        },
        {
          "internalType": "address",
          "name": "account",
          "type": "address"
        }
      ],
      "name": "renounceRole",
      "outputs": [],
      "stateMutability": "nonpayable",
      "type": "function"
    },
    {
      "inputs": [
        {
          "internalType": "bytes32",
          "name": "role",
          "type": "bytes32"
        },
        {
          "internalType": "address",
          "name": "account",
          "type": "address"
        }
      ],
      "name": "revokeRole",
      "outputs": [],
      "stateMutability": "nonpayable",
      "type": "function"
    },
    {
      "inputs": [
        {
          "internalType": "address",
          "name": "from",
          "type": "address"
        },
        {
          "internalType": "address",
          "name": "to",
          "type": "address"
        },
        {
          "internalType": "uint256[]",
          "name": "ids",
          "type": "uint256[]"
        },
        {
          "internalType": "uint256[]",
          "name": "amounts",
          "type": "uint256[]"
        },
        {
          "internalType": "bytes",
          "name": "data",
          "type": "bytes"
        }
      ],
      "name": "safeBatchTransferFrom",
      "outputs": [],
      "stateMutability": "nonpayable",
      "type": "function"
    },
    {
      "inputs": [
        {
          "internalType": "address",
          "name": "from",
          "type": "address"
        },
        {
          "internalType": "address",
          "name": "to",
          "type": "address"
        },
        {
          "internalType": "uint256",
          "name": "id",
          "type": "uint256"
        },
        {
          "internalType": "uint256",
          "name": "amount",
          "type": "uint256"
        },
        {
          "internalType": "bytes",
          "name": "data",
          "type": "bytes"
        }
      ],
      "name": "safeTransferFrom",
      "outputs": [],
      "stateMutability": "nonpayable",
      "type": "function"
    },
    {
      "inputs": [
        {
          "internalType": "address",
          "name": "operator",
          "type": "address"
        },
        {
          "internalType": "bool",
          "name": "approved",
          "type": "bool"
        }
      ],
      "name": "setApprovalForAll",
      "outputs": [],
      "stateMutability": "nonpayable",
      "type": "function"
    },
    {
      "inputs": [
        {
          "internalType": "string",
          "name": "maxMember",
          "type": "string"
        }
      ],
      "name": "setMaxMemberships",
      "outputs": [],
      "stateMutability": "nonpayable",
      "type": "function"
    },
    {
      "inputs": [
        {
          "internalType": "uint256",
          "name": "tokenId",
          "type": "uint256"
        },
        {
          "internalType": "string",
          "name": "newUri",
          "type": "string"
        }
      ],
      "name": "setTokenUri",
      "outputs": [],
      "stateMutability": "nonpayable",
      "type": "function"
    },
    {
      "inputs": [
        {
          "internalType": "string",
          "name": "newuri",
          "type": "string"
        }
      ],
      "name": "setURI",
      "outputs": [],
      "stateMutability": "nonpayable",
      "type": "function"
    },
    {
      "inputs": [
        {
          "internalType": "bytes4",
          "name": "interfaceId",
          "type": "bytes4"
        }
      ],
      "name": "supportsInterface",
      "outputs": [
        {
          "internalType": "bool",
          "name": "",
          "type": "bool"
        }
      ],
      "stateMutability": "view",
      "type": "function"
    },
    {
      "inputs": [],
      "name": "symbol",
      "outputs": [
        {
          "internalType": "string",
          "name": "",
          "type": "string"
        }
      ],
      "stateMutability": "view",
      "type": "function"
    },
    {
      "inputs": [
        {
          "internalType": "uint256",
          "name": "id",
          "type": "uint256"
        }
      ],
      "name": "totalSupply",
      "outputs": [
        {
          "internalType": "uint256",
          "name": "",
          "type": "uint256"
        }
      ],
      "stateMutability": "view",
      "type": "function"
    },
    {
      "inputs": [
        {
          "internalType": "address",
          "name": "to",
          "type": "address"
        }
      ],
      "name": "transferOwnership",
      "outputs": [],
      "stateMutability": "nonpayable",
      "type": "function"
    },
    {
      "inputs": [],
      "name": "unpause",
      "outputs": [],
      "stateMutability": "nonpayable",
      "type": "function"
    },
    {
      "inputs": [
        {
          "internalType": "uint256",
          "name": "tokenId",
          "type": "uint256"
        }
      ],
      "name": "uri",
      "outputs": [
        {
          "internalType": "string",
          "name": "",
          "type": "string"
        }
      ],
      "stateMutability": "view",
      "type": "function"
    },
    {
      "inputs": [],
      "name": "withdrawBalance",
      "outputs": [],
      "stateMutability": "nonpayable",
      "type": "function"
    }
  ],
  "bytecode": "0x608060405261016180546001600160a01b03191673836c31094bea1ae6b65f76d1c906b01329645a94179055600a610168553480156200003e57600080fd5b5060405162003a1338038062003a1383398101604081905262000061916200020a565b600054610100900460ff166200007e5760005460ff161562000088565b620000886200012f565b620000f05760405162461bcd60e51b815260206004820152602e60248201527f496e697469616c697a61626c653a20636f6e747261637420697320616c72656160448201526d191e481a5b9a5d1a585b1a5e995960921b606482015260840160405180910390fd5b600054610100900460ff1615801562000113576000805461ffff19166101011790555b801562000126576000805461ff00191690555b5050506200028a565b600062000147306200014d60201b620015fa1760201c565b15905090565b3b151590565b600082601f8301126200016557600080fd5b81516001600160401b038082111562000182576200018262000274565b604051601f8301601f19908116603f01168101908282118183101715620001ad57620001ad62000274565b81604052838152602092508683858801011115620001ca57600080fd5b600091505b83821015620001ee5785820183015181830184015290820190620001cf565b83821115620002005760008385830101525b9695505050505050565b600080604083850312156200021e57600080fd5b82516001600160401b03808211156200023657600080fd5b620002448683870162000153565b935060208501519150808211156200025b57600080fd5b506200026a8582860162000153565b9150509250929050565b634e487b7160e01b600052604160045260246000fd5b613779806200029a6000396000f3fe6080604052600436106102245760003560e01c80635fd8c71011610123578063bd85b039116100ab578063e985e9c51161006f578063e985e9c5146106a5578063f242432a146106ee578063f2fde38b1461070e578063f5298aca1461072e578063f72c2fe61461074e57600080fd5b8063bd85b039146105f6578063d466645e14610623578063d547741f14610643578063d8eaf1a514610663578063e58378bb1461068357600080fd5b806391d14854116100f257806391d148541461056c57806395d89b411461058c578063a217fddf146105a1578063a22cb465146105b6578063b9c08fd3146105d657600080fd5b80635fd8c710146105005780636b20c4541461051557806375b238fc146105355780638456cb591461055757600080fd5b80632f2ff15d116101b15780634cd88b76116101755780634cd88b761461044c5780634e1273f41461046c5780634f558e791461049957806357f7789e146104c85780635c975abb146104e857600080fd5b80632f2ff15d1461038e57806336568abe146103ae57806338fbf2c6146103ce5780633f4ba83a146103ee578063451982541461040357600080fd5b806306fdde03116101f857806306fdde03146102e75780630e89341c14610309578063248a9ca314610329578063295d3ee8146103595780632eb2c2d61461036e57600080fd5b8062fdd58e1461022957806301ffc9a71461025c57806302fe53051461028c578063057ec306146102ae575b600080fd5b34801561023557600080fd5b50610249610244366004612cba565b610761565b6040519081526020015b60405180910390f35b34801561026857600080fd5b5061027c610277366004612e23565b6107fa565b6040519015158152602001610253565b34801561029857600080fd5b506102ac6102a7366004612e9e565b61080b565b005b3480156102ba57600080fd5b50610161546102cf906001600160a01b031681565b6040516001600160a01b039091168152602001610253565b3480156102f357600080fd5b506102fc610831565b6040516102539190613234565b34801561031557600080fd5b506102fc610324366004612de7565b6108c0565b34801561033557600080fd5b50610249610344366004612de7565b600090815260fb602052604090206001015490565b34801561036557600080fd5b50610249610963565b34801561037a57600080fd5b506102ac610389366004612afe565b610974565b34801561039a57600080fd5b506102ac6103a9366004612e00565b610a0b565b3480156103ba57600080fd5b506102ac6103c9366004612e00565b610a36565b3480156103da57600080fd5b506102496103e9366004612de7565b610ab0565b3480156103fa57600080fd5b506102ac610abc565b34801561040f57600080fd5b5061043f61041e366004612e9e565b80516020818301810180516101638252928201919093012091525460ff1681565b604051610253919061320c565b34801561045857600080fd5b506102ac610467366004612eda565b610ae0565b34801561047857600080fd5b5061048c610487366004612d17565b610db0565b60405161025391906131cb565b3480156104a557600080fd5b5061027c6104b4366004612de7565b600090815260976020526040902054151590565b3480156104d457600080fd5b506102ac6104e3366004612f7e565b610ed9565b3480156104f457600080fd5b5060c95460ff1661027c565b34801561050c57600080fd5b506102ac610f81565b34801561052157600080fd5b506102ac610530366004612c0b565b61102d565b34801561054157600080fd5b5061024960008051602061372483398151915281565b34801561056357600080fd5b506102ac611070565b34801561057857600080fd5b5061027c610587366004612e00565b611091565b34801561059857600080fd5b506102fc6110bc565b3480156105ad57600080fd5b50610249600081565b3480156105c257600080fd5b506102ac6105d1366004612c7e565b6110ca565b3480156105e257600080fd5b5061048c6105f1366004612de7565b6110d5565b34801561060257600080fd5b50610249610611366004612de7565b60009081526097602052604090205490565b34801561062f57600080fd5b506102ac61063e366004612e5d565b611137565b34801561064f57600080fd5b506102ac61065e366004612e00565b61119b565b34801561066f57600080fd5b506102ac61067e366004612fba565b6111c1565b34801561068f57600080fd5b5061024960008051602061370483398151915281565b3480156106b157600080fd5b5061027c6106c0366004612acb565b6001600160a01b03918216600090815260666020908152604080832093909416825291909152205460ff1690565b3480156106fa57600080fd5b506102ac610709366004612ba7565b6112ea565b34801561071a57600080fd5b506102ac610729366004612ab0565b61132f565b34801561073a57600080fd5b506102ac610749366004612ce4565b611360565b6102ac61075c366004612f33565b6113a3565b60006001600160a01b0383166107d25760405162461bcd60e51b815260206004820152602b60248201527f455243313135353a2062616c616e636520717565727920666f7220746865207a60448201526a65726f206164647265737360a81b60648201526084015b60405180910390fd5b5060009081526065602090815260408083206001600160a01b03949094168352929052205490565b600061080582611600565b92915050565b6000805160206137248339815191526108248133611625565b61082d82611689565b5050565b61015f805461083f90613558565b80601f016020809104026020016040519081016040528092919081815260200182805461086b90613558565b80156108b85780601f1061088d576101008083540402835291602001916108b8565b820191906000526020600020905b81548152906001019060200180831161089b57829003601f168201915b505050505081565b6000818152610164602052604090208054606091906108de90613558565b80601f016020809104026020016040519081016040528092919081815260200182805461090a90613558565b80156109575780601f1061092c57610100808354040283529160200191610957565b820191906000526020600020905b81548152906001019060200180831161093a57829003601f168201915b50505050509050919050565b600061096f6101625490565b905090565b6001600160a01b038516331480610990575061099085336106c0565b6109f75760405162461bcd60e51b815260206004820152603260248201527f455243313135353a207472616e736665722063616c6c6572206973206e6f74206044820152711bdddb995c881b9bdc88185c1c1c9bdd995960721b60648201526084016107c9565b610a04858585858561169c565b5050505050565b600082815260fb6020526040902060010154610a278133611625565b610a318383611849565b505050565b6001600160a01b0381163314610aa65760405162461bcd60e51b815260206004820152602f60248201527f416363657373436f6e74726f6c3a2063616e206f6e6c792072656e6f756e636560448201526e103937b632b9903337b91039b2b63360891b60648201526084016107c9565b61082d82826118cf565b60006108053383610761565b600080516020613704833981519152610ad58133611625565b610add611936565b50565b600054610100900460ff16610afb5760005460ff1615610aff565b303b155b610b625760405162461bcd60e51b815260206004820152602e60248201527f496e697469616c697a61626c653a20636f6e747261637420697320616c72656160448201526d191e481a5b9a5d1a585b1a5e995960921b60648201526084016107c9565b600054610100900460ff16158015610b84576000805461ffff19166101011790555b610b8d836119c9565b610b95611a09565b610b9d611a09565b610ba5611a4a565b610bad611a09565b610bb8600033611849565b610bd060008051602061372483398151915233611849565b610be860008051602061370483398151915233611849565b610c1460008051602061372483398151915273f39fd6e51aad88f6f4ce6ab8827279cfffb92266611849565b610c4060008051602061370483398151915273f39fd6e51aad88f6f4ce6ab8827279cfffb92266611849565b6000610163604051610c5e906562726f6e7a6560d01b815260060190565b908152604051908190036020019020805460ff19166001836003811115610c8757610c87613606565b02179055506001610163604051610caa906539b4b63b32b960d11b815260060190565b908152604051908190036020019020805460ff19166001836003811115610cd357610cd3613606565b02179055506002610163604051610cf4906319dbdb1960e21b815260040190565b908152604051908190036020019020805460ff19166001836003811115610d1d57610d1d613606565b02179055506003610163604051610d429067706c6174696e756d60c01b815260080190565b908152604051908190036020019020805460ff19166001836003811115610d6b57610d6b613606565b02179055508251610d849061015f9060208601906128c9565b508151610d99906101609060208501906128c9565b508015610a31576000805461ff0019169055505050565b60608151835114610e155760405162461bcd60e51b815260206004820152602960248201527f455243313135353a206163636f756e747320616e6420696473206c656e677468604482015268040dad2e6dac2e8c6d60bb1b60648201526084016107c9565b600083516001600160401b03811115610e3057610e30613632565b604051908082528060200260200182016040528015610e59578160200160208202803683370190505b50905060005b8451811015610ed157610ea4858281518110610e7d57610e7d61361c565b6020026020010151858381518110610e9757610e9761361c565b6020026020010151610761565b828281518110610eb657610eb661361c565b6020908102919091010152610eca816135bf565b9050610e5f565b509392505050565b600080516020613704833981519152610ef28133611625565b6000838152610164602052604090208054610f0c90613558565b159050610f5b5760405162461bcd60e51b815260206004820152601a60248201527f43616e6e6f74206d6f64696679206578697374696e672075726900000000000060448201526064016107c9565b6000838152610164602090815260409091208351610f7b928501906128c9565b50505050565b600080516020613704833981519152610f9a8133611625565b60405133904790600090839083908381818185875af1925050503d8060008114610fe0576040519150601f19603f3d011682016040523d82523d6000602084013e610fe5565b606091505b5050905080610f7b5760405162461bcd60e51b81526020600482015260146024820152734661696c656420746f2073656e64204d4154494360601b60448201526064016107c9565b6001600160a01b038316331480611049575061104983336106c0565b6110655760405162461bcd60e51b81526004016107c9906132d3565b610a31838383611a81565b6000805160206137048339815191526110898133611625565b610add611c12565b600091825260fb602090815260408084206001600160a01b0393909316845291905290205460ff1690565b610160805461083f90613558565b61082d338383611c8d565b6000818152610165602090815260409182902080548351818402810184019094528084526060939283018282801561095757602002820191906000526020600020905b8154815260200190600101908083116111185750505050509050919050565b6000805160206137048339815191526111508133611625565b600061119184848080601f016020809104026020016040519081016040528093929190818152602001838380828437600092019190915250611d6e92505050565b6101685550505050565b600082815260fb60205260409020600101546111b78133611625565b610a3183836118cf565b60006111cd6101625490565b90506111de61016280546001019055565b60008781526101656020908152604080832080546001810182559084528284200184905583835261016690915290819020879055516101639061122490879087906130a3565b90815260408051602092819003830190205460008481526101679093529120805460ff9092169160ff1916600183600381111561126357611263613606565b02179055506112a88184848080601f016020809104026020016040519081016040528093929190818152602001838380828437600092019190915250611e4892505050565b60408051338152602081018390527fbbc2bd2c0eaa795a53fbbb48b3ad77f6e5719e4b44166a7945aa12e93fcf677f910160405180910390a150505050505050565b6001600160a01b038516331480611306575061130685336106c0565b6113225760405162461bcd60e51b81526004016107c9906132d3565b610a048585858585611ed1565b6000805160206137248339815191526113488133611625565b61082d60008051602061370483398151915283611849565b6001600160a01b03831633148061137c575061137c83336106c0565b6113985760405162461bcd60e51b81526004016107c9906132d3565b610a31838383612001565b600083815261016560209081526040808320805482518185028101850190935280835291929091908301828280156113fa57602002820191906000526020600020905b8154815260200190600101908083116113e6575b5050505050905060008151116114615760405162461bcd60e51b815260206004820152602660248201527f4e6f206d656d6265727368697073206d696e74656420666f72207468697320636044820152651a185b9b995b60d21b60648201526084016107c9565b6000805b825181101561152c57600061016760008584815181106114875761148761361c565b6020026020010151815260200190815260200160002060009054906101000a900460ff16905061016386866040516114c09291906130a3565b9081526040519081900360200190205460ff1660038111156114e4576114e4613606565b8160038111156114f6576114f6613606565b14156115195783828151811061150e5761150e61361c565b602002602001015192505b5080611524816135bf565b915050611465565b506000818152610166602052604090205434811061157957611579604051806040016040528060148152602001736e6f7420656e6f756768206d6f6e65796261677360601b815250612106565b6115953383600160405180602001604052806000815250612149565b60008681526101656020908152604080832080546001810182559084529282902090920184905581513381529081018490527ffe532499518ab958be1855c68f1cf6c3cd1ad50b40dcb9dfb1c5185da7511de7910160405180910390a1505050505050565b3b151590565b60006001600160e01b03198216637965db0b60e01b148061080557506108058261224c565b61162f8282611091565b61082d57611647816001600160a01b0316601461229c565b61165283602061229c565b6040516020016116639291906130b3565b60408051601f198184030181529082905262461bcd60e51b82526107c991600401613234565b805161082d9060679060208401906128c9565b81518351146116bd5760405162461bcd60e51b81526004016107c990613439565b6001600160a01b0384166116e35760405162461bcd60e51b81526004016107c99061331c565b336116f281878787878761243e565b60005b84518110156117db5760008582815181106117125761171261361c565b6020026020010151905060008583815181106117305761173061361c565b60209081029190910181015160008481526065835260408082206001600160a01b038e1683529093529190912054909150818110156117815760405162461bcd60e51b81526004016107c9906133a4565b60008381526065602090815260408083206001600160a01b038e8116855292528083208585039055908b168252812080548492906117c09084906134a4565b92505081905550505050806117d4906135bf565b90506116f5565b50846001600160a01b0316866001600160a01b0316826001600160a01b03167f4a39dc06d4c0dbc64b70af90fd698a233a518aa5d07e595d983b8c0526c8f7fb878760405161182b9291906131de565b60405180910390a4611841818787878787612492565b505050505050565b6118538282611091565b61082d57600082815260fb602090815260408083206001600160a01b03851684529091529020805460ff1916600117905561188b3390565b6001600160a01b0316816001600160a01b0316837f2f8788117e7eff1d82e926ec794901d17c78024a50270940304540a733656f0d60405160405180910390a45050565b6118d98282611091565b1561082d57600082815260fb602090815260408083206001600160a01b0385168085529252808320805460ff1916905551339285917ff6391f5c32d9c69d2a47ea670b442974b53935d1edc7fd64eb21e047a839171b9190a45050565b60c95460ff1661197f5760405162461bcd60e51b815260206004820152601460248201527314185d5cd8589b194e881b9bdd081c185d5cd95960621b60448201526064016107c9565b60c9805460ff191690557f5db9ee0a495bf2e6ff9c91a7834c1ba4fdd244a5e8aa4e537bd38aeae4b073aa335b6040516001600160a01b03909116815260200160405180910390a1565b600054610100900460ff166119f05760405162461bcd60e51b81526004016107c9906133ee565b6119f86125fd565b611a006125fd565b610add81612624565b600054610100900460ff16611a305760405162461bcd60e51b81526004016107c9906133ee565b611a386125fd565b611a406125fd565b611a486125fd565b565b600054610100900460ff16611a715760405162461bcd60e51b81526004016107c9906133ee565b611a796125fd565b611a48612654565b6001600160a01b038316611aa75760405162461bcd60e51b81526004016107c990613361565b8051825114611ac85760405162461bcd60e51b81526004016107c990613439565b6000339050611aeb8185600086866040518060200160405280600081525061243e565b60005b8351811015611bb3576000848281518110611b0b57611b0b61361c565b602002602001015190506000848381518110611b2957611b2961361c565b60209081029190910181015160008481526065835260408082206001600160a01b038c168352909352919091205490915081811015611b7a5760405162461bcd60e51b81526004016107c99061328f565b60009283526065602090815260408085206001600160a01b038b1686529091529092209103905580611bab816135bf565b915050611aee565b5060006001600160a01b0316846001600160a01b0316826001600160a01b03167f4a39dc06d4c0dbc64b70af90fd698a233a518aa5d07e595d983b8c0526c8f7fb8686604051611c049291906131de565b60405180910390a450505050565b60c95460ff1615611c585760405162461bcd60e51b815260206004820152601060248201526f14185d5cd8589b194e881c185d5cd95960821b60448201526064016107c9565b60c9805460ff191660011790557f62e78cea01bee320cd4e420270b5ea74000d11b0c9f74754ebdbfc544b05a2586119ac3390565b816001600160a01b0316836001600160a01b03161415611d015760405162461bcd60e51b815260206004820152602960248201527f455243313135353a2073657474696e6720617070726f76616c20737461747573604482015268103337b91039b2b63360b91b60648201526084016107c9565b6001600160a01b03838116600081815260666020908152604080832094871680845294825291829020805460ff191686151590811790915591519182527f17307eab39ab6107e8899845ad3d59bd9653f200f220920489ca2b5937696c31910160405180910390a3505050565b805160009082906001908390611d859083906134db565b90505b8251811015611e40576030838281518110611da557611da561361c565b016020015160f81c10801590611dd557506039838281518110611dca57611dca61361c565b016020015160f81c11155b611de157611de16135da565b816030848381518110611df657611df661361c565b0160200151611e08919060f81c6134f2565b60ff16611e1591906134bc565b611e1f90856134a4565b9350611e2c600a836134bc565b915080611e3881613541565b915050611d88565b505050919050565b6000828152610164602052604090208054611e6290613558565b159050611eb15760405162461bcd60e51b815260206004820152601a60248201527f43616e6e6f74206d6f64696679206578697374696e672075726900000000000060448201526064016107c9565b6000828152610164602090815260409091208251610a31928401906128c9565b6001600160a01b038416611ef75760405162461bcd60e51b81526004016107c99061331c565b33611f16818787611f0788612687565b611f1088612687565b8761243e565b60008481526065602090815260408083206001600160a01b038a16845290915290205483811015611f595760405162461bcd60e51b81526004016107c9906133a4565b60008581526065602090815260408083206001600160a01b038b8116855292528083208785039055908816825281208054869290611f989084906134a4565b909155505060408051868152602081018690526001600160a01b03808916928a821692918616917fc3d58168c5ae7397731d063d5bbf3d657854427343f4c083240f7aacaa2d0f62910160405180910390a4611ff88288888888886126d2565b50505050505050565b6001600160a01b0383166120275760405162461bcd60e51b81526004016107c990613361565b336120568185600061203887612687565b61204187612687565b6040518060200160405280600081525061243e565b60008381526065602090815260408083206001600160a01b0388168452909152902054828110156120995760405162461bcd60e51b81526004016107c99061328f565b60008481526065602090815260408083206001600160a01b03898116808652918452828520888703905582518981529384018890529092908616917fc3d58168c5ae7397731d063d5bbf3d657854427343f4c083240f7aacaa2d0f62910160405180910390a45050505050565b610add8160405160240161211a9190613234565b60408051601f198184030181529190526020810180516001600160e01b031663104c13eb60e21b17905261279c565b6001600160a01b0384166121a95760405162461bcd60e51b815260206004820152602160248201527f455243313135353a206d696e7420746f20746865207a65726f206164647265736044820152607360f81b60648201526084016107c9565b336121ba81600087611f0788612687565b60008481526065602090815260408083206001600160a01b0389168452909152812080548592906121ec9084906134a4565b909155505060408051858152602081018590526001600160a01b0380881692600092918516917fc3d58168c5ae7397731d063d5bbf3d657854427343f4c083240f7aacaa2d0f62910160405180910390a4610a04816000878787876126d2565b60006001600160e01b03198216636cdb3d1360e11b148061227d57506001600160e01b031982166303a24d0760e21b145b8061080557506301ffc9a760e01b6001600160e01b0319831614610805565b606060006122ab8360026134bc565b6122b69060026134a4565b6001600160401b038111156122cd576122cd613632565b6040519080825280601f01601f1916602001820160405280156122f7576020820181803683370190505b509050600360fc1b816000815181106123125761231261361c565b60200101906001600160f81b031916908160001a905350600f60fb1b816001815181106123415761234161361c565b60200101906001600160f81b031916908160001a90535060006123658460026134bc565b6123709060016134a4565b90505b60018111156123e8576f181899199a1a9b1b9c1cb0b131b232b360811b85600f16601081106123a4576123a461361c565b1a60f81b8282815181106123ba576123ba61361c565b60200101906001600160f81b031916908160001a90535060049490941c936123e181613541565b9050612373565b5083156124375760405162461bcd60e51b815260206004820181905260248201527f537472696e67733a20686578206c656e67746820696e73756666696369656e7460448201526064016107c9565b9392505050565b60c95460ff16156124845760405162461bcd60e51b815260206004820152601060248201526f14185d5cd8589b194e881c185d5cd95960821b60448201526064016107c9565b6118418686868686866127bd565b6001600160a01b0384163b156118415760405163bc197c8160e01b81526001600160a01b0385169063bc197c81906124d69089908990889088908890600401613128565b602060405180830381600087803b1580156124f057600080fd5b505af1925050508015612520575060408051601f3d908101601f1916820190925261251d91810190612e40565b60015b6125cd5761252c613648565b806308c379a014156125665750612541613664565b8061254c5750612568565b8060405162461bcd60e51b81526004016107c99190613234565b505b60405162461bcd60e51b815260206004820152603460248201527f455243313135353a207472616e7366657220746f206e6f6e20455243313135356044820152732932b1b2b4bb32b91034b6b83632b6b2b73a32b960611b60648201526084016107c9565b6001600160e01b0319811663bc197c8160e01b14611ff85760405162461bcd60e51b81526004016107c990613247565b600054610100900460ff16611a485760405162461bcd60e51b81526004016107c9906133ee565b600054610100900460ff1661264b5760405162461bcd60e51b81526004016107c9906133ee565b610add81611689565b600054610100900460ff1661267b5760405162461bcd60e51b81526004016107c9906133ee565b60c9805460ff19169055565b604080516001808252818301909252606091600091906020808301908036833701905050905082816000815181106126c1576126c161361c565b602090810291909101015292915050565b6001600160a01b0384163b156118415760405163f23a6e6160e01b81526001600160a01b0385169063f23a6e61906127169089908990889088908890600401613186565b602060405180830381600087803b15801561273057600080fd5b505af1925050508015612760575060408051601f3d908101601f1916820190925261275d91810190612e40565b60015b61276c5761252c613648565b6001600160e01b0319811663f23a6e6160e01b14611ff85760405162461bcd60e51b81526004016107c990613247565b80516a636f6e736f6c652e6c6f67602083016000808483855afa5050505050565b6001600160a01b0385166128445760005b8351811015612842578281815181106127e9576127e961361c565b6020026020010151609760008684815181106128075761280761361c565b60200260200101518152602001908152602001600020600082825461282c91906134a4565b9091555061283b9050816135bf565b90506127ce565b505b6001600160a01b0384166118415760005b8351811015611ff8578281815181106128705761287061361c565b60200260200101516097600086848151811061288e5761288e61361c565b6020026020010151815260200190815260200160002060008282546128b391906134db565b909155506128c29050816135bf565b9050612855565b8280546128d590613558565b90600052602060002090601f0160209004810192826128f7576000855561293d565b82601f1061291057805160ff191683800117855561293d565b8280016001018555821561293d579182015b8281111561293d578251825591602001919060010190612922565b5061294992915061294d565b5090565b5b80821115612949576000815560010161294e565b80356001600160a01b038116811461297957600080fd5b919050565b600082601f83011261298f57600080fd5b8135602061299c82613481565b6040516129a98282613593565b8381528281019150858301600585901b870184018810156129c957600080fd5b60005b858110156129e8578135845292840192908401906001016129cc565b5090979650505050505050565b600082601f830112612a0657600080fd5b81356001600160401b03811115612a1f57612a1f613632565b604051612a36601f8301601f191660200182613593565b818152846020838601011115612a4b57600080fd5b816020850160208301376000918101602001919091529392505050565b60008083601f840112612a7a57600080fd5b5081356001600160401b03811115612a9157600080fd5b602083019150836020828501011115612aa957600080fd5b9250929050565b600060208284031215612ac257600080fd5b61243782612962565b60008060408385031215612ade57600080fd5b612ae783612962565b9150612af560208401612962565b90509250929050565b600080600080600060a08688031215612b1657600080fd5b612b1f86612962565b9450612b2d60208701612962565b935060408601356001600160401b0380821115612b4957600080fd5b612b5589838a0161297e565b94506060880135915080821115612b6b57600080fd5b612b7789838a0161297e565b93506080880135915080821115612b8d57600080fd5b50612b9a888289016129f5565b9150509295509295909350565b600080600080600060a08688031215612bbf57600080fd5b612bc886612962565b9450612bd660208701612962565b9350604086013592506060860135915060808601356001600160401b03811115612bff57600080fd5b612b9a888289016129f5565b600080600060608486031215612c2057600080fd5b612c2984612962565b925060208401356001600160401b0380821115612c4557600080fd5b612c518783880161297e565b93506040860135915080821115612c6757600080fd5b50612c748682870161297e565b9150509250925092565b60008060408385031215612c9157600080fd5b612c9a83612962565b915060208301358015158114612caf57600080fd5b809150509250929050565b60008060408385031215612ccd57600080fd5b612cd683612962565b946020939093013593505050565b600080600060608486031215612cf957600080fd5b612d0284612962565b95602085013595506040909401359392505050565b60008060408385031215612d2a57600080fd5b82356001600160401b0380821115612d4157600080fd5b818501915085601f830112612d5557600080fd5b81356020612d6282613481565b604051612d6f8282613593565b8381528281019150858301600585901b870184018b1015612d8f57600080fd5b600096505b84871015612db957612da581612962565b835260019690960195918301918301612d94565b5096505086013592505080821115612dd057600080fd5b50612ddd8582860161297e565b9150509250929050565b600060208284031215612df957600080fd5b5035919050565b60008060408385031215612e1357600080fd5b82359150612af560208401612962565b600060208284031215612e3557600080fd5b8135612437816136ed565b600060208284031215612e5257600080fd5b8151612437816136ed565b60008060208385031215612e7057600080fd5b82356001600160401b03811115612e8657600080fd5b612e9285828601612a68565b90969095509350505050565b600060208284031215612eb057600080fd5b81356001600160401b03811115612ec657600080fd5b612ed2848285016129f5565b949350505050565b60008060408385031215612eed57600080fd5b82356001600160401b0380821115612f0457600080fd5b612f10868387016129f5565b93506020850135915080821115612f2657600080fd5b50612ddd858286016129f5565b600080600060408486031215612f4857600080fd5b8335925060208401356001600160401b03811115612f6557600080fd5b612f7186828701612a68565b9497909650939450505050565b60008060408385031215612f9157600080fd5b8235915060208301356001600160401b03811115612fae57600080fd5b612ddd858286016129f5565b60008060008060008060808789031215612fd357600080fd5b863595506020870135945060408701356001600160401b0380821115612ff857600080fd5b6130048a838b01612a68565b9096509450606089013591508082111561301d57600080fd5b5061302a89828a01612a68565b979a9699509497509295939492505050565b600081518084526020808501945080840160005b8381101561306c57815187529582019590820190600101613050565b509495945050505050565b6000815180845261308f816020860160208601613515565b601f01601f19169290920160200192915050565b8183823760009101908152919050565b7f416363657373436f6e74726f6c3a206163636f756e74200000000000000000008152600083516130eb816017850160208801613515565b7001034b99036b4b9b9b4b733903937b6329607d1b601791840191820152835161311c816028840160208801613515565b01602801949350505050565b6001600160a01b0386811682528516602082015260a0604082018190526000906131549083018661303c565b8281036060840152613166818661303c565b9050828103608084015261317a8185613077565b98975050505050505050565b6001600160a01b03868116825285166020820152604081018490526060810183905260a0608082018190526000906131c090830184613077565b979650505050505050565b602081526000612437602083018461303c565b6040815260006131f1604083018561303c565b8281036020840152613203818561303c565b95945050505050565b602081016004831061322e57634e487b7160e01b600052602160045260246000fd5b91905290565b6020815260006124376020830184613077565b60208082526028908201527f455243313135353a204552433131353552656365697665722072656a656374656040820152676420746f6b656e7360c01b606082015260800190565b60208082526024908201527f455243313135353a206275726e20616d6f756e7420657863656564732062616c604082015263616e636560e01b606082015260800190565b60208082526029908201527f455243313135353a2063616c6c6572206973206e6f74206f776e6572206e6f7260408201526808185c1c1c9bdd995960ba1b606082015260800190565b60208082526025908201527f455243313135353a207472616e7366657220746f20746865207a65726f206164604082015264647265737360d81b606082015260800190565b60208082526023908201527f455243313135353a206275726e2066726f6d20746865207a65726f206164647260408201526265737360e81b606082015260800190565b6020808252602a908201527f455243313135353a20696e73756666696369656e742062616c616e636520666f60408201526939103a3930b739b332b960b11b606082015260800190565b6020808252602b908201527f496e697469616c697a61626c653a20636f6e7472616374206973206e6f74206960408201526a6e697469616c697a696e6760a81b606082015260800190565b60208082526028908201527f455243313135353a2069647320616e6420616d6f756e7473206c656e677468206040820152670dad2e6dac2e8c6d60c31b606082015260800190565b60006001600160401b0382111561349a5761349a613632565b5060051b60200190565b600082198211156134b7576134b76135f0565b500190565b60008160001904831182151516156134d6576134d66135f0565b500290565b6000828210156134ed576134ed6135f0565b500390565b600060ff821660ff84168082101561350c5761350c6135f0565b90039392505050565b60005b83811015613530578181015183820152602001613518565b83811115610f7b5750506000910152565b600081613550576135506135f0565b506000190190565b600181811c9082168061356c57607f821691505b6020821081141561358d57634e487b7160e01b600052602260045260246000fd5b50919050565b601f8201601f191681016001600160401b03811182821017156135b8576135b8613632565b6040525050565b60006000198214156135d3576135d36135f0565b5060010190565b634e487b7160e01b600052600160045260246000fd5b634e487b7160e01b600052601160045260246000fd5b634e487b7160e01b600052602160045260246000fd5b634e487b7160e01b600052603260045260246000fd5b634e487b7160e01b600052604160045260246000fd5b600060033d11156136615760046000803e5060005160e01c5b90565b600060443d10156136725790565b6040516003193d81016004833e81513d6001600160401b0381602484011181841117156136a157505050505090565b82850191508151818111156136b95750505050505090565b843d87010160208285010111156136d35750505050505090565b6136e260208286010187613593565b509095945050505050565b6001600160e01b031981168114610add57600080fdfeb19546dff01e856fb3f010c267a7b1c60363cf8a4664e21cc89c26224620214ea49807205ce4d355092ef5a8a18f56e8913cf4a201fbe287825b095693c21775a26469706673582212206a7d77931612390356b00fd426f65874bd06e8ae1e7a5b815aa8b097a9f631e864736f6c63430008070033",
  "linkReferences": {},
  "deployedLinkReferences": {}
}