{
  "_format": "hh-sol-artifact-1",
  "contractName": "Memberships",
  "sourceName": "contracts/Memberships.sol",
  "abi": [
    {
      "inputs": [
        {
          "internalType": "string",
          "name": "tokenName",
          "type": "string"
        },
        {
          "internalType": "address",
          "name": "_ownerContract",
          "type": "address"
        },
        {
          "internalType": "address",
          "name": "_channelAddress",
          "type": "address"
        }
      ],
      "stateMutability": "nonpayable",
      "type": "constructor"
    },
    {
      "anonymous": false,
      "inputs": [
        {
          "indexed": true,
          "internalType": "address",
          "name": "account",
          "type": "address"
        },
        {
          "indexed": true,
          "internalType": "address",
          "name": "operator",
          "type": "address"
        },
        {
          "indexed": false,
          "internalType": "bool",
          "name": "approved",
          "type": "bool"
        }
      ],
      "name": "ApprovalForAll",
      "type": "event"
    },
    {
      "anonymous": false,
      "inputs": [
        {
          "indexed": false,
          "internalType": "address",
          "name": "sender",
          "type": "address"
        },
        {
          "indexed": false,
          "internalType": "uint256",
          "name": "tokenId",
          "type": "uint256"
        }
      ],
      "name": "NewMembershipMinted",
      "type": "event"
    },
    {
      "anonymous": false,
      "inputs": [
        {
          "indexed": false,
          "internalType": "address",
          "name": "sender",
          "type": "address"
        },
        {
          "indexed": false,
          "internalType": "uint256",
          "name": "tokenId",
          "type": "uint256"
        }
      ],
      "name": "NewMembershipTokenCreated",
      "type": "event"
    },
    {
      "anonymous": false,
      "inputs": [
        {
          "indexed": false,
          "internalType": "address",
          "name": "account",
          "type": "address"
        }
      ],
      "name": "Paused",
      "type": "event"
    },
    {
      "anonymous": false,
      "inputs": [
        {
          "indexed": true,
          "internalType": "bytes32",
          "name": "role",
          "type": "bytes32"
        },
        {
          "indexed": true,
          "internalType": "bytes32",
          "name": "previousAdminRole",
          "type": "bytes32"
        },
        {
          "indexed": true,
          "internalType": "bytes32",
          "name": "newAdminRole",
          "type": "bytes32"
        }
      ],
      "name": "RoleAdminChanged",
      "type": "event"
    },
    {
      "anonymous": false,
      "inputs": [
        {
          "indexed": true,
          "internalType": "bytes32",
          "name": "role",
          "type": "bytes32"
        },
        {
          "indexed": true,
          "internalType": "address",
          "name": "account",
          "type": "address"
        },
        {
          "indexed": true,
          "internalType": "address",
          "name": "sender",
          "type": "address"
        }
      ],
      "name": "RoleGranted",
      "type": "event"
    },
    {
      "anonymous": false,
      "inputs": [
        {
          "indexed": true,
          "internalType": "bytes32",
          "name": "role",
          "type": "bytes32"
        },
        {
          "indexed": true,
          "internalType": "address",
          "name": "account",
          "type": "address"
        },
        {
          "indexed": true,
          "internalType": "address",
          "name": "sender",
          "type": "address"
        }
      ],
      "name": "RoleRevoked",
      "type": "event"
    },
    {
      "anonymous": false,
      "inputs": [
        {
          "indexed": true,
          "internalType": "address",
          "name": "operator",
          "type": "address"
        },
        {
          "indexed": true,
          "internalType": "address",
          "name": "from",
          "type": "address"
        },
        {
          "indexed": true,
          "internalType": "address",
          "name": "to",
          "type": "address"
        },
        {
          "indexed": false,
          "internalType": "uint256[]",
          "name": "ids",
          "type": "uint256[]"
        },
        {
          "indexed": false,
          "internalType": "uint256[]",
          "name": "values",
          "type": "uint256[]"
        }
      ],
      "name": "TransferBatch",
      "type": "event"
    },
    {
      "anonymous": false,
      "inputs": [
        {
          "indexed": true,
          "internalType": "address",
          "name": "operator",
          "type": "address"
        },
        {
          "indexed": true,
          "internalType": "address",
          "name": "from",
          "type": "address"
        },
        {
          "indexed": true,
          "internalType": "address",
          "name": "to",
          "type": "address"
        },
        {
          "indexed": false,
          "internalType": "uint256",
          "name": "id",
          "type": "uint256"
        },
        {
          "indexed": false,
          "internalType": "uint256",
          "name": "value",
          "type": "uint256"
        }
      ],
      "name": "TransferSingle",
      "type": "event"
    },
    {
      "anonymous": false,
      "inputs": [
        {
          "indexed": false,
          "internalType": "string",
          "name": "value",
          "type": "string"
        },
        {
          "indexed": true,
          "internalType": "uint256",
          "name": "id",
          "type": "uint256"
        }
      ],
      "name": "URI",
      "type": "event"
    },
    {
      "anonymous": false,
      "inputs": [
        {
          "indexed": false,
          "internalType": "address",
          "name": "account",
          "type": "address"
        }
      ],
      "name": "Unpaused",
      "type": "event"
    },
    {
      "inputs": [],
      "name": "ADMIN_ROLE",
      "outputs": [
        {
          "internalType": "bytes32",
          "name": "",
          "type": "bytes32"
        }
      ],
      "stateMutability": "view",
      "type": "function"
    },
    {
      "inputs": [],
      "name": "DEFAULT_ADMIN_ROLE",
      "outputs": [
        {
          "internalType": "bytes32",
          "name": "",
          "type": "bytes32"
        }
      ],
      "stateMutability": "view",
      "type": "function"
    },
    {
      "inputs": [],
      "name": "OWNER_ROLE",
      "outputs": [
        {
          "internalType": "bytes32",
          "name": "",
          "type": "bytes32"
        }
      ],
      "stateMutability": "view",
      "type": "function"
    },
    {
      "inputs": [
        {
          "internalType": "uint256",
          "name": "",
          "type": "uint256"
        },
        {
          "internalType": "uint256",
          "name": "",
          "type": "uint256"
        }
      ],
      "name": "_channelMap",
      "outputs": [
        {
          "internalType": "uint256",
          "name": "",
          "type": "uint256"
        }
      ],
      "stateMutability": "view",
      "type": "function"
    },
    {
      "inputs": [
        {
          "internalType": "address",
          "name": "account",
          "type": "address"
        },
        {
          "internalType": "uint256",
          "name": "id",
          "type": "uint256"
        }
      ],
      "name": "balanceOf",
      "outputs": [
        {
          "internalType": "uint256",
          "name": "",
          "type": "uint256"
        }
      ],
      "stateMutability": "view",
      "type": "function"
    },
    {
      "inputs": [
        {
          "internalType": "address[]",
          "name": "accounts",
          "type": "address[]"
        },
        {
          "internalType": "uint256[]",
          "name": "ids",
          "type": "uint256[]"
        }
      ],
      "name": "balanceOfBatch",
      "outputs": [
        {
          "internalType": "uint256[]",
          "name": "",
          "type": "uint256[]"
        }
      ],
      "stateMutability": "view",
      "type": "function"
    },
    {
      "inputs": [
        {
          "internalType": "address",
          "name": "account",
          "type": "address"
        },
        {
          "internalType": "uint256",
          "name": "id",
          "type": "uint256"
        },
        {
          "internalType": "uint256",
          "name": "value",
          "type": "uint256"
        }
      ],
      "name": "burn",
      "outputs": [],
      "stateMutability": "nonpayable",
      "type": "function"
    },
    {
      "inputs": [
        {
          "internalType": "address",
          "name": "account",
          "type": "address"
        },
        {
          "internalType": "uint256[]",
          "name": "ids",
          "type": "uint256[]"
        },
        {
          "internalType": "uint256[]",
          "name": "values",
          "type": "uint256[]"
        }
      ],
      "name": "burnBatch",
      "outputs": [],
      "stateMutability": "nonpayable",
      "type": "function"
    },
    {
      "inputs": [
        {
          "internalType": "uint256",
          "name": "id",
          "type": "uint256"
        }
      ],
      "name": "exists",
      "outputs": [
        {
          "internalType": "bool",
          "name": "",
          "type": "bool"
        }
      ],
      "stateMutability": "view",
      "type": "function"
    },
    {
      "inputs": [
        {
          "internalType": "uint256",
          "name": "tokenId",
          "type": "uint256"
        },
        {
          "internalType": "address",
          "name": "to",
          "type": "address"
        }
      ],
      "name": "getMembership",
      "outputs": [
        {
          "internalType": "uint256",
          "name": "",
          "type": "uint256"
        }
      ],
      "stateMutability": "view",
      "type": "function"
    },
    {
      "inputs": [
        {
          "internalType": "uint256",
          "name": "channel",
          "type": "uint256"
        }
      ],
      "name": "getMembershipList",
      "outputs": [
        {
          "internalType": "uint256[]",
          "name": "",
          "type": "uint256[]"
        }
      ],
      "stateMutability": "view",
      "type": "function"
    },
    {
      "inputs": [
        {
          "internalType": "bytes32",
          "name": "role",
          "type": "bytes32"
        }
      ],
      "name": "getRoleAdmin",
      "outputs": [
        {
          "internalType": "bytes32",
          "name": "",
          "type": "bytes32"
        }
      ],
      "stateMutability": "view",
      "type": "function"
    },
    {
      "inputs": [],
      "name": "getTokenIndex",
      "outputs": [
        {
          "internalType": "uint256",
          "name": "",
          "type": "uint256"
        }
      ],
      "stateMutability": "view",
      "type": "function"
    },
    {
      "inputs": [
        {
          "internalType": "uint256",
          "name": "tokenId",
          "type": "uint256"
        }
      ],
      "name": "getTokenLevel",
      "outputs": [
        {
          "internalType": "enum Structs.Level",
          "name": "",
          "type": "uint8"
        }
      ],
      "stateMutability": "view",
      "type": "function"
    },
    {
      "inputs": [
        {
          "internalType": "bytes32",
          "name": "role",
          "type": "bytes32"
        },
        {
          "internalType": "address",
          "name": "account",
          "type": "address"
        }
      ],
      "name": "grantRole",
      "outputs": [],
      "stateMutability": "nonpayable",
      "type": "function"
    },
    {
      "inputs": [
        {
          "internalType": "bytes32",
          "name": "role",
          "type": "bytes32"
        },
        {
          "internalType": "address",
          "name": "account",
          "type": "address"
        }
      ],
      "name": "hasRole",
      "outputs": [
        {
          "internalType": "bool",
          "name": "",
          "type": "bool"
        }
      ],
      "stateMutability": "view",
      "type": "function"
    },
    {
      "inputs": [
        {
          "internalType": "string",
          "name": "tokenName",
          "type": "string"
        },
        {
          "internalType": "address",
          "name": "_ownerContract",
          "type": "address"
        },
        {
          "internalType": "address",
          "name": "_channelAddress",
          "type": "address"
        }
      ],
      "name": "initialize",
      "outputs": [],
      "stateMutability": "nonpayable",
      "type": "function"
    },
    {
      "inputs": [
        {
          "internalType": "address",
          "name": "account",
          "type": "address"
        },
        {
          "internalType": "address",
          "name": "operator",
          "type": "address"
        }
      ],
      "name": "isApprovedForAll",
      "outputs": [
        {
          "internalType": "bool",
          "name": "",
          "type": "bool"
        }
      ],
      "stateMutability": "view",
      "type": "function"
    },
    {
      "inputs": [
        {
          "internalType": "string",
          "name": "",
          "type": "string"
        }
      ],
      "name": "levelMapping",
      "outputs": [
        {
          "internalType": "enum Structs.Level",
          "name": "",
          "type": "uint8"
        }
      ],
      "stateMutability": "view",
      "type": "function"
    },
    {
      "inputs": [
        {
          "internalType": "uint256",
          "name": "channel",
          "type": "uint256"
        },
        {
          "internalType": "string",
          "name": "level",
          "type": "string"
        },
        {
          "internalType": "address",
          "name": "to",
          "type": "address"
        }
      ],
      "name": "membershipMint",
      "outputs": [],
      "stateMutability": "payable",
      "type": "function"
    },
    {
      "inputs": [
        {
          "internalType": "address",
          "name": "from",
          "type": "address"
        },
        {
          "internalType": "uint256",
          "name": "channel",
          "type": "uint256"
        },
        {
          "internalType": "uint256",
          "name": "cost",
          "type": "uint256"
        },
        {
          "internalType": "string",
          "name": "level",
          "type": "string"
        },
        {
          "internalType": "string",
          "name": "computedUri",
          "type": "string"
        }
      ],
      "name": "membershipTokenCreate",
      "outputs": [],
      "stateMutability": "nonpayable",
      "type": "function"
    },
    {
      "inputs": [],
      "name": "name",
      "outputs": [
        {
          "internalType": "string",
          "name": "",
          "type": "string"
        }
      ],
      "stateMutability": "view",
      "type": "function"
    },
    {
      "inputs": [],
      "name": "pause",
      "outputs": [],
      "stateMutability": "nonpayable",
      "type": "function"
    },
    {
      "inputs": [],
      "name": "paused",
      "outputs": [
        {
          "internalType": "bool",
          "name": "",
          "type": "bool"
        }
      ],
      "stateMutability": "view",
      "type": "function"
    },
    {
      "inputs": [
        {
          "internalType": "bytes32",
          "name": "role",
          "type": "bytes32"
        },
        {
          "internalType": "address",
          "name": "account",
          "type": "address"
        }
      ],
      "name": "renounceRole",
      "outputs": [],
      "stateMutability": "nonpayable",
      "type": "function"
    },
    {
      "inputs": [
        {
          "internalType": "bytes32",
          "name": "role",
          "type": "bytes32"
        },
        {
          "internalType": "address",
          "name": "account",
          "type": "address"
        }
      ],
      "name": "revokeRole",
      "outputs": [],
      "stateMutability": "nonpayable",
      "type": "function"
    },
    {
      "inputs": [
        {
          "internalType": "address",
          "name": "from",
          "type": "address"
        },
        {
          "internalType": "address",
          "name": "to",
          "type": "address"
        },
        {
          "internalType": "uint256[]",
          "name": "ids",
          "type": "uint256[]"
        },
        {
          "internalType": "uint256[]",
          "name": "amounts",
          "type": "uint256[]"
        },
        {
          "internalType": "bytes",
          "name": "data",
          "type": "bytes"
        }
      ],
      "name": "safeBatchTransferFrom",
      "outputs": [],
      "stateMutability": "nonpayable",
      "type": "function"
    },
    {
      "inputs": [
        {
          "internalType": "address",
          "name": "from",
          "type": "address"
        },
        {
          "internalType": "address",
          "name": "to",
          "type": "address"
        },
        {
          "internalType": "uint256",
          "name": "id",
          "type": "uint256"
        },
        {
          "internalType": "uint256",
          "name": "amount",
          "type": "uint256"
        },
        {
          "internalType": "bytes",
          "name": "data",
          "type": "bytes"
        }
      ],
      "name": "safeTransferFrom",
      "outputs": [],
      "stateMutability": "nonpayable",
      "type": "function"
    },
    {
      "inputs": [
        {
          "internalType": "address",
          "name": "operator",
          "type": "address"
        },
        {
          "internalType": "bool",
          "name": "approved",
          "type": "bool"
        }
      ],
      "name": "setApprovalForAll",
      "outputs": [],
      "stateMutability": "nonpayable",
      "type": "function"
    },
    {
      "inputs": [
        {
          "internalType": "address",
          "name": "_channelAddress",
          "type": "address"
        }
      ],
      "name": "setChannelsAddress",
      "outputs": [],
      "stateMutability": "nonpayable",
      "type": "function"
    },
    {
      "inputs": [
        {
          "internalType": "string",
          "name": "maxMember",
          "type": "string"
        }
      ],
      "name": "setMaxMemberships",
      "outputs": [],
      "stateMutability": "nonpayable",
      "type": "function"
    },
    {
      "inputs": [
        {
          "internalType": "uint256",
          "name": "tokenId",
          "type": "uint256"
        },
        {
          "internalType": "string",
          "name": "newUri",
          "type": "string"
        }
      ],
      "name": "setTokenUri",
      "outputs": [],
      "stateMutability": "nonpayable",
      "type": "function"
    },
    {
      "inputs": [
        {
          "internalType": "string",
          "name": "newuri",
          "type": "string"
        }
      ],
      "name": "setURI",
      "outputs": [],
      "stateMutability": "nonpayable",
      "type": "function"
    },
    {
      "inputs": [
        {
          "internalType": "bytes4",
          "name": "interfaceId",
          "type": "bytes4"
        }
      ],
      "name": "supportsInterface",
      "outputs": [
        {
          "internalType": "bool",
          "name": "",
          "type": "bool"
        }
      ],
      "stateMutability": "view",
      "type": "function"
    },
    {
      "inputs": [],
      "name": "symbol",
      "outputs": [
        {
          "internalType": "string",
          "name": "",
          "type": "string"
        }
      ],
      "stateMutability": "view",
      "type": "function"
    },
    {
      "inputs": [
        {
          "internalType": "uint256",
          "name": "id",
          "type": "uint256"
        }
      ],
      "name": "totalSupply",
      "outputs": [
        {
          "internalType": "uint256",
          "name": "",
          "type": "uint256"
        }
      ],
      "stateMutability": "view",
      "type": "function"
    },
    {
      "inputs": [
        {
          "internalType": "address",
          "name": "to",
          "type": "address"
        }
      ],
      "name": "transferOwnership",
      "outputs": [],
      "stateMutability": "nonpayable",
      "type": "function"
    },
    {
      "inputs": [],
      "name": "unpause",
      "outputs": [],
      "stateMutability": "nonpayable",
      "type": "function"
    },
    {
      "inputs": [
        {
          "internalType": "uint256",
          "name": "tokenId",
          "type": "uint256"
        }
      ],
      "name": "uri",
      "outputs": [
        {
          "internalType": "string",
          "name": "",
          "type": "string"
        }
      ],
      "stateMutability": "view",
      "type": "function"
    },
    {
      "inputs": [],
      "name": "withdrawBalance",
      "outputs": [],
      "stateMutability": "nonpayable",
      "type": "function"
    }
  ],
  "bytecode": "0x6080604052600a610169553480156200001757600080fd5b5060405162004036380380620040368339810160408190526200003a9162000305565b600054610100900460ff16620000575760005460ff161562000061565b6200006162000179565b620000c95760405162461bcd60e51b815260206004820152602e60248201527f496e697469616c697a61626c653a20636f6e747261637420697320616c72656160448201526d191e481a5b9a5d1a585b1a5e995960921b606482015260840160405180910390fd5b600054610100900460ff16158015620000ec576000805461ffff19166101011790555b61016180546001600160a01b0384166001600160a01b031991821681179092556101628054909116909117905583516200012f9061015f90602087019062000242565b506200015c7fb19546dff01e856fb3f010c267a7b1c60363cf8a4664e21cc89c26224620214e8462000197565b80156200016f576000805461ff00191690555b505050506200045b565b600062000191306200023c60201b620019241760201c565b15905090565b600082815260fb602090815260408083206001600160a01b038516845290915290205460ff166200023857600082815260fb602090815260408083206001600160a01b03851684529091529020805460ff19166001179055620001f73390565b6001600160a01b0316816001600160a01b0316837f2f8788117e7eff1d82e926ec794901d17c78024a50270940304540a733656f0d60405160405180910390a45b5050565b3b151590565b828054620002509062000408565b90600052602060002090601f016020900481019282620002745760008555620002bf565b82601f106200028f57805160ff1916838001178555620002bf565b82800160010185558215620002bf579182015b82811115620002bf578251825591602001919060010190620002a2565b50620002cd929150620002d1565b5090565b5b80821115620002cd5760008155600101620002d2565b80516001600160a01b03811681146200030057600080fd5b919050565b6000806000606084860312156200031b57600080fd5b83516001600160401b03808211156200033357600080fd5b818601915086601f8301126200034857600080fd5b8151818111156200035d576200035d62000445565b604051601f8201601f19908116603f0116810190838211818310171562000388576200038862000445565b81604052828152602093508984848701011115620003a557600080fd5b600091505b82821015620003c95784820184015181830185015290830190620003aa565b82821115620003db5760008484830101525b9650620003ed915050868201620002e8565b93505050620003ff60408501620002e8565b90509250925092565b600181811c908216806200041d57607f821691505b602082108114156200043f57634e487b7160e01b600052602260045260246000fd5b50919050565b634e487b7160e01b600052604160045260246000fd5b613bcb806200046b6000396000f3fe60806040526004361061023a5760003560e01c80638456cb591161012e578063d011645c116100ab578063e58378bb1161006f578063e58378bb146106e4578063e985e9c514610706578063f242432a1461074f578063f2fde38b1461076f578063f5298aca1461078f57600080fd5b8063d011645c14610633578063d466645e14610664578063d547741f14610684578063d6442836146106a4578063dc63205c146106c457600080fd5b8063a44ed535116100f2578063a44ed53514610593578063b9c08fd3146105a6578063bd85b039146105c6578063c27855f6146105f3578063cb2de9d91461061357600080fd5b80638456cb591461051457806391d148541461052957806395d89b4114610549578063a217fddf1461055e578063a22cb4651461057357600080fd5b80633f4ba83a116101bc57806357f7789e1161018057806357f7789e146104855780635c975abb146104a55780635fd8c710146104bd5780636b20c454146104d257806375b238fc146104f257600080fd5b80633f4ba83a146103ab57806345198254146103c0578063463fd1af146104095780634e1273f4146104295780634f558e791461045657600080fd5b8063248a9ca311610203578063248a9ca314610306578063295d3ee8146103365780632eb2c2d61461034b5780632f2ff15d1461036b57806336568abe1461038b57600080fd5b8062fdd58e1461023f57806301ffc9a71461027257806302fe5305146102a257806306fdde03146102c45780630e89341c146102e6575b600080fd5b34801561024b57600080fd5b5061025f61025a366004613078565b6107af565b6040519081526020015b60405180910390f35b34801561027e57600080fd5b5061029261028d36600461327e565b610848565b6040519015158152602001610269565b3480156102ae57600080fd5b506102c26102bd3660046132f9565b610859565b005b3480156102d057600080fd5b506102d961087f565b604051610269919061364c565b3480156102f257600080fd5b506102d9610301366004613240565b61090e565b34801561031257600080fd5b5061025f610321366004613240565b600090815260fb602052604090206001015490565b34801561034257600080fd5b5061025f6109b1565b34801561035757600080fd5b506102c2610366366004612ebb565b6109c2565b34801561037757600080fd5b506102c2610386366004613259565b610a59565b34801561039757600080fd5b506102c26103a6366004613259565b610a84565b3480156103b757600080fd5b506102c2610afe565b3480156103cc57600080fd5b506103fc6103db3660046132f9565b80516020818301810180516101648252928201919093012091525460ff1681565b6040516102699190613624565b34801561041557600080fd5b506102c2610424366004613335565b610b22565b34801561043557600080fd5b5061044961044436600461316e565b610dc0565b60405161026991906135e3565b34801561046257600080fd5b50610292610471366004613240565b600090815260976020526040902054151590565b34801561049157600080fd5b506102c26104a03660046133f6565b610ee9565b3480156104b157600080fd5b5060c95460ff16610292565b3480156104c957600080fd5b506102c2610f8b565b3480156104de57600080fd5b506102c26104ed366004612fd0565b611037565b3480156104fe57600080fd5b5061025f600080516020613b7683398151915281565b34801561052057600080fd5b506102c261107a565b34801561053557600080fd5b50610292610544366004613259565b61109b565b34801561055557600080fd5b506102d96110c6565b34801561056a57600080fd5b5061025f600081565b34801561057f57600080fd5b506102c261058e366004613045565b6110d4565b6102c26105a1366004613398565b6110df565b3480156105b257600080fd5b506104496105c1366004613240565b6114ac565b3480156105d257600080fd5b5061025f6105e1366004613240565b60009081526097602052604090205490565b3480156105ff57600080fd5b506102c261060e366004612e48565b61150e565b34801561061f57600080fd5b506102c261062e3660046130d9565b611556565b34801561063f57600080fd5b506103fc61064e366004613240565b6000908152610168602052604090205460ff1690565b34801561067057600080fd5b506102c261067f3660046132b8565b61179c565b34801561069057600080fd5b506102c261069f366004613259565b611800565b3480156106b057600080fd5b5061025f6106bf366004613259565b611826565b3480156106d057600080fd5b5061025f6106df366004613432565b611839565b3480156106f057600080fd5b5061025f600080516020613b5683398151915281565b34801561071257600080fd5b50610292610721366004612e82565b6001600160a01b03918216600090815260666020908152604080832093909416825291909152205460ff1690565b34801561075b57600080fd5b506102c261076a366004612f68565b61186b565b34801561077b57600080fd5b506102c261078a366004612e48565b6118b0565b34801561079b57600080fd5b506102c26107aa3660046130a4565b6118e1565b60006001600160a01b0383166108205760405162461bcd60e51b815260206004820152602b60248201527f455243313135353a2062616c616e636520717565727920666f7220746865207a60448201526a65726f206164647265737360a81b60648201526084015b60405180910390fd5b5060009081526065602090815260408083206001600160a01b03949094168352929052205490565b60006108538261192a565b92915050565b600080516020613b76833981519152610872813361194f565b61087b826119b3565b5050565b61015f805461088d90613995565b80601f01602080910402602001604051908101604052809291908181526020018280546108b990613995565b80156109065780601f106108db57610100808354040283529160200191610906565b820191906000526020600020905b8154815290600101906020018083116108e957829003601f168201915b505050505081565b60008181526101656020526040902080546060919061092c90613995565b80601f016020809104026020016040519081016040528092919081815260200182805461095890613995565b80156109a55780601f1061097a576101008083540402835291602001916109a5565b820191906000526020600020905b81548152906001019060200180831161098857829003601f168201915b50505050509050919050565b60006109bd6101635490565b905090565b6001600160a01b0385163314806109de57506109de8533610721565b610a455760405162461bcd60e51b815260206004820152603260248201527f455243313135353a207472616e736665722063616c6c6572206973206e6f74206044820152711bdddb995c881b9bdc88185c1c1c9bdd995960721b6064820152608401610817565b610a5285858585856119c6565b5050505050565b600082815260fb6020526040902060010154610a75813361194f565b610a7f8383611b73565b505050565b6001600160a01b0381163314610af45760405162461bcd60e51b815260206004820152602f60248201527f416363657373436f6e74726f6c3a2063616e206f6e6c792072656e6f756e636560448201526e103937b632b9903337b91039b2b63360891b6064820152608401610817565b61087b8282611bf9565b600080516020613b56833981519152610b17813361194f565b610b1f611c60565b50565b600054610100900460ff16610b3d5760005460ff1615610b41565b303b155b610ba45760405162461bcd60e51b815260206004820152602e60248201527f496e697469616c697a61626c653a20636f6e747261637420697320616c72656160448201526d191e481a5b9a5d1a585b1a5e995960921b6064820152608401610817565b600054610100900460ff16158015610bc6576000805461ffff19166101011790555b610bcf84611cf3565b610bd7611d33565b610bdf611d33565b610be7611d74565b610bef611d33565b610bfa600033611b73565b610c12600080516020613b7683398151915233611b73565b610c2a600080516020613b5683398151915233611b73565b610c42600080516020613b7683398151915284611b73565b610c5a600080516020613b5683398151915284611b73565b6000610164604051610c78906562726f6e7a6560d01b815260060190565b908152604051908190036020019020805460ff19166001836004811115610ca157610ca1613a43565b02179055506001610164604051610cc4906539b4b63b32b960d11b815260060190565b908152604051908190036020019020805460ff19166001836004811115610ced57610ced613a43565b02179055506002610164604051610d0e906319dbdb1960e21b815260040190565b908152604051908190036020019020805460ff19166001836004811115610d3757610d37613a43565b02179055506003610164604051610d5c9067706c6174696e756d60c01b815260080190565b908152604051908190036020019020805460ff19166001836004811115610d8557610d85613a43565b02179055508351610d9e9061015f906020870190612c7d565b50610da882611dab565b8015610dba576000805461ff00191690555b50505050565b60608151835114610e255760405162461bcd60e51b815260206004820152602960248201527f455243313135353a206163636f756e747320616e6420696473206c656e677468604482015268040dad2e6dac2e8c6d60bb1b6064820152608401610817565b600083516001600160401b03811115610e4057610e40613a6f565b604051908082528060200260200182016040528015610e69578160200160208202803683370190505b50905060005b8451811015610ee157610eb4858281518110610e8d57610e8d613a59565b6020026020010151858381518110610ea757610ea7613a59565b60200260200101516107af565b828281518110610ec657610ec6613a59565b6020908102919091010152610eda816139fc565b9050610e6f565b509392505050565b600080516020613b56833981519152610f02813361194f565b6000838152610165602052604090208054610f1c90613995565b159050610f6b5760405162461bcd60e51b815260206004820152601a60248201527f43616e6e6f74206d6f64696679206578697374696e67207572690000000000006044820152606401610817565b6000838152610165602090815260409091208351610dba92850190612c7d565b600080516020613b56833981519152610fa4813361194f565b60405133904790600090839083908381818185875af1925050503d8060008114610fea576040519150601f19603f3d011682016040523d82523d6000602084013e610fef565b606091505b5050905080610dba5760405162461bcd60e51b81526020600482015260146024820152734661696c656420746f2073656e64204d4154494360601b6044820152606401610817565b6001600160a01b03831633148061105357506110538333610721565b61106f5760405162461bcd60e51b815260040161081790613710565b610a7f838383611df3565b600080516020613b56833981519152611093813361194f565b610b1f611f84565b600091825260fb602090815260408084206001600160a01b0393909316845291905290205460ff1690565b610160805461088d90613995565b61087b338383611fff565b6000848152610166602090815260408083208054825181850281018501909352808352919290919083018282801561113657602002820191906000526020600020905b815481526020019060010190808311611122575b50505050509050611146856120e0565b60008151116111a65760405162461bcd60e51b815260206004820152602660248201527f4e6f206d656d6265727368697073206d696e74656420666f72207468697320636044820152651a185b9b995b60d21b6064820152608401610817565b6000805b825181101561127157600061016860008584815181106111cc576111cc613a59565b6020026020010151815260200190815260200160002060009054906101000a900460ff16905061016487876040516112059291906134bb565b9081526040519081900360200190205460ff16600481111561122957611229613a43565b81600481111561123b5761123b613a43565b141561125e5783828151811061125357611253613a59565b602002602001015192505b5080611269816139fc565b9150506111aa565b50600081815261016760205260409020543481106112c0576112c0604051806040016040528060148152602001736e6f7420656e6f756768206d6f6e65796261677360601b8152508234612125565b803410156113045760405162461bcd60e51b815260206004820152601160248201527002737ba1032b737bab3b4101212101d141607d1b6044820152606401610817565b610162546040516331a9108f60e11b8152600481018990526000916001600160a01b031690636352211e9060240160206040518083038186803b15801561134a57600080fd5b505afa15801561135e573d6000803e3d6000fd5b505050506040513d601f19601f820116820180604052508101906113829190612e65565b90506000816001600160a01b03163460405160006040518083038185875af1925050503d80600081146113d1576040519150601f19603f3d011682016040523d82523d6000602084013e6113d6565b606091505b505090508061141e5760405162461bcd60e51b81526020600482015260146024820152734661696c656420746f2073656e64204d4154494360601b6044820152606401610817565b61143a868560016040518060200160405280600081525061216c565b60008981526101666020908152604080832080546001810182559084529282902090920186905581516001600160a01b03891681529081018690527ffe532499518ab958be1855c68f1cf6c3cd1ad50b40dcb9dfb1c5185da7511de791015b60405180910390a1505050505050505050565b600081815261016660209081526040918290208054835181840281018401909452808452606093928301828280156109a557602002820191906000526020600020905b8154815260200190600101908083116114ef5750505050509050919050565b600080516020613b56833981519152611527813361194f565b5061016180546001600160a01b039092166001600160a01b031992831681179091556101628054909216179055565b6101615461156c906001600160a01b0316611dab565b6101615461016280546001600160a01b0319166001600160a01b0390921691821790556040516331a9108f60e11b81526004810188905260009190636352211e9060240160206040518083038186803b1580156115c857600080fd5b505afa1580156115dc573d6000803e3d6000fd5b505050506040513d601f19601f820116820180604052508101906116009190612e65565b9050806001600160a01b0316886001600160a01b03161461167f5760405162461bcd60e51b815260206004820152603360248201527f596f75206d75737420626520746865206368616e6e656c206f776e657220746f60448201527220637265617465206d656d626572736869707360681b6064820152608401610817565b600061168b6101635490565b905061169c61016380546001019055565b6000888152610166602090815260408083208054600181018255908452828420018490558383526101679091529081902088905551610164906116e290889088906134bb565b90815260408051602092819003830190205460008481526101689093529120805460ff9092169160ff1916600183600481111561172157611721613a43565b02179055506117668185858080601f01602080910402602001604051908101604052809392919081815260200183838082843760009201919091525061227e92505050565b60408051338152602081018390527fbbc2bd2c0eaa795a53fbbb48b3ad77f6e5719e4b44166a7945aa12e93fcf677f9101611499565b600080516020613b568339815191526117b5813361194f565b60006117f684848080601f01602080910402602001604051908101604052809392919081815260200183838082843760009201919091525061230792505050565b6101695550505050565b600082815260fb602052604090206001015461181c813361194f565b610a7f8383611bf9565b600061183282846107af565b9392505050565b610166602052816000526040600020818154811061185657600080fd5b90600052602060002001600091509150505481565b6001600160a01b03851633148061188757506118878533610721565b6118a35760405162461bcd60e51b815260040161081790613710565b610a5285858585856123e1565b600080516020613b768339815191526118c9813361194f565b61087b600080516020613b5683398151915283611b73565b6001600160a01b0383163314806118fd57506118fd8333610721565b6119195760405162461bcd60e51b815260040161081790613710565b610a7f838383612502565b3b151590565b60006001600160e01b03198216637965db0b60e01b1480610853575061085382612607565b611959828261109b565b61087b57611971816001600160a01b03166014612657565b61197c836020612657565b60405160200161198d9291906134cb565b60408051601f198184030181529082905262461bcd60e51b82526108179160040161364c565b805161087b906067906020840190612c7d565b81518351146119e75760405162461bcd60e51b815260040161081790613876565b6001600160a01b038416611a0d5760405162461bcd60e51b815260040161081790613759565b33611a1c8187878787876127f2565b60005b8451811015611b05576000858281518110611a3c57611a3c613a59565b602002602001015190506000858381518110611a5a57611a5a613a59565b60209081029190910181015160008481526065835260408082206001600160a01b038e168352909352919091205490915081811015611aab5760405162461bcd60e51b8152600401610817906137e1565b60008381526065602090815260408083206001600160a01b038e8116855292528083208585039055908b16825281208054849290611aea9084906138e1565b9250508190555050505080611afe906139fc565b9050611a1f565b50846001600160a01b0316866001600160a01b0316826001600160a01b03167f4a39dc06d4c0dbc64b70af90fd698a233a518aa5d07e595d983b8c0526c8f7fb8787604051611b559291906135f6565b60405180910390a4611b6b818787878787612846565b505050505050565b611b7d828261109b565b61087b57600082815260fb602090815260408083206001600160a01b03851684529091529020805460ff19166001179055611bb53390565b6001600160a01b0316816001600160a01b0316837f2f8788117e7eff1d82e926ec794901d17c78024a50270940304540a733656f0d60405160405180910390a45050565b611c03828261109b565b1561087b57600082815260fb602090815260408083206001600160a01b0385168085529252808320805460ff1916905551339285917ff6391f5c32d9c69d2a47ea670b442974b53935d1edc7fd64eb21e047a839171b9190a45050565b60c95460ff16611ca95760405162461bcd60e51b815260206004820152601460248201527314185d5cd8589b194e881b9bdd081c185d5cd95960621b6044820152606401610817565b60c9805460ff191690557f5db9ee0a495bf2e6ff9c91a7834c1ba4fdd244a5e8aa4e537bd38aeae4b073aa335b6040516001600160a01b03909116815260200160405180910390a1565b600054610100900460ff16611d1a5760405162461bcd60e51b81526004016108179061382b565b611d226129b1565b611d2a6129b1565b610b1f816129d8565b600054610100900460ff16611d5a5760405162461bcd60e51b81526004016108179061382b565b611d626129b1565b611d6a6129b1565b611d726129b1565b565b600054610100900460ff16611d9b5760405162461bcd60e51b81526004016108179061382b565b611da36129b1565b611d72612a08565b6040516001600160a01b0382166024820152610b1f9060440160408051601f198184030181529190526020810180516001600160e01b031663161765e160e11b179052612a3b565b6001600160a01b038316611e195760405162461bcd60e51b81526004016108179061379e565b8051825114611e3a5760405162461bcd60e51b815260040161081790613876565b6000339050611e5d818560008686604051806020016040528060008152506127f2565b60005b8351811015611f25576000848281518110611e7d57611e7d613a59565b602002602001015190506000848381518110611e9b57611e9b613a59565b60209081029190910181015160008481526065835260408082206001600160a01b038c168352909352919091205490915081811015611eec5760405162461bcd60e51b8152600401610817906136cc565b60009283526065602090815260408085206001600160a01b038b1686529091529092209103905580611f1d816139fc565b915050611e60565b5060006001600160a01b0316846001600160a01b0316826001600160a01b03167f4a39dc06d4c0dbc64b70af90fd698a233a518aa5d07e595d983b8c0526c8f7fb8686604051611f769291906135f6565b60405180910390a450505050565b60c95460ff1615611fca5760405162461bcd60e51b815260206004820152601060248201526f14185d5cd8589b194e881c185d5cd95960821b6044820152606401610817565b60c9805460ff191660011790557f62e78cea01bee320cd4e420270b5ea74000d11b0c9f74754ebdbfc544b05a258611cd63390565b816001600160a01b0316836001600160a01b031614156120735760405162461bcd60e51b815260206004820152602960248201527f455243313135353a2073657474696e6720617070726f76616c20737461747573604482015268103337b91039b2b63360b91b6064820152608401610817565b6001600160a01b03838116600081815260666020908152604080832094871680845294825291829020805460ff191686151590811790915591519182527f17307eab39ab6107e8899845ad3d59bd9653f200f220920489ca2b5937696c31910160405180910390a3505050565b610b1f816040516024016120f691815260200190565b60408051601f198184030181529190526020810180516001600160e01b031663f5b1bba960e01b179052612a3b565b610a7f83838360405160240161213d9392919061365f565b60408051601f198184030181529190526020810180516001600160e01b031663969cdd0360e01b179052612a3b565b6001600160a01b0384166121cc5760405162461bcd60e51b815260206004820152602160248201527f455243313135353a206d696e7420746f20746865207a65726f206164647265736044820152607360f81b6064820152608401610817565b336121ec816000876121dd88612a5c565b6121e688612a5c565b876127f2565b60008481526065602090815260408083206001600160a01b03891684529091528120805485929061221e9084906138e1565b909155505060408051858152602081018590526001600160a01b0380881692600092918516917fc3d58168c5ae7397731d063d5bbf3d657854427343f4c083240f7aacaa2d0f62910160405180910390a4610a5281600087878787612aa7565b600082815261016560205260409020805461229890613995565b1590506122e75760405162461bcd60e51b815260206004820152601a60248201527f43616e6e6f74206d6f64696679206578697374696e67207572690000000000006044820152606401610817565b6000828152610165602090815260409091208251610a7f92840190612c7d565b80516000908290600190839061231e908390613918565b90505b82518110156123d957603083828151811061233e5761233e613a59565b016020015160f81c1080159061236e5750603983828151811061236357612363613a59565b016020015160f81c11155b61237a5761237a613a17565b81603084838151811061238f5761238f613a59565b01602001516123a1919060f81c61392f565b60ff166123ae91906138f9565b6123b890856138e1565b93506123c5600a836138f9565b9150806123d18161397e565b915050612321565b505050919050565b6001600160a01b0384166124075760405162461bcd60e51b815260040161081790613759565b336124178187876121dd88612a5c565b60008481526065602090815260408083206001600160a01b038a1684529091529020548381101561245a5760405162461bcd60e51b8152600401610817906137e1565b60008581526065602090815260408083206001600160a01b038b81168552925280832087850390559088168252812080548692906124999084906138e1565b909155505060408051868152602081018690526001600160a01b03808916928a821692918616917fc3d58168c5ae7397731d063d5bbf3d657854427343f4c083240f7aacaa2d0f62910160405180910390a46124f9828888888888612aa7565b50505050505050565b6001600160a01b0383166125285760405162461bcd60e51b81526004016108179061379e565b336125578185600061253987612a5c565b61254287612a5c565b604051806020016040528060008152506127f2565b60008381526065602090815260408083206001600160a01b03881684529091529020548281101561259a5760405162461bcd60e51b8152600401610817906136cc565b60008481526065602090815260408083206001600160a01b03898116808652918452828520888703905582518981529384018890529092908616917fc3d58168c5ae7397731d063d5bbf3d657854427343f4c083240f7aacaa2d0f62910160405180910390a45050505050565b60006001600160e01b03198216636cdb3d1360e11b148061263857506001600160e01b031982166303a24d0760e21b145b8061085357506301ffc9a760e01b6001600160e01b0319831614610853565b606060006126668360026138f9565b6126719060026138e1565b6001600160401b0381111561268857612688613a6f565b6040519080825280601f01601f1916602001820160405280156126b2576020820181803683370190505b509050600360fc1b816000815181106126cd576126cd613a59565b60200101906001600160f81b031916908160001a905350600f60fb1b816001815181106126fc576126fc613a59565b60200101906001600160f81b031916908160001a90535060006127208460026138f9565b61272b9060016138e1565b90505b60018111156127a3576f181899199a1a9b1b9c1cb0b131b232b360811b85600f166010811061275f5761275f613a59565b1a60f81b82828151811061277557612775613a59565b60200101906001600160f81b031916908160001a90535060049490941c9361279c8161397e565b905061272e565b5083156118325760405162461bcd60e51b815260206004820181905260248201527f537472696e67733a20686578206c656e67746820696e73756666696369656e746044820152606401610817565b60c95460ff16156128385760405162461bcd60e51b815260206004820152601060248201526f14185d5cd8589b194e881c185d5cd95960821b6044820152606401610817565b611b6b868686868686612b71565b6001600160a01b0384163b15611b6b5760405163bc197c8160e01b81526001600160a01b0385169063bc197c819061288a9089908990889088908890600401613540565b602060405180830381600087803b1580156128a457600080fd5b505af19250505080156128d4575060408051601f3d908101601f191682019092526128d19181019061329b565b60015b612981576128e0613a85565b806308c379a0141561291a57506128f5613aa1565b80612900575061291c565b8060405162461bcd60e51b8152600401610817919061364c565b505b60405162461bcd60e51b815260206004820152603460248201527f455243313135353a207472616e7366657220746f206e6f6e20455243313135356044820152732932b1b2b4bb32b91034b6b83632b6b2b73a32b960611b6064820152608401610817565b6001600160e01b0319811663bc197c8160e01b146124f95760405162461bcd60e51b815260040161081790613684565b600054610100900460ff16611d725760405162461bcd60e51b81526004016108179061382b565b600054610100900460ff166129ff5760405162461bcd60e51b81526004016108179061382b565b610b1f816119b3565b600054610100900460ff16612a2f5760405162461bcd60e51b81526004016108179061382b565b60c9805460ff19169055565b80516a636f6e736f6c652e6c6f67602083016000808483855afa5050505050565b60408051600180825281830190925260609160009190602080830190803683370190505090508281600081518110612a9657612a96613a59565b602090810291909101015292915050565b6001600160a01b0384163b15611b6b5760405163f23a6e6160e01b81526001600160a01b0385169063f23a6e6190612aeb908990899088908890889060040161359e565b602060405180830381600087803b158015612b0557600080fd5b505af1925050508015612b35575060408051601f3d908101601f19168201909252612b329181019061329b565b60015b612b41576128e0613a85565b6001600160e01b0319811663f23a6e6160e01b146124f95760405162461bcd60e51b815260040161081790613684565b6001600160a01b038516612bf85760005b8351811015612bf657828181518110612b9d57612b9d613a59565b602002602001015160976000868481518110612bbb57612bbb613a59565b602002602001015181526020019081526020016000206000828254612be091906138e1565b90915550612bef9050816139fc565b9050612b82565b505b6001600160a01b038416611b6b5760005b83518110156124f957828181518110612c2457612c24613a59565b602002602001015160976000868481518110612c4257612c42613a59565b602002602001015181526020019081526020016000206000828254612c679190613918565b90915550612c769050816139fc565b9050612c09565b828054612c8990613995565b90600052602060002090601f016020900481019282612cab5760008555612cf1565b82601f10612cc457805160ff1916838001178555612cf1565b82800160010185558215612cf1579182015b82811115612cf1578251825591602001919060010190612cd6565b50612cfd929150612d01565b5090565b5b80821115612cfd5760008155600101612d02565b600082601f830112612d2757600080fd5b81356020612d34826138be565b604051612d4182826139d0565b8381528281019150858301600585901b87018401881015612d6157600080fd5b60005b85811015612d8057813584529284019290840190600101612d64565b5090979650505050505050565b600082601f830112612d9e57600080fd5b81356001600160401b03811115612db757612db7613a6f565b604051612dce601f8301601f1916602001826139d0565b818152846020838601011115612de357600080fd5b816020850160208301376000918101602001919091529392505050565b60008083601f840112612e1257600080fd5b5081356001600160401b03811115612e2957600080fd5b602083019150836020828501011115612e4157600080fd5b9250929050565b600060208284031215612e5a57600080fd5b813561183281613b2a565b600060208284031215612e7757600080fd5b815161183281613b2a565b60008060408385031215612e9557600080fd5b8235612ea081613b2a565b91506020830135612eb081613b2a565b809150509250929050565b600080600080600060a08688031215612ed357600080fd5b8535612ede81613b2a565b94506020860135612eee81613b2a565b935060408601356001600160401b0380821115612f0a57600080fd5b612f1689838a01612d16565b94506060880135915080821115612f2c57600080fd5b612f3889838a01612d16565b93506080880135915080821115612f4e57600080fd5b50612f5b88828901612d8d565b9150509295509295909350565b600080600080600060a08688031215612f8057600080fd5b8535612f8b81613b2a565b94506020860135612f9b81613b2a565b9350604086013592506060860135915060808601356001600160401b03811115612fc457600080fd5b612f5b88828901612d8d565b600080600060608486031215612fe557600080fd5b8335612ff081613b2a565b925060208401356001600160401b038082111561300c57600080fd5b61301887838801612d16565b9350604086013591508082111561302e57600080fd5b5061303b86828701612d16565b9150509250925092565b6000806040838503121561305857600080fd5b823561306381613b2a565b915060208301358015158114612eb057600080fd5b6000806040838503121561308b57600080fd5b823561309681613b2a565b946020939093013593505050565b6000806000606084860312156130b957600080fd5b83356130c481613b2a565b95602085013595506040909401359392505050565b600080600080600080600060a0888a0312156130f457600080fd5b87356130ff81613b2a565b9650602088013595506040880135945060608801356001600160401b038082111561312957600080fd5b6131358b838c01612e00565b909650945060808a013591508082111561314e57600080fd5b5061315b8a828b01612e00565b989b979a50959850939692959293505050565b6000806040838503121561318157600080fd5b82356001600160401b038082111561319857600080fd5b818501915085601f8301126131ac57600080fd5b813560206131b9826138be565b6040516131c682826139d0565b8381528281019150858301600585901b870184018b10156131e657600080fd5b600096505b848710156132125780356131fe81613b2a565b8352600196909601959183019183016131eb565b509650508601359250508082111561322957600080fd5b5061323685828601612d16565b9150509250929050565b60006020828403121561325257600080fd5b5035919050565b6000806040838503121561326c57600080fd5b823591506020830135612eb081613b2a565b60006020828403121561329057600080fd5b813561183281613b3f565b6000602082840312156132ad57600080fd5b815161183281613b3f565b600080602083850312156132cb57600080fd5b82356001600160401b038111156132e157600080fd5b6132ed85828601612e00565b90969095509350505050565b60006020828403121561330b57600080fd5b81356001600160401b0381111561332157600080fd5b61332d84828501612d8d565b949350505050565b60008060006060848603121561334a57600080fd5b83356001600160401b0381111561336057600080fd5b61336c86828701612d8d565b935050602084013561337d81613b2a565b9150604084013561338d81613b2a565b809150509250925092565b600080600080606085870312156133ae57600080fd5b8435935060208501356001600160401b038111156133cb57600080fd5b6133d787828801612e00565b90945092505060408501356133eb81613b2a565b939692955090935050565b6000806040838503121561340957600080fd5b8235915060208301356001600160401b0381111561342657600080fd5b61323685828601612d8d565b6000806040838503121561344557600080fd5b50508035926020909101359150565b600081518084526020808501945080840160005b8381101561348457815187529582019590820190600101613468565b509495945050505050565b600081518084526134a7816020860160208601613952565b601f01601f19169290920160200192915050565b8183823760009101908152919050565b7f416363657373436f6e74726f6c3a206163636f756e7420000000000000000000815260008351613503816017850160208801613952565b7001034b99036b4b9b9b4b733903937b6329607d1b6017918401918201528351613534816028840160208801613952565b01602801949350505050565b6001600160a01b0386811682528516602082015260a06040820181905260009061356c90830186613454565b828103606084015261357e8186613454565b90508281036080840152613592818561348f565b98975050505050505050565b6001600160a01b03868116825285166020820152604081018490526060810183905260a0608082018190526000906135d89083018461348f565b979650505050505050565b6020815260006118326020830184613454565b6040815260006136096040830185613454565b828103602084015261361b8185613454565b95945050505050565b602081016005831061364657634e487b7160e01b600052602160045260246000fd5b91905290565b602081526000611832602083018461348f565b606081526000613672606083018661348f565b60208301949094525060400152919050565b60208082526028908201527f455243313135353a204552433131353552656365697665722072656a656374656040820152676420746f6b656e7360c01b606082015260800190565b60208082526024908201527f455243313135353a206275726e20616d6f756e7420657863656564732062616c604082015263616e636560e01b606082015260800190565b60208082526029908201527f455243313135353a2063616c6c6572206973206e6f74206f776e6572206e6f7260408201526808185c1c1c9bdd995960ba1b606082015260800190565b60208082526025908201527f455243313135353a207472616e7366657220746f20746865207a65726f206164604082015264647265737360d81b606082015260800190565b60208082526023908201527f455243313135353a206275726e2066726f6d20746865207a65726f206164647260408201526265737360e81b606082015260800190565b6020808252602a908201527f455243313135353a20696e73756666696369656e742062616c616e636520666f60408201526939103a3930b739b332b960b11b606082015260800190565b6020808252602b908201527f496e697469616c697a61626c653a20636f6e7472616374206973206e6f74206960408201526a6e697469616c697a696e6760a81b606082015260800190565b60208082526028908201527f455243313135353a2069647320616e6420616d6f756e7473206c656e677468206040820152670dad2e6dac2e8c6d60c31b606082015260800190565b60006001600160401b038211156138d7576138d7613a6f565b5060051b60200190565b600082198211156138f4576138f4613a2d565b500190565b600081600019048311821515161561391357613913613a2d565b500290565b60008282101561392a5761392a613a2d565b500390565b600060ff821660ff84168082101561394957613949613a2d565b90039392505050565b60005b8381101561396d578181015183820152602001613955565b83811115610dba5750506000910152565b60008161398d5761398d613a2d565b506000190190565b600181811c908216806139a957607f821691505b602082108114156139ca57634e487b7160e01b600052602260045260246000fd5b50919050565b601f8201601f191681016001600160401b03811182821017156139f5576139f5613a6f565b6040525050565b6000600019821415613a1057613a10613a2d565b5060010190565b634e487b7160e01b600052600160045260246000fd5b634e487b7160e01b600052601160045260246000fd5b634e487b7160e01b600052602160045260246000fd5b634e487b7160e01b600052603260045260246000fd5b634e487b7160e01b600052604160045260246000fd5b600060033d1115613a9e5760046000803e5060005160e01c5b90565b600060443d1015613aaf5790565b6040516003193d81016004833e81513d6001600160401b038160248401118184111715613ade57505050505090565b8285019150815181811115613af65750505050505090565b843d8701016020828501011115613b105750505050505090565b613b1f602082860101876139d0565b509095945050505050565b6001600160a01b0381168114610b1f57600080fd5b6001600160e01b031981168114610b1f57600080fdfeb19546dff01e856fb3f010c267a7b1c60363cf8a4664e21cc89c26224620214ea49807205ce4d355092ef5a8a18f56e8913cf4a201fbe287825b095693c21775a2646970667358221220a0472471311c6c185c5d3052271264a22f5944ea09a52ff0eb87890efff8c9ac64736f6c63430008070033",
  "linkReferences": {},
  "deployedLinkReferences": {}
}