{
  "_format": "hh-sol-artifact-1",
  "contractName": "Memberships",
  "sourceName": "contracts/Memberships.sol",
  "abi": [
    {
      "inputs": [
        {
          "internalType": "string",
          "name": "tokenName",
          "type": "string"
        },
        {
          "internalType": "address",
          "name": "_ownerContract",
          "type": "address"
        }
      ],
      "stateMutability": "nonpayable",
      "type": "constructor"
    },
    {
      "anonymous": false,
      "inputs": [
        {
          "indexed": true,
          "internalType": "address",
          "name": "account",
          "type": "address"
        },
        {
          "indexed": true,
          "internalType": "address",
          "name": "operator",
          "type": "address"
        },
        {
          "indexed": false,
          "internalType": "bool",
          "name": "approved",
          "type": "bool"
        }
      ],
      "name": "ApprovalForAll",
      "type": "event"
    },
    {
      "anonymous": false,
      "inputs": [
        {
          "indexed": false,
          "internalType": "address",
          "name": "sender",
          "type": "address"
        },
        {
          "indexed": false,
          "internalType": "uint256",
          "name": "tokenId",
          "type": "uint256"
        }
      ],
      "name": "NewMembershipMinted",
      "type": "event"
    },
    {
      "anonymous": false,
      "inputs": [
        {
          "indexed": false,
          "internalType": "address",
          "name": "sender",
          "type": "address"
        },
        {
          "indexed": false,
          "internalType": "uint256",
          "name": "tokenId",
          "type": "uint256"
        }
      ],
      "name": "NewMembershipTokenCreated",
      "type": "event"
    },
    {
      "anonymous": false,
      "inputs": [
        {
          "indexed": false,
          "internalType": "address",
          "name": "account",
          "type": "address"
        }
      ],
      "name": "Paused",
      "type": "event"
    },
    {
      "anonymous": false,
      "inputs": [
        {
          "indexed": true,
          "internalType": "bytes32",
          "name": "role",
          "type": "bytes32"
        },
        {
          "indexed": true,
          "internalType": "bytes32",
          "name": "previousAdminRole",
          "type": "bytes32"
        },
        {
          "indexed": true,
          "internalType": "bytes32",
          "name": "newAdminRole",
          "type": "bytes32"
        }
      ],
      "name": "RoleAdminChanged",
      "type": "event"
    },
    {
      "anonymous": false,
      "inputs": [
        {
          "indexed": true,
          "internalType": "bytes32",
          "name": "role",
          "type": "bytes32"
        },
        {
          "indexed": true,
          "internalType": "address",
          "name": "account",
          "type": "address"
        },
        {
          "indexed": true,
          "internalType": "address",
          "name": "sender",
          "type": "address"
        }
      ],
      "name": "RoleGranted",
      "type": "event"
    },
    {
      "anonymous": false,
      "inputs": [
        {
          "indexed": true,
          "internalType": "bytes32",
          "name": "role",
          "type": "bytes32"
        },
        {
          "indexed": true,
          "internalType": "address",
          "name": "account",
          "type": "address"
        },
        {
          "indexed": true,
          "internalType": "address",
          "name": "sender",
          "type": "address"
        }
      ],
      "name": "RoleRevoked",
      "type": "event"
    },
    {
      "anonymous": false,
      "inputs": [
        {
          "indexed": true,
          "internalType": "address",
          "name": "operator",
          "type": "address"
        },
        {
          "indexed": true,
          "internalType": "address",
          "name": "from",
          "type": "address"
        },
        {
          "indexed": true,
          "internalType": "address",
          "name": "to",
          "type": "address"
        },
        {
          "indexed": false,
          "internalType": "uint256[]",
          "name": "ids",
          "type": "uint256[]"
        },
        {
          "indexed": false,
          "internalType": "uint256[]",
          "name": "values",
          "type": "uint256[]"
        }
      ],
      "name": "TransferBatch",
      "type": "event"
    },
    {
      "anonymous": false,
      "inputs": [
        {
          "indexed": true,
          "internalType": "address",
          "name": "operator",
          "type": "address"
        },
        {
          "indexed": true,
          "internalType": "address",
          "name": "from",
          "type": "address"
        },
        {
          "indexed": true,
          "internalType": "address",
          "name": "to",
          "type": "address"
        },
        {
          "indexed": false,
          "internalType": "uint256",
          "name": "id",
          "type": "uint256"
        },
        {
          "indexed": false,
          "internalType": "uint256",
          "name": "value",
          "type": "uint256"
        }
      ],
      "name": "TransferSingle",
      "type": "event"
    },
    {
      "anonymous": false,
      "inputs": [
        {
          "indexed": false,
          "internalType": "string",
          "name": "value",
          "type": "string"
        },
        {
          "indexed": true,
          "internalType": "uint256",
          "name": "id",
          "type": "uint256"
        }
      ],
      "name": "URI",
      "type": "event"
    },
    {
      "anonymous": false,
      "inputs": [
        {
          "indexed": false,
          "internalType": "address",
          "name": "account",
          "type": "address"
        }
      ],
      "name": "Unpaused",
      "type": "event"
    },
    {
      "inputs": [],
      "name": "ADMIN_ROLE",
      "outputs": [
        {
          "internalType": "bytes32",
          "name": "",
          "type": "bytes32"
        }
      ],
      "stateMutability": "view",
      "type": "function"
    },
    {
      "inputs": [],
      "name": "DEFAULT_ADMIN_ROLE",
      "outputs": [
        {
          "internalType": "bytes32",
          "name": "",
          "type": "bytes32"
        }
      ],
      "stateMutability": "view",
      "type": "function"
    },
    {
      "inputs": [],
      "name": "OWNER_ROLE",
      "outputs": [
        {
          "internalType": "bytes32",
          "name": "",
          "type": "bytes32"
        }
      ],
      "stateMutability": "view",
      "type": "function"
    },
    {
      "inputs": [
        {
          "internalType": "address",
          "name": "account",
          "type": "address"
        },
        {
          "internalType": "uint256",
          "name": "id",
          "type": "uint256"
        }
      ],
      "name": "balanceOf",
      "outputs": [
        {
          "internalType": "uint256",
          "name": "",
          "type": "uint256"
        }
      ],
      "stateMutability": "view",
      "type": "function"
    },
    {
      "inputs": [
        {
          "internalType": "address[]",
          "name": "accounts",
          "type": "address[]"
        },
        {
          "internalType": "uint256[]",
          "name": "ids",
          "type": "uint256[]"
        }
      ],
      "name": "balanceOfBatch",
      "outputs": [
        {
          "internalType": "uint256[]",
          "name": "",
          "type": "uint256[]"
        }
      ],
      "stateMutability": "view",
      "type": "function"
    },
    {
      "inputs": [
        {
          "internalType": "address",
          "name": "account",
          "type": "address"
        },
        {
          "internalType": "uint256",
          "name": "id",
          "type": "uint256"
        },
        {
          "internalType": "uint256",
          "name": "value",
          "type": "uint256"
        }
      ],
      "name": "burn",
      "outputs": [],
      "stateMutability": "nonpayable",
      "type": "function"
    },
    {
      "inputs": [
        {
          "internalType": "address",
          "name": "account",
          "type": "address"
        },
        {
          "internalType": "uint256[]",
          "name": "ids",
          "type": "uint256[]"
        },
        {
          "internalType": "uint256[]",
          "name": "values",
          "type": "uint256[]"
        }
      ],
      "name": "burnBatch",
      "outputs": [],
      "stateMutability": "nonpayable",
      "type": "function"
    },
    {
      "inputs": [
        {
          "internalType": "uint256",
          "name": "id",
          "type": "uint256"
        }
      ],
      "name": "exists",
      "outputs": [
        {
          "internalType": "bool",
          "name": "",
          "type": "bool"
        }
      ],
      "stateMutability": "view",
      "type": "function"
    },
    {
      "inputs": [
        {
          "internalType": "uint256",
          "name": "tokenId",
          "type": "uint256"
        }
      ],
      "name": "getMembership",
      "outputs": [
        {
          "internalType": "uint256",
          "name": "",
          "type": "uint256"
        }
      ],
      "stateMutability": "view",
      "type": "function"
    },
    {
      "inputs": [
        {
          "internalType": "uint256",
          "name": "channel",
          "type": "uint256"
        }
      ],
      "name": "getMembershipList",
      "outputs": [
        {
          "internalType": "uint256[]",
          "name": "",
          "type": "uint256[]"
        }
      ],
      "stateMutability": "view",
      "type": "function"
    },
    {
      "inputs": [
        {
          "internalType": "bytes32",
          "name": "role",
          "type": "bytes32"
        }
      ],
      "name": "getRoleAdmin",
      "outputs": [
        {
          "internalType": "bytes32",
          "name": "",
          "type": "bytes32"
        }
      ],
      "stateMutability": "view",
      "type": "function"
    },
    {
      "inputs": [],
      "name": "getTokenIndex",
      "outputs": [
        {
          "internalType": "uint256",
          "name": "",
          "type": "uint256"
        }
      ],
      "stateMutability": "view",
      "type": "function"
    },
    {
      "inputs": [
        {
          "internalType": "bytes32",
          "name": "role",
          "type": "bytes32"
        },
        {
          "internalType": "address",
          "name": "account",
          "type": "address"
        }
      ],
      "name": "grantRole",
      "outputs": [],
      "stateMutability": "nonpayable",
      "type": "function"
    },
    {
      "inputs": [
        {
          "internalType": "bytes32",
          "name": "role",
          "type": "bytes32"
        },
        {
          "internalType": "address",
          "name": "account",
          "type": "address"
        }
      ],
      "name": "hasRole",
      "outputs": [
        {
          "internalType": "bool",
          "name": "",
          "type": "bool"
        }
      ],
      "stateMutability": "view",
      "type": "function"
    },
    {
      "inputs": [
        {
          "internalType": "string",
          "name": "tokenName",
          "type": "string"
        },
        {
          "internalType": "address",
          "name": "_ownerContract",
          "type": "address"
        }
      ],
      "name": "initialize",
      "outputs": [],
      "stateMutability": "nonpayable",
      "type": "function"
    },
    {
      "inputs": [
        {
          "internalType": "address",
          "name": "account",
          "type": "address"
        },
        {
          "internalType": "address",
          "name": "operator",
          "type": "address"
        }
      ],
      "name": "isApprovedForAll",
      "outputs": [
        {
          "internalType": "bool",
          "name": "",
          "type": "bool"
        }
      ],
      "stateMutability": "view",
      "type": "function"
    },
    {
      "inputs": [
        {
          "internalType": "string",
          "name": "",
          "type": "string"
        }
      ],
      "name": "levelMapping",
      "outputs": [
        {
          "internalType": "enum Memberships.Levels",
          "name": "",
          "type": "uint8"
        }
      ],
      "stateMutability": "view",
      "type": "function"
    },
    {
      "inputs": [
        {
          "internalType": "uint256",
          "name": "channel",
          "type": "uint256"
        },
        {
          "internalType": "string",
          "name": "level",
          "type": "string"
        },
        {
          "internalType": "address",
          "name": "to",
          "type": "address"
        }
      ],
      "name": "membershipMint",
      "outputs": [],
      "stateMutability": "payable",
      "type": "function"
    },
    {
      "inputs": [
        {
          "internalType": "uint256",
          "name": "channel",
          "type": "uint256"
        },
        {
          "internalType": "uint256",
          "name": "cost",
          "type": "uint256"
        },
        {
          "internalType": "string",
          "name": "level",
          "type": "string"
        },
        {
          "internalType": "string",
          "name": "computedUri",
          "type": "string"
        }
      ],
      "name": "membershipTokenCreate",
      "outputs": [],
      "stateMutability": "nonpayable",
      "type": "function"
    },
    {
      "inputs": [],
      "name": "name",
      "outputs": [
        {
          "internalType": "string",
          "name": "",
          "type": "string"
        }
      ],
      "stateMutability": "view",
      "type": "function"
    },
    {
      "inputs": [],
      "name": "pause",
      "outputs": [],
      "stateMutability": "nonpayable",
      "type": "function"
    },
    {
      "inputs": [],
      "name": "paused",
      "outputs": [
        {
          "internalType": "bool",
          "name": "",
          "type": "bool"
        }
      ],
      "stateMutability": "view",
      "type": "function"
    },
    {
      "inputs": [
        {
          "internalType": "bytes32",
          "name": "role",
          "type": "bytes32"
        },
        {
          "internalType": "address",
          "name": "account",
          "type": "address"
        }
      ],
      "name": "renounceRole",
      "outputs": [],
      "stateMutability": "nonpayable",
      "type": "function"
    },
    {
      "inputs": [
        {
          "internalType": "bytes32",
          "name": "role",
          "type": "bytes32"
        },
        {
          "internalType": "address",
          "name": "account",
          "type": "address"
        }
      ],
      "name": "revokeRole",
      "outputs": [],
      "stateMutability": "nonpayable",
      "type": "function"
    },
    {
      "inputs": [
        {
          "internalType": "address",
          "name": "from",
          "type": "address"
        },
        {
          "internalType": "address",
          "name": "to",
          "type": "address"
        },
        {
          "internalType": "uint256[]",
          "name": "ids",
          "type": "uint256[]"
        },
        {
          "internalType": "uint256[]",
          "name": "amounts",
          "type": "uint256[]"
        },
        {
          "internalType": "bytes",
          "name": "data",
          "type": "bytes"
        }
      ],
      "name": "safeBatchTransferFrom",
      "outputs": [],
      "stateMutability": "nonpayable",
      "type": "function"
    },
    {
      "inputs": [
        {
          "internalType": "address",
          "name": "from",
          "type": "address"
        },
        {
          "internalType": "address",
          "name": "to",
          "type": "address"
        },
        {
          "internalType": "uint256",
          "name": "id",
          "type": "uint256"
        },
        {
          "internalType": "uint256",
          "name": "amount",
          "type": "uint256"
        },
        {
          "internalType": "bytes",
          "name": "data",
          "type": "bytes"
        }
      ],
      "name": "safeTransferFrom",
      "outputs": [],
      "stateMutability": "nonpayable",
      "type": "function"
    },
    {
      "inputs": [
        {
          "internalType": "address",
          "name": "operator",
          "type": "address"
        },
        {
          "internalType": "bool",
          "name": "approved",
          "type": "bool"
        }
      ],
      "name": "setApprovalForAll",
      "outputs": [],
      "stateMutability": "nonpayable",
      "type": "function"
    },
    {
      "inputs": [
        {
          "internalType": "string",
          "name": "maxMember",
          "type": "string"
        }
      ],
      "name": "setMaxMemberships",
      "outputs": [],
      "stateMutability": "nonpayable",
      "type": "function"
    },
    {
      "inputs": [
        {
          "internalType": "uint256",
          "name": "tokenId",
          "type": "uint256"
        },
        {
          "internalType": "string",
          "name": "newUri",
          "type": "string"
        }
      ],
      "name": "setTokenUri",
      "outputs": [],
      "stateMutability": "nonpayable",
      "type": "function"
    },
    {
      "inputs": [
        {
          "internalType": "string",
          "name": "newuri",
          "type": "string"
        }
      ],
      "name": "setURI",
      "outputs": [],
      "stateMutability": "nonpayable",
      "type": "function"
    },
    {
      "inputs": [
        {
          "internalType": "bytes4",
          "name": "interfaceId",
          "type": "bytes4"
        }
      ],
      "name": "supportsInterface",
      "outputs": [
        {
          "internalType": "bool",
          "name": "",
          "type": "bool"
        }
      ],
      "stateMutability": "view",
      "type": "function"
    },
    {
      "inputs": [],
      "name": "symbol",
      "outputs": [
        {
          "internalType": "string",
          "name": "",
          "type": "string"
        }
      ],
      "stateMutability": "view",
      "type": "function"
    },
    {
      "inputs": [
        {
          "internalType": "uint256",
          "name": "id",
          "type": "uint256"
        }
      ],
      "name": "totalSupply",
      "outputs": [
        {
          "internalType": "uint256",
          "name": "",
          "type": "uint256"
        }
      ],
      "stateMutability": "view",
      "type": "function"
    },
    {
      "inputs": [
        {
          "internalType": "address",
          "name": "to",
          "type": "address"
        }
      ],
      "name": "transferOwnership",
      "outputs": [],
      "stateMutability": "nonpayable",
      "type": "function"
    },
    {
      "inputs": [],
      "name": "unpause",
      "outputs": [],
      "stateMutability": "nonpayable",
      "type": "function"
    },
    {
      "inputs": [
        {
          "internalType": "uint256",
          "name": "tokenId",
          "type": "uint256"
        }
      ],
      "name": "uri",
      "outputs": [
        {
          "internalType": "string",
          "name": "",
          "type": "string"
        }
      ],
      "stateMutability": "view",
      "type": "function"
    },
    {
      "inputs": [],
      "name": "withdrawBalance",
      "outputs": [],
      "stateMutability": "nonpayable",
      "type": "function"
    }
  ],
  "bytecode": "0x6080604052600a610167553480156200001757600080fd5b5060405162003954380380620039548339810160408190526200003a9162000149565b600054610100900460ff16620000575760005460ff161562000061565b6200006162000108565b620000c95760405162461bcd60e51b815260206004820152602e60248201527f496e697469616c697a61626c653a20636f6e747261637420697320616c72656160448201526d191e481a5b9a5d1a585b1a5e995960921b606482015260840160405180910390fd5b600054610100900460ff16158015620000ec576000805461ffff19166101011790555b8015620000ff576000805461ff00191690555b50505062000250565b600062000120306200012660201b620015781760201c565b15905090565b3b151590565b80516001600160a01b03811681146200014457600080fd5b919050565b600080604083850312156200015d57600080fd5b82516001600160401b03808211156200017557600080fd5b818501915085601f8301126200018a57600080fd5b8151818111156200019f576200019f6200023a565b604051601f8201601f19908116603f01168101908382118183101715620001ca57620001ca6200023a565b81604052828152602093508884848701011115620001e757600080fd5b600091505b828210156200020b5784820184015181830185015290830190620001ec565b828211156200021d5760008484830101525b95506200022f9150508582016200012c565b925050509250929050565b634e487b7160e01b600052604160045260246000fd5b6136f480620002606000396000f3fe6080604052600436106102195760003560e01c80636b20c45411610123578063b9c08fd3116100ab578063e58378bb1161006f578063e58378bb14610652578063e985e9c514610674578063f242432a146106bd578063f2fde38b146106dd578063f5298aca146106fd57600080fd5b8063b9c08fd3146105a5578063bd85b039146105c5578063d466645e146105f2578063d547741f14610612578063d8eaf1a51461063257600080fd5b806391d14854116100f257806391d148541461052857806395d89b4114610548578063a217fddf1461055d578063a22cb46514610572578063a44ed5351461059257600080fd5b80636b20c454146104b157806375b238fc146104d15780637ab4339d146104f35780638456cb591461051357600080fd5b806336568abe116101a65780634e1273f4116101755780634e1273f4146104085780634f558e791461043557806357f7789e146104645780635c975abb146104845780635fd8c7101461049c57600080fd5b806336568abe1461036a57806338fbf2c61461038a5780633f4ba83a146103aa57806345198254146103bf57600080fd5b80630e89341c116101ed5780630e89341c146102c5578063248a9ca3146102e5578063295d3ee8146103155780632eb2c2d61461032a5780632f2ff15d1461034a57600080fd5b8062fdd58e1461021e57806301ffc9a71461025157806302fe53051461028157806306fdde03146102a3575b600080fd5b34801561022a57600080fd5b5061023e610239366004612c38565b61071d565b6040519081526020015b60405180910390f35b34801561025d57600080fd5b5061027161026c366004612da1565b6107b6565b6040519015158152602001610248565b34801561028d57600080fd5b506102a161029c366004612e1c565b6107c7565b005b3480156102af57600080fd5b506102b86107ed565b60405161024891906131af565b3480156102d157600080fd5b506102b86102e0366004612d65565b61087c565b3480156102f157600080fd5b5061023e610300366004612d65565b600090815260fb602052604090206001015490565b34801561032157600080fd5b5061023e61091f565b34801561033657600080fd5b506102a1610345366004612a7c565b610930565b34801561035657600080fd5b506102a1610365366004612d7e565b6109c7565b34801561037657600080fd5b506102a1610385366004612d7e565b6109f2565b34801561039657600080fd5b5061023e6103a5366004612d65565b610a6c565b3480156103b657600080fd5b506102a1610a78565b3480156103cb57600080fd5b506103fb6103da366004612e1c565b80516020818301810180516101628252928201919093012091525460ff1681565b6040516102489190613187565b34801561041457600080fd5b50610428610423366004612c95565b610a9c565b6040516102489190613146565b34801561044157600080fd5b50610271610450366004612d65565b600090815260976020526040902054151590565b34801561047057600080fd5b506102a161047f366004612ef9565b610bc5565b34801561049057600080fd5b5060c95460ff16610271565b3480156104a857600080fd5b506102a1610c6d565b3480156104bd57600080fd5b506102a16104cc366004612b89565b610d19565b3480156104dd57600080fd5b5061023e60008051602061369f83398151915281565b3480156104ff57600080fd5b506102a161050e366004612e58565b610d5c565b34801561051f57600080fd5b506102a1610fef565b34801561053457600080fd5b50610271610543366004612d7e565b611010565b34801561055457600080fd5b506102b861103b565b34801561056957600080fd5b5061023e600081565b34801561057e57600080fd5b506102a161058d366004612bfc565b611049565b6102a16105a0366004612e9c565b611054565b3480156105b157600080fd5b506104286105c0366004612d65565b6112b6565b3480156105d157600080fd5b5061023e6105e0366004612d65565b60009081526097602052604090205490565b3480156105fe57600080fd5b506102a161060d366004612ddb565b611318565b34801561061e57600080fd5b506102a161062d366004612d7e565b61137c565b34801561063e57600080fd5b506102a161064d366004612f35565b6113a2565b34801561065e57600080fd5b5061023e60008051602061367f83398151915281565b34801561068057600080fd5b5061027161068f366004612a49565b6001600160a01b03918216600090815260666020908152604080832093909416825291909152205460ff1690565b3480156106c957600080fd5b506102a16106d8366004612b25565b6114bf565b3480156106e957600080fd5b506102a16106f8366004612a2e565b611504565b34801561070957600080fd5b506102a1610718366004612c62565b611535565b60006001600160a01b03831661078e5760405162461bcd60e51b815260206004820152602b60248201527f455243313135353a2062616c616e636520717565727920666f7220746865207a60448201526a65726f206164647265737360a81b60648201526084015b60405180910390fd5b5060009081526065602090815260408083206001600160a01b03949094168352929052205490565b60006107c18261157e565b92915050565b60008051602061369f8339815191526107e081336115a3565b6107e982611607565b5050565b61015f80546107fb906134d3565b80601f0160208091040260200160405190810160405280929190818152602001828054610827906134d3565b80156108745780601f1061084957610100808354040283529160200191610874565b820191906000526020600020905b81548152906001019060200180831161085757829003601f168201915b505050505081565b60008181526101636020526040902080546060919061089a906134d3565b80601f01602080910402602001604051908101604052809291908181526020018280546108c6906134d3565b80156109135780601f106108e857610100808354040283529160200191610913565b820191906000526020600020905b8154815290600101906020018083116108f657829003601f168201915b50505050509050919050565b600061092b6101615490565b905090565b6001600160a01b03851633148061094c575061094c853361068f565b6109b35760405162461bcd60e51b815260206004820152603260248201527f455243313135353a207472616e736665722063616c6c6572206973206e6f74206044820152711bdddb995c881b9bdc88185c1c1c9bdd995960721b6064820152608401610785565b6109c0858585858561161a565b5050505050565b600082815260fb60205260409020600101546109e381336115a3565b6109ed83836117c7565b505050565b6001600160a01b0381163314610a625760405162461bcd60e51b815260206004820152602f60248201527f416363657373436f6e74726f6c3a2063616e206f6e6c792072656e6f756e636560448201526e103937b632b9903337b91039b2b63360891b6064820152608401610785565b6107e9828261184d565b60006107c1338361071d565b60008051602061367f833981519152610a9181336115a3565b610a996118b4565b50565b60608151835114610b015760405162461bcd60e51b815260206004820152602960248201527f455243313135353a206163636f756e747320616e6420696473206c656e677468604482015268040dad2e6dac2e8c6d60bb1b6064820152608401610785565b600083516001600160401b03811115610b1c57610b1c6135ad565b604051908082528060200260200182016040528015610b45578160200160208202803683370190505b50905060005b8451811015610bbd57610b90858281518110610b6957610b69613597565b6020026020010151858381518110610b8357610b83613597565b602002602001015161071d565b828281518110610ba257610ba2613597565b6020908102919091010152610bb68161353a565b9050610b4b565b509392505050565b60008051602061367f833981519152610bde81336115a3565b6000838152610163602052604090208054610bf8906134d3565b159050610c475760405162461bcd60e51b815260206004820152601a60248201527f43616e6e6f74206d6f64696679206578697374696e67207572690000000000006044820152606401610785565b6000838152610163602090815260409091208351610c6792850190612847565b50505050565b60008051602061367f833981519152610c8681336115a3565b60405133904790600090839083908381818185875af1925050503d8060008114610ccc576040519150601f19603f3d011682016040523d82523d6000602084013e610cd1565b606091505b5050905080610c675760405162461bcd60e51b81526020600482015260146024820152734661696c656420746f2073656e64204d4154494360601b6044820152606401610785565b6001600160a01b038316331480610d355750610d35833361068f565b610d515760405162461bcd60e51b81526004016107859061324e565b6109ed838383611947565b600054610100900460ff16610d775760005460ff1615610d7b565b303b155b610dde5760405162461bcd60e51b815260206004820152602e60248201527f496e697469616c697a61626c653a20636f6e747261637420697320616c72656160448201526d191e481a5b9a5d1a585b1a5e995960921b6064820152608401610785565b600054610100900460ff16158015610e00576000805461ffff19166101011790555b610e0983611ad8565b610e11611b18565b610e19611b18565b610e21611b59565b610e29611b18565b610e346000336117c7565b610e4c60008051602061369f833981519152336117c7565b610e6460008051602061367f833981519152336117c7565b610e7c60008051602061369f833981519152836117c7565b610e9460008051602061367f833981519152836117c7565b6000610162604051610eb2906562726f6e7a6560d01b815260060190565b908152604051908190036020019020805460ff19166001836003811115610edb57610edb613581565b02179055506001610162604051610efe906539b4b63b32b960d11b815260060190565b908152604051908190036020019020805460ff19166001836003811115610f2757610f27613581565b02179055506002610162604051610f48906319dbdb1960e21b815260040190565b908152604051908190036020019020805460ff19166001836003811115610f7157610f71613581565b02179055506003610162604051610f969067706c6174696e756d60c01b815260080190565b908152604051908190036020019020805460ff19166001836003811115610fbf57610fbf613581565b02179055508251610fd89061015f906020860190612847565b5080156109ed576000805461ff0019169055505050565b60008051602061367f83398151915261100881336115a3565b610a99611b90565b600091825260fb602090815260408084206001600160a01b0393909316845291905290205460ff1690565b61016080546107fb906134d3565b6107e9338383611c0b565b600084815261016460209081526040808320805482518185028101850190935280835291929091908301828280156110ab57602002820191906000526020600020905b815481526020019060010190808311611097575b5050505050905060008151116111125760405162461bcd60e51b815260206004820152602660248201527f4e6f206d656d6265727368697073206d696e74656420666f72207468697320636044820152651a185b9b995b60d21b6064820152608401610785565b6000805b82518110156111dd576000610166600085848151811061113857611138613597565b6020026020010151815260200190815260200160002060009054906101000a900460ff169050610162878760405161117192919061301e565b9081526040519081900360200190205460ff16600381111561119557611195613581565b8160038111156111a7576111a7613581565b14156111ca578382815181106111bf576111bf613597565b602002602001015192505b50806111d58161353a565b915050611116565b506000818152610165602052604090205434811061122a5761122a604051806040016040528060148152602001736e6f7420656e6f756768206d6f6e65796261677360601b815250611cec565b6112468483600160405180602001604052806000815250611d2f565b60008781526101646020908152604080832080546001810182559084529282902090920184905581516001600160a01b03871681529081018490527ffe532499518ab958be1855c68f1cf6c3cd1ad50b40dcb9dfb1c5185da7511de791015b60405180910390a150505050505050565b6000818152610164602090815260409182902080548351818402810184019094528084526060939283018282801561091357602002820191906000526020600020905b8154815260200190600101908083116112f95750505050509050919050565b60008051602061367f83398151915261133181336115a3565b600061137284848080601f016020809104026020016040519081016040528093929190818152602001838380828437600092019190915250611e4192505050565b6101675550505050565b600082815260fb602052604090206001015461139881336115a3565b6109ed838361184d565b60006113ae6101615490565b90506113bf61016180546001019055565b600087815261016460209081526040808320805460018101825590845282842001849055838352610165909152908190208790555161016290611405908790879061301e565b90815260408051602092819003830190205460008481526101669093529120805460ff9092169160ff1916600183600381111561144457611444613581565b02179055506114898184848080601f016020809104026020016040519081016040528093929190818152602001838380828437600092019190915250611f1b92505050565b60408051338152602081018390527fbbc2bd2c0eaa795a53fbbb48b3ad77f6e5719e4b44166a7945aa12e93fcf677f91016112a5565b6001600160a01b0385163314806114db57506114db853361068f565b6114f75760405162461bcd60e51b81526004016107859061324e565b6109c08585858585611fa4565b60008051602061369f83398151915261151d81336115a3565b6107e960008051602061367f833981519152836117c7565b6001600160a01b0383163314806115515750611551833361068f565b61156d5760405162461bcd60e51b81526004016107859061324e565b6109ed8383836120c5565b3b151590565b60006001600160e01b03198216637965db0b60e01b14806107c157506107c1826121ca565b6115ad8282611010565b6107e9576115c5816001600160a01b0316601461221a565b6115d083602061221a565b6040516020016115e192919061302e565b60408051601f198184030181529082905262461bcd60e51b8252610785916004016131af565b80516107e9906067906020840190612847565b815183511461163b5760405162461bcd60e51b8152600401610785906133b4565b6001600160a01b0384166116615760405162461bcd60e51b815260040161078590613297565b336116708187878787876123bc565b60005b845181101561175957600085828151811061169057611690613597565b6020026020010151905060008583815181106116ae576116ae613597565b60209081029190910181015160008481526065835260408082206001600160a01b038e1683529093529190912054909150818110156116ff5760405162461bcd60e51b81526004016107859061331f565b60008381526065602090815260408083206001600160a01b038e8116855292528083208585039055908b1682528120805484929061173e90849061341f565b92505081905550505050806117529061353a565b9050611673565b50846001600160a01b0316866001600160a01b0316826001600160a01b03167f4a39dc06d4c0dbc64b70af90fd698a233a518aa5d07e595d983b8c0526c8f7fb87876040516117a9929190613159565b60405180910390a46117bf818787878787612410565b505050505050565b6117d18282611010565b6107e957600082815260fb602090815260408083206001600160a01b03851684529091529020805460ff191660011790556118093390565b6001600160a01b0316816001600160a01b0316837f2f8788117e7eff1d82e926ec794901d17c78024a50270940304540a733656f0d60405160405180910390a45050565b6118578282611010565b156107e957600082815260fb602090815260408083206001600160a01b0385168085529252808320805460ff1916905551339285917ff6391f5c32d9c69d2a47ea670b442974b53935d1edc7fd64eb21e047a839171b9190a45050565b60c95460ff166118fd5760405162461bcd60e51b815260206004820152601460248201527314185d5cd8589b194e881b9bdd081c185d5cd95960621b6044820152606401610785565b60c9805460ff191690557f5db9ee0a495bf2e6ff9c91a7834c1ba4fdd244a5e8aa4e537bd38aeae4b073aa335b6040516001600160a01b03909116815260200160405180910390a1565b6001600160a01b03831661196d5760405162461bcd60e51b8152600401610785906132dc565b805182511461198e5760405162461bcd60e51b8152600401610785906133b4565b60003390506119b1818560008686604051806020016040528060008152506123bc565b60005b8351811015611a795760008482815181106119d1576119d1613597565b6020026020010151905060008483815181106119ef576119ef613597565b60209081029190910181015160008481526065835260408082206001600160a01b038c168352909352919091205490915081811015611a405760405162461bcd60e51b81526004016107859061320a565b60009283526065602090815260408085206001600160a01b038b1686529091529092209103905580611a718161353a565b9150506119b4565b5060006001600160a01b0316846001600160a01b0316826001600160a01b03167f4a39dc06d4c0dbc64b70af90fd698a233a518aa5d07e595d983b8c0526c8f7fb8686604051611aca929190613159565b60405180910390a450505050565b600054610100900460ff16611aff5760405162461bcd60e51b815260040161078590613369565b611b0761257b565b611b0f61257b565b610a99816125a2565b600054610100900460ff16611b3f5760405162461bcd60e51b815260040161078590613369565b611b4761257b565b611b4f61257b565b611b5761257b565b565b600054610100900460ff16611b805760405162461bcd60e51b815260040161078590613369565b611b8861257b565b611b576125d2565b60c95460ff1615611bd65760405162461bcd60e51b815260206004820152601060248201526f14185d5cd8589b194e881c185d5cd95960821b6044820152606401610785565b60c9805460ff191660011790557f62e78cea01bee320cd4e420270b5ea74000d11b0c9f74754ebdbfc544b05a25861192a3390565b816001600160a01b0316836001600160a01b03161415611c7f5760405162461bcd60e51b815260206004820152602960248201527f455243313135353a2073657474696e6720617070726f76616c20737461747573604482015268103337b91039b2b63360b91b6064820152608401610785565b6001600160a01b03838116600081815260666020908152604080832094871680845294825291829020805460ff191686151590811790915591519182527f17307eab39ab6107e8899845ad3d59bd9653f200f220920489ca2b5937696c31910160405180910390a3505050565b610a9981604051602401611d0091906131af565b60408051601f198184030181529190526020810180516001600160e01b031663104c13eb60e21b179052612605565b6001600160a01b038416611d8f5760405162461bcd60e51b815260206004820152602160248201527f455243313135353a206d696e7420746f20746865207a65726f206164647265736044820152607360f81b6064820152608401610785565b33611daf81600087611da088612626565b611da988612626565b876123bc565b60008481526065602090815260408083206001600160a01b038916845290915281208054859290611de190849061341f565b909155505060408051858152602081018590526001600160a01b0380881692600092918516917fc3d58168c5ae7397731d063d5bbf3d657854427343f4c083240f7aacaa2d0f62910160405180910390a46109c081600087878787612671565b805160009082906001908390611e58908390613456565b90505b8251811015611f13576030838281518110611e7857611e78613597565b016020015160f81c10801590611ea857506039838281518110611e9d57611e9d613597565b016020015160f81c11155b611eb457611eb4613555565b816030848381518110611ec957611ec9613597565b0160200151611edb919060f81c61346d565b60ff16611ee89190613437565b611ef2908561341f565b9350611eff600a83613437565b915080611f0b816134bc565b915050611e5b565b505050919050565b6000828152610163602052604090208054611f35906134d3565b159050611f845760405162461bcd60e51b815260206004820152601a60248201527f43616e6e6f74206d6f64696679206578697374696e67207572690000000000006044820152606401610785565b60008281526101636020908152604090912082516109ed92840190612847565b6001600160a01b038416611fca5760405162461bcd60e51b815260040161078590613297565b33611fda818787611da088612626565b60008481526065602090815260408083206001600160a01b038a1684529091529020548381101561201d5760405162461bcd60e51b81526004016107859061331f565b60008581526065602090815260408083206001600160a01b038b811685529252808320878503905590881682528120805486929061205c90849061341f565b909155505060408051868152602081018690526001600160a01b03808916928a821692918616917fc3d58168c5ae7397731d063d5bbf3d657854427343f4c083240f7aacaa2d0f62910160405180910390a46120bc828888888888612671565b50505050505050565b6001600160a01b0383166120eb5760405162461bcd60e51b8152600401610785906132dc565b3361211a818560006120fc87612626565b61210587612626565b604051806020016040528060008152506123bc565b60008381526065602090815260408083206001600160a01b03881684529091529020548281101561215d5760405162461bcd60e51b81526004016107859061320a565b60008481526065602090815260408083206001600160a01b03898116808652918452828520888703905582518981529384018890529092908616917fc3d58168c5ae7397731d063d5bbf3d657854427343f4c083240f7aacaa2d0f62910160405180910390a45050505050565b60006001600160e01b03198216636cdb3d1360e11b14806121fb57506001600160e01b031982166303a24d0760e21b145b806107c157506301ffc9a760e01b6001600160e01b03198316146107c1565b60606000612229836002613437565b61223490600261341f565b6001600160401b0381111561224b5761224b6135ad565b6040519080825280601f01601f191660200182016040528015612275576020820181803683370190505b509050600360fc1b8160008151811061229057612290613597565b60200101906001600160f81b031916908160001a905350600f60fb1b816001815181106122bf576122bf613597565b60200101906001600160f81b031916908160001a90535060006122e3846002613437565b6122ee90600161341f565b90505b6001811115612366576f181899199a1a9b1b9c1cb0b131b232b360811b85600f166010811061232257612322613597565b1a60f81b82828151811061233857612338613597565b60200101906001600160f81b031916908160001a90535060049490941c9361235f816134bc565b90506122f1565b5083156123b55760405162461bcd60e51b815260206004820181905260248201527f537472696e67733a20686578206c656e67746820696e73756666696369656e746044820152606401610785565b9392505050565b60c95460ff16156124025760405162461bcd60e51b815260206004820152601060248201526f14185d5cd8589b194e881c185d5cd95960821b6044820152606401610785565b6117bf86868686868661273b565b6001600160a01b0384163b156117bf5760405163bc197c8160e01b81526001600160a01b0385169063bc197c819061245490899089908890889088906004016130a3565b602060405180830381600087803b15801561246e57600080fd5b505af192505050801561249e575060408051601f3d908101601f1916820190925261249b91810190612dbe565b60015b61254b576124aa6135c3565b806308c379a014156124e457506124bf6135df565b806124ca57506124e6565b8060405162461bcd60e51b815260040161078591906131af565b505b60405162461bcd60e51b815260206004820152603460248201527f455243313135353a207472616e7366657220746f206e6f6e20455243313135356044820152732932b1b2b4bb32b91034b6b83632b6b2b73a32b960611b6064820152608401610785565b6001600160e01b0319811663bc197c8160e01b146120bc5760405162461bcd60e51b8152600401610785906131c2565b600054610100900460ff16611b575760405162461bcd60e51b815260040161078590613369565b600054610100900460ff166125c95760405162461bcd60e51b815260040161078590613369565b610a9981611607565b600054610100900460ff166125f95760405162461bcd60e51b815260040161078590613369565b60c9805460ff19169055565b80516a636f6e736f6c652e6c6f67602083016000808483855afa5050505050565b6040805160018082528183019092526060916000919060208083019080368337019050509050828160008151811061266057612660613597565b602090810291909101015292915050565b6001600160a01b0384163b156117bf5760405163f23a6e6160e01b81526001600160a01b0385169063f23a6e61906126b59089908990889088908890600401613101565b602060405180830381600087803b1580156126cf57600080fd5b505af19250505080156126ff575060408051601f3d908101601f191682019092526126fc91810190612dbe565b60015b61270b576124aa6135c3565b6001600160e01b0319811663f23a6e6160e01b146120bc5760405162461bcd60e51b8152600401610785906131c2565b6001600160a01b0385166127c25760005b83518110156127c05782818151811061276757612767613597565b60200260200101516097600086848151811061278557612785613597565b6020026020010151815260200190815260200160002060008282546127aa919061341f565b909155506127b990508161353a565b905061274c565b505b6001600160a01b0384166117bf5760005b83518110156120bc578281815181106127ee576127ee613597565b60200260200101516097600086848151811061280c5761280c613597565b6020026020010151815260200190815260200160002060008282546128319190613456565b9091555061284090508161353a565b90506127d3565b828054612853906134d3565b90600052602060002090601f01602090048101928261287557600085556128bb565b82601f1061288e57805160ff19168380011785556128bb565b828001600101855582156128bb579182015b828111156128bb5782518255916020019190600101906128a0565b506128c79291506128cb565b5090565b5b808211156128c757600081556001016128cc565b80356001600160a01b03811681146128f757600080fd5b919050565b600082601f83011261290d57600080fd5b8135602061291a826133fc565b604051612927828261350e565b8381528281019150858301600585901b8701840188101561294757600080fd5b60005b858110156129665781358452928401929084019060010161294a565b5090979650505050505050565b600082601f83011261298457600080fd5b81356001600160401b0381111561299d5761299d6135ad565b6040516129b4601f8301601f19166020018261350e565b8181528460208386010111156129c957600080fd5b816020850160208301376000918101602001919091529392505050565b60008083601f8401126129f857600080fd5b5081356001600160401b03811115612a0f57600080fd5b602083019150836020828501011115612a2757600080fd5b9250929050565b600060208284031215612a4057600080fd5b6123b5826128e0565b60008060408385031215612a5c57600080fd5b612a65836128e0565b9150612a73602084016128e0565b90509250929050565b600080600080600060a08688031215612a9457600080fd5b612a9d866128e0565b9450612aab602087016128e0565b935060408601356001600160401b0380821115612ac757600080fd5b612ad389838a016128fc565b94506060880135915080821115612ae957600080fd5b612af589838a016128fc565b93506080880135915080821115612b0b57600080fd5b50612b1888828901612973565b9150509295509295909350565b600080600080600060a08688031215612b3d57600080fd5b612b46866128e0565b9450612b54602087016128e0565b9350604086013592506060860135915060808601356001600160401b03811115612b7d57600080fd5b612b1888828901612973565b600080600060608486031215612b9e57600080fd5b612ba7846128e0565b925060208401356001600160401b0380821115612bc357600080fd5b612bcf878388016128fc565b93506040860135915080821115612be557600080fd5b50612bf2868287016128fc565b9150509250925092565b60008060408385031215612c0f57600080fd5b612c18836128e0565b915060208301358015158114612c2d57600080fd5b809150509250929050565b60008060408385031215612c4b57600080fd5b612c54836128e0565b946020939093013593505050565b600080600060608486031215612c7757600080fd5b612c80846128e0565b95602085013595506040909401359392505050565b60008060408385031215612ca857600080fd5b82356001600160401b0380821115612cbf57600080fd5b818501915085601f830112612cd357600080fd5b81356020612ce0826133fc565b604051612ced828261350e565b8381528281019150858301600585901b870184018b1015612d0d57600080fd5b600096505b84871015612d3757612d23816128e0565b835260019690960195918301918301612d12565b5096505086013592505080821115612d4e57600080fd5b50612d5b858286016128fc565b9150509250929050565b600060208284031215612d7757600080fd5b5035919050565b60008060408385031215612d9157600080fd5b82359150612a73602084016128e0565b600060208284031215612db357600080fd5b81356123b581613668565b600060208284031215612dd057600080fd5b81516123b581613668565b60008060208385031215612dee57600080fd5b82356001600160401b03811115612e0457600080fd5b612e10858286016129e6565b90969095509350505050565b600060208284031215612e2e57600080fd5b81356001600160401b03811115612e4457600080fd5b612e5084828501612973565b949350505050565b60008060408385031215612e6b57600080fd5b82356001600160401b03811115612e8157600080fd5b612e8d85828601612973565b925050612a73602084016128e0565b60008060008060608587031215612eb257600080fd5b8435935060208501356001600160401b03811115612ecf57600080fd5b612edb878288016129e6565b9094509250612eee9050604086016128e0565b905092959194509250565b60008060408385031215612f0c57600080fd5b8235915060208301356001600160401b03811115612f2957600080fd5b612d5b85828601612973565b60008060008060008060808789031215612f4e57600080fd5b863595506020870135945060408701356001600160401b0380821115612f7357600080fd5b612f7f8a838b016129e6565b90965094506060890135915080821115612f9857600080fd5b50612fa589828a016129e6565b979a9699509497509295939492505050565b600081518084526020808501945080840160005b83811015612fe757815187529582019590820190600101612fcb565b509495945050505050565b6000815180845261300a816020860160208601613490565b601f01601f19169290920160200192915050565b8183823760009101908152919050565b7f416363657373436f6e74726f6c3a206163636f756e7420000000000000000000815260008351613066816017850160208801613490565b7001034b99036b4b9b9b4b733903937b6329607d1b6017918401918201528351613097816028840160208801613490565b01602801949350505050565b6001600160a01b0386811682528516602082015260a0604082018190526000906130cf90830186612fb7565b82810360608401526130e18186612fb7565b905082810360808401526130f58185612ff2565b98975050505050505050565b6001600160a01b03868116825285166020820152604081018490526060810183905260a06080820181905260009061313b90830184612ff2565b979650505050505050565b6020815260006123b56020830184612fb7565b60408152600061316c6040830185612fb7565b828103602084015261317e8185612fb7565b95945050505050565b60208101600483106131a957634e487b7160e01b600052602160045260246000fd5b91905290565b6020815260006123b56020830184612ff2565b60208082526028908201527f455243313135353a204552433131353552656365697665722072656a656374656040820152676420746f6b656e7360c01b606082015260800190565b60208082526024908201527f455243313135353a206275726e20616d6f756e7420657863656564732062616c604082015263616e636560e01b606082015260800190565b60208082526029908201527f455243313135353a2063616c6c6572206973206e6f74206f776e6572206e6f7260408201526808185c1c1c9bdd995960ba1b606082015260800190565b60208082526025908201527f455243313135353a207472616e7366657220746f20746865207a65726f206164604082015264647265737360d81b606082015260800190565b60208082526023908201527f455243313135353a206275726e2066726f6d20746865207a65726f206164647260408201526265737360e81b606082015260800190565b6020808252602a908201527f455243313135353a20696e73756666696369656e742062616c616e636520666f60408201526939103a3930b739b332b960b11b606082015260800190565b6020808252602b908201527f496e697469616c697a61626c653a20636f6e7472616374206973206e6f74206960408201526a6e697469616c697a696e6760a81b606082015260800190565b60208082526028908201527f455243313135353a2069647320616e6420616d6f756e7473206c656e677468206040820152670dad2e6dac2e8c6d60c31b606082015260800190565b60006001600160401b03821115613415576134156135ad565b5060051b60200190565b600082198211156134325761343261356b565b500190565b60008160001904831182151516156134515761345161356b565b500290565b6000828210156134685761346861356b565b500390565b600060ff821660ff8416808210156134875761348761356b565b90039392505050565b60005b838110156134ab578181015183820152602001613493565b83811115610c675750506000910152565b6000816134cb576134cb61356b565b506000190190565b600181811c908216806134e757607f821691505b6020821081141561350857634e487b7160e01b600052602260045260246000fd5b50919050565b601f8201601f191681016001600160401b0381118282101715613533576135336135ad565b6040525050565b600060001982141561354e5761354e61356b565b5060010190565b634e487b7160e01b600052600160045260246000fd5b634e487b7160e01b600052601160045260246000fd5b634e487b7160e01b600052602160045260246000fd5b634e487b7160e01b600052603260045260246000fd5b634e487b7160e01b600052604160045260246000fd5b600060033d11156135dc5760046000803e5060005160e01c5b90565b600060443d10156135ed5790565b6040516003193d81016004833e81513d6001600160401b03816024840111818411171561361c57505050505090565b82850191508151818111156136345750505050505090565b843d870101602082850101111561364e5750505050505090565b61365d6020828601018761350e565b509095945050505050565b6001600160e01b031981168114610a9957600080fdfeb19546dff01e856fb3f010c267a7b1c60363cf8a4664e21cc89c26224620214ea49807205ce4d355092ef5a8a18f56e8913cf4a201fbe287825b095693c21775a2646970667358221220bd664e458e5905ea41914a14ec0ba7a27adfa1eb7ba09081dbcbe2dcdcc5f19764736f6c63430008070033",
  "linkReferences": {},
  "deployedLinkReferences": {}
}