{
  "_format": "hh-sol-artifact-1",
  "contractName": "Channels",
  "sourceName": "contracts/Channels.sol",
  "abi": [
    {
      "inputs": [
        {
          "internalType": "address",
          "name": "_masterContract",
          "type": "address"
        }
      ],
      "stateMutability": "nonpayable",
      "type": "constructor"
    },
    {
      "anonymous": false,
      "inputs": [
        {
          "indexed": true,
          "internalType": "address",
          "name": "owner",
          "type": "address"
        },
        {
          "indexed": true,
          "internalType": "address",
          "name": "approved",
          "type": "address"
        },
        {
          "indexed": true,
          "internalType": "uint256",
          "name": "tokenId",
          "type": "uint256"
        }
      ],
      "name": "Approval",
      "type": "event"
    },
    {
      "anonymous": false,
      "inputs": [
        {
          "indexed": true,
          "internalType": "address",
          "name": "owner",
          "type": "address"
        },
        {
          "indexed": true,
          "internalType": "address",
          "name": "operator",
          "type": "address"
        },
        {
          "indexed": false,
          "internalType": "bool",
          "name": "approved",
          "type": "bool"
        }
      ],
      "name": "ApprovalForAll",
      "type": "event"
    },
    {
      "anonymous": false,
      "inputs": [
        {
          "indexed": false,
          "internalType": "address",
          "name": "sender",
          "type": "address"
        },
        {
          "indexed": false,
          "internalType": "uint256",
          "name": "tokenId",
          "type": "uint256"
        }
      ],
      "name": "NewReceptionChannelMinted",
      "type": "event"
    },
    {
      "anonymous": false,
      "inputs": [
        {
          "indexed": true,
          "internalType": "address",
          "name": "previousOwner",
          "type": "address"
        },
        {
          "indexed": true,
          "internalType": "address",
          "name": "newOwner",
          "type": "address"
        }
      ],
      "name": "OwnershipTransferred",
      "type": "event"
    },
    {
      "anonymous": false,
      "inputs": [
        {
          "indexed": false,
          "internalType": "address",
          "name": "account",
          "type": "address"
        }
      ],
      "name": "Paused",
      "type": "event"
    },
    {
      "anonymous": false,
      "inputs": [
        {
          "indexed": true,
          "internalType": "address",
          "name": "from",
          "type": "address"
        },
        {
          "indexed": true,
          "internalType": "address",
          "name": "to",
          "type": "address"
        },
        {
          "indexed": true,
          "internalType": "uint256",
          "name": "tokenId",
          "type": "uint256"
        }
      ],
      "name": "Transfer",
      "type": "event"
    },
    {
      "anonymous": false,
      "inputs": [
        {
          "indexed": false,
          "internalType": "address",
          "name": "account",
          "type": "address"
        }
      ],
      "name": "Unpaused",
      "type": "event"
    },
    {
      "inputs": [
        {
          "internalType": "address",
          "name": "to",
          "type": "address"
        },
        {
          "internalType": "uint256",
          "name": "tokenId",
          "type": "uint256"
        }
      ],
      "name": "approve",
      "outputs": [],
      "stateMutability": "nonpayable",
      "type": "function"
    },
    {
      "inputs": [
        {
          "internalType": "address",
          "name": "owner",
          "type": "address"
        }
      ],
      "name": "balanceOf",
      "outputs": [
        {
          "internalType": "uint256",
          "name": "",
          "type": "uint256"
        }
      ],
      "stateMutability": "view",
      "type": "function"
    },
    {
      "inputs": [
        {
          "internalType": "uint256",
          "name": "tokenId",
          "type": "uint256"
        }
      ],
      "name": "burn",
      "outputs": [],
      "stateMutability": "nonpayable",
      "type": "function"
    },
    {
      "inputs": [],
      "name": "cost",
      "outputs": [
        {
          "internalType": "uint256",
          "name": "",
          "type": "uint256"
        }
      ],
      "stateMutability": "view",
      "type": "function"
    },
    {
      "inputs": [
        {
          "internalType": "uint256",
          "name": "tokenId",
          "type": "uint256"
        }
      ],
      "name": "getApproved",
      "outputs": [
        {
          "internalType": "address",
          "name": "",
          "type": "address"
        }
      ],
      "stateMutability": "view",
      "type": "function"
    },
    {
      "inputs": [],
      "name": "getCurrentIndex",
      "outputs": [
        {
          "internalType": "uint256",
          "name": "",
          "type": "uint256"
        }
      ],
      "stateMutability": "view",
      "type": "function"
    },
    {
      "inputs": [
        {
          "internalType": "address",
          "name": "ownerId",
          "type": "address"
        }
      ],
      "name": "getOwnerChannelIds",
      "outputs": [
        {
          "internalType": "uint256[]",
          "name": "",
          "type": "uint256[]"
        }
      ],
      "stateMutability": "view",
      "type": "function"
    },
    {
      "inputs": [
        {
          "internalType": "uint256[]",
          "name": "channelIds",
          "type": "uint256[]"
        }
      ],
      "name": "getOwnerChannelList",
      "outputs": [
        {
          "components": [
            {
              "internalType": "uint256",
              "name": "tokenIndex",
              "type": "uint256"
            },
            {
              "internalType": "string",
              "name": "channelName",
              "type": "string"
            },
            {
              "internalType": "address",
              "name": "membershipToken",
              "type": "address"
            }
          ],
          "internalType": "struct Channels.Channel[]",
          "name": "",
          "type": "tuple[]"
        }
      ],
      "stateMutability": "view",
      "type": "function"
    },
    {
      "inputs": [
        {
          "internalType": "address",
          "name": "_masterContract",
          "type": "address"
        }
      ],
      "name": "initialize",
      "outputs": [],
      "stateMutability": "nonpayable",
      "type": "function"
    },
    {
      "inputs": [
        {
          "internalType": "address",
          "name": "owner",
          "type": "address"
        },
        {
          "internalType": "address",
          "name": "operator",
          "type": "address"
        }
      ],
      "name": "isApprovedForAll",
      "outputs": [
        {
          "internalType": "bool",
          "name": "",
          "type": "bool"
        }
      ],
      "stateMutability": "view",
      "type": "function"
    },
    {
      "inputs": [],
      "name": "name",
      "outputs": [
        {
          "internalType": "string",
          "name": "",
          "type": "string"
        }
      ],
      "stateMutability": "view",
      "type": "function"
    },
    {
      "inputs": [],
      "name": "owner",
      "outputs": [
        {
          "internalType": "address",
          "name": "",
          "type": "address"
        }
      ],
      "stateMutability": "view",
      "type": "function"
    },
    {
      "inputs": [
        {
          "internalType": "uint256",
          "name": "tokenId",
          "type": "uint256"
        }
      ],
      "name": "ownerOf",
      "outputs": [
        {
          "internalType": "address",
          "name": "",
          "type": "address"
        }
      ],
      "stateMutability": "view",
      "type": "function"
    },
    {
      "inputs": [],
      "name": "pause",
      "outputs": [],
      "stateMutability": "nonpayable",
      "type": "function"
    },
    {
      "inputs": [],
      "name": "paused",
      "outputs": [
        {
          "internalType": "bool",
          "name": "",
          "type": "bool"
        }
      ],
      "stateMutability": "view",
      "type": "function"
    },
    {
      "inputs": [],
      "name": "renounceOwnership",
      "outputs": [],
      "stateMutability": "nonpayable",
      "type": "function"
    },
    {
      "inputs": [
        {
          "internalType": "string",
          "name": "channelName",
          "type": "string"
        },
        {
          "internalType": "string",
          "name": "channelUri",
          "type": "string"
        },
        {
          "internalType": "address",
          "name": "to",
          "type": "address"
        }
      ],
      "name": "safeMint",
      "outputs": [],
      "stateMutability": "payable",
      "type": "function"
    },
    {
      "inputs": [
        {
          "internalType": "address",
          "name": "from",
          "type": "address"
        },
        {
          "internalType": "address",
          "name": "to",
          "type": "address"
        },
        {
          "internalType": "uint256",
          "name": "tokenId",
          "type": "uint256"
        }
      ],
      "name": "safeTransferFrom",
      "outputs": [],
      "stateMutability": "nonpayable",
      "type": "function"
    },
    {
      "inputs": [
        {
          "internalType": "address",
          "name": "from",
          "type": "address"
        },
        {
          "internalType": "address",
          "name": "to",
          "type": "address"
        },
        {
          "internalType": "uint256",
          "name": "tokenId",
          "type": "uint256"
        },
        {
          "internalType": "bytes",
          "name": "_data",
          "type": "bytes"
        }
      ],
      "name": "safeTransferFrom",
      "outputs": [],
      "stateMutability": "nonpayable",
      "type": "function"
    },
    {
      "inputs": [
        {
          "internalType": "address",
          "name": "operator",
          "type": "address"
        },
        {
          "internalType": "bool",
          "name": "approved",
          "type": "bool"
        }
      ],
      "name": "setApprovalForAll",
      "outputs": [],
      "stateMutability": "nonpayable",
      "type": "function"
    },
    {
      "inputs": [
        {
          "internalType": "bytes4",
          "name": "interfaceId",
          "type": "bytes4"
        }
      ],
      "name": "supportsInterface",
      "outputs": [
        {
          "internalType": "bool",
          "name": "",
          "type": "bool"
        }
      ],
      "stateMutability": "view",
      "type": "function"
    },
    {
      "inputs": [],
      "name": "symbol",
      "outputs": [
        {
          "internalType": "string",
          "name": "",
          "type": "string"
        }
      ],
      "stateMutability": "view",
      "type": "function"
    },
    {
      "inputs": [
        {
          "internalType": "uint256",
          "name": "tokenId",
          "type": "uint256"
        }
      ],
      "name": "tokenURI",
      "outputs": [
        {
          "internalType": "string",
          "name": "",
          "type": "string"
        }
      ],
      "stateMutability": "view",
      "type": "function"
    },
    {
      "inputs": [
        {
          "internalType": "address",
          "name": "from",
          "type": "address"
        },
        {
          "internalType": "address",
          "name": "to",
          "type": "address"
        },
        {
          "internalType": "uint256",
          "name": "tokenId",
          "type": "uint256"
        }
      ],
      "name": "transferFrom",
      "outputs": [],
      "stateMutability": "nonpayable",
      "type": "function"
    },
    {
      "inputs": [
        {
          "internalType": "address",
          "name": "newOwner",
          "type": "address"
        }
      ],
      "name": "transferOwnership",
      "outputs": [],
      "stateMutability": "nonpayable",
      "type": "function"
    },
    {
      "inputs": [],
      "name": "unpause",
      "outputs": [],
      "stateMutability": "nonpayable",
      "type": "function"
    },
    {
      "inputs": [
        {
          "internalType": "uint256",
          "name": "tokenId",
          "type": "uint256"
        },
        {
          "internalType": "address",
          "name": "contractAddress",
          "type": "address"
        }
      ],
      "name": "updateChannelAddress",
      "outputs": [
        {
          "internalType": "bool",
          "name": "",
          "type": "bool"
        }
      ],
      "stateMutability": "nonpayable",
      "type": "function"
    },
    {
      "inputs": [
        {
          "internalType": "uint256",
          "name": "tokenId",
          "type": "uint256"
        }
      ],
      "name": "uri",
      "outputs": [
        {
          "internalType": "string",
          "name": "",
          "type": "string"
        }
      ],
      "stateMutability": "view",
      "type": "function"
    },
    {
      "inputs": [],
      "name": "withdrawBalance",
      "outputs": [],
      "stateMutability": "nonpayable",
      "type": "function"
    }
  ],
  "bytecode": "0x6080604052650246139ca800610161553480156200001c57600080fd5b5060405162002c8338038062002c838339810160408190526200003f9162000130565b600054610100900460ff166200005c5760005460ff161562000066565b620000666200010c565b620000ce5760405162461bcd60e51b815260206004820152602e60248201527f496e697469616c697a61626c653a20636f6e747261637420697320616c72656160448201526d191e481a5b9a5d1a585b1a5e995960921b606482015260840160405180910390fd5b600054610100900460ff16158015620000f1576000805461ffff19166101011790555b801562000104576000805461ff00191690555b505062000162565b600062000124306200012a60201b6200125f1760201c565b15905090565b3b151590565b6000602082840312156200014357600080fd5b81516001600160a01b03811681146200015b57600080fd5b9392505050565b612b1180620001726000396000f3fe6080604052600436106101c25760003560e01c80636352211e116100f7578063b88d4fde11610095578063e985e9c511610064578063e985e9c5146104d1578063f224f8711461051a578063f2fde38b1461053a578063f631e6781461055a57600080fd5b8063b88d4fde14610444578063c4d66de814610464578063c87b56dd14610484578063d0f48ec7146104a457600080fd5b80638456cb59116100d15780638456cb59146103dc5780638da5cb5b146103f157806395d89b411461040f578063a22cb4651461042457600080fd5b80636352211e1461038757806370a08231146103a7578063715018a6146103c757600080fd5b806313faede61161016457806342842e0e1161013e57806342842e0e1461031a57806342966c681461033a5780635c975abb1461035a5780635fd8c7101461037257600080fd5b806313faede6146102ce57806323b872dd146102e55780633f4ba83a1461030557600080fd5b8063081812fc116101a0578063081812fc14610233578063095ea7b31461026b5780630d9005ae1461028b5780630e89341c146102ae57600080fd5b806301ffc9a7146101c757806306fdde03146101fc578063076c67831461021e575b600080fd5b3480156101d357600080fd5b506101e76101e2366004612601565b610587565b60405190151581526020015b60405180910390f35b34801561020857600080fd5b506102116105d9565b6040516101f3919061285e565b61023161022c36600461263b565b61066b565b005b34801561023f57600080fd5b5061025361024e3660046126bc565b61083d565b6040516001600160a01b0390911681526020016101f3565b34801561027757600080fd5b50610231610286366004612562565b6108ca565b34801561029757600080fd5b506102a06109e0565b6040519081526020016101f3565b3480156102ba57600080fd5b506102116102c93660046126bc565b6109fd565b3480156102da57600080fd5b506102a06101615481565b3480156102f157600080fd5b5061023161030036600461240e565b610aa0565b34801561031157600080fd5b50610231610ad2565b34801561032657600080fd5b5061023161033536600461240e565b610b06565b34801561034657600080fd5b506102316103553660046126bc565b610b21565b34801561036657600080fd5b5060c95460ff166101e7565b34801561037e57600080fd5b50610231610b9b565b34801561039357600080fd5b506102536103a23660046126bc565b610c58565b3480156103b357600080fd5b506102a06103c23660046123c0565b610ccf565b3480156103d357600080fd5b50610231610d56565b3480156103e857600080fd5b50610231610d8a565b3480156103fd57600080fd5b5060fb546001600160a01b0316610253565b34801561041b57600080fd5b50610211610dbc565b34801561043057600080fd5b5061023161043f366004612526565b610dcb565b34801561045057600080fd5b5061023161045f36600461244a565b610dda565b34801561047057600080fd5b5061023161047f3660046123c0565b610e12565b34801561049057600080fd5b5061021161049f3660046126bc565b610f44565b3480156104b057600080fd5b506104c46104bf3660046123c0565b610f4f565b6040516101f3919061281a565b3480156104dd57600080fd5b506101e76104ec3660046123db565b6001600160a01b039182166000908152606a6020908152604080832093909416825291909152205460ff1690565b34801561052657600080fd5b506101e76105353660046126d5565b610fc1565b34801561054657600080fd5b506102316105553660046123c0565b611097565b34801561056657600080fd5b5061057a61057536600461258c565b61112f565b6040516101f39190612790565b60006001600160e01b031982166380ac58cd60e01b14806105b857506001600160e01b03198216635b5e139f60e01b145b806105d357506301ffc9a760e01b6001600160e01b03198316145b92915050565b6060606580546105e890612a03565b80601f016020809104026020016040519081016040528092919081815260200182805461061490612a03565b80156106615780601f1061063657610100808354040283529160200191610661565b820191906000526020600020905b81548152906001019060200180831161064457829003601f168201915b5050505050905090565b600061067761015f5490565b905061068861015f80546001019055565b6001600160a01b03821660009081526101626020908152604080832081516060810183528581528251601f8b018590048502810185019093528983529093929091828201918b908b90819084018382808284376000920182905250938552505050602091820181905285815261016382526040902082518155828201518051939450849391926107209260018501929091019061228c565b5060409182015160029190910180546001600160a01b0319166001600160a01b03909216919091179055825460008581526001858101602090815293822083905582018555848152919091200183905561077a8484611265565b60408051338152602081018590527ff7002ef39331d6d9bb9b8d7104e055abc56bd611801468bd10a4e995f988e746910160405180910390a16107f38387878080601f01602080910402602001604051908101604052809392919081815260200183838082843760009201919091525061127f92505050565b6108338387878080601f01602080910402602001604051908101604052809392919081815260200183838082843760009201919091525061130892505050565b5050505050505050565b600061084882611393565b6108ae5760405162461bcd60e51b815260206004820152602c60248201527f4552433732313a20617070726f76656420717565727920666f72206e6f6e657860448201526b34b9ba32b73a103a37b5b2b760a11b60648201526084015b60405180910390fd5b506000908152606960205260409020546001600160a01b031690565b60006108d582610c58565b9050806001600160a01b0316836001600160a01b031614156109435760405162461bcd60e51b815260206004820152602160248201527f4552433732313a20617070726f76616c20746f2063757272656e74206f776e656044820152603960f91b60648201526084016108a5565b336001600160a01b038216148061095f575061095f81336104ec565b6109d15760405162461bcd60e51b815260206004820152603860248201527f4552433732313a20617070726f76652063616c6c6572206973206e6f74206f7760448201527f6e6572206e6f7220617070726f76656420666f7220616c6c000000000000000060648201526084016108a5565b6109db83836113b0565b505050565b600060016109ee61015f5490565b6109f891906129c0565b905090565b600081815261016060205260409020805460609190610a1b90612a03565b80601f0160208091040260200160405190810160405280929190818152602001828054610a4790612a03565b8015610a945780601f10610a6957610100808354040283529160200191610a94565b820191906000526020600020905b815481529060010190602001808311610a7757829003601f168201915b50505050509050919050565b610aab335b8261141e565b610ac75760405162461bcd60e51b81526004016108a5906128f8565b6109db838383611508565b60fb546001600160a01b03163314610afc5760405162461bcd60e51b81526004016108a5906128c3565b610b046116b3565b565b6109db83838360405180602001604052806000815250610dda565b610b2a33610aa5565b610b8f5760405162461bcd60e51b815260206004820152603060248201527f4552433732314275726e61626c653a2063616c6c6572206973206e6f74206f7760448201526f1b995c881b9bdc88185c1c1c9bdd995960821b60648201526084016108a5565b610b9881611746565b50565b60fb546001600160a01b03163314610bc55760405162461bcd60e51b81526004016108a5906128c3565b60405133904790600090839083908381818185875af1925050503d8060008114610c0b576040519150601f19603f3d011682016040523d82523d6000602084013e610c10565b606091505b50509050806109db5760405162461bcd60e51b81526020600482015260146024820152734661696c656420746f2073656e64204d4154494360601b60448201526064016108a5565b6000818152606760205260408120546001600160a01b0316806105d35760405162461bcd60e51b815260206004820152602960248201527f4552433732313a206f776e657220717565727920666f72206e6f6e657869737460448201526832b73a103a37b5b2b760b91b60648201526084016108a5565b60006001600160a01b038216610d3a5760405162461bcd60e51b815260206004820152602a60248201527f4552433732313a2062616c616e636520717565727920666f7220746865207a65604482015269726f206164647265737360b01b60648201526084016108a5565b506001600160a01b031660009081526068602052604090205490565b60fb546001600160a01b03163314610d805760405162461bcd60e51b81526004016108a5906128c3565b610b04600061174f565b60fb546001600160a01b03163314610db45760405162461bcd60e51b81526004016108a5906128c3565b610b046117a1565b6060606680546105e890612a03565b610dd633838361181c565b5050565b610de4338361141e565b610e005760405162461bcd60e51b81526004016108a5906128f8565b610e0c848484846118eb565b50505050565b600054610100900460ff16610e2d5760005460ff1615610e31565b303b155b610e945760405162461bcd60e51b815260206004820152602e60248201527f496e697469616c697a61626c653a20636f6e747261637420697320616c72656160448201526d191e481a5b9a5d1a585b1a5e995960921b60648201526084016108a5565b600054610100900460ff16158015610eb6576000805461ffff19166101011790555b610f066040518060400160405280600b81526020016a15195cdd10da185b9b995b60aa1b8152506040518060400160405280600b81526020016a1d195cdd10d2105393915360aa1b81525061191e565b610f0e61195f565b610f1661199e565b610f1e6119d5565b610f2661195f565b610f2f8261174f565b8015610dd6576000805461ff00191690555050565b60606105d382611a0c565b6001600160a01b0381166000908152610162602090815260409182902080548351818402810184019094528084526060939192839190830182828015610fb457602002820191906000526020600020905b815481526020019060010190808311610fa0575b5050505050915050919050565b60fb546000906001600160a01b03163314610fee5760405162461bcd60e51b81526004016108a5906128c3565b600083815261016360205260409020600201546001600160a01b03166110615760405162461bcd60e51b815260206004820152602260248201527f4368616e6e656c2068617320616c7265616479206265656e2061737369676e65604482015261321760f11b60648201526084016108a5565b5060008281526101636020526040902060020180546001600160a01b0383166001600160a01b0319909116179055600192915050565b60fb546001600160a01b031633146110c15760405162461bcd60e51b81526004016108a5906128c3565b6001600160a01b0381166111265760405162461bcd60e51b815260206004820152602660248201527f4f776e61626c653a206e6577206f776e657220697320746865207a65726f206160448201526564647265737360d01b60648201526084016108a5565b610b988161174f565b60608060005b8381101561125757610163600086868481811061115457611154612a99565b9050602002013581526020019081526020016000206040518060600160405290816000820154815260200160018201805461118e90612a03565b80601f01602080910402602001604051908101604052809291908181526020018280546111ba90612a03565b80156112075780601f106111dc57610100808354040283529160200191611207565b820191906000526020600020905b8154815290600101906020018083116111ea57829003601f168201915b5050509183525050600291909101546001600160a01b0316602090910152825183908390811061123957611239612a99565b6020026020010181905250808061124f90612a3e565b915050611135565b509392505050565b3b151590565b610dd6828260405180602001604052806000815250611b89565b600082815261016060205260409020805461129990612a03565b1590506112e85760405162461bcd60e51b815260206004820152601a60248201527f43616e6e6f74206d6f64696679206578697374696e672075726900000000000060448201526064016108a5565b60008281526101606020908152604090912082516109db9284019061228c565b61131182611393565b6113745760405162461bcd60e51b815260206004820152602e60248201527f45524337323155524953746f726167653a2055524920736574206f66206e6f6e60448201526d32bc34b9ba32b73a103a37b5b2b760911b60648201526084016108a5565b600082815260976020908152604090912082516109db9284019061228c565b6000908152606760205260409020546001600160a01b0316151590565b600081815260696020526040902080546001600160a01b0319166001600160a01b03841690811790915581906113e582610c58565b6001600160a01b03167f8c5be1e5ebec7d5bd14f71427d1e84f3dd0314c0f7b2291e5b200ac8c7c3b92560405160405180910390a45050565b600061142982611393565b61148a5760405162461bcd60e51b815260206004820152602c60248201527f4552433732313a206f70657261746f7220717565727920666f72206e6f6e657860448201526b34b9ba32b73a103a37b5b2b760a11b60648201526084016108a5565b600061149583610c58565b9050806001600160a01b0316846001600160a01b031614806114d05750836001600160a01b03166114c58461083d565b6001600160a01b0316145b8061150057506001600160a01b038082166000908152606a602090815260408083209388168352929052205460ff165b949350505050565b826001600160a01b031661151b82610c58565b6001600160a01b0316146115835760405162461bcd60e51b815260206004820152602960248201527f4552433732313a207472616e73666572206f6620746f6b656e2074686174206960448201526839903737ba1037bbb760b91b60648201526084016108a5565b6001600160a01b0382166115e55760405162461bcd60e51b8152602060048201526024808201527f4552433732313a207472616e7366657220746f20746865207a65726f206164646044820152637265737360e01b60648201526084016108a5565b6115f0838383611bbc565b6115fb6000826113b0565b6001600160a01b03831660009081526068602052604081208054600192906116249084906129c0565b90915550506001600160a01b0382166000908152606860205260408120805460019290611652908490612994565b909155505060008181526067602052604080822080546001600160a01b0319166001600160a01b0386811691821790925591518493918716917fddf252ad1be2c89b69c2b068fc378daa952ba7f163c4a11628f55a4df523b3ef91a4505050565b60c95460ff166116fc5760405162461bcd60e51b815260206004820152601460248201527314185d5cd8589b194e881b9bdd081c185d5cd95960621b60448201526064016108a5565b60c9805460ff191690557f5db9ee0a495bf2e6ff9c91a7834c1ba4fdd244a5e8aa4e537bd38aeae4b073aa335b6040516001600160a01b03909116815260200160405180910390a1565b610b9881611c9d565b60fb80546001600160a01b038381166001600160a01b0319831681179093556040519116919082907f8be0079c531659141344cd1fd0a4f28419497f9722a3daafe3b4186f6b6457e090600090a35050565b60c95460ff16156117e75760405162461bcd60e51b815260206004820152601060248201526f14185d5cd8589b194e881c185d5cd95960821b60448201526064016108a5565b60c9805460ff191660011790557f62e78cea01bee320cd4e420270b5ea74000d11b0c9f74754ebdbfc544b05a2586117293390565b816001600160a01b0316836001600160a01b0316141561187e5760405162461bcd60e51b815260206004820152601960248201527f4552433732313a20617070726f766520746f2063616c6c65720000000000000060448201526064016108a5565b6001600160a01b038381166000818152606a6020908152604080832094871680845294825291829020805460ff191686151590811790915591519182527f17307eab39ab6107e8899845ad3d59bd9653f200f220920489ca2b5937696c31910160405180910390a3505050565b6118f6848484611508565b61190284848484611cdd565b610e0c5760405162461bcd60e51b81526004016108a590612871565b600054610100900460ff166119455760405162461bcd60e51b81526004016108a590612949565b61194d611dea565b611955611dea565b610dd68282611e11565b600054610100900460ff166119865760405162461bcd60e51b81526004016108a590612949565b61198e611dea565b611996611dea565b610b04611dea565b600054610100900460ff166119c55760405162461bcd60e51b81526004016108a590612949565b6119cd611dea565b610b04611e5f565b600054610100900460ff166119fc5760405162461bcd60e51b81526004016108a590612949565b611a04611dea565b610b04611e92565b6060611a1782611393565b611a7d5760405162461bcd60e51b815260206004820152603160248201527f45524337323155524953746f726167653a2055524920717565727920666f72206044820152703737b732bc34b9ba32b73a103a37b5b2b760791b60648201526084016108a5565b60008281526097602052604081208054611a9690612a03565b80601f0160208091040260200160405190810160405280929190818152602001828054611ac290612a03565b8015611b0f5780601f10611ae457610100808354040283529160200191611b0f565b820191906000526020600020905b815481529060010190602001808311611af257829003601f168201915b505050505090506000611b3b604080518082019091526006815265185cd9199cd960d21b602082015290565b9050805160001415611b4e575092915050565b815115611b80578082604051602001611b68929190612724565b60405160208183030381529060405292505050919050565b61150084611ec2565b611b938383611fa8565b611ba06000848484611cdd565b6109db5760405162461bcd60e51b81526004016108a590612871565b60c95460ff1615611c025760405162461bcd60e51b815260206004820152601060248201526f14185d5cd8589b194e881c185d5cd95960821b60448201526064016108a5565b6001600160a01b038084166000908152610162602052604080822092851682529020815415611c705760008381526001830160205260409020548254839082908110611c5057611c50612a99565b600091825260208083209091018290558582526001850190526040812055505b80546000848152600180840160209081526040832084905590830184558382529020018390555050505050565b611ca6816120e7565b60008181526097602052604090208054611cbf90612a03565b159050610b98576000818152609760205260408120610b9891612310565b60006001600160a01b0384163b15611ddf57604051630a85bd0160e11b81526001600160a01b0385169063150b7a0290611d21903390899088908890600401612753565b602060405180830381600087803b158015611d3b57600080fd5b505af1925050508015611d6b575060408051601f3d908101601f19168201909252611d689181019061261e565b60015b611dc5573d808015611d99576040519150601f19603f3d011682016040523d82523d6000602084013e611d9e565b606091505b508051611dbd5760405162461bcd60e51b81526004016108a590612871565b805181602001fd5b6001600160e01b031916630a85bd0160e11b149050611500565b506001949350505050565b600054610100900460ff16610b045760405162461bcd60e51b81526004016108a590612949565b600054610100900460ff16611e385760405162461bcd60e51b81526004016108a590612949565b8151611e4b90606590602085019061228c565b5080516109db90606690602084019061228c565b600054610100900460ff16611e865760405162461bcd60e51b81526004016108a590612949565b60c9805460ff19169055565b600054610100900460ff16611eb95760405162461bcd60e51b81526004016108a590612949565b610b043361174f565b6060611ecd82611393565b611f315760405162461bcd60e51b815260206004820152602f60248201527f4552433732314d657461646174613a2055524920717565727920666f72206e6f60448201526e3732bc34b9ba32b73a103a37b5b2b760891b60648201526084016108a5565b6000611f56604080518082019091526006815265185cd9199cd960d21b602082015290565b90506000815111611f765760405180602001604052806000815250611fa1565b80611f808461218e565b604051602001611f91929190612724565b6040516020818303038152906040525b9392505050565b6001600160a01b038216611ffe5760405162461bcd60e51b815260206004820181905260248201527f4552433732313a206d696e7420746f20746865207a65726f206164647265737360448201526064016108a5565b61200781611393565b156120545760405162461bcd60e51b815260206004820152601c60248201527f4552433732313a20746f6b656e20616c7265616479206d696e7465640000000060448201526064016108a5565b61206060008383611bbc565b6001600160a01b0382166000908152606860205260408120805460019290612089908490612994565b909155505060008181526067602052604080822080546001600160a01b0319166001600160a01b03861690811790915590518392907fddf252ad1be2c89b69c2b068fc378daa952ba7f163c4a11628f55a4df523b3ef908290a45050565b60006120f282610c58565b905061210081600084611bbc565b61210b6000836113b0565b6001600160a01b03811660009081526068602052604081208054600192906121349084906129c0565b909155505060008281526067602052604080822080546001600160a01b0319169055518391906001600160a01b038416907fddf252ad1be2c89b69c2b068fc378daa952ba7f163c4a11628f55a4df523b3ef908390a45050565b6060816121b25750506040805180820190915260018152600360fc1b602082015290565b8160005b81156121dc57806121c681612a3e565b91506121d59050600a836129ac565b91506121b6565b60008167ffffffffffffffff8111156121f7576121f7612aaf565b6040519080825280601f01601f191660200182016040528015612221576020820181803683370190505b5090505b8415611500576122366001836129c0565b9150612243600a86612a59565b61224e906030612994565b60f81b81838151811061226357612263612a99565b60200101906001600160f81b031916908160001a905350612285600a866129ac565b9450612225565b82805461229890612a03565b90600052602060002090601f0160209004810192826122ba5760008555612300565b82601f106122d357805160ff1916838001178555612300565b82800160010185558215612300579182015b828111156123005782518255916020019190600101906122e5565b5061230c929150612346565b5090565b50805461231c90612a03565b6000825580601f1061232c575050565b601f016020900490600052602060002090810190610b9891905b5b8082111561230c5760008155600101612347565b80356001600160a01b038116811461237257600080fd5b919050565b60008083601f84011261238957600080fd5b50813567ffffffffffffffff8111156123a157600080fd5b6020830191508360208285010111156123b957600080fd5b9250929050565b6000602082840312156123d257600080fd5b611fa18261235b565b600080604083850312156123ee57600080fd5b6123f78361235b565b91506124056020840161235b565b90509250929050565b60008060006060848603121561242357600080fd5b61242c8461235b565b925061243a6020850161235b565b9150604084013590509250925092565b6000806000806080858703121561246057600080fd5b6124698561235b565b93506124776020860161235b565b925060408501359150606085013567ffffffffffffffff8082111561249b57600080fd5b818701915087601f8301126124af57600080fd5b8135818111156124c1576124c1612aaf565b604051601f8201601f19908116603f011681019083821181831017156124e9576124e9612aaf565b816040528281528a602084870101111561250257600080fd5b82602086016020830137600060208483010152809550505050505092959194509250565b6000806040838503121561253957600080fd5b6125428361235b565b91506020830135801515811461255757600080fd5b809150509250929050565b6000806040838503121561257557600080fd5b61257e8361235b565b946020939093013593505050565b6000806020838503121561259f57600080fd5b823567ffffffffffffffff808211156125b757600080fd5b818501915085601f8301126125cb57600080fd5b8135818111156125da57600080fd5b8660208260051b85010111156125ef57600080fd5b60209290920196919550909350505050565b60006020828403121561261357600080fd5b8135611fa181612ac5565b60006020828403121561263057600080fd5b8151611fa181612ac5565b60008060008060006060868803121561265357600080fd5b853567ffffffffffffffff8082111561266b57600080fd5b61267789838a01612377565b9097509550602088013591508082111561269057600080fd5b5061269d88828901612377565b90945092506126b090506040870161235b565b90509295509295909350565b6000602082840312156126ce57600080fd5b5035919050565b600080604083850312156126e857600080fd5b823591506124056020840161235b565b600081518084526127108160208601602086016129d7565b601f01601f19169290920160200192915050565b600083516127368184602088016129d7565b83519083019061274a8183602088016129d7565b01949350505050565b6001600160a01b0385811682528416602082015260408101839052608060608201819052600090612786908301846126f8565b9695505050505050565b60006020808301818452808551808352604092508286019150828160051b87010184880160005b8381101561280c57603f19898403018552815160608151855288820151818a8701526127e5828701826126f8565b928901516001600160a01b03169589019590955250948701949250908601906001016127b7565b509098975050505050505050565b6020808252825182820181905260009190848201906040850190845b8181101561285257835183529284019291840191600101612836565b50909695505050505050565b602081526000611fa160208301846126f8565b60208082526032908201527f4552433732313a207472616e7366657220746f206e6f6e20455243373231526560408201527131b2b4bb32b91034b6b83632b6b2b73a32b960711b606082015260800190565b6020808252818101527f4f776e61626c653a2063616c6c6572206973206e6f7420746865206f776e6572604082015260600190565b60208082526031908201527f4552433732313a207472616e736665722063616c6c6572206973206e6f74206f6040820152701ddb995c881b9bdc88185c1c1c9bdd9959607a1b606082015260800190565b6020808252602b908201527f496e697469616c697a61626c653a20636f6e7472616374206973206e6f74206960408201526a6e697469616c697a696e6760a81b606082015260800190565b600082198211156129a7576129a7612a6d565b500190565b6000826129bb576129bb612a83565b500490565b6000828210156129d2576129d2612a6d565b500390565b60005b838110156129f25781810151838201526020016129da565b83811115610e0c5750506000910152565b600181811c90821680612a1757607f821691505b60208210811415612a3857634e487b7160e01b600052602260045260246000fd5b50919050565b6000600019821415612a5257612a52612a6d565b5060010190565b600082612a6857612a68612a83565b500690565b634e487b7160e01b600052601160045260246000fd5b634e487b7160e01b600052601260045260246000fd5b634e487b7160e01b600052603260045260246000fd5b634e487b7160e01b600052604160045260246000fd5b6001600160e01b031981168114610b9857600080fdfea264697066735822122093d0fbb4cd8e0900526ee4ef6dc15af58c1c7ab7567fdacb78bbc9ccc088fec964736f6c63430008070033",
  "linkReferences": {},
  "deployedLinkReferences": {}
}