{
  "_format": "hh-sol-artifact-1",
  "contractName": "Channels",
  "sourceName": "contracts/Channels.sol",
  "abi": [
    {
      "inputs": [
        {
          "internalType": "address",
          "name": "_masterContract",
          "type": "address"
        }
      ],
      "stateMutability": "nonpayable",
      "type": "constructor"
    },
    {
      "anonymous": false,
      "inputs": [
        {
          "indexed": true,
          "internalType": "address",
          "name": "owner",
          "type": "address"
        },
        {
          "indexed": true,
          "internalType": "address",
          "name": "approved",
          "type": "address"
        },
        {
          "indexed": true,
          "internalType": "uint256",
          "name": "tokenId",
          "type": "uint256"
        }
      ],
      "name": "Approval",
      "type": "event"
    },
    {
      "anonymous": false,
      "inputs": [
        {
          "indexed": true,
          "internalType": "address",
          "name": "owner",
          "type": "address"
        },
        {
          "indexed": true,
          "internalType": "address",
          "name": "operator",
          "type": "address"
        },
        {
          "indexed": false,
          "internalType": "bool",
          "name": "approved",
          "type": "bool"
        }
      ],
      "name": "ApprovalForAll",
      "type": "event"
    },
    {
      "anonymous": false,
      "inputs": [
        {
          "indexed": false,
          "internalType": "address",
          "name": "sender",
          "type": "address"
        },
        {
          "indexed": false,
          "internalType": "uint256",
          "name": "tokenId",
          "type": "uint256"
        }
      ],
      "name": "NewReceptionChannelMinted",
      "type": "event"
    },
    {
      "anonymous": false,
      "inputs": [
        {
          "indexed": true,
          "internalType": "address",
          "name": "previousOwner",
          "type": "address"
        },
        {
          "indexed": true,
          "internalType": "address",
          "name": "newOwner",
          "type": "address"
        }
      ],
      "name": "OwnershipTransferred",
      "type": "event"
    },
    {
      "anonymous": false,
      "inputs": [
        {
          "indexed": false,
          "internalType": "address",
          "name": "account",
          "type": "address"
        }
      ],
      "name": "Paused",
      "type": "event"
    },
    {
      "anonymous": false,
      "inputs": [
        {
          "indexed": true,
          "internalType": "address",
          "name": "from",
          "type": "address"
        },
        {
          "indexed": true,
          "internalType": "address",
          "name": "to",
          "type": "address"
        },
        {
          "indexed": true,
          "internalType": "uint256",
          "name": "tokenId",
          "type": "uint256"
        }
      ],
      "name": "Transfer",
      "type": "event"
    },
    {
      "anonymous": false,
      "inputs": [
        {
          "indexed": false,
          "internalType": "address",
          "name": "account",
          "type": "address"
        }
      ],
      "name": "Unpaused",
      "type": "event"
    },
    {
      "inputs": [
        {
          "internalType": "address",
          "name": "to",
          "type": "address"
        },
        {
          "internalType": "uint256",
          "name": "tokenId",
          "type": "uint256"
        }
      ],
      "name": "approve",
      "outputs": [],
      "stateMutability": "nonpayable",
      "type": "function"
    },
    {
      "inputs": [
        {
          "internalType": "address",
          "name": "owner",
          "type": "address"
        }
      ],
      "name": "balanceOf",
      "outputs": [
        {
          "internalType": "uint256",
          "name": "",
          "type": "uint256"
        }
      ],
      "stateMutability": "view",
      "type": "function"
    },
    {
      "inputs": [
        {
          "internalType": "uint256",
          "name": "tokenId",
          "type": "uint256"
        }
      ],
      "name": "burn",
      "outputs": [],
      "stateMutability": "nonpayable",
      "type": "function"
    },
    {
      "inputs": [],
      "name": "cost",
      "outputs": [
        {
          "internalType": "uint256",
          "name": "",
          "type": "uint256"
        }
      ],
      "stateMutability": "view",
      "type": "function"
    },
    {
      "inputs": [
        {
          "internalType": "uint256",
          "name": "tokenId",
          "type": "uint256"
        }
      ],
      "name": "getApproved",
      "outputs": [
        {
          "internalType": "address",
          "name": "",
          "type": "address"
        }
      ],
      "stateMutability": "view",
      "type": "function"
    },
    {
      "inputs": [],
      "name": "getCurrentIndex",
      "outputs": [
        {
          "internalType": "uint256",
          "name": "",
          "type": "uint256"
        }
      ],
      "stateMutability": "view",
      "type": "function"
    },
    {
      "inputs": [
        {
          "internalType": "address",
          "name": "ownerId",
          "type": "address"
        }
      ],
      "name": "getOwnerChannelIds",
      "outputs": [
        {
          "internalType": "uint256[]",
          "name": "",
          "type": "uint256[]"
        }
      ],
      "stateMutability": "view",
      "type": "function"
    },
    {
      "inputs": [
        {
          "internalType": "uint256[]",
          "name": "channelIds",
          "type": "uint256[]"
        }
      ],
      "name": "getOwnerChannelList",
      "outputs": [
        {
          "components": [
            {
              "internalType": "uint256",
              "name": "tokenIndex",
              "type": "uint256"
            },
            {
              "internalType": "string",
              "name": "channelName",
              "type": "string"
            },
            {
              "internalType": "address",
              "name": "membershipToken",
              "type": "address"
            }
          ],
          "internalType": "struct Channels.Channel[]",
          "name": "",
          "type": "tuple[]"
        }
      ],
      "stateMutability": "view",
      "type": "function"
    },
    {
      "inputs": [
        {
          "internalType": "address",
          "name": "_masterContract",
          "type": "address"
        }
      ],
      "name": "initialize",
      "outputs": [],
      "stateMutability": "nonpayable",
      "type": "function"
    },
    {
      "inputs": [
        {
          "internalType": "address",
          "name": "owner",
          "type": "address"
        },
        {
          "internalType": "address",
          "name": "operator",
          "type": "address"
        }
      ],
      "name": "isApprovedForAll",
      "outputs": [
        {
          "internalType": "bool",
          "name": "",
          "type": "bool"
        }
      ],
      "stateMutability": "view",
      "type": "function"
    },
    {
      "inputs": [],
      "name": "name",
      "outputs": [
        {
          "internalType": "string",
          "name": "",
          "type": "string"
        }
      ],
      "stateMutability": "view",
      "type": "function"
    },
    {
      "inputs": [],
      "name": "owner",
      "outputs": [
        {
          "internalType": "address",
          "name": "",
          "type": "address"
        }
      ],
      "stateMutability": "view",
      "type": "function"
    },
    {
      "inputs": [
        {
          "internalType": "uint256",
          "name": "tokenId",
          "type": "uint256"
        }
      ],
      "name": "ownerOf",
      "outputs": [
        {
          "internalType": "address",
          "name": "",
          "type": "address"
        }
      ],
      "stateMutability": "view",
      "type": "function"
    },
    {
      "inputs": [],
      "name": "pause",
      "outputs": [],
      "stateMutability": "nonpayable",
      "type": "function"
    },
    {
      "inputs": [],
      "name": "paused",
      "outputs": [
        {
          "internalType": "bool",
          "name": "",
          "type": "bool"
        }
      ],
      "stateMutability": "view",
      "type": "function"
    },
    {
      "inputs": [],
      "name": "renounceOwnership",
      "outputs": [],
      "stateMutability": "nonpayable",
      "type": "function"
    },
    {
      "inputs": [
        {
          "internalType": "string",
          "name": "channelName",
          "type": "string"
        },
        {
          "internalType": "string",
          "name": "channelUri",
          "type": "string"
        },
        {
          "internalType": "address",
          "name": "to",
          "type": "address"
        }
      ],
      "name": "safeMint",
      "outputs": [],
      "stateMutability": "payable",
      "type": "function"
    },
    {
      "inputs": [
        {
          "internalType": "address",
          "name": "from",
          "type": "address"
        },
        {
          "internalType": "address",
          "name": "to",
          "type": "address"
        },
        {
          "internalType": "uint256",
          "name": "tokenId",
          "type": "uint256"
        }
      ],
      "name": "safeTransferFrom",
      "outputs": [],
      "stateMutability": "nonpayable",
      "type": "function"
    },
    {
      "inputs": [
        {
          "internalType": "address",
          "name": "from",
          "type": "address"
        },
        {
          "internalType": "address",
          "name": "to",
          "type": "address"
        },
        {
          "internalType": "uint256",
          "name": "tokenId",
          "type": "uint256"
        },
        {
          "internalType": "bytes",
          "name": "_data",
          "type": "bytes"
        }
      ],
      "name": "safeTransferFrom",
      "outputs": [],
      "stateMutability": "nonpayable",
      "type": "function"
    },
    {
      "inputs": [
        {
          "internalType": "address",
          "name": "operator",
          "type": "address"
        },
        {
          "internalType": "bool",
          "name": "approved",
          "type": "bool"
        }
      ],
      "name": "setApprovalForAll",
      "outputs": [],
      "stateMutability": "nonpayable",
      "type": "function"
    },
    {
      "inputs": [
        {
          "internalType": "bytes4",
          "name": "interfaceId",
          "type": "bytes4"
        }
      ],
      "name": "supportsInterface",
      "outputs": [
        {
          "internalType": "bool",
          "name": "",
          "type": "bool"
        }
      ],
      "stateMutability": "view",
      "type": "function"
    },
    {
      "inputs": [],
      "name": "symbol",
      "outputs": [
        {
          "internalType": "string",
          "name": "",
          "type": "string"
        }
      ],
      "stateMutability": "view",
      "type": "function"
    },
    {
      "inputs": [
        {
          "internalType": "uint256",
          "name": "tokenId",
          "type": "uint256"
        }
      ],
      "name": "tokenURI",
      "outputs": [
        {
          "internalType": "string",
          "name": "",
          "type": "string"
        }
      ],
      "stateMutability": "view",
      "type": "function"
    },
    {
      "inputs": [
        {
          "internalType": "address",
          "name": "from",
          "type": "address"
        },
        {
          "internalType": "address",
          "name": "to",
          "type": "address"
        },
        {
          "internalType": "uint256",
          "name": "tokenId",
          "type": "uint256"
        }
      ],
      "name": "transferFrom",
      "outputs": [],
      "stateMutability": "nonpayable",
      "type": "function"
    },
    {
      "inputs": [
        {
          "internalType": "address",
          "name": "newOwner",
          "type": "address"
        }
      ],
      "name": "transferOwnership",
      "outputs": [],
      "stateMutability": "nonpayable",
      "type": "function"
    },
    {
      "inputs": [],
      "name": "unpause",
      "outputs": [],
      "stateMutability": "nonpayable",
      "type": "function"
    },
    {
      "inputs": [
        {
          "internalType": "uint256",
          "name": "tokenId",
          "type": "uint256"
        },
        {
          "internalType": "address",
          "name": "contractAddress",
          "type": "address"
        }
      ],
      "name": "updateChannelAddress",
      "outputs": [
        {
          "internalType": "bool",
          "name": "",
          "type": "bool"
        }
      ],
      "stateMutability": "nonpayable",
      "type": "function"
    },
    {
      "inputs": [
        {
          "internalType": "uint256",
          "name": "tokenId",
          "type": "uint256"
        }
      ],
      "name": "uri",
      "outputs": [
        {
          "internalType": "string",
          "name": "",
          "type": "string"
        }
      ],
      "stateMutability": "view",
      "type": "function"
    },
    {
      "inputs": [],
      "name": "withdrawBalance",
      "outputs": [],
      "stateMutability": "nonpayable",
      "type": "function"
    }
  ],
  "bytecode": "0x6080604052650246139ca800610161553480156200001c57600080fd5b5060405162002d8638038062002d868339810160408190526200003f9162000130565b600054610100900460ff166200005c5760005460ff161562000066565b620000666200010c565b620000ce5760405162461bcd60e51b815260206004820152602e60248201527f496e697469616c697a61626c653a20636f6e747261637420697320616c72656160448201526d191e481a5b9a5d1a585b1a5e995960921b606482015260840160405180910390fd5b600054610100900460ff16158015620000f1576000805461ffff19166101011790555b801562000104576000805461ff00191690555b505062000162565b600062000124306200012a60201b620012c71760201c565b15905090565b3b151590565b6000602082840312156200014357600080fd5b81516001600160a01b03811681146200015b57600080fd5b9392505050565b612c1480620001726000396000f3fe6080604052600436106101c25760003560e01c80636352211e116100f7578063b88d4fde11610095578063e985e9c511610064578063e985e9c5146104d1578063f224f8711461051a578063f2fde38b1461053a578063f631e6781461055a57600080fd5b8063b88d4fde14610444578063c4d66de814610464578063c87b56dd14610484578063d0f48ec7146104a457600080fd5b80638456cb59116100d15780638456cb59146103dc5780638da5cb5b146103f157806395d89b411461040f578063a22cb4651461042457600080fd5b80636352211e1461038757806370a08231146103a7578063715018a6146103c757600080fd5b806313faede61161016457806342842e0e1161013e57806342842e0e1461031a57806342966c681461033a5780635c975abb1461035a5780635fd8c7101461037257600080fd5b806313faede6146102ce57806323b872dd146102e55780633f4ba83a1461030557600080fd5b8063081812fc116101a0578063081812fc14610233578063095ea7b31461026b5780630d9005ae1461028b5780630e89341c146102ae57600080fd5b806301ffc9a7146101c757806306fdde03146101fc578063076c67831461021e575b600080fd5b3480156101d357600080fd5b506101e76101e23660046126d1565b610587565b60405190151581526020015b60405180910390f35b34801561020857600080fd5b506102116105d9565b6040516101f3919061292e565b61023161022c36600461270b565b61066b565b005b34801561023f57600080fd5b5061025361024e36600461278c565b61086a565b6040516001600160a01b0390911681526020016101f3565b34801561027757600080fd5b50610231610286366004612632565b6108f7565b34801561029757600080fd5b506102a0610a0d565b6040519081526020016101f3565b3480156102ba57600080fd5b506102116102c936600461278c565b610a2a565b3480156102da57600080fd5b506102a06101615481565b3480156102f157600080fd5b506102316103003660046124de565b610acd565b34801561031157600080fd5b50610231610aff565b34801561032657600080fd5b506102316103353660046124de565b610b33565b34801561034657600080fd5b5061023161035536600461278c565b610b4e565b34801561036657600080fd5b5060c95460ff166101e7565b34801561037e57600080fd5b50610231610bc8565b34801561039357600080fd5b506102536103a236600461278c565b610c85565b3480156103b357600080fd5b506102a06103c2366004612490565b610cfc565b3480156103d357600080fd5b50610231610d83565b3480156103e857600080fd5b50610231610db7565b3480156103fd57600080fd5b5060fb546001600160a01b0316610253565b34801561041b57600080fd5b50610211610de9565b34801561043057600080fd5b5061023161043f3660046125f6565b610df8565b34801561045057600080fd5b5061023161045f36600461251a565b610e07565b34801561047057600080fd5b5061023161047f366004612490565b610e3f565b34801561049057600080fd5b5061021161049f36600461278c565b610fac565b3480156104b057600080fd5b506104c46104bf366004612490565b610fb7565b6040516101f391906128ea565b3480156104dd57600080fd5b506101e76104ec3660046124ab565b6001600160a01b039182166000908152606a6020908152604080832093909416825291909152205460ff1690565b34801561052657600080fd5b506101e76105353660046127a5565b611029565b34801561054657600080fd5b50610231610555366004612490565b6110ff565b34801561056657600080fd5b5061057a61057536600461265c565b611197565b6040516101f39190612860565b60006001600160e01b031982166380ac58cd60e01b14806105b857506001600160e01b03198216635b5e139f60e01b145b806105d357506301ffc9a760e01b6001600160e01b03198316145b92915050565b6060606580546105e890612b06565b80601f016020809104026020016040519081016040528092919081815260200182805461061490612b06565b80156106615780601f1061063657610100808354040283529160200191610661565b820191906000526020600020905b81548152906001019060200180831161064457829003601f168201915b5050505050905090565b6106ab6040518060400160405280600c81526020016b18da185b9b995b081b5a5b9d60a21b8152506106a560fb546001600160a01b031690565b336112cd565b60006106b761015f5490565b90506106c861015f80546001019055565b6001600160a01b03821660009081526101626020908152604080832081516060810183528581528251601f8b018590048502810185019093528983529093929091828201918b908b90819084018382808284376000920182905250938552505050602091820181905285815261016382526040902082518155828201518051939450849391926107609260018501929091019061235c565b5060409182015160029190910180546001600160a01b0319166001600160a01b03909216919091179055825460008581526001850160205291909120556107a78484611314565b60408051338152602081018590527ff7002ef39331d6d9bb9b8d7104e055abc56bd611801468bd10a4e995f988e746910160405180910390a16108208387878080601f01602080910402602001604051908101604052809392919081815260200183838082843760009201919091525061132e92505050565b6108608387878080601f0160208091040260200160405190810160405280939291908181526020018383808284376000920191909152506113b792505050565b5050505050505050565b600061087582611442565b6108db5760405162461bcd60e51b815260206004820152602c60248201527f4552433732313a20617070726f76656420717565727920666f72206e6f6e657860448201526b34b9ba32b73a103a37b5b2b760a11b60648201526084015b60405180910390fd5b506000908152606960205260409020546001600160a01b031690565b600061090282610c85565b9050806001600160a01b0316836001600160a01b031614156109705760405162461bcd60e51b815260206004820152602160248201527f4552433732313a20617070726f76616c20746f2063757272656e74206f776e656044820152603960f91b60648201526084016108d2565b336001600160a01b038216148061098c575061098c81336104ec565b6109fe5760405162461bcd60e51b815260206004820152603860248201527f4552433732313a20617070726f76652063616c6c6572206973206e6f74206f7760448201527f6e6572206e6f7220617070726f76656420666f7220616c6c000000000000000060648201526084016108d2565b610a08838361145f565b505050565b60006001610a1b61015f5490565b610a259190612ac3565b905090565b600081815261016060205260409020805460609190610a4890612b06565b80601f0160208091040260200160405190810160405280929190818152602001828054610a7490612b06565b8015610ac15780601f10610a9657610100808354040283529160200191610ac1565b820191906000526020600020905b815481529060010190602001808311610aa457829003601f168201915b50505050509050919050565b610ad8335b826114cd565b610af45760405162461bcd60e51b81526004016108d2906129fb565b610a088383836115b7565b60fb546001600160a01b03163314610b295760405162461bcd60e51b81526004016108d2906129c6565b610b31611762565b565b610a0883838360405180602001604052806000815250610e07565b610b5733610ad2565b610bbc5760405162461bcd60e51b815260206004820152603060248201527f4552433732314275726e61626c653a2063616c6c6572206973206e6f74206f7760448201526f1b995c881b9bdc88185c1c1c9bdd995960821b60648201526084016108d2565b610bc5816117f5565b50565b60fb546001600160a01b03163314610bf25760405162461bcd60e51b81526004016108d2906129c6565b60405133904790600090839083908381818185875af1925050503d8060008114610c38576040519150601f19603f3d011682016040523d82523d6000602084013e610c3d565b606091505b5050905080610a085760405162461bcd60e51b81526020600482015260146024820152734661696c656420746f2073656e64204d4154494360601b60448201526064016108d2565b6000818152606760205260408120546001600160a01b0316806105d35760405162461bcd60e51b815260206004820152602960248201527f4552433732313a206f776e657220717565727920666f72206e6f6e657869737460448201526832b73a103a37b5b2b760b91b60648201526084016108d2565b60006001600160a01b038216610d675760405162461bcd60e51b815260206004820152602a60248201527f4552433732313a2062616c616e636520717565727920666f7220746865207a65604482015269726f206164647265737360b01b60648201526084016108d2565b506001600160a01b031660009081526068602052604090205490565b60fb546001600160a01b03163314610dad5760405162461bcd60e51b81526004016108d2906129c6565b610b3160006117fe565b60fb546001600160a01b03163314610de15760405162461bcd60e51b81526004016108d2906129c6565b610b31611850565b6060606680546105e890612b06565b610e033383836118cb565b5050565b610e1133836114cd565b610e2d5760405162461bcd60e51b81526004016108d2906129fb565b610e398484848461199a565b50505050565b600054610100900460ff16610e5a5760005460ff1615610e5e565b303b155b610ec15760405162461bcd60e51b815260206004820152602e60248201527f496e697469616c697a61626c653a20636f6e747261637420697320616c72656160448201526d191e481a5b9a5d1a585b1a5e995960921b60648201526084016108d2565b600054610100900460ff16158015610ee3576000805461ffff19166101011790555b610f336040518060400160405280600b81526020016a15195cdd10da185b9b995b60aa1b8152506040518060400160405280600b81526020016a1d195cdd10d2105393915360aa1b8152506119cd565b610f3b611a0e565b610f43611a4d565b610f4b611a84565b610f53611a0e565b610f5c826110ff565b610f9760405180604001604052806007815260200166037bbb732b91d160cd1b815250610f9160fb546001600160a01b031690565b846112cd565b8015610e03576000805461ff00191690555050565b60606105d382611abb565b6001600160a01b038116600090815261016260209081526040918290208054835181840281018401909452808452606093919283919083018282801561101c57602002820191906000526020600020905b815481526020019060010190808311611008575b5050505050915050919050565b60fb546000906001600160a01b031633146110565760405162461bcd60e51b81526004016108d2906129c6565b600083815261016360205260409020600201546001600160a01b03166110c95760405162461bcd60e51b815260206004820152602260248201527f4368616e6e656c2068617320616c7265616479206265656e2061737369676e65604482015261321760f11b60648201526084016108d2565b5060008281526101636020526040902060020180546001600160a01b0383166001600160a01b0319909116179055600192915050565b60fb546001600160a01b031633146111295760405162461bcd60e51b81526004016108d2906129c6565b6001600160a01b03811661118e5760405162461bcd60e51b815260206004820152602660248201527f4f776e61626c653a206e6577206f776e657220697320746865207a65726f206160448201526564647265737360d01b60648201526084016108d2565b610bc5816117fe565b60608060005b838110156112bf5761016360008686848181106111bc576111bc612b9c565b905060200201358152602001908152602001600020604051806060016040529081600082015481526020016001820180546111f690612b06565b80601f016020809104026020016040519081016040528092919081815260200182805461122290612b06565b801561126f5780601f106112445761010080835404028352916020019161126f565b820191906000526020600020905b81548152906001019060200180831161125257829003601f168201915b5050509183525050600291909101546001600160a01b031660209091015282518390839081106112a1576112a1612b9c565b602002602001018190525080806112b790612b41565b91505061119d565b509392505050565b3b151590565b610a088383836040516024016112e593929190612941565b60408051601f198184030181529190526020810180516001600160e01b03166307e763af60e51b179052611c38565b610e03828260405180602001604052806000815250611c59565b600082815261016060205260409020805461134890612b06565b1590506113975760405162461bcd60e51b815260206004820152601a60248201527f43616e6e6f74206d6f64696679206578697374696e672075726900000000000060448201526064016108d2565b6000828152610160602090815260409091208251610a089284019061235c565b6113c082611442565b6114235760405162461bcd60e51b815260206004820152602e60248201527f45524337323155524953746f726167653a2055524920736574206f66206e6f6e60448201526d32bc34b9ba32b73a103a37b5b2b760911b60648201526084016108d2565b60008281526097602090815260409091208251610a089284019061235c565b6000908152606760205260409020546001600160a01b0316151590565b600081815260696020526040902080546001600160a01b0319166001600160a01b038416908117909155819061149482610c85565b6001600160a01b03167f8c5be1e5ebec7d5bd14f71427d1e84f3dd0314c0f7b2291e5b200ac8c7c3b92560405160405180910390a45050565b60006114d882611442565b6115395760405162461bcd60e51b815260206004820152602c60248201527f4552433732313a206f70657261746f7220717565727920666f72206e6f6e657860448201526b34b9ba32b73a103a37b5b2b760a11b60648201526084016108d2565b600061154483610c85565b9050806001600160a01b0316846001600160a01b0316148061157f5750836001600160a01b03166115748461086a565b6001600160a01b0316145b806115af57506001600160a01b038082166000908152606a602090815260408083209388168352929052205460ff165b949350505050565b826001600160a01b03166115ca82610c85565b6001600160a01b0316146116325760405162461bcd60e51b815260206004820152602960248201527f4552433732313a207472616e73666572206f6620746f6b656e2074686174206960448201526839903737ba1037bbb760b91b60648201526084016108d2565b6001600160a01b0382166116945760405162461bcd60e51b8152602060048201526024808201527f4552433732313a207472616e7366657220746f20746865207a65726f206164646044820152637265737360e01b60648201526084016108d2565b61169f838383611c8c565b6116aa60008261145f565b6001600160a01b03831660009081526068602052604081208054600192906116d3908490612ac3565b90915550506001600160a01b0382166000908152606860205260408120805460019290611701908490612a97565b909155505060008181526067602052604080822080546001600160a01b0319166001600160a01b0386811691821790925591518493918716917fddf252ad1be2c89b69c2b068fc378daa952ba7f163c4a11628f55a4df523b3ef91a4505050565b60c95460ff166117ab5760405162461bcd60e51b815260206004820152601460248201527314185d5cd8589b194e881b9bdd081c185d5cd95960621b60448201526064016108d2565b60c9805460ff191690557f5db9ee0a495bf2e6ff9c91a7834c1ba4fdd244a5e8aa4e537bd38aeae4b073aa335b6040516001600160a01b03909116815260200160405180910390a1565b610bc581611d6d565b60fb80546001600160a01b038381166001600160a01b0319831681179093556040519116919082907f8be0079c531659141344cd1fd0a4f28419497f9722a3daafe3b4186f6b6457e090600090a35050565b60c95460ff16156118965760405162461bcd60e51b815260206004820152601060248201526f14185d5cd8589b194e881c185d5cd95960821b60448201526064016108d2565b60c9805460ff191660011790557f62e78cea01bee320cd4e420270b5ea74000d11b0c9f74754ebdbfc544b05a2586117d83390565b816001600160a01b0316836001600160a01b0316141561192d5760405162461bcd60e51b815260206004820152601960248201527f4552433732313a20617070726f766520746f2063616c6c65720000000000000060448201526064016108d2565b6001600160a01b038381166000818152606a6020908152604080832094871680845294825291829020805460ff191686151590811790915591519182527f17307eab39ab6107e8899845ad3d59bd9653f200f220920489ca2b5937696c31910160405180910390a3505050565b6119a58484846115b7565b6119b184848484611dad565b610e395760405162461bcd60e51b81526004016108d290612974565b600054610100900460ff166119f45760405162461bcd60e51b81526004016108d290612a4c565b6119fc611eba565b611a04611eba565b610e038282611ee1565b600054610100900460ff16611a355760405162461bcd60e51b81526004016108d290612a4c565b611a3d611eba565b611a45611eba565b610b31611eba565b600054610100900460ff16611a745760405162461bcd60e51b81526004016108d290612a4c565b611a7c611eba565b610b31611f2f565b600054610100900460ff16611aab5760405162461bcd60e51b81526004016108d290612a4c565b611ab3611eba565b610b31611f62565b6060611ac682611442565b611b2c5760405162461bcd60e51b815260206004820152603160248201527f45524337323155524953746f726167653a2055524920717565727920666f72206044820152703737b732bc34b9ba32b73a103a37b5b2b760791b60648201526084016108d2565b60008281526097602052604081208054611b4590612b06565b80601f0160208091040260200160405190810160405280929190818152602001828054611b7190612b06565b8015611bbe5780601f10611b9357610100808354040283529160200191611bbe565b820191906000526020600020905b815481529060010190602001808311611ba157829003601f168201915b505050505090506000611bea604080518082019091526006815265185cd9199cd960d21b602082015290565b9050805160001415611bfd575092915050565b815115611c2f578082604051602001611c179291906127f4565b60405160208183030381529060405292505050919050565b6115af84611f92565b80516a636f6e736f6c652e6c6f67602083016000808483855afa5050505050565b611c638383612078565b611c706000848484611dad565b610a085760405162461bcd60e51b81526004016108d290612974565b60c95460ff1615611cd25760405162461bcd60e51b815260206004820152601060248201526f14185d5cd8589b194e881c185d5cd95960821b60448201526064016108d2565b6001600160a01b038084166000908152610162602052604080822092851682529020815415611d405760008381526001830160205260409020548254839082908110611d2057611d20612b9c565b600091825260208083209091018290558582526001850190526040812055505b80546000848152600180840160209081526040832084905590830184558382529020018390555050505050565b611d76816121b7565b60008181526097602052604090208054611d8f90612b06565b159050610bc5576000818152609760205260408120610bc5916123e0565b60006001600160a01b0384163b15611eaf57604051630a85bd0160e11b81526001600160a01b0385169063150b7a0290611df1903390899088908890600401612823565b602060405180830381600087803b158015611e0b57600080fd5b505af1925050508015611e3b575060408051601f3d908101601f19168201909252611e38918101906126ee565b60015b611e95573d808015611e69576040519150601f19603f3d011682016040523d82523d6000602084013e611e6e565b606091505b508051611e8d5760405162461bcd60e51b81526004016108d290612974565b805181602001fd5b6001600160e01b031916630a85bd0160e11b1490506115af565b506001949350505050565b600054610100900460ff16610b315760405162461bcd60e51b81526004016108d290612a4c565b600054610100900460ff16611f085760405162461bcd60e51b81526004016108d290612a4c565b8151611f1b90606590602085019061235c565b508051610a0890606690602084019061235c565b600054610100900460ff16611f565760405162461bcd60e51b81526004016108d290612a4c565b60c9805460ff19169055565b600054610100900460ff16611f895760405162461bcd60e51b81526004016108d290612a4c565b610b31336117fe565b6060611f9d82611442565b6120015760405162461bcd60e51b815260206004820152602f60248201527f4552433732314d657461646174613a2055524920717565727920666f72206e6f60448201526e3732bc34b9ba32b73a103a37b5b2b760891b60648201526084016108d2565b6000612026604080518082019091526006815265185cd9199cd960d21b602082015290565b905060008151116120465760405180602001604052806000815250612071565b806120508461225e565b6040516020016120619291906127f4565b6040516020818303038152906040525b9392505050565b6001600160a01b0382166120ce5760405162461bcd60e51b815260206004820181905260248201527f4552433732313a206d696e7420746f20746865207a65726f206164647265737360448201526064016108d2565b6120d781611442565b156121245760405162461bcd60e51b815260206004820152601c60248201527f4552433732313a20746f6b656e20616c7265616479206d696e7465640000000060448201526064016108d2565b61213060008383611c8c565b6001600160a01b0382166000908152606860205260408120805460019290612159908490612a97565b909155505060008181526067602052604080822080546001600160a01b0319166001600160a01b03861690811790915590518392907fddf252ad1be2c89b69c2b068fc378daa952ba7f163c4a11628f55a4df523b3ef908290a45050565b60006121c282610c85565b90506121d081600084611c8c565b6121db60008361145f565b6001600160a01b0381166000908152606860205260408120805460019290612204908490612ac3565b909155505060008281526067602052604080822080546001600160a01b0319169055518391906001600160a01b038416907fddf252ad1be2c89b69c2b068fc378daa952ba7f163c4a11628f55a4df523b3ef908390a45050565b6060816122825750506040805180820190915260018152600360fc1b602082015290565b8160005b81156122ac578061229681612b41565b91506122a59050600a83612aaf565b9150612286565b60008167ffffffffffffffff8111156122c7576122c7612bb2565b6040519080825280601f01601f1916602001820160405280156122f1576020820181803683370190505b5090505b84156115af57612306600183612ac3565b9150612313600a86612b5c565b61231e906030612a97565b60f81b81838151811061233357612333612b9c565b60200101906001600160f81b031916908160001a905350612355600a86612aaf565b94506122f5565b82805461236890612b06565b90600052602060002090601f01602090048101928261238a57600085556123d0565b82601f106123a357805160ff19168380011785556123d0565b828001600101855582156123d0579182015b828111156123d05782518255916020019190600101906123b5565b506123dc929150612416565b5090565b5080546123ec90612b06565b6000825580601f106123fc575050565b601f016020900490600052602060002090810190610bc591905b5b808211156123dc5760008155600101612417565b80356001600160a01b038116811461244257600080fd5b919050565b60008083601f84011261245957600080fd5b50813567ffffffffffffffff81111561247157600080fd5b60208301915083602082850101111561248957600080fd5b9250929050565b6000602082840312156124a257600080fd5b6120718261242b565b600080604083850312156124be57600080fd5b6124c78361242b565b91506124d56020840161242b565b90509250929050565b6000806000606084860312156124f357600080fd5b6124fc8461242b565b925061250a6020850161242b565b9150604084013590509250925092565b6000806000806080858703121561253057600080fd5b6125398561242b565b93506125476020860161242b565b925060408501359150606085013567ffffffffffffffff8082111561256b57600080fd5b818701915087601f83011261257f57600080fd5b81358181111561259157612591612bb2565b604051601f8201601f19908116603f011681019083821181831017156125b9576125b9612bb2565b816040528281528a60208487010111156125d257600080fd5b82602086016020830137600060208483010152809550505050505092959194509250565b6000806040838503121561260957600080fd5b6126128361242b565b91506020830135801515811461262757600080fd5b809150509250929050565b6000806040838503121561264557600080fd5b61264e8361242b565b946020939093013593505050565b6000806020838503121561266f57600080fd5b823567ffffffffffffffff8082111561268757600080fd5b818501915085601f83011261269b57600080fd5b8135818111156126aa57600080fd5b8660208260051b85010111156126bf57600080fd5b60209290920196919550909350505050565b6000602082840312156126e357600080fd5b813561207181612bc8565b60006020828403121561270057600080fd5b815161207181612bc8565b60008060008060006060868803121561272357600080fd5b853567ffffffffffffffff8082111561273b57600080fd5b61274789838a01612447565b9097509550602088013591508082111561276057600080fd5b5061276d88828901612447565b909450925061278090506040870161242b565b90509295509295909350565b60006020828403121561279e57600080fd5b5035919050565b600080604083850312156127b857600080fd5b823591506124d56020840161242b565b600081518084526127e0816020860160208601612ada565b601f01601f19169290920160200192915050565b60008351612806818460208801612ada565b83519083019061281a818360208801612ada565b01949350505050565b6001600160a01b0385811682528416602082015260408101839052608060608201819052600090612856908301846127c8565b9695505050505050565b60006020808301818452808551808352604092508286019150828160051b87010184880160005b838110156128dc57603f19898403018552815160608151855288820151818a8701526128b5828701826127c8565b928901516001600160a01b0316958901959095525094870194925090860190600101612887565b509098975050505050505050565b6020808252825182820181905260009190848201906040850190845b8181101561292257835183529284019291840191600101612906565b50909695505050505050565b60208152600061207160208301846127c8565b60608152600061295460608301866127c8565b6001600160a01b0394851660208401529290931660409091015292915050565b60208082526032908201527f4552433732313a207472616e7366657220746f206e6f6e20455243373231526560408201527131b2b4bb32b91034b6b83632b6b2b73a32b960711b606082015260800190565b6020808252818101527f4f776e61626c653a2063616c6c6572206973206e6f7420746865206f776e6572604082015260600190565b60208082526031908201527f4552433732313a207472616e736665722063616c6c6572206973206e6f74206f6040820152701ddb995c881b9bdc88185c1c1c9bdd9959607a1b606082015260800190565b6020808252602b908201527f496e697469616c697a61626c653a20636f6e7472616374206973206e6f74206960408201526a6e697469616c697a696e6760a81b606082015260800190565b60008219821115612aaa57612aaa612b70565b500190565b600082612abe57612abe612b86565b500490565b600082821015612ad557612ad5612b70565b500390565b60005b83811015612af5578181015183820152602001612add565b83811115610e395750506000910152565b600181811c90821680612b1a57607f821691505b60208210811415612b3b57634e487b7160e01b600052602260045260246000fd5b50919050565b6000600019821415612b5557612b55612b70565b5060010190565b600082612b6b57612b6b612b86565b500690565b634e487b7160e01b600052601160045260246000fd5b634e487b7160e01b600052601260045260246000fd5b634e487b7160e01b600052603260045260246000fd5b634e487b7160e01b600052604160045260246000fd5b6001600160e01b031981168114610bc557600080fdfea2646970667358221220871bb2d831285d5fa6e151c040b5916e245e6b39a7befb5aedb7ef2cce49928064736f6c63430008070033",
  "linkReferences": {},
  "deployedLinkReferences": {}
}