{
  "_format": "hh-sol-artifact-1",
  "contractName": "Channels",
  "sourceName": "contracts/Channels.sol",
  "abi": [
    {
      "inputs": [],
      "stateMutability": "nonpayable",
      "type": "constructor"
    },
    {
      "anonymous": false,
      "inputs": [
        {
          "indexed": true,
          "internalType": "address",
          "name": "owner",
          "type": "address"
        },
        {
          "indexed": true,
          "internalType": "address",
          "name": "approved",
          "type": "address"
        },
        {
          "indexed": true,
          "internalType": "uint256",
          "name": "tokenId",
          "type": "uint256"
        }
      ],
      "name": "Approval",
      "type": "event"
    },
    {
      "anonymous": false,
      "inputs": [
        {
          "indexed": true,
          "internalType": "address",
          "name": "owner",
          "type": "address"
        },
        {
          "indexed": true,
          "internalType": "address",
          "name": "operator",
          "type": "address"
        },
        {
          "indexed": false,
          "internalType": "bool",
          "name": "approved",
          "type": "bool"
        }
      ],
      "name": "ApprovalForAll",
      "type": "event"
    },
    {
      "anonymous": false,
      "inputs": [
        {
          "indexed": false,
          "internalType": "address",
          "name": "sender",
          "type": "address"
        },
        {
          "indexed": false,
          "internalType": "uint256",
          "name": "tokenId",
          "type": "uint256"
        }
      ],
      "name": "NewReceptionChannelMinted",
      "type": "event"
    },
    {
      "anonymous": false,
      "inputs": [
        {
          "indexed": true,
          "internalType": "address",
          "name": "previousOwner",
          "type": "address"
        },
        {
          "indexed": true,
          "internalType": "address",
          "name": "newOwner",
          "type": "address"
        }
      ],
      "name": "OwnershipTransferred",
      "type": "event"
    },
    {
      "anonymous": false,
      "inputs": [
        {
          "indexed": false,
          "internalType": "address",
          "name": "account",
          "type": "address"
        }
      ],
      "name": "Paused",
      "type": "event"
    },
    {
      "anonymous": false,
      "inputs": [
        {
          "indexed": true,
          "internalType": "address",
          "name": "from",
          "type": "address"
        },
        {
          "indexed": true,
          "internalType": "address",
          "name": "to",
          "type": "address"
        },
        {
          "indexed": true,
          "internalType": "uint256",
          "name": "tokenId",
          "type": "uint256"
        }
      ],
      "name": "Transfer",
      "type": "event"
    },
    {
      "anonymous": false,
      "inputs": [
        {
          "indexed": false,
          "internalType": "address",
          "name": "account",
          "type": "address"
        }
      ],
      "name": "Unpaused",
      "type": "event"
    },
    {
      "inputs": [
        {
          "internalType": "address",
          "name": "to",
          "type": "address"
        },
        {
          "internalType": "uint256",
          "name": "tokenId",
          "type": "uint256"
        }
      ],
      "name": "approve",
      "outputs": [],
      "stateMutability": "nonpayable",
      "type": "function"
    },
    {
      "inputs": [
        {
          "internalType": "address",
          "name": "owner",
          "type": "address"
        }
      ],
      "name": "balanceOf",
      "outputs": [
        {
          "internalType": "uint256",
          "name": "",
          "type": "uint256"
        }
      ],
      "stateMutability": "view",
      "type": "function"
    },
    {
      "inputs": [
        {
          "internalType": "uint256",
          "name": "tokenId",
          "type": "uint256"
        }
      ],
      "name": "burn",
      "outputs": [],
      "stateMutability": "nonpayable",
      "type": "function"
    },
    {
      "inputs": [],
      "name": "cost",
      "outputs": [
        {
          "internalType": "uint256",
          "name": "",
          "type": "uint256"
        }
      ],
      "stateMutability": "view",
      "type": "function"
    },
    {
      "inputs": [
        {
          "internalType": "uint256",
          "name": "tokenId",
          "type": "uint256"
        }
      ],
      "name": "getApproved",
      "outputs": [
        {
          "internalType": "address",
          "name": "",
          "type": "address"
        }
      ],
      "stateMutability": "view",
      "type": "function"
    },
    {
      "inputs": [],
      "name": "getChannelMetadata",
      "outputs": [
        {
          "internalType": "string",
          "name": "",
          "type": "string"
        }
      ],
      "stateMutability": "view",
      "type": "function"
    },
    {
      "inputs": [],
      "name": "getCurrentIndex",
      "outputs": [
        {
          "internalType": "uint256",
          "name": "",
          "type": "uint256"
        }
      ],
      "stateMutability": "view",
      "type": "function"
    },
    {
      "inputs": [],
      "name": "getOwnerChannelIds",
      "outputs": [
        {
          "internalType": "uint256[]",
          "name": "",
          "type": "uint256[]"
        }
      ],
      "stateMutability": "view",
      "type": "function"
    },
    {
      "inputs": [
        {
          "internalType": "uint256[]",
          "name": "channelIds",
          "type": "uint256[]"
        }
      ],
      "name": "getOwnerChannelList",
      "outputs": [
        {
          "components": [
            {
              "internalType": "uint256",
              "name": "tokenIndex",
              "type": "uint256"
            },
            {
              "internalType": "string",
              "name": "channelName",
              "type": "string"
            },
            {
              "internalType": "address",
              "name": "membershipToken",
              "type": "address"
            }
          ],
          "internalType": "struct Channels.Channel[]",
          "name": "",
          "type": "tuple[]"
        }
      ],
      "stateMutability": "view",
      "type": "function"
    },
    {
      "inputs": [],
      "name": "initialize",
      "outputs": [],
      "stateMutability": "nonpayable",
      "type": "function"
    },
    {
      "inputs": [
        {
          "internalType": "address",
          "name": "owner",
          "type": "address"
        },
        {
          "internalType": "address",
          "name": "operator",
          "type": "address"
        }
      ],
      "name": "isApprovedForAll",
      "outputs": [
        {
          "internalType": "bool",
          "name": "",
          "type": "bool"
        }
      ],
      "stateMutability": "view",
      "type": "function"
    },
    {
      "inputs": [],
      "name": "name",
      "outputs": [
        {
          "internalType": "string",
          "name": "",
          "type": "string"
        }
      ],
      "stateMutability": "view",
      "type": "function"
    },
    {
      "inputs": [],
      "name": "owner",
      "outputs": [
        {
          "internalType": "address",
          "name": "",
          "type": "address"
        }
      ],
      "stateMutability": "view",
      "type": "function"
    },
    {
      "inputs": [
        {
          "internalType": "uint256",
          "name": "tokenId",
          "type": "uint256"
        }
      ],
      "name": "ownerOf",
      "outputs": [
        {
          "internalType": "address",
          "name": "",
          "type": "address"
        }
      ],
      "stateMutability": "view",
      "type": "function"
    },
    {
      "inputs": [],
      "name": "pause",
      "outputs": [],
      "stateMutability": "nonpayable",
      "type": "function"
    },
    {
      "inputs": [],
      "name": "paused",
      "outputs": [
        {
          "internalType": "bool",
          "name": "",
          "type": "bool"
        }
      ],
      "stateMutability": "view",
      "type": "function"
    },
    {
      "inputs": [],
      "name": "renounceOwnership",
      "outputs": [],
      "stateMutability": "nonpayable",
      "type": "function"
    },
    {
      "inputs": [
        {
          "internalType": "string",
          "name": "channelName",
          "type": "string"
        },
        {
          "internalType": "string",
          "name": "channelUri",
          "type": "string"
        }
      ],
      "name": "safeMint",
      "outputs": [],
      "stateMutability": "payable",
      "type": "function"
    },
    {
      "inputs": [
        {
          "internalType": "address",
          "name": "from",
          "type": "address"
        },
        {
          "internalType": "address",
          "name": "to",
          "type": "address"
        },
        {
          "internalType": "uint256",
          "name": "tokenId",
          "type": "uint256"
        }
      ],
      "name": "safeTransferFrom",
      "outputs": [],
      "stateMutability": "nonpayable",
      "type": "function"
    },
    {
      "inputs": [
        {
          "internalType": "address",
          "name": "from",
          "type": "address"
        },
        {
          "internalType": "address",
          "name": "to",
          "type": "address"
        },
        {
          "internalType": "uint256",
          "name": "tokenId",
          "type": "uint256"
        },
        {
          "internalType": "bytes",
          "name": "_data",
          "type": "bytes"
        }
      ],
      "name": "safeTransferFrom",
      "outputs": [],
      "stateMutability": "nonpayable",
      "type": "function"
    },
    {
      "inputs": [
        {
          "internalType": "address",
          "name": "operator",
          "type": "address"
        },
        {
          "internalType": "bool",
          "name": "approved",
          "type": "bool"
        }
      ],
      "name": "setApprovalForAll",
      "outputs": [],
      "stateMutability": "nonpayable",
      "type": "function"
    },
    {
      "inputs": [
        {
          "internalType": "bytes4",
          "name": "interfaceId",
          "type": "bytes4"
        }
      ],
      "name": "supportsInterface",
      "outputs": [
        {
          "internalType": "bool",
          "name": "",
          "type": "bool"
        }
      ],
      "stateMutability": "view",
      "type": "function"
    },
    {
      "inputs": [],
      "name": "symbol",
      "outputs": [
        {
          "internalType": "string",
          "name": "",
          "type": "string"
        }
      ],
      "stateMutability": "view",
      "type": "function"
    },
    {
      "inputs": [
        {
          "internalType": "uint256",
          "name": "tokenId",
          "type": "uint256"
        }
      ],
      "name": "tokenURI",
      "outputs": [
        {
          "internalType": "string",
          "name": "",
          "type": "string"
        }
      ],
      "stateMutability": "view",
      "type": "function"
    },
    {
      "inputs": [
        {
          "internalType": "address",
          "name": "from",
          "type": "address"
        },
        {
          "internalType": "address",
          "name": "to",
          "type": "address"
        },
        {
          "internalType": "uint256",
          "name": "tokenId",
          "type": "uint256"
        }
      ],
      "name": "transferFrom",
      "outputs": [],
      "stateMutability": "nonpayable",
      "type": "function"
    },
    {
      "inputs": [
        {
          "internalType": "address",
          "name": "newOwner",
          "type": "address"
        }
      ],
      "name": "transferOwnership",
      "outputs": [],
      "stateMutability": "nonpayable",
      "type": "function"
    },
    {
      "inputs": [],
      "name": "unpause",
      "outputs": [],
      "stateMutability": "nonpayable",
      "type": "function"
    },
    {
      "inputs": [
        {
          "internalType": "uint256",
          "name": "tokenId",
          "type": "uint256"
        },
        {
          "internalType": "address",
          "name": "contractAddress",
          "type": "address"
        }
      ],
      "name": "updateChannelAddress",
      "outputs": [
        {
          "internalType": "bool",
          "name": "",
          "type": "bool"
        }
      ],
      "stateMutability": "nonpayable",
      "type": "function"
    },
    {
      "inputs": [
        {
          "internalType": "uint256",
          "name": "tokenId",
          "type": "uint256"
        }
      ],
      "name": "uri",
      "outputs": [
        {
          "internalType": "string",
          "name": "",
          "type": "string"
        }
      ],
      "stateMutability": "view",
      "type": "function"
    },
    {
      "inputs": [],
      "name": "withdrawBalance",
      "outputs": [],
      "stateMutability": "nonpayable",
      "type": "function"
    }
  ],
  "bytecode": "0x6080604052650246139ca800610161553480156200001c57600080fd5b50600054610100900460ff166200003a5760005460ff161562000044565b62000044620000e9565b620000ac5760405162461bcd60e51b815260206004820152602e60248201527f496e697469616c697a61626c653a20636f6e747261637420697320616c72656160448201526d191e481a5b9a5d1a585b1a5e995960921b606482015260840160405180910390fd5b600054610100900460ff16158015620000cf576000805461ffff19166101011790555b8015620000e2576000805461ff00191690555b506200010d565b600062000101306200010760201b620012091760201c565b15905090565b3b151590565b612a1d806200011d6000396000f3fe6080604052600436106101cd5760003560e01c80636352211e116100f7578063a22cb46511610095578063e985e9c511610064578063e985e9c5146104da578063f224f87114610523578063f2fde38b14610543578063f631e6781461056357600080fd5b8063a22cb46514610466578063a8ac083414610486578063b88d4fde1461049a578063c87b56dd146104ba57600080fd5b80638129fc1c116100d15780638129fc1c146104095780638456cb591461041e5780638da5cb5b1461043357806395d89b411461045157600080fd5b80636352211e146103b457806370a08231146103d4578063715018a6146103f457600080fd5b806323b872dd1161016f5780634fa1f7ae1161013e5780634fa1f7ae14610352578063582e0547146103655780635c975abb146103875780635fd8c7101461039f57600080fd5b806323b872dd146102dd5780633f4ba83a146102fd57806342842e0e1461031257806342966c681461033257600080fd5b8063095ea7b3116101ab578063095ea7b3146102615780630d9005ae146102835780630e89341c146102a657806313faede6146102c657600080fd5b806301ffc9a7146101d257806306fdde0314610207578063081812fc14610229575b600080fd5b3480156101de57600080fd5b506101f26101ed366004612522565b610590565b60405190151581526020015b60405180910390f35b34801561021357600080fd5b5061021c6105e2565b6040516101fe919061276a565b34801561023557600080fd5b506102496102443660046125c8565b610674565b6040516001600160a01b0390911681526020016101fe565b34801561026d57600080fd5b5061028161027c366004612483565b610701565b005b34801561028f57600080fd5b50610298610817565b6040519081526020016101fe565b3480156102b257600080fd5b5061021c6102c13660046125c8565b610834565b3480156102d257600080fd5b506102986101615481565b3480156102e957600080fd5b506102816102f836600461232f565b6108d7565b34801561030957600080fd5b50610281610909565b34801561031e57600080fd5b5061028161032d36600461232f565b61093d565b34801561033e57600080fd5b5061028161034d3660046125c8565b610958565b61028161036036600461255c565b6109d2565b34801561037157600080fd5b5061037a610b5a565b6040516101fe9190612726565b34801561039357600080fd5b5060c95460ff166101f2565b3480156103ab57600080fd5b50610281610bc1565b3480156103c057600080fd5b506102496103cf3660046125c8565b610c7e565b3480156103e057600080fd5b506102986103ef3660046122e1565b610cf5565b34801561040057600080fd5b50610281610d7c565b34801561041557600080fd5b50610281610db0565b34801561042a57600080fd5b50610281610ed8565b34801561043f57600080fd5b5060fb546001600160a01b0316610249565b34801561045d57600080fd5b5061021c610f0a565b34801561047257600080fd5b50610281610481366004612447565b610f19565b34801561049257600080fd5b50606061021c565b3480156104a657600080fd5b506102816104b536600461236b565b610f28565b3480156104c657600080fd5b5061021c6104d53660046125c8565b610f60565b3480156104e657600080fd5b506101f26104f53660046122fc565b6001600160a01b039182166000908152606a6020908152604080832093909416825291909152205460ff1690565b34801561052f57600080fd5b506101f261053e3660046125e1565b610f6b565b34801561054f57600080fd5b5061028161055e3660046122e1565b611041565b34801561056f57600080fd5b5061058361057e3660046124ad565b6110d9565b6040516101fe919061269c565b60006001600160e01b031982166380ac58cd60e01b14806105c157506001600160e01b03198216635b5e139f60e01b145b806105dc57506301ffc9a760e01b6001600160e01b03198316145b92915050565b6060606580546105f19061290f565b80601f016020809104026020016040519081016040528092919081815260200182805461061d9061290f565b801561066a5780601f1061063f5761010080835404028352916020019161066a565b820191906000526020600020905b81548152906001019060200180831161064d57829003601f168201915b5050505050905090565b600061067f8261120f565b6106e55760405162461bcd60e51b815260206004820152602c60248201527f4552433732313a20617070726f76656420717565727920666f72206e6f6e657860448201526b34b9ba32b73a103a37b5b2b760a11b60648201526084015b60405180910390fd5b506000908152606960205260409020546001600160a01b031690565b600061070c82610c7e565b9050806001600160a01b0316836001600160a01b0316141561077a5760405162461bcd60e51b815260206004820152602160248201527f4552433732313a20617070726f76616c20746f2063757272656e74206f776e656044820152603960f91b60648201526084016106dc565b336001600160a01b0382161480610796575061079681336104f5565b6108085760405162461bcd60e51b815260206004820152603860248201527f4552433732313a20617070726f76652063616c6c6572206973206e6f74206f7760448201527f6e6572206e6f7220617070726f76656420666f7220616c6c000000000000000060648201526084016106dc565b610812838361122c565b505050565b6000600161082561015f5490565b61082f91906128cc565b905090565b6000818152610160602052604090208054606091906108529061290f565b80601f016020809104026020016040519081016040528092919081815260200182805461087e9061290f565b80156108cb5780601f106108a0576101008083540402835291602001916108cb565b820191906000526020600020905b8154815290600101906020018083116108ae57829003601f168201915b50505050509050919050565b6108e2335b8261129a565b6108fe5760405162461bcd60e51b81526004016106dc90612804565b610812838383611384565b60fb546001600160a01b031633146109335760405162461bcd60e51b81526004016106dc906127cf565b61093b61152f565b565b61081283838360405180602001604052806000815250610f28565b610961336108dc565b6109c65760405162461bcd60e51b815260206004820152603060248201527f4552433732314275726e61626c653a2063616c6c6572206973206e6f74206f7760448201526f1b995c881b9bdc88185c1c1c9bdd995960821b60648201526084016106dc565b6109cf816115c2565b50565b60006109de61015f5490565b90506109ef61015f80546001019055565b3360009081526101626020908152604080832081516060810183528581528251601f8a018590048502810185019093528883529093929091828201918a908a9081908401838280828437600092018290525093855250505060209182018190528581526101638252604090208251815582820151805193945084939192610a7e926001850192909101906121ad565b5060409182015160029190910180546001600160a01b0319166001600160a01b039092169190911790558254600085815260018581016020908152938220839055820185558481529190912001839055610ad833846115cb565b60408051338152602081018590527ff7002ef39331d6d9bb9b8d7104e055abc56bd611801468bd10a4e995f988e746910160405180910390a1610b518386868080601f0160208091040260200160405190810160405280939291908181526020018383808284376000920191909152506115e592505050565b50505050505050565b336000908152610162602090815260409182902080548351818402810184019094528084526060939192839190830182828015610bb657602002820191906000526020600020905b815481526020019060010190808311610ba2575b505050505091505090565b60fb546001600160a01b03163314610beb5760405162461bcd60e51b81526004016106dc906127cf565b60405133904790600090839083908381818185875af1925050503d8060008114610c31576040519150601f19603f3d011682016040523d82523d6000602084013e610c36565b606091505b50509050806108125760405162461bcd60e51b81526020600482015260146024820152734661696c656420746f2073656e64204d4154494360601b60448201526064016106dc565b6000818152606760205260408120546001600160a01b0316806105dc5760405162461bcd60e51b815260206004820152602960248201527f4552433732313a206f776e657220717565727920666f72206e6f6e657869737460448201526832b73a103a37b5b2b760b91b60648201526084016106dc565b60006001600160a01b038216610d605760405162461bcd60e51b815260206004820152602a60248201527f4552433732313a2062616c616e636520717565727920666f7220746865207a65604482015269726f206164647265737360b01b60648201526084016106dc565b506001600160a01b031660009081526068602052604090205490565b60fb546001600160a01b03163314610da65760405162461bcd60e51b81526004016106dc906127cf565b61093b6000611670565b600054610100900460ff16610dcb5760005460ff1615610dcf565b303b155b610e325760405162461bcd60e51b815260206004820152602e60248201527f496e697469616c697a61626c653a20636f6e747261637420697320616c72656160448201526d191e481a5b9a5d1a585b1a5e995960921b60648201526084016106dc565b600054610100900460ff16158015610e54576000805461ffff19166101011790555b610ea46040518060400160405280600b81526020016a15195cdd10da185b9b995b60aa1b8152506040518060400160405280600b81526020016a1d195cdd10d2105393915360aa1b8152506116c2565b610eac611703565b610eb4611742565b610ebc611779565b610ec4611703565b80156109cf576000805461ff001916905550565b60fb546001600160a01b03163314610f025760405162461bcd60e51b81526004016106dc906127cf565b61093b6117b0565b6060606680546105f19061290f565b610f2433838361182b565b5050565b610f32338361129a565b610f4e5760405162461bcd60e51b81526004016106dc90612804565b610f5a848484846118fa565b50505050565b60606105dc8261192d565b60fb546000906001600160a01b03163314610f985760405162461bcd60e51b81526004016106dc906127cf565b600083815261016360205260409020600201546001600160a01b031661100b5760405162461bcd60e51b815260206004820152602260248201527f4368616e6e656c2068617320616c7265616479206265656e2061737369676e65604482015261321760f11b60648201526084016106dc565b5060008281526101636020526040902060020180546001600160a01b0383166001600160a01b0319909116179055600192915050565b60fb546001600160a01b0316331461106b5760405162461bcd60e51b81526004016106dc906127cf565b6001600160a01b0381166110d05760405162461bcd60e51b815260206004820152602660248201527f4f776e61626c653a206e6577206f776e657220697320746865207a65726f206160448201526564647265737360d01b60648201526084016106dc565b6109cf81611670565b60608060005b838110156112015761016360008686848181106110fe576110fe6129a5565b905060200201358152602001908152602001600020604051806060016040529081600082015481526020016001820180546111389061290f565b80601f01602080910402602001604051908101604052809291908181526020018280546111649061290f565b80156111b15780601f10611186576101008083540402835291602001916111b1565b820191906000526020600020905b81548152906001019060200180831161119457829003601f168201915b5050509183525050600291909101546001600160a01b031660209091015282518390839081106111e3576111e36129a5565b602002602001018190525080806111f99061294a565b9150506110df565b509392505050565b3b151590565b6000908152606760205260409020546001600160a01b0316151590565b600081815260696020526040902080546001600160a01b0319166001600160a01b038416908117909155819061126182610c7e565b6001600160a01b03167f8c5be1e5ebec7d5bd14f71427d1e84f3dd0314c0f7b2291e5b200ac8c7c3b92560405160405180910390a45050565b60006112a58261120f565b6113065760405162461bcd60e51b815260206004820152602c60248201527f4552433732313a206f70657261746f7220717565727920666f72206e6f6e657860448201526b34b9ba32b73a103a37b5b2b760a11b60648201526084016106dc565b600061131183610c7e565b9050806001600160a01b0316846001600160a01b0316148061134c5750836001600160a01b031661134184610674565b6001600160a01b0316145b8061137c57506001600160a01b038082166000908152606a602090815260408083209388168352929052205460ff165b949350505050565b826001600160a01b031661139782610c7e565b6001600160a01b0316146113ff5760405162461bcd60e51b815260206004820152602960248201527f4552433732313a207472616e73666572206f6620746f6b656e2074686174206960448201526839903737ba1037bbb760b91b60648201526084016106dc565b6001600160a01b0382166114615760405162461bcd60e51b8152602060048201526024808201527f4552433732313a207472616e7366657220746f20746865207a65726f206164646044820152637265737360e01b60648201526084016106dc565b61146c838383611aaa565b61147760008261122c565b6001600160a01b03831660009081526068602052604081208054600192906114a09084906128cc565b90915550506001600160a01b03821660009081526068602052604081208054600192906114ce9084906128a0565b909155505060008181526067602052604080822080546001600160a01b0319166001600160a01b0386811691821790925591518493918716917fddf252ad1be2c89b69c2b068fc378daa952ba7f163c4a11628f55a4df523b3ef91a4505050565b60c95460ff166115785760405162461bcd60e51b815260206004820152601460248201527314185d5cd8589b194e881b9bdd081c185d5cd95960621b60448201526064016106dc565b60c9805460ff191690557f5db9ee0a495bf2e6ff9c91a7834c1ba4fdd244a5e8aa4e537bd38aeae4b073aa335b6040516001600160a01b03909116815260200160405180910390a1565b6109cf81611b8b565b610f24828260405180602001604052806000815250611bcb565b6115ee8261120f565b6116515760405162461bcd60e51b815260206004820152602e60248201527f45524337323155524953746f726167653a2055524920736574206f66206e6f6e60448201526d32bc34b9ba32b73a103a37b5b2b760911b60648201526084016106dc565b60008281526097602090815260409091208251610812928401906121ad565b60fb80546001600160a01b038381166001600160a01b0319831681179093556040519116919082907f8be0079c531659141344cd1fd0a4f28419497f9722a3daafe3b4186f6b6457e090600090a35050565b600054610100900460ff166116e95760405162461bcd60e51b81526004016106dc90612855565b6116f1611bfe565b6116f9611bfe565b610f248282611c25565b600054610100900460ff1661172a5760405162461bcd60e51b81526004016106dc90612855565b611732611bfe565b61173a611bfe565b61093b611bfe565b600054610100900460ff166117695760405162461bcd60e51b81526004016106dc90612855565b611771611bfe565b61093b611c73565b600054610100900460ff166117a05760405162461bcd60e51b81526004016106dc90612855565b6117a8611bfe565b61093b611ca6565b60c95460ff16156117f65760405162461bcd60e51b815260206004820152601060248201526f14185d5cd8589b194e881c185d5cd95960821b60448201526064016106dc565b60c9805460ff191660011790557f62e78cea01bee320cd4e420270b5ea74000d11b0c9f74754ebdbfc544b05a2586115a53390565b816001600160a01b0316836001600160a01b0316141561188d5760405162461bcd60e51b815260206004820152601960248201527f4552433732313a20617070726f766520746f2063616c6c65720000000000000060448201526064016106dc565b6001600160a01b038381166000818152606a6020908152604080832094871680845294825291829020805460ff191686151590811790915591519182527f17307eab39ab6107e8899845ad3d59bd9653f200f220920489ca2b5937696c31910160405180910390a3505050565b611905848484611384565b61191184848484611cd6565b610f5a5760405162461bcd60e51b81526004016106dc9061277d565b60606119388261120f565b61199e5760405162461bcd60e51b815260206004820152603160248201527f45524337323155524953746f726167653a2055524920717565727920666f72206044820152703737b732bc34b9ba32b73a103a37b5b2b760791b60648201526084016106dc565b600082815260976020526040812080546119b79061290f565b80601f01602080910402602001604051908101604052809291908181526020018280546119e39061290f565b8015611a305780601f10611a0557610100808354040283529160200191611a30565b820191906000526020600020905b815481529060010190602001808311611a1357829003601f168201915b505050505090506000611a5c604080518082019091526006815265185cd9199cd960d21b602082015290565b9050805160001415611a6f575092915050565b815115611aa1578082604051602001611a89929190612630565b60405160208183030381529060405292505050919050565b61137c84611de3565b60c95460ff1615611af05760405162461bcd60e51b815260206004820152601060248201526f14185d5cd8589b194e881c185d5cd95960821b60448201526064016106dc565b6001600160a01b038084166000908152610162602052604080822092851682529020815415611b5e5760008381526001830160205260409020548254839082908110611b3e57611b3e6129a5565b600091825260208083209091018290558582526001850190526040812055505b80546000848152600180840160209081526040832084905590830184558382529020018390555050505050565b611b9481611ec9565b60008181526097602052604090208054611bad9061290f565b1590506109cf5760008181526097602052604081206109cf91612231565b611bd58383611f70565b611be26000848484611cd6565b6108125760405162461bcd60e51b81526004016106dc9061277d565b600054610100900460ff1661093b5760405162461bcd60e51b81526004016106dc90612855565b600054610100900460ff16611c4c5760405162461bcd60e51b81526004016106dc90612855565b8151611c5f9060659060208501906121ad565b5080516108129060669060208401906121ad565b600054610100900460ff16611c9a5760405162461bcd60e51b81526004016106dc90612855565b60c9805460ff19169055565b600054610100900460ff16611ccd5760405162461bcd60e51b81526004016106dc90612855565b61093b33611670565b60006001600160a01b0384163b15611dd857604051630a85bd0160e11b81526001600160a01b0385169063150b7a0290611d1a90339089908890889060040161265f565b602060405180830381600087803b158015611d3457600080fd5b505af1925050508015611d64575060408051601f3d908101601f19168201909252611d619181019061253f565b60015b611dbe573d808015611d92576040519150601f19603f3d011682016040523d82523d6000602084013e611d97565b606091505b508051611db65760405162461bcd60e51b81526004016106dc9061277d565b805181602001fd5b6001600160e01b031916630a85bd0160e11b14905061137c565b506001949350505050565b6060611dee8261120f565b611e525760405162461bcd60e51b815260206004820152602f60248201527f4552433732314d657461646174613a2055524920717565727920666f72206e6f60448201526e3732bc34b9ba32b73a103a37b5b2b760891b60648201526084016106dc565b6000611e77604080518082019091526006815265185cd9199cd960d21b602082015290565b90506000815111611e975760405180602001604052806000815250611ec2565b80611ea1846120af565b604051602001611eb2929190612630565b6040516020818303038152906040525b9392505050565b6000611ed482610c7e565b9050611ee281600084611aaa565b611eed60008361122c565b6001600160a01b0381166000908152606860205260408120805460019290611f169084906128cc565b909155505060008281526067602052604080822080546001600160a01b0319169055518391906001600160a01b038416907fddf252ad1be2c89b69c2b068fc378daa952ba7f163c4a11628f55a4df523b3ef908390a45050565b6001600160a01b038216611fc65760405162461bcd60e51b815260206004820181905260248201527f4552433732313a206d696e7420746f20746865207a65726f206164647265737360448201526064016106dc565b611fcf8161120f565b1561201c5760405162461bcd60e51b815260206004820152601c60248201527f4552433732313a20746f6b656e20616c7265616479206d696e7465640000000060448201526064016106dc565b61202860008383611aaa565b6001600160a01b03821660009081526068602052604081208054600192906120519084906128a0565b909155505060008181526067602052604080822080546001600160a01b0319166001600160a01b03861690811790915590518392907fddf252ad1be2c89b69c2b068fc378daa952ba7f163c4a11628f55a4df523b3ef908290a45050565b6060816120d35750506040805180820190915260018152600360fc1b602082015290565b8160005b81156120fd57806120e78161294a565b91506120f69050600a836128b8565b91506120d7565b60008167ffffffffffffffff811115612118576121186129bb565b6040519080825280601f01601f191660200182016040528015612142576020820181803683370190505b5090505b841561137c576121576001836128cc565b9150612164600a86612965565b61216f9060306128a0565b60f81b818381518110612184576121846129a5565b60200101906001600160f81b031916908160001a9053506121a6600a866128b8565b9450612146565b8280546121b99061290f565b90600052602060002090601f0160209004810192826121db5760008555612221565b82601f106121f457805160ff1916838001178555612221565b82800160010185558215612221579182015b82811115612221578251825591602001919060010190612206565b5061222d929150612267565b5090565b50805461223d9061290f565b6000825580601f1061224d575050565b601f0160209004906000526020600020908101906109cf91905b5b8082111561222d5760008155600101612268565b80356001600160a01b038116811461229357600080fd5b919050565b60008083601f8401126122aa57600080fd5b50813567ffffffffffffffff8111156122c257600080fd5b6020830191508360208285010111156122da57600080fd5b9250929050565b6000602082840312156122f357600080fd5b611ec28261227c565b6000806040838503121561230f57600080fd5b6123188361227c565b91506123266020840161227c565b90509250929050565b60008060006060848603121561234457600080fd5b61234d8461227c565b925061235b6020850161227c565b9150604084013590509250925092565b6000806000806080858703121561238157600080fd5b61238a8561227c565b93506123986020860161227c565b925060408501359150606085013567ffffffffffffffff808211156123bc57600080fd5b818701915087601f8301126123d057600080fd5b8135818111156123e2576123e26129bb565b604051601f8201601f19908116603f0116810190838211818310171561240a5761240a6129bb565b816040528281528a602084870101111561242357600080fd5b82602086016020830137600060208483010152809550505050505092959194509250565b6000806040838503121561245a57600080fd5b6124638361227c565b91506020830135801515811461247857600080fd5b809150509250929050565b6000806040838503121561249657600080fd5b61249f8361227c565b946020939093013593505050565b600080602083850312156124c057600080fd5b823567ffffffffffffffff808211156124d857600080fd5b818501915085601f8301126124ec57600080fd5b8135818111156124fb57600080fd5b8660208260051b850101111561251057600080fd5b60209290920196919550909350505050565b60006020828403121561253457600080fd5b8135611ec2816129d1565b60006020828403121561255157600080fd5b8151611ec2816129d1565b6000806000806040858703121561257257600080fd5b843567ffffffffffffffff8082111561258a57600080fd5b61259688838901612298565b909650945060208701359150808211156125af57600080fd5b506125bc87828801612298565b95989497509550505050565b6000602082840312156125da57600080fd5b5035919050565b600080604083850312156125f457600080fd5b823591506123266020840161227c565b6000815180845261261c8160208601602086016128e3565b601f01601f19169290920160200192915050565b600083516126428184602088016128e3565b8351908301906126568183602088016128e3565b01949350505050565b6001600160a01b038581168252841660208201526040810183905260806060820181905260009061269290830184612604565b9695505050505050565b60006020808301818452808551808352604092508286019150828160051b87010184880160005b8381101561271857603f19898403018552815160608151855288820151818a8701526126f182870182612604565b928901516001600160a01b03169589019590955250948701949250908601906001016126c3565b509098975050505050505050565b6020808252825182820181905260009190848201906040850190845b8181101561275e57835183529284019291840191600101612742565b50909695505050505050565b602081526000611ec26020830184612604565b60208082526032908201527f4552433732313a207472616e7366657220746f206e6f6e20455243373231526560408201527131b2b4bb32b91034b6b83632b6b2b73a32b960711b606082015260800190565b6020808252818101527f4f776e61626c653a2063616c6c6572206973206e6f7420746865206f776e6572604082015260600190565b60208082526031908201527f4552433732313a207472616e736665722063616c6c6572206973206e6f74206f6040820152701ddb995c881b9bdc88185c1c1c9bdd9959607a1b606082015260800190565b6020808252602b908201527f496e697469616c697a61626c653a20636f6e7472616374206973206e6f74206960408201526a6e697469616c697a696e6760a81b606082015260800190565b600082198211156128b3576128b3612979565b500190565b6000826128c7576128c761298f565b500490565b6000828210156128de576128de612979565b500390565b60005b838110156128fe5781810151838201526020016128e6565b83811115610f5a5750506000910152565b600181811c9082168061292357607f821691505b6020821081141561294457634e487b7160e01b600052602260045260246000fd5b50919050565b600060001982141561295e5761295e612979565b5060010190565b6000826129745761297461298f565b500690565b634e487b7160e01b600052601160045260246000fd5b634e487b7160e01b600052601260045260246000fd5b634e487b7160e01b600052603260045260246000fd5b634e487b7160e01b600052604160045260246000fd5b6001600160e01b0319811681146109cf57600080fdfea264697066735822122051e9f5687d5c109d4526069288bdeb96314368ffa40bbcdb84f9de30cf9e970864736f6c63430008070033",
  "linkReferences": {},
  "deployedLinkReferences": {}
}