{
  "_format": "hh-sol-artifact-1",
  "contractName": "Channels",
  "sourceName": "contracts/Channels.sol",
  "abi": [
    {
      "inputs": [
        {
          "internalType": "address",
          "name": "_masterContract",
          "type": "address"
        }
      ],
      "stateMutability": "nonpayable",
      "type": "constructor"
    },
    {
      "anonymous": false,
      "inputs": [
        {
          "indexed": true,
          "internalType": "address",
          "name": "owner",
          "type": "address"
        },
        {
          "indexed": true,
          "internalType": "address",
          "name": "approved",
          "type": "address"
        },
        {
          "indexed": true,
          "internalType": "uint256",
          "name": "tokenId",
          "type": "uint256"
        }
      ],
      "name": "Approval",
      "type": "event"
    },
    {
      "anonymous": false,
      "inputs": [
        {
          "indexed": true,
          "internalType": "address",
          "name": "owner",
          "type": "address"
        },
        {
          "indexed": true,
          "internalType": "address",
          "name": "operator",
          "type": "address"
        },
        {
          "indexed": false,
          "internalType": "bool",
          "name": "approved",
          "type": "bool"
        }
      ],
      "name": "ApprovalForAll",
      "type": "event"
    },
    {
      "anonymous": false,
      "inputs": [
        {
          "indexed": false,
          "internalType": "address",
          "name": "sender",
          "type": "address"
        },
        {
          "indexed": false,
          "internalType": "uint256",
          "name": "tokenId",
          "type": "uint256"
        }
      ],
      "name": "NewReceptionChannelMinted",
      "type": "event"
    },
    {
      "anonymous": false,
      "inputs": [
        {
          "indexed": true,
          "internalType": "address",
          "name": "previousOwner",
          "type": "address"
        },
        {
          "indexed": true,
          "internalType": "address",
          "name": "newOwner",
          "type": "address"
        }
      ],
      "name": "OwnershipTransferred",
      "type": "event"
    },
    {
      "anonymous": false,
      "inputs": [
        {
          "indexed": false,
          "internalType": "address",
          "name": "account",
          "type": "address"
        }
      ],
      "name": "Paused",
      "type": "event"
    },
    {
      "anonymous": false,
      "inputs": [
        {
          "indexed": true,
          "internalType": "address",
          "name": "from",
          "type": "address"
        },
        {
          "indexed": true,
          "internalType": "address",
          "name": "to",
          "type": "address"
        },
        {
          "indexed": true,
          "internalType": "uint256",
          "name": "tokenId",
          "type": "uint256"
        }
      ],
      "name": "Transfer",
      "type": "event"
    },
    {
      "anonymous": false,
      "inputs": [
        {
          "indexed": false,
          "internalType": "address",
          "name": "account",
          "type": "address"
        }
      ],
      "name": "Unpaused",
      "type": "event"
    },
    {
      "inputs": [
        {
          "internalType": "uint256",
          "name": "tokenId",
          "type": "uint256"
        }
      ],
      "name": "_ownerOf",
      "outputs": [],
      "stateMutability": "view",
      "type": "function"
    },
    {
      "inputs": [
        {
          "internalType": "address",
          "name": "to",
          "type": "address"
        },
        {
          "internalType": "uint256",
          "name": "tokenId",
          "type": "uint256"
        }
      ],
      "name": "approve",
      "outputs": [],
      "stateMutability": "nonpayable",
      "type": "function"
    },
    {
      "inputs": [
        {
          "internalType": "address",
          "name": "owner",
          "type": "address"
        }
      ],
      "name": "balanceOf",
      "outputs": [
        {
          "internalType": "uint256",
          "name": "",
          "type": "uint256"
        }
      ],
      "stateMutability": "view",
      "type": "function"
    },
    {
      "inputs": [
        {
          "internalType": "uint256",
          "name": "tokenId",
          "type": "uint256"
        }
      ],
      "name": "burn",
      "outputs": [],
      "stateMutability": "nonpayable",
      "type": "function"
    },
    {
      "inputs": [],
      "name": "cost",
      "outputs": [
        {
          "internalType": "uint256",
          "name": "",
          "type": "uint256"
        }
      ],
      "stateMutability": "view",
      "type": "function"
    },
    {
      "inputs": [
        {
          "internalType": "uint256",
          "name": "tokenId",
          "type": "uint256"
        }
      ],
      "name": "getApproved",
      "outputs": [
        {
          "internalType": "address",
          "name": "",
          "type": "address"
        }
      ],
      "stateMutability": "view",
      "type": "function"
    },
    {
      "inputs": [],
      "name": "getCurrentIndex",
      "outputs": [
        {
          "internalType": "uint256",
          "name": "",
          "type": "uint256"
        }
      ],
      "stateMutability": "view",
      "type": "function"
    },
    {
      "inputs": [
        {
          "internalType": "address",
          "name": "ownerId",
          "type": "address"
        }
      ],
      "name": "getOwnerChannelIds",
      "outputs": [
        {
          "internalType": "uint256[]",
          "name": "",
          "type": "uint256[]"
        }
      ],
      "stateMutability": "view",
      "type": "function"
    },
    {
      "inputs": [
        {
          "internalType": "uint256[]",
          "name": "channelIds",
          "type": "uint256[]"
        }
      ],
      "name": "getOwnerChannelList",
      "outputs": [
        {
          "components": [
            {
              "internalType": "uint256",
              "name": "tokenIndex",
              "type": "uint256"
            },
            {
              "internalType": "string",
              "name": "channelName",
              "type": "string"
            },
            {
              "internalType": "address",
              "name": "membershipToken",
              "type": "address"
            },
            {
              "internalType": "string",
              "name": "author",
              "type": "string"
            },
            {
              "internalType": "string",
              "name": "copyright",
              "type": "string"
            },
            {
              "internalType": "string",
              "name": "language",
              "type": "string"
            }
          ],
          "internalType": "struct Structs.Channel[]",
          "name": "",
          "type": "tuple[]"
        }
      ],
      "stateMutability": "view",
      "type": "function"
    },
    {
      "inputs": [
        {
          "internalType": "address",
          "name": "_masterContract",
          "type": "address"
        }
      ],
      "name": "initialize",
      "outputs": [],
      "stateMutability": "nonpayable",
      "type": "function"
    },
    {
      "inputs": [
        {
          "internalType": "address",
          "name": "owner",
          "type": "address"
        },
        {
          "internalType": "address",
          "name": "operator",
          "type": "address"
        }
      ],
      "name": "isApprovedForAll",
      "outputs": [
        {
          "internalType": "bool",
          "name": "",
          "type": "bool"
        }
      ],
      "stateMutability": "view",
      "type": "function"
    },
    {
      "inputs": [],
      "name": "name",
      "outputs": [
        {
          "internalType": "string",
          "name": "",
          "type": "string"
        }
      ],
      "stateMutability": "view",
      "type": "function"
    },
    {
      "inputs": [],
      "name": "owner",
      "outputs": [
        {
          "internalType": "address",
          "name": "",
          "type": "address"
        }
      ],
      "stateMutability": "view",
      "type": "function"
    },
    {
      "inputs": [
        {
          "internalType": "uint256",
          "name": "tokenId",
          "type": "uint256"
        }
      ],
      "name": "ownerOf",
      "outputs": [
        {
          "internalType": "address",
          "name": "",
          "type": "address"
        }
      ],
      "stateMutability": "view",
      "type": "function"
    },
    {
      "inputs": [],
      "name": "pause",
      "outputs": [],
      "stateMutability": "nonpayable",
      "type": "function"
    },
    {
      "inputs": [],
      "name": "paused",
      "outputs": [
        {
          "internalType": "bool",
          "name": "",
          "type": "bool"
        }
      ],
      "stateMutability": "view",
      "type": "function"
    },
    {
      "inputs": [],
      "name": "renounceOwnership",
      "outputs": [],
      "stateMutability": "nonpayable",
      "type": "function"
    },
    {
      "inputs": [
        {
          "internalType": "string",
          "name": "channelName",
          "type": "string"
        },
        {
          "internalType": "string",
          "name": "channelUri",
          "type": "string"
        },
        {
          "internalType": "address",
          "name": "to",
          "type": "address"
        },
        {
          "internalType": "string",
          "name": "author",
          "type": "string"
        },
        {
          "internalType": "string",
          "name": "copyright",
          "type": "string"
        },
        {
          "internalType": "string",
          "name": "language",
          "type": "string"
        }
      ],
      "name": "safeMint",
      "outputs": [],
      "stateMutability": "payable",
      "type": "function"
    },
    {
      "inputs": [
        {
          "internalType": "address",
          "name": "from",
          "type": "address"
        },
        {
          "internalType": "address",
          "name": "to",
          "type": "address"
        },
        {
          "internalType": "uint256",
          "name": "tokenId",
          "type": "uint256"
        }
      ],
      "name": "safeTransferFrom",
      "outputs": [],
      "stateMutability": "nonpayable",
      "type": "function"
    },
    {
      "inputs": [
        {
          "internalType": "address",
          "name": "from",
          "type": "address"
        },
        {
          "internalType": "address",
          "name": "to",
          "type": "address"
        },
        {
          "internalType": "uint256",
          "name": "tokenId",
          "type": "uint256"
        },
        {
          "internalType": "bytes",
          "name": "_data",
          "type": "bytes"
        }
      ],
      "name": "safeTransferFrom",
      "outputs": [],
      "stateMutability": "nonpayable",
      "type": "function"
    },
    {
      "inputs": [
        {
          "internalType": "address",
          "name": "operator",
          "type": "address"
        },
        {
          "internalType": "bool",
          "name": "approved",
          "type": "bool"
        }
      ],
      "name": "setApprovalForAll",
      "outputs": [],
      "stateMutability": "nonpayable",
      "type": "function"
    },
    {
      "inputs": [
        {
          "internalType": "bytes4",
          "name": "interfaceId",
          "type": "bytes4"
        }
      ],
      "name": "supportsInterface",
      "outputs": [
        {
          "internalType": "bool",
          "name": "",
          "type": "bool"
        }
      ],
      "stateMutability": "view",
      "type": "function"
    },
    {
      "inputs": [],
      "name": "symbol",
      "outputs": [
        {
          "internalType": "string",
          "name": "",
          "type": "string"
        }
      ],
      "stateMutability": "view",
      "type": "function"
    },
    {
      "inputs": [
        {
          "internalType": "uint256",
          "name": "tokenId",
          "type": "uint256"
        }
      ],
      "name": "tokenURI",
      "outputs": [
        {
          "internalType": "string",
          "name": "",
          "type": "string"
        }
      ],
      "stateMutability": "view",
      "type": "function"
    },
    {
      "inputs": [
        {
          "internalType": "address",
          "name": "from",
          "type": "address"
        },
        {
          "internalType": "address",
          "name": "to",
          "type": "address"
        },
        {
          "internalType": "uint256",
          "name": "tokenId",
          "type": "uint256"
        }
      ],
      "name": "transferFrom",
      "outputs": [],
      "stateMutability": "nonpayable",
      "type": "function"
    },
    {
      "inputs": [
        {
          "internalType": "address",
          "name": "newOwner",
          "type": "address"
        }
      ],
      "name": "transferOwnership",
      "outputs": [],
      "stateMutability": "nonpayable",
      "type": "function"
    },
    {
      "inputs": [],
      "name": "unpause",
      "outputs": [],
      "stateMutability": "nonpayable",
      "type": "function"
    },
    {
      "inputs": [
        {
          "internalType": "address",
          "name": "from",
          "type": "address"
        },
        {
          "internalType": "uint256",
          "name": "tokenId",
          "type": "uint256"
        },
        {
          "internalType": "string",
          "name": "channelName",
          "type": "string"
        },
        {
          "internalType": "string",
          "name": "author",
          "type": "string"
        },
        {
          "internalType": "string",
          "name": "copyright",
          "type": "string"
        },
        {
          "internalType": "string",
          "name": "language",
          "type": "string"
        }
      ],
      "name": "updateChannelDetails",
      "outputs": [
        {
          "internalType": "bool",
          "name": "",
          "type": "bool"
        }
      ],
      "stateMutability": "nonpayable",
      "type": "function"
    },
    {
      "inputs": [
        {
          "internalType": "uint256",
          "name": "tokenId",
          "type": "uint256"
        }
      ],
      "name": "uri",
      "outputs": [
        {
          "internalType": "string",
          "name": "",
          "type": "string"
        }
      ],
      "stateMutability": "view",
      "type": "function"
    },
    {
      "inputs": [],
      "name": "withdrawBalance",
      "outputs": [],
      "stateMutability": "nonpayable",
      "type": "function"
    }
  ],
  "bytecode": "0x6080604052650246139ca800610161553480156200001c57600080fd5b50604051620032df380380620032df8339810160408190526200003f9162000130565b600054610100900460ff166200005c5760005460ff161562000066565b620000666200010c565b620000ce5760405162461bcd60e51b815260206004820152602e60248201527f496e697469616c697a61626c653a20636f6e747261637420697320616c72656160448201526d191e481a5b9a5d1a585b1a5e995960921b606482015260840160405180910390fd5b600054610100900460ff16158015620000f1576000805461ffff19166101011790555b801562000104576000805461ff00191690555b505062000162565b600062000124306200012a60201b620016181760201c565b15905090565b3b151590565b6000602082840312156200014357600080fd5b81516001600160a01b03811681146200015b57600080fd5b9392505050565b61316d80620001726000396000f3fe6080604052600436106101cd5760003560e01c80636352211e116100f7578063a22cb46511610095578063d0f48ec711610064578063d0f48ec7146104ef578063e985e9c51461051c578063f2fde38b14610565578063f631e6781461058557600080fd5b8063a22cb4651461046f578063b88d4fde1461048f578063c4d66de8146104af578063c87b56dd146104cf57600080fd5b806381c83f3d116100d157806381c83f3d146104145780638456cb59146104275780638da5cb5b1461043c57806395d89b411461045a57600080fd5b80636352211e146103bf57806370a08231146103df578063715018a6146103ff57600080fd5b80631f2becf21161016f57806342842e0e1161013e57806342842e0e1461035257806342966c68146103725780635c975abb146103925780635fd8c710146103aa57600080fd5b80631f2becf2146102dd57806323b872dd146102fd578063383505411461031d5780633f4ba83a1461033d57600080fd5b8063095ea7b3116101ab578063095ea7b3146102615780630d9005ae146102835780630e89341c146102a657806313faede6146102c657600080fd5b806301ffc9a7146101d257806306fdde0314610207578063081812fc14610229575b600080fd5b3480156101de57600080fd5b506101f26101ed366004612b77565b6105b2565b60405190151581526020015b60405180910390f35b34801561021357600080fd5b5061021c610604565b6040516101fe9190612e87565b34801561023557600080fd5b50610249610244366004612cb5565b610696565b6040516001600160a01b0390911681526020016101fe565b34801561026d57600080fd5b5061028161027c3660046129f7565b610723565b005b34801561028f57600080fd5b50610298610839565b6040519081526020016101fe565b3480156102b257600080fd5b5061021c6102c1366004612cb5565b610856565b3480156102d257600080fd5b506102986101615481565b3480156102e957600080fd5b506101f26102f8366004612a21565b6108f9565b34801561030957600080fd5b506102816103183660046128a3565b610a18565b34801561032957600080fd5b50610281610338366004612cb5565b610a4a565b34801561034957600080fd5b50610281610a57565b34801561035e57600080fd5b5061028161036d3660046128a3565b610a8b565b34801561037e57600080fd5b5061028161038d366004612cb5565b610aa6565b34801561039e57600080fd5b5060c95460ff166101f2565b3480156103b657600080fd5b50610281610b20565b3480156103cb57600080fd5b506102496103da366004612cb5565b610bdd565b3480156103eb57600080fd5b506102986103fa366004612855565b610c54565b34801561040b57600080fd5b50610281610cdb565b610281610422366004612bb1565b610d0f565b34801561043357600080fd5b5061028161102c565b34801561044857600080fd5b5060fb546001600160a01b0316610249565b34801561046657600080fd5b5061021c61105e565b34801561047b57600080fd5b5061028161048a3660046129bb565b61106d565b34801561049b57600080fd5b506102816104aa3660046128df565b611078565b3480156104bb57600080fd5b506102816104ca366004612855565b6110b0565b3480156104db57600080fd5b5061021c6104ea366004612cb5565b61121d565b3480156104fb57600080fd5b5061050f61050a366004612855565b611228565b6040516101fe9190612e43565b34801561052857600080fd5b506101f2610537366004612870565b6001600160a01b039182166000908152606a6020908152604080832093909416825291909152205460ff1690565b34801561057157600080fd5b50610281610580366004612855565b61129a565b34801561059157600080fd5b506105a56105a0366004612b02565b611332565b6040516101fe9190612d66565b60006001600160e01b031982166380ac58cd60e01b14806105e357506001600160e01b03198216635b5e139f60e01b145b806105fe57506301ffc9a760e01b6001600160e01b03198316145b92915050565b6060606580546106139061305f565b80601f016020809104026020016040519081016040528092919081815260200182805461063f9061305f565b801561068c5780601f106106615761010080835404028352916020019161068c565b820191906000526020600020905b81548152906001019060200180831161066f57829003601f168201915b5050505050905090565b60006106a18261161e565b6107075760405162461bcd60e51b815260206004820152602c60248201527f4552433732313a20617070726f76656420717565727920666f72206e6f6e657860448201526b34b9ba32b73a103a37b5b2b760a11b60648201526084015b60405180910390fd5b506000908152606960205260409020546001600160a01b031690565b600061072e82610bdd565b9050806001600160a01b0316836001600160a01b0316141561079c5760405162461bcd60e51b815260206004820152602160248201527f4552433732313a20617070726f76616c20746f2063757272656e74206f776e656044820152603960f91b60648201526084016106fe565b336001600160a01b03821614806107b857506107b88133610537565b61082a5760405162461bcd60e51b815260206004820152603860248201527f4552433732313a20617070726f76652063616c6c6572206973206e6f74206f7760448201527f6e6572206e6f7220617070726f76656420666f7220616c6c000000000000000060648201526084016106fe565b610834838361163b565b505050565b6000600161084761015f5490565b610851919061301c565b905090565b6000818152610160602052604090208054606091906108749061305f565b80601f01602080910402602001604051908101604052809291908181526020018280546108a09061305f565b80156108ed5780601f106108c2576101008083540402835291602001916108ed565b820191906000526020600020905b8154815290600101906020018083116108d057829003601f168201915b50505050509050919050565b6000806109058b610bdd565b9050806001600160a01b03168c6001600160a01b03161461098e5760405162461bcd60e51b815260206004820152603760248201527f596f75206d75737420626520746865206368616e6e656c206f776e657220746f60448201527f206d6f64696679206368616e6e656c2064657461696c7300000000000000000060648201526084016106fe565b60008b8152610163602052604090206109ab906001018b8b6126ad565b5060008b8152610163602052604090206109c99060030189896126ad565b5060008b8152610163602052604090206109e79060040187876126ad565b5060008b815261016360205260409020610a059060050185856126ad565b5060019c9b505050505050505050505050565b610a23335b826116a9565b610a3f5760405162461bcd60e51b81526004016106fe90612f54565b610834838383611793565b610a5381610bdd565b5050565b60fb546001600160a01b03163314610a815760405162461bcd60e51b81526004016106fe90612f1f565b610a8961193e565b565b61083483838360405180602001604052806000815250611078565b610aaf33610a1d565b610b145760405162461bcd60e51b815260206004820152603060248201527f4552433732314275726e61626c653a2063616c6c6572206973206e6f74206f7760448201526f1b995c881b9bdc88185c1c1c9bdd995960821b60648201526084016106fe565b610b1d816119d1565b50565b60fb546001600160a01b03163314610b4a5760405162461bcd60e51b81526004016106fe90612f1f565b60405133904790600090839083908381818185875af1925050503d8060008114610b90576040519150601f19603f3d011682016040523d82523d6000602084013e610b95565b606091505b50509050806108345760405162461bcd60e51b81526020600482015260146024820152734661696c656420746f2073656e64204d4154494360601b60448201526064016106fe565b6000818152606760205260408120546001600160a01b0316806105fe5760405162461bcd60e51b815260206004820152602960248201527f4552433732313a206f776e657220717565727920666f72206e6f6e657869737460448201526832b73a103a37b5b2b760b91b60648201526084016106fe565b60006001600160a01b038216610cbf5760405162461bcd60e51b815260206004820152602a60248201527f4552433732313a2062616c616e636520717565727920666f7220746865207a65604482015269726f206164647265737360b01b60648201526084016106fe565b506001600160a01b031660009081526068602052604090205490565b60fb546001600160a01b03163314610d055760405162461bcd60e51b81526004016106fe90612f1f565b610a8960006119da565b610d4f6040518060400160405280600c81526020016b18da185b9b995b081b5a5b9d60a21b815250610d4960fb546001600160a01b031690565b33611a2c565b6000610d5b61015f5490565b9050610d6c61015f80546001019055565b600061016260008a6001600160a01b03166001600160a01b03168152602001908152602001600020905060006040518060c001604052808481526020018f8f8080601f016020809104026020016040519081016040528093929190818152602001838380828437600092018290525093855250505060208083019190915260408051601f8d0183900483028101830182528c8152920191908c908c9081908401838280828437600092019190915250505090825250604080516020601f8b0181900481028201810190925289815291810191908a908a9081908401838280828437600092019190915250505090825250604080516020601f890181900481028201810190925287815291810191908890889081908401838280828437600092018290525093909452505085815261016360209081526040909120835181558184015180519495508594919350610ec9926001850192910190612731565b5060408201516002820180546001600160a01b0319166001600160a01b0390921691909117905560608201518051610f0b916003840191602090910190612731565b5060808201518051610f27916004840191602090910190612731565b5060a08201518051610f43916005840191602090910190612731565b50508254600085815260018501602052604090205550610f638a84611a73565b60408051338152602081018590527ff7002ef39331d6d9bb9b8d7104e055abc56bd611801468bd10a4e995f988e746910160405180910390a1610fdc838d8d8080601f016020809104026020016040519081016040528093929190818152602001838380828437600092019190915250611a8d92505050565b61101c838d8d8080601f016020809104026020016040519081016040528093929190818152602001838380828437600092019190915250611b1692505050565b5050505050505050505050505050565b60fb546001600160a01b031633146110565760405162461bcd60e51b81526004016106fe90612f1f565b610a89611ba1565b6060606680546106139061305f565b610a53338383611c1c565b61108233836116a9565b61109e5760405162461bcd60e51b81526004016106fe90612f54565b6110aa84848484611ceb565b50505050565b600054610100900460ff166110cb5760005460ff16156110cf565b303b155b6111325760405162461bcd60e51b815260206004820152602e60248201527f496e697469616c697a61626c653a20636f6e747261637420697320616c72656160448201526d191e481a5b9a5d1a585b1a5e995960921b60648201526084016106fe565b600054610100900460ff16158015611154576000805461ffff19166101011790555b6111a46040518060400160405280600b81526020016a15195cdd10da185b9b995b60aa1b8152506040518060400160405280600b81526020016a1d195cdd10d2105393915360aa1b815250611d1e565b6111ac611d5f565b6111b4611d9e565b6111bc611dd5565b6111c4611d5f565b6111cd8261129a565b61120860405180604001604052806007815260200166037bbb732b91d160cd1b81525061120260fb546001600160a01b031690565b84611a2c565b8015610a53576000805461ff00191690555050565b60606105fe82611e0c565b6001600160a01b038116600090815261016260209081526040918290208054835181840281018401909452808452606093919283919083018282801561128d57602002820191906000526020600020905b815481526020019060010190808311611279575b5050505050915050919050565b60fb546001600160a01b031633146112c45760405162461bcd60e51b81526004016106fe90612f1f565b6001600160a01b0381166113295760405162461bcd60e51b815260206004820152602660248201527f4f776e61626c653a206e6577206f776e657220697320746865207a65726f206160448201526564647265737360d01b60648201526084016106fe565b610b1d816119da565b60608060005b83811015611610576101636000868684818110611357576113576130f5565b9050602002013581526020019081526020016000206040518060c0016040529081600082015481526020016001820180546113919061305f565b80601f01602080910402602001604051908101604052809291908181526020018280546113bd9061305f565b801561140a5780601f106113df5761010080835404028352916020019161140a565b820191906000526020600020905b8154815290600101906020018083116113ed57829003601f168201915b505050918352505060028201546001600160a01b0316602082015260038201805460409092019161143a9061305f565b80601f01602080910402602001604051908101604052809291908181526020018280546114669061305f565b80156114b35780601f10611488576101008083540402835291602001916114b3565b820191906000526020600020905b81548152906001019060200180831161149657829003601f168201915b505050505081526020016004820180546114cc9061305f565b80601f01602080910402602001604051908101604052809291908181526020018280546114f89061305f565b80156115455780601f1061151a57610100808354040283529160200191611545565b820191906000526020600020905b81548152906001019060200180831161152857829003601f168201915b5050505050815260200160058201805461155e9061305f565b80601f016020809104026020016040519081016040528092919081815260200182805461158a9061305f565b80156115d75780601f106115ac576101008083540402835291602001916115d7565b820191906000526020600020905b8154815290600101906020018083116115ba57829003601f168201915b5050505050815250508282815181106115f2576115f26130f5565b602002602001018190525080806116089061309a565b915050611338565b509392505050565b3b151590565b6000908152606760205260409020546001600160a01b0316151590565b600081815260696020526040902080546001600160a01b0319166001600160a01b038416908117909155819061167082610bdd565b6001600160a01b03167f8c5be1e5ebec7d5bd14f71427d1e84f3dd0314c0f7b2291e5b200ac8c7c3b92560405160405180910390a45050565b60006116b48261161e565b6117155760405162461bcd60e51b815260206004820152602c60248201527f4552433732313a206f70657261746f7220717565727920666f72206e6f6e657860448201526b34b9ba32b73a103a37b5b2b760a11b60648201526084016106fe565b600061172083610bdd565b9050806001600160a01b0316846001600160a01b0316148061175b5750836001600160a01b031661175084610696565b6001600160a01b0316145b8061178b57506001600160a01b038082166000908152606a602090815260408083209388168352929052205460ff165b949350505050565b826001600160a01b03166117a682610bdd565b6001600160a01b03161461180e5760405162461bcd60e51b815260206004820152602960248201527f4552433732313a207472616e73666572206f6620746f6b656e2074686174206960448201526839903737ba1037bbb760b91b60648201526084016106fe565b6001600160a01b0382166118705760405162461bcd60e51b8152602060048201526024808201527f4552433732313a207472616e7366657220746f20746865207a65726f206164646044820152637265737360e01b60648201526084016106fe565b61187b838383611f89565b61188660008261163b565b6001600160a01b03831660009081526068602052604081208054600192906118af90849061301c565b90915550506001600160a01b03821660009081526068602052604081208054600192906118dd908490612ff0565b909155505060008181526067602052604080822080546001600160a01b0319166001600160a01b0386811691821790925591518493918716917fddf252ad1be2c89b69c2b068fc378daa952ba7f163c4a11628f55a4df523b3ef91a4505050565b60c95460ff166119875760405162461bcd60e51b815260206004820152601460248201527314185d5cd8589b194e881b9bdd081c185d5cd95960621b60448201526064016106fe565b60c9805460ff191690557f5db9ee0a495bf2e6ff9c91a7834c1ba4fdd244a5e8aa4e537bd38aeae4b073aa335b6040516001600160a01b03909116815260200160405180910390a1565b610b1d8161206a565b60fb80546001600160a01b038381166001600160a01b0319831681179093556040519116919082907f8be0079c531659141344cd1fd0a4f28419497f9722a3daafe3b4186f6b6457e090600090a35050565b610834838383604051602401611a4493929190612e9a565b60408051601f198184030181529190526020810180516001600160e01b03166307e763af60e51b1790526120aa565b610a538282604051806020016040528060008152506120cb565b6000828152610160602052604090208054611aa79061305f565b159050611af65760405162461bcd60e51b815260206004820152601a60248201527f43616e6e6f74206d6f64696679206578697374696e672075726900000000000060448201526064016106fe565b600082815261016060209081526040909120825161083492840190612731565b611b1f8261161e565b611b825760405162461bcd60e51b815260206004820152602e60248201527f45524337323155524953746f726167653a2055524920736574206f66206e6f6e60448201526d32bc34b9ba32b73a103a37b5b2b760911b60648201526084016106fe565b6000828152609760209081526040909120825161083492840190612731565b60c95460ff1615611be75760405162461bcd60e51b815260206004820152601060248201526f14185d5cd8589b194e881c185d5cd95960821b60448201526064016106fe565b60c9805460ff191660011790557f62e78cea01bee320cd4e420270b5ea74000d11b0c9f74754ebdbfc544b05a2586119b43390565b816001600160a01b0316836001600160a01b03161415611c7e5760405162461bcd60e51b815260206004820152601960248201527f4552433732313a20617070726f766520746f2063616c6c65720000000000000060448201526064016106fe565b6001600160a01b038381166000818152606a6020908152604080832094871680845294825291829020805460ff191686151590811790915591519182527f17307eab39ab6107e8899845ad3d59bd9653f200f220920489ca2b5937696c31910160405180910390a3505050565b611cf6848484611793565b611d02848484846120fe565b6110aa5760405162461bcd60e51b81526004016106fe90612ecd565b600054610100900460ff16611d455760405162461bcd60e51b81526004016106fe90612fa5565b611d4d61220b565b611d5561220b565b610a538282612232565b600054610100900460ff16611d865760405162461bcd60e51b81526004016106fe90612fa5565b611d8e61220b565b611d9661220b565b610a8961220b565b600054610100900460ff16611dc55760405162461bcd60e51b81526004016106fe90612fa5565b611dcd61220b565b610a89612280565b600054610100900460ff16611dfc5760405162461bcd60e51b81526004016106fe90612fa5565b611e0461220b565b610a896122b3565b6060611e178261161e565b611e7d5760405162461bcd60e51b815260206004820152603160248201527f45524337323155524953746f726167653a2055524920717565727920666f72206044820152703737b732bc34b9ba32b73a103a37b5b2b760791b60648201526084016106fe565b60008281526097602052604081208054611e969061305f565b80601f0160208091040260200160405190810160405280929190818152602001828054611ec29061305f565b8015611f0f5780601f10611ee457610100808354040283529160200191611f0f565b820191906000526020600020905b815481529060010190602001808311611ef257829003601f168201915b505050505090506000611f3b604080518082019091526006815265185cd9199cd960d21b602082015290565b9050805160001415611f4e575092915050565b815115611f80578082604051602001611f68929190612cfa565b60405160208183030381529060405292505050919050565b61178b846122e3565b60c95460ff1615611fcf5760405162461bcd60e51b815260206004820152601060248201526f14185d5cd8589b194e881c185d5cd95960821b60448201526064016106fe565b6001600160a01b03808416600090815261016260205260408082209285168252902081541561203d576000838152600183016020526040902054825483908290811061201d5761201d6130f5565b600091825260208083209091018290558582526001850190526040812055505b80546000848152600180840160209081526040832084905590830184558382529020018390555050505050565b612073816123c9565b6000818152609760205260409020805461208c9061305f565b159050610b1d576000818152609760205260408120610b1d916127a5565b80516a636f6e736f6c652e6c6f67602083016000808483855afa5050505050565b6120d58383612470565b6120e260008484846120fe565b6108345760405162461bcd60e51b81526004016106fe90612ecd565b60006001600160a01b0384163b1561220057604051630a85bd0160e11b81526001600160a01b0385169063150b7a0290612142903390899088908890600401612d29565b602060405180830381600087803b15801561215c57600080fd5b505af192505050801561218c575060408051601f3d908101601f1916820190925261218991810190612b94565b60015b6121e6573d8080156121ba576040519150601f19603f3d011682016040523d82523d6000602084013e6121bf565b606091505b5080516121de5760405162461bcd60e51b81526004016106fe90612ecd565b805181602001fd5b6001600160e01b031916630a85bd0160e11b14905061178b565b506001949350505050565b600054610100900460ff16610a895760405162461bcd60e51b81526004016106fe90612fa5565b600054610100900460ff166122595760405162461bcd60e51b81526004016106fe90612fa5565b815161226c906065906020850190612731565b508051610834906066906020840190612731565b600054610100900460ff166122a75760405162461bcd60e51b81526004016106fe90612fa5565b60c9805460ff19169055565b600054610100900460ff166122da5760405162461bcd60e51b81526004016106fe90612fa5565b610a89336119da565b60606122ee8261161e565b6123525760405162461bcd60e51b815260206004820152602f60248201527f4552433732314d657461646174613a2055524920717565727920666f72206e6f60448201526e3732bc34b9ba32b73a103a37b5b2b760891b60648201526084016106fe565b6000612377604080518082019091526006815265185cd9199cd960d21b602082015290565b9050600081511161239757604051806020016040528060008152506123c2565b806123a1846125af565b6040516020016123b2929190612cfa565b6040516020818303038152906040525b9392505050565b60006123d482610bdd565b90506123e281600084611f89565b6123ed60008361163b565b6001600160a01b038116600090815260686020526040812080546001929061241690849061301c565b909155505060008281526067602052604080822080546001600160a01b0319169055518391906001600160a01b038416907fddf252ad1be2c89b69c2b068fc378daa952ba7f163c4a11628f55a4df523b3ef908390a45050565b6001600160a01b0382166124c65760405162461bcd60e51b815260206004820181905260248201527f4552433732313a206d696e7420746f20746865207a65726f206164647265737360448201526064016106fe565b6124cf8161161e565b1561251c5760405162461bcd60e51b815260206004820152601c60248201527f4552433732313a20746f6b656e20616c7265616479206d696e7465640000000060448201526064016106fe565b61252860008383611f89565b6001600160a01b0382166000908152606860205260408120805460019290612551908490612ff0565b909155505060008181526067602052604080822080546001600160a01b0319166001600160a01b03861690811790915590518392907fddf252ad1be2c89b69c2b068fc378daa952ba7f163c4a11628f55a4df523b3ef908290a45050565b6060816125d35750506040805180820190915260018152600360fc1b602082015290565b8160005b81156125fd57806125e78161309a565b91506125f69050600a83613008565b91506125d7565b60008167ffffffffffffffff8111156126185761261861310b565b6040519080825280601f01601f191660200182016040528015612642576020820181803683370190505b5090505b841561178b5761265760018361301c565b9150612664600a866130b5565b61266f906030612ff0565b60f81b818381518110612684576126846130f5565b60200101906001600160f81b031916908160001a9053506126a6600a86613008565b9450612646565b8280546126b99061305f565b90600052602060002090601f0160209004810192826126db5760008555612721565b82601f106126f45782800160ff19823516178555612721565b82800160010185558215612721579182015b82811115612721578235825591602001919060010190612706565b5061272d9291506127db565b5090565b82805461273d9061305f565b90600052602060002090601f01602090048101928261275f5760008555612721565b82601f1061277857805160ff1916838001178555612721565b82800160010185558215612721579182015b8281111561272157825182559160200191906001019061278a565b5080546127b19061305f565b6000825580601f106127c1575050565b601f016020900490600052602060002090810190610b1d91905b5b8082111561272d57600081556001016127dc565b80356001600160a01b038116811461280757600080fd5b919050565b60008083601f84011261281e57600080fd5b50813567ffffffffffffffff81111561283657600080fd5b60208301915083602082850101111561284e57600080fd5b9250929050565b60006020828403121561286757600080fd5b6123c2826127f0565b6000806040838503121561288357600080fd5b61288c836127f0565b915061289a602084016127f0565b90509250929050565b6000806000606084860312156128b857600080fd5b6128c1846127f0565b92506128cf602085016127f0565b9150604084013590509250925092565b600080600080608085870312156128f557600080fd5b6128fe856127f0565b935061290c602086016127f0565b925060408501359150606085013567ffffffffffffffff8082111561293057600080fd5b818701915087601f83011261294457600080fd5b8135818111156129565761295661310b565b604051601f8201601f19908116603f0116810190838211818310171561297e5761297e61310b565b816040528281528a602084870101111561299757600080fd5b82602086016020830137600060208483010152809550505050505092959194509250565b600080604083850312156129ce57600080fd5b6129d7836127f0565b9150602083013580151581146129ec57600080fd5b809150509250929050565b60008060408385031215612a0a57600080fd5b612a13836127f0565b946020939093013593505050565b60008060008060008060008060008060c08b8d031215612a4057600080fd5b612a498b6127f0565b995060208b0135985060408b013567ffffffffffffffff80821115612a6d57600080fd5b612a798e838f0161280c565b909a50985060608d0135915080821115612a9257600080fd5b612a9e8e838f0161280c565b909850965060808d0135915080821115612ab757600080fd5b612ac38e838f0161280c565b909650945060a08d0135915080821115612adc57600080fd5b50612ae98d828e0161280c565b915080935050809150509295989b9194979a5092959850565b60008060208385031215612b1557600080fd5b823567ffffffffffffffff80821115612b2d57600080fd5b818501915085601f830112612b4157600080fd5b813581811115612b5057600080fd5b8660208260051b8501011115612b6557600080fd5b60209290920196919550909350505050565b600060208284031215612b8957600080fd5b81356123c281613121565b600060208284031215612ba657600080fd5b81516123c281613121565b600080600080600080600080600080600060c08c8e031215612bd257600080fd5b67ffffffffffffffff808d351115612be957600080fd5b612bf68e8e358f0161280c565b909c509a5060208d0135811015612c0c57600080fd5b612c1c8e60208f01358f0161280c565b909a509850612c2d60408e016127f0565b97508060608e01351115612c4057600080fd5b612c508e60608f01358f0161280c565b909750955060808d0135811015612c6657600080fd5b612c768e60808f01358f0161280c565b909550935060a08d0135811015612c8c57600080fd5b50612c9d8d60a08e01358e0161280c565b81935080925050509295989b509295989b9093969950565b600060208284031215612cc757600080fd5b5035919050565b60008151808452612ce6816020860160208601613033565b601f01601f19169290920160200192915050565b60008351612d0c818460208801613033565b835190830190612d20818360208801613033565b01949350505050565b6001600160a01b0385811682528416602082015260408101839052608060608201819052600090612d5c90830184612cce565b9695505050505050565b60006020808301818452808551808352604092508286019150828160051b87010184880160005b83811015612e3557603f19898403018552815160c08151855288820151818a870152612dbb82870182612cce565b838a01516001600160a01b0316878b0152606080850151888303828a01529193509150612de88382612cce565b9250505060808083015186830382880152612e038382612cce565b9250505060a08083015192508582038187015250612e218183612cce565b968901969450505090860190600101612d8d565b509098975050505050505050565b6020808252825182820181905260009190848201906040850190845b81811015612e7b57835183529284019291840191600101612e5f565b50909695505050505050565b6020815260006123c26020830184612cce565b606081526000612ead6060830186612cce565b6001600160a01b0394851660208401529290931660409091015292915050565b60208082526032908201527f4552433732313a207472616e7366657220746f206e6f6e20455243373231526560408201527131b2b4bb32b91034b6b83632b6b2b73a32b960711b606082015260800190565b6020808252818101527f4f776e61626c653a2063616c6c6572206973206e6f7420746865206f776e6572604082015260600190565b60208082526031908201527f4552433732313a207472616e736665722063616c6c6572206973206e6f74206f6040820152701ddb995c881b9bdc88185c1c1c9bdd9959607a1b606082015260800190565b6020808252602b908201527f496e697469616c697a61626c653a20636f6e7472616374206973206e6f74206960408201526a6e697469616c697a696e6760a81b606082015260800190565b60008219821115613003576130036130c9565b500190565b600082613017576130176130df565b500490565b60008282101561302e5761302e6130c9565b500390565b60005b8381101561304e578181015183820152602001613036565b838111156110aa5750506000910152565b600181811c9082168061307357607f821691505b6020821081141561309457634e487b7160e01b600052602260045260246000fd5b50919050565b60006000198214156130ae576130ae6130c9565b5060010190565b6000826130c4576130c46130df565b500690565b634e487b7160e01b600052601160045260246000fd5b634e487b7160e01b600052601260045260246000fd5b634e487b7160e01b600052603260045260246000fd5b634e487b7160e01b600052604160045260246000fd5b6001600160e01b031981168114610b1d57600080fdfea26469706673582212202dd17ae417f68c828a2828b5de39a6a961ed0eaa9544fd71e85835c45db4cf6e64736f6c63430008070033",
  "linkReferences": {},
  "deployedLinkReferences": {}
}