{
  "_format": "hh-sol-artifact-1",
  "contractName": "Channels",
  "sourceName": "contracts/Channels.sol",
  "abi": [
    {
      "inputs": [
        {
          "internalType": "address",
          "name": "_masterContract",
          "type": "address"
        }
      ],
      "stateMutability": "nonpayable",
      "type": "constructor"
    },
    {
      "anonymous": false,
      "inputs": [
        {
          "indexed": true,
          "internalType": "address",
          "name": "owner",
          "type": "address"
        },
        {
          "indexed": true,
          "internalType": "address",
          "name": "approved",
          "type": "address"
        },
        {
          "indexed": true,
          "internalType": "uint256",
          "name": "tokenId",
          "type": "uint256"
        }
      ],
      "name": "Approval",
      "type": "event"
    },
    {
      "anonymous": false,
      "inputs": [
        {
          "indexed": true,
          "internalType": "address",
          "name": "owner",
          "type": "address"
        },
        {
          "indexed": true,
          "internalType": "address",
          "name": "operator",
          "type": "address"
        },
        {
          "indexed": false,
          "internalType": "bool",
          "name": "approved",
          "type": "bool"
        }
      ],
      "name": "ApprovalForAll",
      "type": "event"
    },
    {
      "anonymous": false,
      "inputs": [
        {
          "indexed": false,
          "internalType": "address",
          "name": "sender",
          "type": "address"
        },
        {
          "indexed": false,
          "internalType": "uint256",
          "name": "tokenId",
          "type": "uint256"
        }
      ],
      "name": "NewReceptionChannelMinted",
      "type": "event"
    },
    {
      "anonymous": false,
      "inputs": [
        {
          "indexed": true,
          "internalType": "address",
          "name": "previousOwner",
          "type": "address"
        },
        {
          "indexed": true,
          "internalType": "address",
          "name": "newOwner",
          "type": "address"
        }
      ],
      "name": "OwnershipTransferred",
      "type": "event"
    },
    {
      "anonymous": false,
      "inputs": [
        {
          "indexed": false,
          "internalType": "address",
          "name": "account",
          "type": "address"
        }
      ],
      "name": "Paused",
      "type": "event"
    },
    {
      "anonymous": false,
      "inputs": [
        {
          "indexed": false,
          "internalType": "address",
          "name": "sender",
          "type": "address"
        }
      ],
      "name": "ReceptionProfileSet",
      "type": "event"
    },
    {
      "anonymous": false,
      "inputs": [
        {
          "indexed": true,
          "internalType": "address",
          "name": "from",
          "type": "address"
        },
        {
          "indexed": true,
          "internalType": "address",
          "name": "to",
          "type": "address"
        },
        {
          "indexed": true,
          "internalType": "uint256",
          "name": "tokenId",
          "type": "uint256"
        }
      ],
      "name": "Transfer",
      "type": "event"
    },
    {
      "anonymous": false,
      "inputs": [
        {
          "indexed": false,
          "internalType": "address",
          "name": "account",
          "type": "address"
        }
      ],
      "name": "Unpaused",
      "type": "event"
    },
    {
      "inputs": [
        {
          "internalType": "uint256",
          "name": "tokenId",
          "type": "uint256"
        }
      ],
      "name": "_ownerOf",
      "outputs": [],
      "stateMutability": "view",
      "type": "function"
    },
    {
      "inputs": [
        {
          "internalType": "address",
          "name": "to",
          "type": "address"
        },
        {
          "internalType": "uint256",
          "name": "tokenId",
          "type": "uint256"
        }
      ],
      "name": "approve",
      "outputs": [],
      "stateMutability": "nonpayable",
      "type": "function"
    },
    {
      "inputs": [
        {
          "internalType": "address",
          "name": "owner",
          "type": "address"
        }
      ],
      "name": "balanceOf",
      "outputs": [
        {
          "internalType": "uint256",
          "name": "",
          "type": "uint256"
        }
      ],
      "stateMutability": "view",
      "type": "function"
    },
    {
      "inputs": [
        {
          "internalType": "uint256",
          "name": "tokenId",
          "type": "uint256"
        }
      ],
      "name": "burn",
      "outputs": [],
      "stateMutability": "nonpayable",
      "type": "function"
    },
    {
      "inputs": [],
      "name": "cost",
      "outputs": [
        {
          "internalType": "uint256",
          "name": "",
          "type": "uint256"
        }
      ],
      "stateMutability": "view",
      "type": "function"
    },
    {
      "inputs": [
        {
          "internalType": "uint256",
          "name": "tokenId",
          "type": "uint256"
        }
      ],
      "name": "getApproved",
      "outputs": [
        {
          "internalType": "address",
          "name": "",
          "type": "address"
        }
      ],
      "stateMutability": "view",
      "type": "function"
    },
    {
      "inputs": [],
      "name": "getCurrentIndex",
      "outputs": [
        {
          "internalType": "uint256",
          "name": "",
          "type": "uint256"
        }
      ],
      "stateMutability": "view",
      "type": "function"
    },
    {
      "inputs": [
        {
          "internalType": "address",
          "name": "ownerId",
          "type": "address"
        }
      ],
      "name": "getOwnerChannelIds",
      "outputs": [
        {
          "internalType": "uint256[]",
          "name": "",
          "type": "uint256[]"
        }
      ],
      "stateMutability": "view",
      "type": "function"
    },
    {
      "inputs": [
        {
          "internalType": "address",
          "name": "to",
          "type": "address"
        }
      ],
      "name": "getProfileUri",
      "outputs": [
        {
          "internalType": "string",
          "name": "",
          "type": "string"
        }
      ],
      "stateMutability": "view",
      "type": "function"
    },
    {
      "inputs": [
        {
          "internalType": "address",
          "name": "_masterContract",
          "type": "address"
        }
      ],
      "name": "initialize",
      "outputs": [],
      "stateMutability": "nonpayable",
      "type": "function"
    },
    {
      "inputs": [
        {
          "internalType": "address",
          "name": "owner",
          "type": "address"
        },
        {
          "internalType": "address",
          "name": "operator",
          "type": "address"
        }
      ],
      "name": "isApprovedForAll",
      "outputs": [
        {
          "internalType": "bool",
          "name": "",
          "type": "bool"
        }
      ],
      "stateMutability": "view",
      "type": "function"
    },
    {
      "inputs": [],
      "name": "name",
      "outputs": [
        {
          "internalType": "string",
          "name": "",
          "type": "string"
        }
      ],
      "stateMutability": "view",
      "type": "function"
    },
    {
      "inputs": [],
      "name": "owner",
      "outputs": [
        {
          "internalType": "address",
          "name": "",
          "type": "address"
        }
      ],
      "stateMutability": "view",
      "type": "function"
    },
    {
      "inputs": [
        {
          "internalType": "uint256",
          "name": "tokenId",
          "type": "uint256"
        }
      ],
      "name": "ownerOf",
      "outputs": [
        {
          "internalType": "address",
          "name": "",
          "type": "address"
        }
      ],
      "stateMutability": "view",
      "type": "function"
    },
    {
      "inputs": [],
      "name": "pause",
      "outputs": [],
      "stateMutability": "nonpayable",
      "type": "function"
    },
    {
      "inputs": [],
      "name": "paused",
      "outputs": [
        {
          "internalType": "bool",
          "name": "",
          "type": "bool"
        }
      ],
      "stateMutability": "view",
      "type": "function"
    },
    {
      "inputs": [],
      "name": "renounceOwnership",
      "outputs": [],
      "stateMutability": "nonpayable",
      "type": "function"
    },
    {
      "inputs": [
        {
          "internalType": "string",
          "name": "channelUri",
          "type": "string"
        },
        {
          "internalType": "address",
          "name": "to",
          "type": "address"
        }
      ],
      "name": "safeMint",
      "outputs": [
        {
          "internalType": "uint256",
          "name": "",
          "type": "uint256"
        }
      ],
      "stateMutability": "payable",
      "type": "function"
    },
    {
      "inputs": [
        {
          "internalType": "address",
          "name": "from",
          "type": "address"
        },
        {
          "internalType": "address",
          "name": "to",
          "type": "address"
        },
        {
          "internalType": "uint256",
          "name": "tokenId",
          "type": "uint256"
        }
      ],
      "name": "safeTransferFrom",
      "outputs": [],
      "stateMutability": "nonpayable",
      "type": "function"
    },
    {
      "inputs": [
        {
          "internalType": "address",
          "name": "from",
          "type": "address"
        },
        {
          "internalType": "address",
          "name": "to",
          "type": "address"
        },
        {
          "internalType": "uint256",
          "name": "tokenId",
          "type": "uint256"
        },
        {
          "internalType": "bytes",
          "name": "_data",
          "type": "bytes"
        }
      ],
      "name": "safeTransferFrom",
      "outputs": [],
      "stateMutability": "nonpayable",
      "type": "function"
    },
    {
      "inputs": [
        {
          "internalType": "address",
          "name": "operator",
          "type": "address"
        },
        {
          "internalType": "bool",
          "name": "approved",
          "type": "bool"
        }
      ],
      "name": "setApprovalForAll",
      "outputs": [],
      "stateMutability": "nonpayable",
      "type": "function"
    },
    {
      "inputs": [
        {
          "internalType": "address",
          "name": "to",
          "type": "address"
        },
        {
          "internalType": "string",
          "name": "newUri",
          "type": "string"
        }
      ],
      "name": "setProfileUri",
      "outputs": [],
      "stateMutability": "nonpayable",
      "type": "function"
    },
    {
      "inputs": [
        {
          "internalType": "bytes4",
          "name": "interfaceId",
          "type": "bytes4"
        }
      ],
      "name": "supportsInterface",
      "outputs": [
        {
          "internalType": "bool",
          "name": "",
          "type": "bool"
        }
      ],
      "stateMutability": "view",
      "type": "function"
    },
    {
      "inputs": [],
      "name": "symbol",
      "outputs": [
        {
          "internalType": "string",
          "name": "",
          "type": "string"
        }
      ],
      "stateMutability": "view",
      "type": "function"
    },
    {
      "inputs": [
        {
          "internalType": "uint256",
          "name": "tokenId",
          "type": "uint256"
        }
      ],
      "name": "tokenURI",
      "outputs": [
        {
          "internalType": "string",
          "name": "",
          "type": "string"
        }
      ],
      "stateMutability": "view",
      "type": "function"
    },
    {
      "inputs": [
        {
          "internalType": "address",
          "name": "from",
          "type": "address"
        },
        {
          "internalType": "address",
          "name": "to",
          "type": "address"
        },
        {
          "internalType": "uint256",
          "name": "tokenId",
          "type": "uint256"
        }
      ],
      "name": "transferFrom",
      "outputs": [],
      "stateMutability": "nonpayable",
      "type": "function"
    },
    {
      "inputs": [
        {
          "internalType": "address",
          "name": "newOwner",
          "type": "address"
        }
      ],
      "name": "transferOwnership",
      "outputs": [],
      "stateMutability": "nonpayable",
      "type": "function"
    },
    {
      "inputs": [],
      "name": "unpause",
      "outputs": [],
      "stateMutability": "nonpayable",
      "type": "function"
    },
    {
      "inputs": [
        {
          "internalType": "uint256",
          "name": "tokenId",
          "type": "uint256"
        }
      ],
      "name": "uri",
      "outputs": [
        {
          "internalType": "string",
          "name": "",
          "type": "string"
        }
      ],
      "stateMutability": "view",
      "type": "function"
    },
    {
      "inputs": [],
      "name": "withdrawBalance",
      "outputs": [],
      "stateMutability": "nonpayable",
      "type": "function"
    }
  ],
  "bytecode": "0x6080604052650246139ca800610162553480156200001c57600080fd5b5060405162002d1d38038062002d1d8339810160408190526200003f91620006aa565b600054610100900460ff166200005c5760005460ff161562000066565b62000066620000d7565b6200008e5760405162461bcd60e51b815260040162000085906200075b565b60405180910390fd5b600054610100900460ff16158015620000b1576000805461ffff19166101011790555b620000bc82620000f5565b8015620000cf576000805461ff00191690555b505062000831565b6000620000ef306200025b60201b62000fec1760201c565b15905090565b600054610100900460ff16620001125760005460ff16156200011c565b6200011c620000d7565b6200013b5760405162461bcd60e51b815260040162000085906200075b565b600054610100900460ff161580156200015e576000805461ffff19166101011790555b620001b66040518060400160405280600b81526020016a15195cdd10da185b9b995b60aa1b8152506040518060400160405280600b81526020016a1d195cdd10d2105393915360aa1b8152506200026160201b60201c565b620001c0620002ab565b620001ca620002f5565b620001d462000333565b620001de620002ab565b620001e98262000371565b604080518082019091526007815266037bbb732b91d160cd1b602082015262000228906200021662000449565b846200045860201b62000ff21760201c565b61016480546001600160a01b0319166001600160a01b038416179055801562000257576000805461ff00191690555b5050565b3b151590565b600054610100900460ff166200028b5760405162461bcd60e51b81526004016200008590620007a9565b62000295620004ac565b6200029f620004ac565b620002578282620004d6565b600054610100900460ff16620002d55760405162461bcd60e51b81526004016200008590620007a9565b620002df620004ac565b620002e9620004ac565b620002f3620004ac565b565b600054610100900460ff166200031f5760405162461bcd60e51b81526004016200008590620007a9565b62000329620004ac565b620002f36200052b565b600054610100900460ff166200035d5760405162461bcd60e51b81526004016200008590620007a9565b62000367620004ac565b620002f362000561565b336200037c62000449565b6001600160a01b031614620003d45760405162461bcd60e51b815260206004820181905260248201527f4f776e61626c653a2063616c6c6572206973206e6f7420746865206f776e6572604482015260640162000085565b6001600160a01b0381166200043b5760405162461bcd60e51b815260206004820152602660248201527f4f776e61626c653a206e6577206f776e657220697320746865207a65726f206160448201526564647265737360d01b606482015260840162000085565b620004468162000591565b50565b60fb546001600160a01b031690565b620004a78383836040516024016200047393929190620006dc565b60408051601f198184030181529190526020810180516001600160e01b039081166307e763af60e51b17909152620005e316565b505050565b600054610100900460ff16620002f35760405162461bcd60e51b81526004016200008590620007a9565b600054610100900460ff16620005005760405162461bcd60e51b81526004016200008590620007a9565b81516200051590606590602085019062000604565b508051620004a790606690602084019062000604565b600054610100900460ff16620005555760405162461bcd60e51b81526004016200008590620007a9565b60c9805460ff19169055565b600054610100900460ff166200058b5760405162461bcd60e51b81526004016200008590620007a9565b620002f3335b60fb80546001600160a01b038381166001600160a01b0319831681179093556040519116919082907f8be0079c531659141344cd1fd0a4f28419497f9722a3daafe3b4186f6b6457e090600090a35050565b80516a636f6e736f6c652e6c6f67602083016000808483855afa5050505050565b8280546200061290620007f4565b90600052602060002090601f01602090048101928262000636576000855562000681565b82601f106200065157805160ff191683800117855562000681565b8280016001018555821562000681579182015b828111156200068157825182559160200191906001019062000664565b506200068f92915062000693565b5090565b5b808211156200068f576000815560010162000694565b600060208284031215620006bd57600080fd5b81516001600160a01b0381168114620006d557600080fd5b9392505050565b606081526000845180606084015260005b818110156200070c5760208188018101516080868401015201620006ed565b818111156200071f576000608083860101525b506001600160a01b0385166020840152601f01601f1916820160800190506200075360408301846001600160a01b03169052565b949350505050565b6020808252602e908201527f496e697469616c697a61626c653a20636f6e747261637420697320616c72656160408201526d191e481a5b9a5d1a585b1a5e995960921b606082015260800190565b6020808252602b908201527f496e697469616c697a61626c653a20636f6e7472616374206973206e6f74206960408201526a6e697469616c697a696e6760a81b606082015260800190565b600181811c908216806200080957607f821691505b602082108114156200082b57634e487b7160e01b600052602260045260246000fd5b50919050565b6124dc80620008416000396000f3fe60806040526004361061015d5760003560e01c806301ffc9a71461016257806306fdde0314610197578063081812fc146101b9578063095ea7b3146101e65780630d9005ae146102085780630e89341c1461022b57806313faede61461024b57806323b872dd1461026257806338350541146102825780633e7275de146102a25780633f4ba83a146102c257806342842e0e146102d757806342966c68146102f75780635c975abb146103175780635fd8c7101461032f5780636352211e1461034457806370a0823114610364578063715018a6146103845780638456cb59146103995780638da5cb5b146103ae57806395d89b41146103c3578063a22cb465146103d8578063b88d4fde146103f8578063c1f8d68814610418578063c4d66de814610438578063c6f0577114610458578063c87b56dd1461022b578063d0f48ec71461046b578063e985e9c514610498578063f2fde38b146104b8575b600080fd5b34801561016e57600080fd5b5061018261017d366004611fa9565b6104d8565b60405190151581526020015b60405180910390f35b3480156101a357600080fd5b506101ac61052a565b60405161018e9190612231565b3480156101c557600080fd5b506101d96101d4366004612063565b6105bc565b60405161018e919061219c565b3480156101f257600080fd5b50610206610201366004611f7f565b610649565b005b34801561021457600080fd5b5061021d61075a565b60405190815260200161018e565b34801561023757600080fd5b506101ac610246366004612063565b610777565b34801561025757600080fd5b5061021d6101625481565b34801561026e57600080fd5b5061020661027d366004611e2b565b6107b3565b34801561028e57600080fd5b5061020661029d366004612063565b6107e5565b3480156102ae57600080fd5b506102066102bd366004611f1e565b6107f2565b3480156102ce57600080fd5b5061020661084b565b3480156102e357600080fd5b506102066102f2366004611e2b565b610884565b34801561030357600080fd5b50610206610312366004612063565b61089f565b34801561032357600080fd5b5060c95460ff16610182565b34801561033b57600080fd5b50610206610919565b34801561035057600080fd5b506101d961035f366004612063565b6109db565b34801561037057600080fd5b5061021d61037f366004611dd6565b610a52565b34801561039057600080fd5b50610206610ad9565b3480156103a557600080fd5b50610206610b12565b3480156103ba57600080fd5b506101d9610b49565b3480156103cf57600080fd5b506101ac610b58565b3480156103e457600080fd5b506102066103f3366004611ee2565b610b67565b34801561040457600080fd5b50610206610413366004611e67565b610b72565b34801561042457600080fd5b506101ac610433366004611dd6565b610baa565b34801561044457600080fd5b50610206610453366004611dd6565b610be2565b61021d610466366004611fe3565b610d61565b34801561047757600080fd5b5061048b610486366004611dd6565b610eaf565b60405161018e91906121ed565b3480156104a457600080fd5b506101826104b3366004611df8565b610f21565b3480156104c457600080fd5b506102066104d3366004611dd6565b610f4f565b60006001600160e01b031982166380ac58cd60e01b148061050957506001600160e01b03198216635b5e139f60e01b145b8061052457506301ffc9a760e01b6001600160e01b03198316145b92915050565b606060658054610539906123f3565b80601f0160208091040260200160405190810160405280929190818152602001828054610565906123f3565b80156105b25780601f10610587576101008083540402835291602001916105b2565b820191906000526020600020905b81548152906001019060200180831161059557829003601f168201915b5050505050905090565b60006105c782611039565b61062d5760405162461bcd60e51b815260206004820152602c60248201527f4552433732313a20617070726f76656420717565727920666f72206e6f6e657860448201526b34b9ba32b73a103a37b5b2b760a11b60648201526084015b60405180910390fd5b506000908152606960205260409020546001600160a01b031690565b6000610654826109db565b9050806001600160a01b0316836001600160a01b031614156106c25760405162461bcd60e51b815260206004820152602160248201527f4552433732313a20617070726f76616c20746f2063757272656e74206f776e656044820152603960f91b6064820152608401610624565b336001600160a01b03821614806106de57506106de8133610f21565b61074b5760405162461bcd60e51b815260206004820152603860248201527f4552433732313a20617070726f76652063616c6c6572206973206e6f74206f776044820152771b995c881b9bdc88185c1c1c9bdd995908199bdc88185b1b60421b6064820152608401610624565b6107558383611056565b505050565b6000600161076861015f5490565b61077291906123dc565b905090565b6060610160600083815260200190815260200160002060405160200161079d91906120c9565b6040516020818303038152906040529050919050565b6107be335b826110c4565b6107da5760405162461bcd60e51b815260040161062490612328565b61075583838361118e565b6107ee816109db565b5050565b336107fb610b49565b6001600160a01b0316146108215760405162461bcd60e51b8152600401610624906122f3565b6001600160a01b038216600090815261016160209081526040909120825161075592840190611c76565b33610854610b49565b6001600160a01b03161461087a5760405162461bcd60e51b8152600401610624906122f3565b610882611327565b565b61075583838360405180602001604052806000815250610b72565b6108a8336107b8565b61090d5760405162461bcd60e51b815260206004820152603060248201527f4552433732314275726e61626c653a2063616c6c6572206973206e6f74206f7760448201526f1b995c881b9bdc88185c1c1c9bdd995960821b6064820152608401610624565b610916816113b4565b50565b33610922610b49565b6001600160a01b0316146109485760405162461bcd60e51b8152600401610624906122f3565b60405133904790600090839083908381818185875af1925050503d806000811461098e576040519150601f19603f3d011682016040523d82523d6000602084013e610993565b606091505b50509050806107555760405162461bcd60e51b81526020600482015260146024820152734661696c656420746f2073656e64204d4154494360601b6044820152606401610624565b6000818152606760205260408120546001600160a01b0316806105245760405162461bcd60e51b815260206004820152602960248201527f4552433732313a206f776e657220717565727920666f72206e6f6e657869737460448201526832b73a103a37b5b2b760b91b6064820152608401610624565b60006001600160a01b038216610abd5760405162461bcd60e51b815260206004820152602a60248201527f4552433732313a2062616c616e636520717565727920666f7220746865207a65604482015269726f206164647265737360b01b6064820152608401610624565b506001600160a01b031660009081526068602052604090205490565b33610ae2610b49565b6001600160a01b031614610b085760405162461bcd60e51b8152600401610624906122f3565b61088260006113bd565b33610b1b610b49565b6001600160a01b031614610b415760405162461bcd60e51b8152600401610624906122f3565b61088261140f565b60fb546001600160a01b031690565b606060668054610539906123f3565b6107ee338383611467565b610b7c33836110c4565b610b985760405162461bcd60e51b815260040161062490612328565b610ba484848484611532565b50505050565b60606101616000836001600160a01b03166001600160a01b0316815260200190815260200160002060405160200161079d91906120c9565b600054610100900460ff16610bfd5760005460ff1615610c01565b303b155b610c645760405162461bcd60e51b815260206004820152602e60248201527f496e697469616c697a61626c653a20636f6e747261637420697320616c72656160448201526d191e481a5b9a5d1a585b1a5e995960921b6064820152608401610624565b600054610100900460ff16158015610c86576000805461ffff19166101011790555b610cd66040518060400160405280600b81526020016a15195cdd10da185b9b995b60aa1b8152506040518060400160405280600b81526020016a1d195cdd10d2105393915360aa1b815250611565565b610cde6115a6565b610ce66115e5565b610cee61161c565b610cf66115a6565b610cff82610f4f565b610d3060405180604001604052806007815260200166037bbb732b91d160cd1b815250610d2a610b49565b84610ff2565b61016480546001600160a01b0319166001600160a01b03841617905580156107ee576000805461ff00191690555050565b600033610d6c610b49565b6001600160a01b031614610d925760405162461bcd60e51b8152600401610624906122f3565b6000610d9e61015f5490565b9050610daf61015f80546001019055565b6001600160a01b038316600090815261016360209081526040808320805485855260018201909352922055610de48483611653565b604080516001600160a01b0386168152602081018490527ff7002ef39331d6d9bb9b8d7104e055abc56bd611801468bd10a4e995f988e746910160405180910390a1610e668287878080601f01602080910402602001604051908101604052809392919081815260200183838082843760009201919091525061166d92505050565b610ea68287878080601f0160208091040260200160405190810160405280939291908181526020018383808284376000920191909152506116f392505050565b50949350505050565b6001600160a01b0381166000908152610163602090815260409182902080548351818402810184019094528084526060939192839190830182828015610f1457602002820191906000526020600020905b815481526020019060010190808311610f00575b5050505050915050919050565b6001600160a01b039182166000908152606a6020908152604080832093909416825291909152205460ff1690565b33610f58610b49565b6001600160a01b031614610f7e5760405162461bcd60e51b8152600401610624906122f3565b6001600160a01b038116610fe35760405162461bcd60e51b815260206004820152602660248201527f4f776e61626c653a206e6577206f776e657220697320746865207a65726f206160448201526564647265737360d01b6064820152608401610624565b610916816113bd565b3b151590565b61075583838360405160240161100a93929190612244565b60408051601f198184030181529190526020810180516001600160e01b03166307e763af60e51b17905261177e565b6000908152606760205260409020546001600160a01b0316151590565b600081815260696020526040902080546001600160a01b0319166001600160a01b038416908117909155819061108b826109db565b6001600160a01b03167f8c5be1e5ebec7d5bd14f71427d1e84f3dd0314c0f7b2291e5b200ac8c7c3b92560405160405180910390a45050565b60006110cf82611039565b6111305760405162461bcd60e51b815260206004820152602c60248201527f4552433732313a206f70657261746f7220717565727920666f72206e6f6e657860448201526b34b9ba32b73a103a37b5b2b760a11b6064820152608401610624565b600061113b836109db565b9050806001600160a01b0316846001600160a01b031614806111765750836001600160a01b031661116b846105bc565b6001600160a01b0316145b8061118657506111868185610f21565b949350505050565b826001600160a01b03166111a1826109db565b6001600160a01b0316146112095760405162461bcd60e51b815260206004820152602960248201527f4552433732313a207472616e73666572206f6620746f6b656e2074686174206960448201526839903737ba1037bbb760b91b6064820152608401610624565b6001600160a01b03821661126b5760405162461bcd60e51b8152602060048201526024808201527f4552433732313a207472616e7366657220746f20746865207a65726f206164646044820152637265737360e01b6064820152608401610624565b61127683838361179f565b611281600082611056565b6001600160a01b03831660009081526068602052604081208054600192906112aa9084906123dc565b90915550506001600160a01b03821660009081526068602052604081208054600192906112d89084906123c4565b909155505060008181526067602052604080822080546001600160a01b0319166001600160a01b03868116918217909255915184939187169160008051602061248783398151915291a4505050565b60c95460ff166113705760405162461bcd60e51b815260206004820152601460248201527314185d5cd8589b194e881b9bdd081c185d5cd95960621b6044820152606401610624565b60c9805460ff191690557f5db9ee0a495bf2e6ff9c91a7834c1ba4fdd244a5e8aa4e537bd38aeae4b073aa335b6040516113aa919061219c565b60405180910390a1565b6109168161185d565b60fb80546001600160a01b038381166001600160a01b0319831681179093556040519116919082907f8be0079c531659141344cd1fd0a4f28419497f9722a3daafe3b4186f6b6457e090600090a35050565b60c95460ff16156114325760405162461bcd60e51b8152600401610624906122c9565b60c9805460ff191660011790557f62e78cea01bee320cd4e420270b5ea74000d11b0c9f74754ebdbfc544b05a25861139d3390565b816001600160a01b0316836001600160a01b031614156114c55760405162461bcd60e51b815260206004820152601960248201527822a9219b99189d1030b8383937bb32903a379031b0b63632b960391b6044820152606401610624565b6001600160a01b038381166000818152606a6020908152604080832094871680845294825291829020805460ff191686151590811790915591519182527f17307eab39ab6107e8899845ad3d59bd9653f200f220920489ca2b5937696c31910160405180910390a3505050565b61153d84848461118e565b6115498484848461189d565b610ba45760405162461bcd60e51b815260040161062490612277565b600054610100900460ff1661158c5760405162461bcd60e51b815260040161062490612379565b6115946119aa565b61159c6119aa565b6107ee82826119d1565b600054610100900460ff166115cd5760405162461bcd60e51b815260040161062490612379565b6115d56119aa565b6115dd6119aa565b6108826119aa565b600054610100900460ff1661160c5760405162461bcd60e51b815260040161062490612379565b6116146119aa565b610882611a1f565b600054610100900460ff166116435760405162461bcd60e51b815260040161062490612379565b61164b6119aa565b610882611a52565b6107ee828260405180602001604052806000815250611a82565b6000828152610160602052604090208054611687906123f3565b1590506116d35760405162461bcd60e51b815260206004820152601a60248201527943616e6e6f74206d6f64696679206578697374696e672075726960301b6044820152606401610624565b600082815261016060209081526040909120825161075592840190611c76565b6116fc82611039565b61175f5760405162461bcd60e51b815260206004820152602e60248201527f45524337323155524953746f726167653a2055524920736574206f66206e6f6e60448201526d32bc34b9ba32b73a103a37b5b2b760911b6064820152608401610624565b6000828152609760209081526040909120825161075592840190611c76565b80516a636f6e736f6c652e6c6f67602083016000808483855afa5050505050565b60c95460ff16156117c25760405162461bcd60e51b8152600401610624906122c9565b6001600160a01b038084166000908152610163602052604080822092851682529020815415611830576000838152600183016020526040902054825483908290811061181057611810612444565b600091825260208083209091018290558582526001850190526040812055505b80546000848152600180840160209081526040832084905590830184558382529020018390555050505050565b61186681611ab5565b6000818152609760205260409020805461187f906123f3565b15905061091657600081815260976020526040812061091691611cfa565b60006001600160a01b0384163b1561199f57604051630a85bd0160e11b81526001600160a01b0385169063150b7a02906118e19033908990889088906004016121b0565b602060405180830381600087803b1580156118fb57600080fd5b505af192505050801561192b575060408051601f3d908101601f1916820190925261192891810190611fc6565b60015b611985573d808015611959576040519150601f19603f3d011682016040523d82523d6000602084013e61195e565b606091505b50805161197d5760405162461bcd60e51b815260040161062490612277565b805181602001fd5b6001600160e01b031916630a85bd0160e11b149050611186565b506001949350505050565b600054610100900460ff166108825760405162461bcd60e51b815260040161062490612379565b600054610100900460ff166119f85760405162461bcd60e51b815260040161062490612379565b8151611a0b906065906020850190611c76565b508051610755906066906020840190611c76565b600054610100900460ff16611a465760405162461bcd60e51b815260040161062490612379565b60c9805460ff19169055565b600054610100900460ff16611a795760405162461bcd60e51b815260040161062490612379565b610882336113bd565b611a8c8383611b4a565b611a99600084848461189d565b6107555760405162461bcd60e51b815260040161062490612277565b6000611ac0826109db565b9050611ace8160008461179f565b611ad9600083611056565b6001600160a01b0381166000908152606860205260408120805460019290611b029084906123dc565b909155505060008281526067602052604080822080546001600160a01b0319169055518391906001600160a01b03841690600080516020612487833981519152908390a45050565b6001600160a01b038216611ba05760405162461bcd60e51b815260206004820181905260248201527f4552433732313a206d696e7420746f20746865207a65726f20616464726573736044820152606401610624565b611ba981611039565b15611bf55760405162461bcd60e51b815260206004820152601c60248201527b115490cdcc8c4e881d1bdad95b88185b1c9958591e481b5a5b9d195960221b6044820152606401610624565b611c016000838361179f565b6001600160a01b0382166000908152606860205260408120805460019290611c2a9084906123c4565b909155505060008181526067602052604080822080546001600160a01b0319166001600160a01b0386169081179091559051839290600080516020612487833981519152908290a45050565b828054611c82906123f3565b90600052602060002090601f016020900481019282611ca45760008555611cea565b82601f10611cbd57805160ff1916838001178555611cea565b82800160010185558215611cea579182015b82811115611cea578251825591602001919060010190611ccf565b50611cf6929150611d30565b5090565b508054611d06906123f3565b6000825580601f10611d16575050565b601f01602090049060005260206000209081019061091691905b5b80821115611cf65760008155600101611d31565b60006001600160401b0380841115611d5f57611d5f61245a565b604051601f8501601f19908116603f01168101908282118183101715611d8757611d8761245a565b81604052809350858152868686011115611da057600080fd5b858560208301376000602087830101525050509392505050565b80356001600160a01b0381168114611dd157600080fd5b919050565b600060208284031215611de857600080fd5b611df182611dba565b9392505050565b60008060408385031215611e0b57600080fd5b611e1483611dba565b9150611e2260208401611dba565b90509250929050565b600080600060608486031215611e4057600080fd5b611e4984611dba565b9250611e5760208501611dba565b9150604084013590509250925092565b60008060008060808587031215611e7d57600080fd5b611e8685611dba565b9350611e9460208601611dba565b92506040850135915060608501356001600160401b03811115611eb657600080fd5b8501601f81018713611ec757600080fd5b611ed687823560208401611d45565b91505092959194509250565b60008060408385031215611ef557600080fd5b611efe83611dba565b915060208301358015158114611f1357600080fd5b809150509250929050565b60008060408385031215611f3157600080fd5b611f3a83611dba565b915060208301356001600160401b03811115611f5557600080fd5b8301601f81018513611f6657600080fd5b611f7585823560208401611d45565b9150509250929050565b60008060408385031215611f9257600080fd5b611f9b83611dba565b946020939093013593505050565b600060208284031215611fbb57600080fd5b8135611df181612470565b600060208284031215611fd857600080fd5b8151611df181612470565b600080600060408486031215611ff857600080fd5b83356001600160401b038082111561200f57600080fd5b818601915086601f83011261202357600080fd5b81358181111561203257600080fd5b87602082850101111561204457600080fd5b60209283019550935061205a9186019050611dba565b90509250925092565b60006020828403121561207557600080fd5b5035919050565b6000815180845260005b818110156120a257602081850181015186830182015201612086565b818111156120b4576000602083870101525b50601f01601f19169290920160200192915050565b66697066733a2f2f60c81b8152600060076000845481600182811c9150808316806120f557607f831692505b602080841082141561211557634e487b7160e01b86526022600452602486fd5b818015612129576001811461213e5761216f565b60ff1986168a890152848a018801965061216f565b60008b81526020902060005b868110156121655781548c82018b015290850190830161214a565b505087858b010196505b505050505050612193816d17b6b2ba30b230ba30973539b7b760911b8152600e0190565b95945050505050565b6001600160a01b0391909116815260200190565b6001600160a01b03858116825284166020820152604081018390526080606082018190526000906121e39083018461207c565b9695505050505050565b6020808252825182820181905260009190848201906040850190845b8181101561222557835183529284019291840191600101612209565b50909695505050505050565b602081526000611df1602083018461207c565b606081526000612257606083018661207c565b6001600160a01b0394851660208401529290931660409091015292915050565b60208082526032908201527f4552433732313a207472616e7366657220746f206e6f6e20455243373231526560408201527131b2b4bb32b91034b6b83632b6b2b73a32b960711b606082015260800190565b60208082526010908201526f14185d5cd8589b194e881c185d5cd95960821b604082015260600190565b6020808252818101527f4f776e61626c653a2063616c6c6572206973206e6f7420746865206f776e6572604082015260600190565b60208082526031908201527f4552433732313a207472616e736665722063616c6c6572206973206e6f74206f6040820152701ddb995c881b9bdc88185c1c1c9bdd9959607a1b606082015260800190565b6020808252602b908201527f496e697469616c697a61626c653a20636f6e7472616374206973206e6f74206960408201526a6e697469616c697a696e6760a81b606082015260800190565b600082198211156123d7576123d761242e565b500190565b6000828210156123ee576123ee61242e565b500390565b600181811c9082168061240757607f821691505b6020821081141561242857634e487b7160e01b600052602260045260246000fd5b50919050565b634e487b7160e01b600052601160045260246000fd5b634e487b7160e01b600052603260045260246000fd5b634e487b7160e01b600052604160045260246000fd5b6001600160e01b03198116811461091657600080fdfeddf252ad1be2c89b69c2b068fc378daa952ba7f163c4a11628f55a4df523b3efa2646970667358221220c5581d89f1f6bf41a3f35ad453f0005082b37e6c266ef4bb469354b9670ba3fe64736f6c63430008070033",
  "linkReferences": {},
  "deployedLinkReferences": {}
}