{
  "_format": "hh-sol-artifact-1",
  "contractName": "WorksManager",
  "sourceName": "contracts/WorksManager.sol",
  "abi": [
    {
      "inputs": [],
      "stateMutability": "nonpayable",
      "type": "constructor"
    },
    {
      "anonymous": false,
      "inputs": [
        {
          "indexed": false,
          "internalType": "address",
          "name": "account",
          "type": "address"
        }
      ],
      "name": "Paused",
      "type": "event"
    },
    {
      "anonymous": false,
      "inputs": [
        {
          "indexed": true,
          "internalType": "bytes32",
          "name": "role",
          "type": "bytes32"
        },
        {
          "indexed": true,
          "internalType": "bytes32",
          "name": "previousAdminRole",
          "type": "bytes32"
        },
        {
          "indexed": true,
          "internalType": "bytes32",
          "name": "newAdminRole",
          "type": "bytes32"
        }
      ],
      "name": "RoleAdminChanged",
      "type": "event"
    },
    {
      "anonymous": false,
      "inputs": [
        {
          "indexed": true,
          "internalType": "bytes32",
          "name": "role",
          "type": "bytes32"
        },
        {
          "indexed": true,
          "internalType": "address",
          "name": "account",
          "type": "address"
        },
        {
          "indexed": true,
          "internalType": "address",
          "name": "sender",
          "type": "address"
        }
      ],
      "name": "RoleGranted",
      "type": "event"
    },
    {
      "anonymous": false,
      "inputs": [
        {
          "indexed": true,
          "internalType": "bytes32",
          "name": "role",
          "type": "bytes32"
        },
        {
          "indexed": true,
          "internalType": "address",
          "name": "account",
          "type": "address"
        },
        {
          "indexed": true,
          "internalType": "address",
          "name": "sender",
          "type": "address"
        }
      ],
      "name": "RoleRevoked",
      "type": "event"
    },
    {
      "anonymous": false,
      "inputs": [
        {
          "indexed": false,
          "internalType": "address",
          "name": "account",
          "type": "address"
        }
      ],
      "name": "Unpaused",
      "type": "event"
    },
    {
      "inputs": [],
      "name": "ADMIN_ROLE",
      "outputs": [
        {
          "internalType": "bytes32",
          "name": "",
          "type": "bytes32"
        }
      ],
      "stateMutability": "view",
      "type": "function"
    },
    {
      "inputs": [],
      "name": "DEFAULT_ADMIN_ROLE",
      "outputs": [
        {
          "internalType": "bytes32",
          "name": "",
          "type": "bytes32"
        }
      ],
      "stateMutability": "view",
      "type": "function"
    },
    {
      "inputs": [
        {
          "internalType": "string",
          "name": "tokenName",
          "type": "string"
        },
        {
          "internalType": "uint256",
          "name": "channel",
          "type": "uint256"
        }
      ],
      "name": "createPostContract",
      "outputs": [],
      "stateMutability": "nonpayable",
      "type": "function"
    },
    {
      "inputs": [
        {
          "internalType": "address",
          "name": "contractAddress",
          "type": "address"
        },
        {
          "internalType": "uint256",
          "name": "cost",
          "type": "uint256"
        },
        {
          "internalType": "bool",
          "name": "isBuyable",
          "type": "bool"
        },
        {
          "internalType": "bool",
          "name": "isPublic",
          "type": "bool"
        },
        {
          "internalType": "string",
          "name": "computedUri",
          "type": "string"
        },
        {
          "internalType": "string",
          "name": "paywallUri",
          "type": "string"
        },
        {
          "internalType": "bool",
          "name": "mintable",
          "type": "bool"
        },
        {
          "internalType": "string[]",
          "name": "levels",
          "type": "string[]"
        }
      ],
      "name": "createPostToken",
      "outputs": [
        {
          "internalType": "uint256",
          "name": "",
          "type": "uint256"
        }
      ],
      "stateMutability": "nonpayable",
      "type": "function"
    },
    {
      "inputs": [
        {
          "internalType": "uint256",
          "name": "tokenId",
          "type": "uint256"
        }
      ],
      "name": "getChannelMetadata",
      "outputs": [
        {
          "internalType": "string",
          "name": "",
          "type": "string"
        }
      ],
      "stateMutability": "view",
      "type": "function"
    },
    {
      "inputs": [
        {
          "internalType": "uint256",
          "name": "channelToken",
          "type": "uint256"
        }
      ],
      "name": "getChannelPostContract",
      "outputs": [
        {
          "internalType": "contract Posts",
          "name": "",
          "type": "address"
        }
      ],
      "stateMutability": "view",
      "type": "function"
    },
    {
      "inputs": [],
      "name": "getCurrentChannelIndex",
      "outputs": [
        {
          "internalType": "uint256",
          "name": "",
          "type": "uint256"
        }
      ],
      "stateMutability": "view",
      "type": "function"
    },
    {
      "inputs": [
        {
          "internalType": "uint256",
          "name": "membershipId",
          "type": "uint256"
        }
      ],
      "name": "getMembership",
      "outputs": [
        {
          "internalType": "uint256",
          "name": "",
          "type": "uint256"
        }
      ],
      "stateMutability": "view",
      "type": "function"
    },
    {
      "inputs": [
        {
          "internalType": "uint256",
          "name": "channel",
          "type": "uint256"
        }
      ],
      "name": "getMembershipList",
      "outputs": [
        {
          "internalType": "uint256[]",
          "name": "",
          "type": "uint256[]"
        }
      ],
      "stateMutability": "view",
      "type": "function"
    },
    {
      "inputs": [],
      "name": "getOwnerChannelIds",
      "outputs": [
        {
          "internalType": "uint256[]",
          "name": "",
          "type": "uint256[]"
        }
      ],
      "stateMutability": "view",
      "type": "function"
    },
    {
      "inputs": [
        {
          "internalType": "uint256[]",
          "name": "channelIds",
          "type": "uint256[]"
        }
      ],
      "name": "getOwnerChannelList",
      "outputs": [
        {
          "components": [
            {
              "internalType": "uint256",
              "name": "tokenIndex",
              "type": "uint256"
            },
            {
              "internalType": "string",
              "name": "channelName",
              "type": "string"
            },
            {
              "internalType": "address",
              "name": "membershipToken",
              "type": "address"
            },
            {
              "internalType": "string",
              "name": "author",
              "type": "string"
            },
            {
              "internalType": "string",
              "name": "copyright",
              "type": "string"
            },
            {
              "internalType": "string",
              "name": "language",
              "type": "string"
            }
          ],
          "internalType": "struct Structs.Channel[]",
          "name": "",
          "type": "tuple[]"
        }
      ],
      "stateMutability": "view",
      "type": "function"
    },
    {
      "inputs": [],
      "name": "getPostContracts",
      "outputs": [
        {
          "internalType": "contract Posts[]",
          "name": "",
          "type": "address[]"
        }
      ],
      "stateMutability": "view",
      "type": "function"
    },
    {
      "inputs": [
        {
          "internalType": "address",
          "name": "contractAddress",
          "type": "address"
        },
        {
          "internalType": "uint256",
          "name": "tokenId",
          "type": "uint256"
        }
      ],
      "name": "getPostTokenBalance",
      "outputs": [
        {
          "internalType": "uint256",
          "name": "",
          "type": "uint256"
        }
      ],
      "stateMutability": "view",
      "type": "function"
    },
    {
      "inputs": [
        {
          "internalType": "address",
          "name": "contractAddress",
          "type": "address"
        }
      ],
      "name": "getPostTokenIndex",
      "outputs": [
        {
          "internalType": "uint256",
          "name": "",
          "type": "uint256"
        }
      ],
      "stateMutability": "view",
      "type": "function"
    },
    {
      "inputs": [
        {
          "internalType": "address",
          "name": "contractAddress",
          "type": "address"
        },
        {
          "internalType": "uint256",
          "name": "tokenId",
          "type": "uint256"
        }
      ],
      "name": "getPostUri",
      "outputs": [
        {
          "internalType": "string",
          "name": "",
          "type": "string"
        }
      ],
      "stateMutability": "view",
      "type": "function"
    },
    {
      "inputs": [
        {
          "internalType": "bytes32",
          "name": "role",
          "type": "bytes32"
        }
      ],
      "name": "getRoleAdmin",
      "outputs": [
        {
          "internalType": "bytes32",
          "name": "",
          "type": "bytes32"
        }
      ],
      "stateMutability": "view",
      "type": "function"
    },
    {
      "inputs": [
        {
          "internalType": "bytes32",
          "name": "role",
          "type": "bytes32"
        },
        {
          "internalType": "address",
          "name": "account",
          "type": "address"
        }
      ],
      "name": "grantRole",
      "outputs": [],
      "stateMutability": "nonpayable",
      "type": "function"
    },
    {
      "inputs": [
        {
          "internalType": "bytes32",
          "name": "role",
          "type": "bytes32"
        },
        {
          "internalType": "address",
          "name": "account",
          "type": "address"
        }
      ],
      "name": "hasRole",
      "outputs": [
        {
          "internalType": "bool",
          "name": "",
          "type": "bool"
        }
      ],
      "stateMutability": "view",
      "type": "function"
    },
    {
      "inputs": [],
      "name": "initialize",
      "outputs": [],
      "stateMutability": "nonpayable",
      "type": "function"
    },
    {
      "inputs": [
        {
          "internalType": "uint256",
          "name": "channel",
          "type": "uint256"
        },
        {
          "internalType": "string",
          "name": "level",
          "type": "string"
        }
      ],
      "name": "membershipMint",
      "outputs": [],
      "stateMutability": "payable",
      "type": "function"
    },
    {
      "inputs": [
        {
          "internalType": "uint256",
          "name": "channel",
          "type": "uint256"
        },
        {
          "internalType": "uint256",
          "name": "cost",
          "type": "uint256"
        },
        {
          "internalType": "string",
          "name": "level",
          "type": "string"
        },
        {
          "internalType": "string",
          "name": "computedUri",
          "type": "string"
        }
      ],
      "name": "membershipTokenCreate",
      "outputs": [],
      "stateMutability": "nonpayable",
      "type": "function"
    },
    {
      "inputs": [
        {
          "internalType": "uint256",
          "name": "tokenId",
          "type": "uint256"
        }
      ],
      "name": "membershipUri",
      "outputs": [
        {
          "internalType": "string",
          "name": "",
          "type": "string"
        }
      ],
      "stateMutability": "view",
      "type": "function"
    },
    {
      "inputs": [
        {
          "internalType": "string",
          "name": "channelName",
          "type": "string"
        },
        {
          "internalType": "string",
          "name": "channelUri",
          "type": "string"
        },
        {
          "internalType": "string",
          "name": "author",
          "type": "string"
        },
        {
          "internalType": "string",
          "name": "copyright",
          "type": "string"
        },
        {
          "internalType": "string",
          "name": "language",
          "type": "string"
        }
      ],
      "name": "mintChannel",
      "outputs": [],
      "stateMutability": "payable",
      "type": "function"
    },
    {
      "inputs": [],
      "name": "paused",
      "outputs": [
        {
          "internalType": "bool",
          "name": "",
          "type": "bool"
        }
      ],
      "stateMutability": "view",
      "type": "function"
    },
    {
      "inputs": [
        {
          "internalType": "address",
          "name": "contractAddress",
          "type": "address"
        },
        {
          "internalType": "uint256",
          "name": "membershipId",
          "type": "uint256"
        },
        {
          "internalType": "uint256",
          "name": "tokenId",
          "type": "uint256"
        }
      ],
      "name": "postMint",
      "outputs": [],
      "stateMutability": "payable",
      "type": "function"
    },
    {
      "inputs": [
        {
          "internalType": "bytes32",
          "name": "role",
          "type": "bytes32"
        },
        {
          "internalType": "address",
          "name": "account",
          "type": "address"
        }
      ],
      "name": "renounceRole",
      "outputs": [],
      "stateMutability": "nonpayable",
      "type": "function"
    },
    {
      "inputs": [
        {
          "internalType": "bytes32",
          "name": "role",
          "type": "bytes32"
        },
        {
          "internalType": "address",
          "name": "account",
          "type": "address"
        }
      ],
      "name": "revokeRole",
      "outputs": [],
      "stateMutability": "nonpayable",
      "type": "function"
    },
    {
      "inputs": [
        {
          "internalType": "address",
          "name": "_channelsAddress",
          "type": "address"
        }
      ],
      "name": "setChannelsAddress",
      "outputs": [],
      "stateMutability": "nonpayable",
      "type": "function"
    },
    {
      "inputs": [
        {
          "internalType": "address",
          "name": "_membershipsAddress",
          "type": "address"
        }
      ],
      "name": "setMembershipsAddress",
      "outputs": [],
      "stateMutability": "nonpayable",
      "type": "function"
    },
    {
      "inputs": [
        {
          "internalType": "address",
          "name": "_postAddress",
          "type": "address"
        }
      ],
      "name": "setPostAddress",
      "outputs": [],
      "stateMutability": "nonpayable",
      "type": "function"
    },
    {
      "inputs": [
        {
          "internalType": "address",
          "name": "_postFactoryAddress",
          "type": "address"
        }
      ],
      "name": "setPostFactoryAddress",
      "outputs": [],
      "stateMutability": "nonpayable",
      "type": "function"
    },
    {
      "inputs": [
        {
          "internalType": "bytes4",
          "name": "interfaceId",
          "type": "bytes4"
        }
      ],
      "name": "supportsInterface",
      "outputs": [
        {
          "internalType": "bool",
          "name": "",
          "type": "bool"
        }
      ],
      "stateMutability": "view",
      "type": "function"
    }
  ],
  "bytecode": "0x60806040523480156200001157600080fd5b506200001f60003362000051565b6200004b7fa49807205ce4d355092ef5a8a18f56e8913cf4a201fbe287825b095693c217753362000051565b62000105565b6200005d828262000061565b5050565b60008281526097602090815260408083206001600160a01b038516845290915290205460ff166200005d5760008281526097602090815260408083206001600160a01b03851684529091529020805460ff19166001179055620000c13390565b6001600160a01b0316816001600160a01b0316837f2f8788117e7eff1d82e926ec794901d17c78024a50270940304540a733656f0d60405160405180910390a45050565b61249d80620001156000396000f3fe6080604052600436106101e35760003560e01c80639d77f3c711610102578063c27855f611610095578063e7625a4111610064578063e7625a4114610583578063f0f5d882146105a3578063f631e678146105c5578063f72c2fe6146105f257600080fd5b8063c27855f614610503578063d547741f14610523578063d8eaf1a514610543578063dcff3bae1461056357600080fd5b8063ab7e4bc2116100d1578063ab7e4bc214610483578063b99da10e146104a3578063b9c08fd3146104c3578063baf21772146104e357600080fd5b80639d77f3c714610401578063a217fddf14610421578063a59b251814610436578063a7134e0e1461044b57600080fd5b806338fbf2c61161017a57806375b238fc1161014957806375b238fc1461038a578063807b989a146103ac5780638129fc1c146103cc57806391d14854146103e157600080fd5b806338fbf2c614610303578063495a944014610323578063582e0547146103505780635c975abb1461037257600080fd5b8063216b131c116101b6578063216b131c14610272578063248a9ca3146102855780632f2ff15d146102c357806336568abe146102e357600080fd5b806301ffc9a7146101e85780630221e3db1461021d578063143c31e41461023f57806318873e6414610252575b600080fd5b3480156101f457600080fd5b50610208610203366004611b58565b610605565b60405190151581526020015b60405180910390f35b34801561022957600080fd5b5061023d610238366004611c8f565b61063c565b005b61023d61024d3660046117f4565b6106a9565b34801561025e57600080fd5b5061023d61026d3660046116bf565b61071a565b61023d610280366004611b9f565b610760565b34801561029157600080fd5b506102b56102a0366004611b0f565b60009081526097602052604090206001015490565b604051908152602001610214565b3480156102cf57600080fd5b5061023d6102de366004611b28565b6107e3565b3480156102ef57600080fd5b5061023d6102fe366004611b28565b61080e565b34801561030f57600080fd5b506102b561031e366004611b0f565b610891565b34801561032f57600080fd5b5061034361033e3660046116dc565b610914565b6040516102149190612266565b34801561035c57600080fd5b506103656109a3565b6040516102149190612172565b34801561037e57600080fd5b5060335460ff16610208565b34801561039657600080fd5b506102b560008051602061244883398151915281565b3480156103b857600080fd5b506103436103c7366004611b0f565b610a28565b3480156103d857600080fd5b5061023d610aaa565b3480156103ed57600080fd5b506102086103fc366004611b28565b610b96565b34801561040d57600080fd5b5061023d61041c3660046116bf565b610bc1565b34801561042d57600080fd5b506102b5600081565b34801561044257600080fd5b506102b5610c07565b34801561045757600080fd5b5061046b610466366004611b0f565b610c84565b6040516001600160a01b039091168152602001610214565b34801561048f57600080fd5b5061023d61049e3660046116bf565b610d01565b3480156104af57600080fd5b506102b56104be3660046116bf565b610d3d565b3480156104cf57600080fd5b506103656104de366004611b0f565b610dbb565b3480156104ef57600080fd5b506102b56104fe366004611708565b610e3c565b34801561050f57600080fd5b5061023d61051e3660046116bf565b610ee5565b34801561052f57600080fd5b5061023d61053e366004611b28565b610f2b565b34801561054f57600080fd5b5061023d61055e366004611d72565b610f51565b34801561056f57600080fd5b5061034361057e366004611b0f565b610fbb565b34801561058f57600080fd5b506102b561059e3660046116dc565b610fed565b3480156105af57600080fd5b506105b8611070565b604051610214919061200c565b3480156105d157600080fd5b506105e56105e0366004611a43565b6110f1565b6040516102149190612059565b61023d610600366004611d27565b611178565b60006001600160e01b03198216637965db0b60e01b148061063657506301ffc9a760e01b6001600160e01b03198316145b92915050565b60ce546040516370b6dcd360e11b81526001600160a01b039091169063e16db9a690610672908690869086903390600401612231565b600060405180830381600087803b15801561068c57600080fd5b505af11580156106a0573d6000803e3d6000fd5b50505050505050565b60405163050f0c7960e21b8152336004820152602481018390526044810182905283906001600160a01b0382169063143c31e49034906064016000604051808303818588803b1580156106fb57600080fd5b505af115801561070f573d6000803e3d6000fd5b505050505050505050565b60008051602061244883398151915261073381336111e7565b5060c980546001600160a01b039092166001600160a01b0319928316811790915560ce8054909216179055565b60d0546040516381c83f3d60e01b81526001600160a01b03909116906381c83f3d906107a4908d908d908d908d9033908e908e908e908e908e908e906004016121aa565b600060405180830381600087803b1580156107be57600080fd5b505af11580156107d2573d6000803e3d6000fd5b505050505b50505050505050505050565b6000828152609760205260409020600101546107ff81336111e7565b610809838361124b565b505050565b6001600160a01b03811633146108835760405162461bcd60e51b815260206004820152602f60248201527f416363657373436f6e74726f6c3a2063616e206f6e6c792072656e6f756e636560448201526e103937b632b9903337b91039b2b63360891b60648201526084015b60405180910390fd5b61088d82826112d1565b5050565b60cf54604051636b22141b60e11b8152600481018390523360248201526000916001600160a01b03169063d64428369060440160206040518083038186803b1580156108dc57600080fd5b505afa1580156108f0573d6000803e3d6000fd5b505050506040513d601f19601f820116820180604052508101906106369190611d0e565b60405163798611f560e01b81526004810182905233602482015260609083906001600160a01b0382169063798611f59060440160006040518083038186803b15801561095f57600080fd5b505afa158015610973573d6000803e3d6000fd5b505050506040513d6000823e601f3d908101601f1916820160405261099b9190810190611cda565b949350505050565b60d05460405163d0f48ec760e01b81523360048201526060916001600160a01b03169063d0f48ec79060240160006040518083038186803b1580156109e757600080fd5b505afa1580156109fb573d6000803e3d6000fd5b505050506040513d6000823e601f3d908101601f19168201604052610a239190810190611a84565b905090565b60d0546040516303a24d0760e21b8152600481018390526060916001600160a01b031690630e89341c906024015b60006040518083038186803b158015610a6e57600080fd5b505afa158015610a82573d6000803e3d6000fd5b505050506040513d6000823e601f3d908101601f191682016040526106369190810190611cda565b600054610100900460ff16610ac55760005460ff1615610ac9565b303b155b610b2c5760405162461bcd60e51b815260206004820152602e60248201527f496e697469616c697a61626c653a20636f6e747261637420697320616c72656160448201526d191e481a5b9a5d1a585b1a5e995960921b606482015260840161087a565b600054610100900460ff16158015610b4e576000805461ffff19166101011790555b610b56611338565b610b5e611371565b610b6960003361124b565b610b816000805160206124488339815191523361124b565b8015610b93576000805461ff00191690555b50565b60009182526097602090815260408084206001600160a01b0393909316845291905290205460ff1690565b600080516020612448833981519152610bda81336111e7565b5060ca80546001600160a01b039092166001600160a01b0319928316811790915560cf8054909216179055565b60d054604080516306c802d760e11b815290516000926001600160a01b031691630d9005ae916004808301926020929190829003018186803b158015610c4c57600080fd5b505afa158015610c60573d6000803e3d6000fd5b505050506040513d601f19601f82011682018060405250810190610a239190611d0e565b60ce54604051635389a70760e11b8152600481018390526000916001600160a01b03169063a7134e0e9060240160206040518083038186803b158015610cc957600080fd5b505afa158015610cdd573d6000803e3d6000fd5b505050506040513d601f19601f820116820180604052508101906106369190611b82565b600080516020612448833981519152610d1a81336111e7565b5060cd80546001600160a01b0319166001600160a01b0392909216919091179055565b600080829050806001600160a01b031663295d3ee86040518163ffffffff1660e01b815260040160206040518083038186803b158015610d7c57600080fd5b505afa158015610d90573d6000803e3d6000fd5b505050506040513d601f19601f82011682018060405250810190610db49190611d0e565b9392505050565b60cf5460405163b9c08fd360e01b8152600481018390526060916001600160a01b03169063b9c08fd39060240160006040518083038186803b158015610e0057600080fd5b505afa158015610e14573d6000803e3d6000fd5b505050506040513d6000823e601f3d908101601f191682016040526106369190810190611a84565b6000808c9050806001600160a01b031663baf21772338e8e8e8e8e8e8e8e8e8e6040518c63ffffffff1660e01b8152600401610e829b9a99989796959493929190611ebe565b602060405180830381600087803b158015610e9c57600080fd5b505af1158015610eb0573d6000803e3d6000fd5b505050506040513d601f19601f82011682018060405250810190610ed49190611d0e565b9d9c50505050505050505050505050565b600080516020612448833981519152610efe81336111e7565b5060cc80546001600160a01b039092166001600160a01b0319928316811790915560d08054909216179055565b600082815260976020526040902060010154610f4781336111e7565b61080983836112d1565b60cf5460405163cb2de9d960e01b81526001600160a01b039091169063cb2de9d990610f8d9033908a908a908a908a908a908a90600401611fbd565b600060405180830381600087803b158015610fa757600080fd5b505af11580156107d7573d6000803e3d6000fd5b60cf546040516303a24d0760e21b8152600481018390526060916001600160a01b031690630e89341c90602401610a56565b60405163014d058560e01b81526004810182905233602482015260009083906001600160a01b0382169063014d05859060440160206040518083038186803b15801561103857600080fd5b505afa15801561104c573d6000803e3d6000fd5b505050506040513d601f19601f8201168201806040525081019061099b9190611d0e565b60ce54604080516309125d1d60e31b815290516060926001600160a01b031691634892e8e8916004808301926000929190829003018186803b1580156110b557600080fd5b505afa1580156110c9573d6000803e3d6000fd5b505050506040513d6000823e601f3d908101601f19168201604052610a239190810190611829565b60d054604051631ec63ccf60e31b81526060916001600160a01b03169063f631e678906111249086908690600401612136565b60006040518083038186803b15801561113c57600080fd5b505afa158015611150573d6000803e3d6000fd5b505050506040513d6000823e601f3d908101601f19168201604052610db491908101906118ce565b60cf5460405163a44ed53560e01b81526001600160a01b039091169063a44ed5359034906111b09087908790879033906004016122c4565b6000604051808303818588803b1580156111c957600080fd5b505af11580156111dd573d6000803e3d6000fd5b5050505050505050565b6111f18282610b96565b61088d57611209816001600160a01b031660146113b0565b6112148360206113b0565b604051602001611225929190611e49565b60408051601f198184030181529082905262461bcd60e51b825261087a91600401612266565b6112558282610b96565b61088d5760008281526097602090815260408083206001600160a01b03851684529091529020805460ff1916600117905561128d3390565b6001600160a01b0316816001600160a01b0316837f2f8788117e7eff1d82e926ec794901d17c78024a50270940304540a733656f0d60405160405180910390a45050565b6112db8282610b96565b1561088d5760008281526097602090815260408083206001600160a01b0385168085529252808320805460ff1916905551339285917ff6391f5c32d9c69d2a47ea670b442974b53935d1edc7fd64eb21e047a839171b9190a45050565b600054610100900460ff1661135f5760405162461bcd60e51b815260040161087a90612279565b61136761154b565b61136f611572565b565b600054610100900460ff166113985760405162461bcd60e51b815260040161087a90612279565b6113a061154b565b6113a861154b565b61136f61154b565b606060006113bf83600261238a565b6113ca906002612372565b6001600160401b038111156113e1576113e161241c565b6040519080825280601f01601f19166020018201604052801561140b576020820181803683370190505b509050600360fc1b8160008151811061142657611426612406565b60200101906001600160f81b031916908160001a905350600f60fb1b8160018151811061145557611455612406565b60200101906001600160f81b031916908160001a905350600061147984600261238a565b611484906001612372565b90505b60018111156114fc576f181899199a1a9b1b9c1cb0b131b232b360811b85600f16601081106114b8576114b8612406565b1a60f81b8282815181106114ce576114ce612406565b60200101906001600160f81b031916908160001a90535060049490941c936114f5816123d9565b9050611487565b508315610db45760405162461bcd60e51b815260206004820181905260248201527f537472696e67733a20686578206c656e67746820696e73756666696369656e74604482015260640161087a565b600054610100900460ff1661136f5760405162461bcd60e51b815260040161087a90612279565b600054610100900460ff166115995760405162461bcd60e51b815260040161087a90612279565b6033805460ff19169055565b80356115b081612432565b919050565b80516115b081612432565b60008083601f8401126115d257600080fd5b5081356001600160401b038111156115e957600080fd5b6020830191508360208260051b850101111561160457600080fd5b9250929050565b803580151581146115b057600080fd5b60008083601f84011261162d57600080fd5b5081356001600160401b0381111561164457600080fd5b60208301915083602082850101111561160457600080fd5b600082601f83011261166d57600080fd5b81516001600160401b038111156116865761168661241c565b611699601f8201601f191660200161231f565b8181528460208386010111156116ae57600080fd5b61099b8260208301602087016123a9565b6000602082840312156116d157600080fd5b8135610db481612432565b600080604083850312156116ef57600080fd5b82356116fa81612432565b946020939093013593505050565b60008060008060008060008060008060006101008c8e03121561172a57600080fd5b6117338c6115a5565b9a5060208c0135995061174860408d0161160b565b985061175660608d0161160b565b97506001600160401b038060808e0135111561177157600080fd5b6117818e60808f01358f0161161b565b909850965060a08d013581101561179757600080fd5b6117a78e60a08f01358f0161161b565b90965094506117b860c08e0161160b565b93508060e08e013511156117cb57600080fd5b506117dc8d60e08e01358e016115c0565b81935080925050509295989b509295989b9093969950565b60008060006060848603121561180957600080fd5b833561181481612432565b95602085013595506040909401359392505050565b6000602080838503121561183c57600080fd5b82516001600160401b0381111561185257600080fd5b8301601f8101851361186357600080fd5b80516118766118718261234f565b61231f565b80828252848201915084840188868560051b870101111561189657600080fd5b600094505b838510156118c25780516118ae81612432565b83526001949094019391850191850161189b565b50979650505050505050565b600060208083850312156118e157600080fd5b82516001600160401b03808211156118f857600080fd5b818501915085601f83011261190c57600080fd5b815161191a6118718261234f565b80828252858201915085850189878560051b880101111561193a57600080fd5b60005b84811015611a345781518681111561195457600080fd5b870160c0818d03601f190181131561196b57600080fd5b6119736122f7565b8a830151815260408301518981111561198b57600080fd5b6119998f8d8387010161165c565b8c830152506119aa606084016115b5565b60408201526080830151898111156119c157600080fd5b6119cf8f8d8387010161165c565b60608301525060a0830151898111156119e757600080fd5b6119f58f8d8387010161165c565b608083015250908201519088821115611a0d57600080fd5b611a1b8e8c8486010161165c565b60a082015286525050928701929087019060010161193d565b50909998505050505050505050565b60008060208385031215611a5657600080fd5b82356001600160401b03811115611a6c57600080fd5b611a78858286016115c0565b90969095509350505050565b60006020808385031215611a9757600080fd5b82516001600160401b03811115611aad57600080fd5b8301601f81018513611abe57600080fd5b8051611acc6118718261234f565b80828252848201915084840188868560051b8701011115611aec57600080fd5b600094505b838510156118c2578051835260019490940193918501918501611af1565b600060208284031215611b2157600080fd5b5035919050565b60008060408385031215611b3b57600080fd5b823591506020830135611b4d81612432565b809150509250929050565b600060208284031215611b6a57600080fd5b81356001600160e01b031981168114610db457600080fd5b600060208284031215611b9457600080fd5b8151610db481612432565b60008060008060008060008060008060a08b8d031215611bbe57600080fd5b8a356001600160401b0380821115611bd557600080fd5b611be18e838f0161161b565b909c509a5060208d0135915080821115611bfa57600080fd5b611c068e838f0161161b565b909a50985060408d0135915080821115611c1f57600080fd5b611c2b8e838f0161161b565b909850965060608d0135915080821115611c4457600080fd5b611c508e838f0161161b565b909650945060808d0135915080821115611c6957600080fd5b50611c768d828e0161161b565b915080935050809150509295989b9194979a5092959850565b600080600060408486031215611ca457600080fd5b83356001600160401b03811115611cba57600080fd5b611cc68682870161161b565b909790965060209590950135949350505050565b600060208284031215611cec57600080fd5b81516001600160401b03811115611d0257600080fd5b61099b8482850161165c565b600060208284031215611d2057600080fd5b5051919050565b600080600060408486031215611d3c57600080fd5b8335925060208401356001600160401b03811115611d5957600080fd5b611d658682870161161b565b9497909650939450505050565b60008060008060008060808789031215611d8b57600080fd5b863595506020870135945060408701356001600160401b0380821115611db057600080fd5b611dbc8a838b0161161b565b90965094506060890135915080821115611dd557600080fd5b50611de289828a0161161b565b979a9699509497509295939492505050565b81835281816020850137506000828201602090810191909152601f909101601f19169091010190565b60008151808452611e358160208601602086016123a9565b601f01601f19169290920160200192915050565b7f416363657373436f6e74726f6c3a206163636f756e7420000000000000000000815260008351611e818160178501602088016123a9565b7001034b99036b4b9b9b4b733903937b6329607d1b6017918401918201528351611eb28160288401602088016123a9565b01602801949350505050565b6001600160a01b038c16815260208082018c90528a15156040830152891515606083015261010060808301819052600091611efc8483018b8d611df4565b915083820360a0850152611f1182898b611df4565b87151560c086015284810360e08601528581529150808201600586901b830182018760005b88811015611fa457858303601f190184528135368b9003601e19018112611f5c57600080fd5b8a0180356001600160401b03811115611f7457600080fd5b8036038c1315611f8357600080fd5b611f908582898501611df4565b958701959450505090840190600101611f36565b5050809450505050509c9b505050505050505050505050565b60018060a01b038816815286602082015285604082015260a060608201526000611feb60a083018688611df4565b8281036080840152611ffe818587611df4565b9a9950505050505050505050565b6020808252825182820181905260009190848201906040850190845b8181101561204d5783516001600160a01b031683529284019291840191600101612028565b50909695505050505050565b60006020808301818452808551808352604092508286019150828160051b87010184880160005b8381101561212857603f19898403018552815160c08151855288820151818a8701526120ae82870182611e1d565b838a01516001600160a01b0316878b0152606080850151888303828a015291935091506120db8382611e1d565b92505050608080830151868303828801526120f68382611e1d565b9250505060a080830151925085820381870152506121148183611e1d565b968901969450505090860190600101612080565b509098975050505050505050565b6020808252810182905260006001600160fb1b0383111561215657600080fd5b8260051b80856040850137600092016040019182525092915050565b6020808252825182820181905260009190848201906040850190845b8181101561204d5783518352928401929184019160010161218e565b60c0815260006121be60c083018d8f611df4565b82810360208401526121d1818c8e611df4565b6001600160a01b038b166040850152838103606085015290506121f581898b611df4565b9050828103608084015261220a818789611df4565b905082810360a084015261221f818587611df4565b9e9d5050505050505050505050505050565b606081526000612245606083018688611df4565b6020830194909452506001600160a01b039190911660409091015292915050565b602081526000610db46020830184611e1d565b6020808252602b908201527f496e697469616c697a61626c653a20636f6e7472616374206973206e6f74206960408201526a6e697469616c697a696e6760a81b606082015260800190565b8481526060602082015260006122de606083018587611df4565b905060018060a01b038316604083015295945050505050565b60405160c081016001600160401b03811182821017156123195761231961241c565b60405290565b604051601f8201601f191681016001600160401b03811182821017156123475761234761241c565b604052919050565b60006001600160401b038211156123685761236861241c565b5060051b60200190565b60008219821115612385576123856123f0565b500190565b60008160001904831182151516156123a4576123a46123f0565b500290565b60005b838110156123c45781810151838201526020016123ac565b838111156123d3576000848401525b50505050565b6000816123e8576123e86123f0565b506000190190565b634e487b7160e01b600052601160045260246000fd5b634e487b7160e01b600052603260045260246000fd5b634e487b7160e01b600052604160045260246000fd5b6001600160a01b0381168114610b9357600080fdfea49807205ce4d355092ef5a8a18f56e8913cf4a201fbe287825b095693c21775a26469706673582212207bd0f6bae9791f8c75c6b8bea20724bc1b4211f7ef8dc4d2347538ecb30d196e64736f6c63430008070033",
  "linkReferences": {},
  "deployedLinkReferences": {}
}