{
  "_format": "hh-sol-artifact-1",
  "contractName": "WorksManager",
  "sourceName": "contracts/WorksManager.sol",
  "abi": [
    {
      "inputs": [],
      "stateMutability": "nonpayable",
      "type": "constructor"
    },
    {
      "anonymous": false,
      "inputs": [
        {
          "indexed": false,
          "internalType": "address",
          "name": "account",
          "type": "address"
        }
      ],
      "name": "Paused",
      "type": "event"
    },
    {
      "anonymous": false,
      "inputs": [
        {
          "indexed": true,
          "internalType": "bytes32",
          "name": "role",
          "type": "bytes32"
        },
        {
          "indexed": true,
          "internalType": "bytes32",
          "name": "previousAdminRole",
          "type": "bytes32"
        },
        {
          "indexed": true,
          "internalType": "bytes32",
          "name": "newAdminRole",
          "type": "bytes32"
        }
      ],
      "name": "RoleAdminChanged",
      "type": "event"
    },
    {
      "anonymous": false,
      "inputs": [
        {
          "indexed": true,
          "internalType": "bytes32",
          "name": "role",
          "type": "bytes32"
        },
        {
          "indexed": true,
          "internalType": "address",
          "name": "account",
          "type": "address"
        },
        {
          "indexed": true,
          "internalType": "address",
          "name": "sender",
          "type": "address"
        }
      ],
      "name": "RoleGranted",
      "type": "event"
    },
    {
      "anonymous": false,
      "inputs": [
        {
          "indexed": true,
          "internalType": "bytes32",
          "name": "role",
          "type": "bytes32"
        },
        {
          "indexed": true,
          "internalType": "address",
          "name": "account",
          "type": "address"
        },
        {
          "indexed": true,
          "internalType": "address",
          "name": "sender",
          "type": "address"
        }
      ],
      "name": "RoleRevoked",
      "type": "event"
    },
    {
      "anonymous": false,
      "inputs": [
        {
          "indexed": false,
          "internalType": "address",
          "name": "account",
          "type": "address"
        }
      ],
      "name": "Unpaused",
      "type": "event"
    },
    {
      "inputs": [],
      "name": "ADMIN_ROLE",
      "outputs": [
        {
          "internalType": "bytes32",
          "name": "",
          "type": "bytes32"
        }
      ],
      "stateMutability": "view",
      "type": "function"
    },
    {
      "inputs": [],
      "name": "DEFAULT_ADMIN_ROLE",
      "outputs": [
        {
          "internalType": "bytes32",
          "name": "",
          "type": "bytes32"
        }
      ],
      "stateMutability": "view",
      "type": "function"
    },
    {
      "inputs": [
        {
          "internalType": "string",
          "name": "tokenName",
          "type": "string"
        },
        {
          "internalType": "uint256",
          "name": "channel",
          "type": "uint256"
        }
      ],
      "name": "createPostContract",
      "outputs": [],
      "stateMutability": "nonpayable",
      "type": "function"
    },
    {
      "inputs": [
        {
          "internalType": "address",
          "name": "contractAddress",
          "type": "address"
        },
        {
          "internalType": "uint256",
          "name": "cost",
          "type": "uint256"
        },
        {
          "internalType": "bool",
          "name": "isBuyable",
          "type": "bool"
        },
        {
          "internalType": "bool",
          "name": "isPublic",
          "type": "bool"
        },
        {
          "internalType": "string",
          "name": "computedUri",
          "type": "string"
        },
        {
          "internalType": "string",
          "name": "paywallUri",
          "type": "string"
        },
        {
          "internalType": "bool",
          "name": "mintable",
          "type": "bool"
        },
        {
          "internalType": "string[]",
          "name": "levels",
          "type": "string[]"
        }
      ],
      "name": "createPostToken",
      "outputs": [
        {
          "internalType": "uint256",
          "name": "",
          "type": "uint256"
        }
      ],
      "stateMutability": "nonpayable",
      "type": "function"
    },
    {
      "inputs": [
        {
          "internalType": "uint256",
          "name": "tokenId",
          "type": "uint256"
        }
      ],
      "name": "getChannelMetadata",
      "outputs": [
        {
          "internalType": "string",
          "name": "",
          "type": "string"
        }
      ],
      "stateMutability": "view",
      "type": "function"
    },
    {
      "inputs": [
        {
          "internalType": "uint256",
          "name": "channelToken",
          "type": "uint256"
        }
      ],
      "name": "getChannelPostContract",
      "outputs": [
        {
          "internalType": "contract Posts",
          "name": "",
          "type": "address"
        }
      ],
      "stateMutability": "view",
      "type": "function"
    },
    {
      "inputs": [],
      "name": "getCurrentChannelIndex",
      "outputs": [
        {
          "internalType": "uint256",
          "name": "",
          "type": "uint256"
        }
      ],
      "stateMutability": "view",
      "type": "function"
    },
    {
      "inputs": [
        {
          "internalType": "uint256",
          "name": "membershipId",
          "type": "uint256"
        }
      ],
      "name": "getMembership",
      "outputs": [
        {
          "internalType": "uint256",
          "name": "",
          "type": "uint256"
        }
      ],
      "stateMutability": "view",
      "type": "function"
    },
    {
      "inputs": [
        {
          "internalType": "uint256",
          "name": "channel",
          "type": "uint256"
        }
      ],
      "name": "getMembershipList",
      "outputs": [
        {
          "internalType": "uint256[]",
          "name": "",
          "type": "uint256[]"
        }
      ],
      "stateMutability": "view",
      "type": "function"
    },
    {
      "inputs": [],
      "name": "getOwnerChannelIds",
      "outputs": [
        {
          "internalType": "uint256[]",
          "name": "",
          "type": "uint256[]"
        }
      ],
      "stateMutability": "view",
      "type": "function"
    },
    {
      "inputs": [
        {
          "internalType": "uint256[]",
          "name": "channelIds",
          "type": "uint256[]"
        }
      ],
      "name": "getOwnerChannelList",
      "outputs": [
        {
          "components": [
            {
              "internalType": "uint256",
              "name": "tokenIndex",
              "type": "uint256"
            },
            {
              "internalType": "string",
              "name": "channelName",
              "type": "string"
            },
            {
              "internalType": "address",
              "name": "membershipToken",
              "type": "address"
            },
            {
              "internalType": "string",
              "name": "author",
              "type": "string"
            },
            {
              "internalType": "string",
              "name": "copyright",
              "type": "string"
            },
            {
              "internalType": "string",
              "name": "language",
              "type": "string"
            }
          ],
          "internalType": "struct Structs.Channel[]",
          "name": "",
          "type": "tuple[]"
        }
      ],
      "stateMutability": "view",
      "type": "function"
    },
    {
      "inputs": [],
      "name": "getPostContracts",
      "outputs": [
        {
          "internalType": "contract Posts[]",
          "name": "",
          "type": "address[]"
        }
      ],
      "stateMutability": "view",
      "type": "function"
    },
    {
      "inputs": [
        {
          "internalType": "address",
          "name": "contractAddress",
          "type": "address"
        },
        {
          "internalType": "uint256",
          "name": "tokenId",
          "type": "uint256"
        }
      ],
      "name": "getPostTokenBalance",
      "outputs": [
        {
          "internalType": "uint256",
          "name": "",
          "type": "uint256"
        }
      ],
      "stateMutability": "view",
      "type": "function"
    },
    {
      "inputs": [
        {
          "internalType": "address",
          "name": "contractAddress",
          "type": "address"
        }
      ],
      "name": "getPostTokenIndex",
      "outputs": [
        {
          "internalType": "uint256",
          "name": "",
          "type": "uint256"
        }
      ],
      "stateMutability": "view",
      "type": "function"
    },
    {
      "inputs": [
        {
          "internalType": "address",
          "name": "contractAddress",
          "type": "address"
        },
        {
          "internalType": "uint256",
          "name": "tokenId",
          "type": "uint256"
        }
      ],
      "name": "getPostUri",
      "outputs": [
        {
          "internalType": "string",
          "name": "",
          "type": "string"
        }
      ],
      "stateMutability": "view",
      "type": "function"
    },
    {
      "inputs": [
        {
          "internalType": "bytes32",
          "name": "role",
          "type": "bytes32"
        }
      ],
      "name": "getRoleAdmin",
      "outputs": [
        {
          "internalType": "bytes32",
          "name": "",
          "type": "bytes32"
        }
      ],
      "stateMutability": "view",
      "type": "function"
    },
    {
      "inputs": [
        {
          "internalType": "bytes32",
          "name": "role",
          "type": "bytes32"
        },
        {
          "internalType": "address",
          "name": "account",
          "type": "address"
        }
      ],
      "name": "grantRole",
      "outputs": [],
      "stateMutability": "nonpayable",
      "type": "function"
    },
    {
      "inputs": [
        {
          "internalType": "bytes32",
          "name": "role",
          "type": "bytes32"
        },
        {
          "internalType": "address",
          "name": "account",
          "type": "address"
        }
      ],
      "name": "hasRole",
      "outputs": [
        {
          "internalType": "bool",
          "name": "",
          "type": "bool"
        }
      ],
      "stateMutability": "view",
      "type": "function"
    },
    {
      "inputs": [],
      "name": "initialize",
      "outputs": [],
      "stateMutability": "nonpayable",
      "type": "function"
    },
    {
      "inputs": [
        {
          "internalType": "uint256",
          "name": "channel",
          "type": "uint256"
        },
        {
          "internalType": "string",
          "name": "level",
          "type": "string"
        }
      ],
      "name": "membershipMint",
      "outputs": [],
      "stateMutability": "payable",
      "type": "function"
    },
    {
      "inputs": [
        {
          "internalType": "uint256",
          "name": "channel",
          "type": "uint256"
        },
        {
          "internalType": "uint256",
          "name": "cost",
          "type": "uint256"
        },
        {
          "internalType": "string",
          "name": "level",
          "type": "string"
        },
        {
          "internalType": "string",
          "name": "computedUri",
          "type": "string"
        }
      ],
      "name": "membershipTokenCreate",
      "outputs": [],
      "stateMutability": "nonpayable",
      "type": "function"
    },
    {
      "inputs": [
        {
          "internalType": "uint256",
          "name": "tokenId",
          "type": "uint256"
        }
      ],
      "name": "membershipUri",
      "outputs": [
        {
          "internalType": "string",
          "name": "",
          "type": "string"
        }
      ],
      "stateMutability": "view",
      "type": "function"
    },
    {
      "inputs": [
        {
          "internalType": "string",
          "name": "channelName",
          "type": "string"
        },
        {
          "internalType": "string",
          "name": "channelUri",
          "type": "string"
        },
        {
          "internalType": "string",
          "name": "author",
          "type": "string"
        },
        {
          "internalType": "string",
          "name": "copyright",
          "type": "string"
        },
        {
          "internalType": "string",
          "name": "language",
          "type": "string"
        }
      ],
      "name": "mintChannel",
      "outputs": [],
      "stateMutability": "payable",
      "type": "function"
    },
    {
      "inputs": [],
      "name": "paused",
      "outputs": [
        {
          "internalType": "bool",
          "name": "",
          "type": "bool"
        }
      ],
      "stateMutability": "view",
      "type": "function"
    },
    {
      "inputs": [
        {
          "internalType": "address",
          "name": "contractAddress",
          "type": "address"
        },
        {
          "internalType": "uint256",
          "name": "tokenId",
          "type": "uint256"
        }
      ],
      "name": "postGetCost",
      "outputs": [
        {
          "internalType": "uint256",
          "name": "",
          "type": "uint256"
        }
      ],
      "stateMutability": "view",
      "type": "function"
    },
    {
      "inputs": [
        {
          "internalType": "address",
          "name": "contractAddress",
          "type": "address"
        },
        {
          "internalType": "uint256",
          "name": "tokenId",
          "type": "uint256"
        }
      ],
      "name": "postIsBuyable",
      "outputs": [
        {
          "internalType": "bool",
          "name": "",
          "type": "bool"
        }
      ],
      "stateMutability": "view",
      "type": "function"
    },
    {
      "inputs": [
        {
          "internalType": "address",
          "name": "contractAddress",
          "type": "address"
        },
        {
          "internalType": "uint256",
          "name": "tokenId",
          "type": "uint256"
        }
      ],
      "name": "postIsMintable",
      "outputs": [
        {
          "internalType": "bool",
          "name": "",
          "type": "bool"
        }
      ],
      "stateMutability": "view",
      "type": "function"
    },
    {
      "inputs": [
        {
          "internalType": "address",
          "name": "contractAddress",
          "type": "address"
        },
        {
          "internalType": "uint256",
          "name": "membershipId",
          "type": "uint256"
        },
        {
          "internalType": "uint256",
          "name": "tokenId",
          "type": "uint256"
        }
      ],
      "name": "postMint",
      "outputs": [],
      "stateMutability": "payable",
      "type": "function"
    },
    {
      "inputs": [
        {
          "internalType": "bytes32",
          "name": "role",
          "type": "bytes32"
        },
        {
          "internalType": "address",
          "name": "account",
          "type": "address"
        }
      ],
      "name": "renounceRole",
      "outputs": [],
      "stateMutability": "nonpayable",
      "type": "function"
    },
    {
      "inputs": [
        {
          "internalType": "bytes32",
          "name": "role",
          "type": "bytes32"
        },
        {
          "internalType": "address",
          "name": "account",
          "type": "address"
        }
      ],
      "name": "revokeRole",
      "outputs": [],
      "stateMutability": "nonpayable",
      "type": "function"
    },
    {
      "inputs": [
        {
          "internalType": "address",
          "name": "_channelsAddress",
          "type": "address"
        }
      ],
      "name": "setChannelsAddress",
      "outputs": [],
      "stateMutability": "nonpayable",
      "type": "function"
    },
    {
      "inputs": [
        {
          "internalType": "address",
          "name": "_membershipsAddress",
          "type": "address"
        }
      ],
      "name": "setMembershipsAddress",
      "outputs": [],
      "stateMutability": "nonpayable",
      "type": "function"
    },
    {
      "inputs": [
        {
          "internalType": "address",
          "name": "_postAddress",
          "type": "address"
        }
      ],
      "name": "setPostAddress",
      "outputs": [],
      "stateMutability": "nonpayable",
      "type": "function"
    },
    {
      "inputs": [
        {
          "internalType": "address",
          "name": "_postFactoryAddress",
          "type": "address"
        }
      ],
      "name": "setPostFactoryAddress",
      "outputs": [],
      "stateMutability": "nonpayable",
      "type": "function"
    },
    {
      "inputs": [
        {
          "internalType": "bytes4",
          "name": "interfaceId",
          "type": "bytes4"
        }
      ],
      "name": "supportsInterface",
      "outputs": [
        {
          "internalType": "bool",
          "name": "",
          "type": "bool"
        }
      ],
      "stateMutability": "view",
      "type": "function"
    }
  ],
  "bytecode": "0x60806040523480156200001157600080fd5b506200001f60003362000051565b6200004b7fa49807205ce4d355092ef5a8a18f56e8913cf4a201fbe287825b095693c217753362000051565b62000105565b6200005d828262000061565b5050565b60008281526097602090815260408083206001600160a01b038516845290915290205460ff166200005d5760008281526097602090815260408083206001600160a01b03851684529091529020805460ff19166001179055620000c13390565b6001600160a01b0316816001600160a01b0316837f2f8788117e7eff1d82e926ec794901d17c78024a50270940304540a733656f0d60405160405180910390a45050565b61262980620001156000396000f3fe6080604052600436106102045760003560e01c806391d1485411610118578063c27855f6116100a0578063e7625a411161006f578063e7625a41146105e4578063eed94ed114610604578063f0f5d88214610624578063f631e67814610646578063f72c2fe61461067357600080fd5b8063c27855f614610564578063d547741f14610584578063d8eaf1a5146105a4578063dcff3bae146105c457600080fd5b8063a7134e0e116100e7578063a7134e0e146104ac578063ab7e4bc2146104e4578063b99da10e14610504578063b9c08fd314610524578063baf217721461054457600080fd5b806391d14854146104425780639d77f3c714610462578063a217fddf14610482578063a59b25181461049757600080fd5b80633156fcee1161019b578063582e05471161016a578063582e0547146103b15780635c975abb146103d357806375b238fc146103eb578063807b989a1461040d5780638129fc1c1461042d57600080fd5b80633156fcee1461032457806336568abe1461034457806338fbf2c614610364578063495a94401461038457600080fd5b8063216b131c116101d7578063216b131c14610293578063248a9ca3146102a65780632dfc4b26146102e45780632f2ff15d1461030457600080fd5b806301ffc9a7146102095780630221e3db1461023e578063143c31e41461026057806318873e6414610273575b600080fd5b34801561021557600080fd5b50610229610224366004611cd6565b610686565b60405190151581526020015b60405180910390f35b34801561024a57600080fd5b5061025e610259366004611e0d565b6106bd565b005b61025e61026e366004611953565b61072a565b34801561027f57600080fd5b5061025e61028e36600461181e565b61079b565b61025e6102a1366004611d1d565b6107e1565b3480156102b257600080fd5b506102d66102c1366004611c8d565b60009081526097602052604090206001015490565b604051908152602001610235565b3480156102f057600080fd5b506102d66102ff36600461183b565b610864565b34801561031057600080fd5b5061025e61031f366004611ca6565b6108ea565b34801561033057600080fd5b5061022961033f36600461183b565b610915565b34801561035057600080fd5b5061025e61035f366004611ca6565b610993565b34801561037057600080fd5b506102d661037f366004611c8d565b610a16565b34801561039057600080fd5b506103a461039f36600461183b565b610a99565b60405161023591906123e4565b3480156103bd57600080fd5b506103c6610b20565b60405161023591906122f0565b3480156103df57600080fd5b5060335460ff16610229565b3480156103f757600080fd5b506102d66000805160206125d483398151915281565b34801561041957600080fd5b506103a4610428366004611c8d565b610ba5565b34801561043957600080fd5b5061025e610c27565b34801561044e57600080fd5b5061022961045d366004611ca6565b610d13565b34801561046e57600080fd5b5061025e61047d36600461181e565b610d3e565b34801561048e57600080fd5b506102d6600081565b3480156104a357600080fd5b506102d6610d84565b3480156104b857600080fd5b506104cc6104c7366004611c8d565b610e01565b6040516001600160a01b039091168152602001610235565b3480156104f057600080fd5b5061025e6104ff36600461181e565b610e7e565b34801561051057600080fd5b506102d661051f36600461181e565b610eba565b34801561053057600080fd5b506103c661053f366004611c8d565b610f38565b34801561055057600080fd5b506102d661055f366004611867565b610fb9565b34801561057057600080fd5b5061025e61057f36600461181e565b611062565b34801561059057600080fd5b5061025e61059f366004611ca6565b6110a8565b3480156105b057600080fd5b5061025e6105bf366004611ef0565b6110ce565b3480156105d057600080fd5b506103a46105df366004611c8d565b611138565b3480156105f057600080fd5b506102d66105ff36600461183b565b61116a565b34801561061057600080fd5b5061022961061f36600461183b565b6111a2565b34801561063057600080fd5b506106396111d4565b604051610235919061218a565b34801561065257600080fd5b50610666610661366004611ba4565b611255565b60405161023591906121d7565b61025e610681366004611ea5565b6112dc565b60006001600160e01b03198216637965db0b60e01b14806106b757506301ffc9a760e01b6001600160e01b03198316145b92915050565b60ce546040516370b6dcd360e11b81526001600160a01b039091169063e16db9a6906106f39086908690869033906004016123af565b600060405180830381600087803b15801561070d57600080fd5b505af1158015610721573d6000803e3d6000fd5b50505050505050565b60405163050f0c7960e21b8152336004820152602481018390526044810182905283906001600160a01b0382169063143c31e49034906064016000604051808303818588803b15801561077c57600080fd5b505af1158015610790573d6000803e3d6000fd5b505050505050505050565b6000805160206125d48339815191526107b4813361134b565b5060c980546001600160a01b039092166001600160a01b0319928316811790915560ce8054909216179055565b60d0546040516381c83f3d60e01b81526001600160a01b03909116906381c83f3d90610825908d908d908d908d9033908e908e908e908e908e908e90600401612328565b600060405180830381600087803b15801561083f57600080fd5b505af1158015610853573d6000803e3d6000fd5b505050505b50505050505050505050565b604051635a4dd47d60e01b81526004810182905260009083906001600160a01b03821690635a4dd47d906024015b60206040518083038186803b1580156108aa57600080fd5b505afa1580156108be573d6000803e3d6000fd5b505050506040513d601f19601f820116820180604052508101906108e29190611e8c565b949350505050565b600082815260976020526040902060010154610906813361134b565b61091083836113af565b505050565b604051632d98e59b60e11b81526004810182905260009083906001600160a01b03821690635b31cb36906024015b60206040518083038186803b15801561095b57600080fd5b505afa15801561096f573d6000803e3d6000fd5b505050506040513d601f19601f820116820180604052508101906108e29190611c70565b6001600160a01b0381163314610a085760405162461bcd60e51b815260206004820152602f60248201527f416363657373436f6e74726f6c3a2063616e206f6e6c792072656e6f756e636560448201526e103937b632b9903337b91039b2b63360891b60648201526084015b60405180910390fd5b610a128282611435565b5050565b60cf54604051636b22141b60e11b8152600481018390523360248201526000916001600160a01b03169063d64428369060440160206040518083038186803b158015610a6157600080fd5b505afa158015610a75573d6000803e3d6000fd5b505050506040513d601f19601f820116820180604052508101906106b79190611e8c565b60405163798611f560e01b81526004810182905233602482015260609083906001600160a01b0382169063798611f59060440160006040518083038186803b158015610ae457600080fd5b505afa158015610af8573d6000803e3d6000fd5b505050506040513d6000823e601f3d908101601f191682016040526108e29190810190611e58565b60d05460405163d0f48ec760e01b81523360048201526060916001600160a01b03169063d0f48ec79060240160006040518083038186803b158015610b6457600080fd5b505afa158015610b78573d6000803e3d6000fd5b505050506040513d6000823e601f3d908101601f19168201604052610ba09190810190611be5565b905090565b60d0546040516303a24d0760e21b8152600481018390526060916001600160a01b031690630e89341c906024015b60006040518083038186803b158015610beb57600080fd5b505afa158015610bff573d6000803e3d6000fd5b505050506040513d6000823e601f3d908101601f191682016040526106b79190810190611e58565b600054610100900460ff16610c425760005460ff1615610c46565b303b155b610ca95760405162461bcd60e51b815260206004820152602e60248201527f496e697469616c697a61626c653a20636f6e747261637420697320616c72656160448201526d191e481a5b9a5d1a585b1a5e995960921b60648201526084016109ff565b600054610100900460ff16158015610ccb576000805461ffff19166101011790555b610cd361149c565b610cdb6114d5565b610ce66000336113af565b610cfe6000805160206125d4833981519152336113af565b8015610d10576000805461ff00191690555b50565b60009182526097602090815260408084206001600160a01b0393909316845291905290205460ff1690565b6000805160206125d4833981519152610d57813361134b565b5060ca80546001600160a01b039092166001600160a01b0319928316811790915560cf8054909216179055565b60d054604080516306c802d760e11b815290516000926001600160a01b031691630d9005ae916004808301926020929190829003018186803b158015610dc957600080fd5b505afa158015610ddd573d6000803e3d6000fd5b505050506040513d601f19601f82011682018060405250810190610ba09190611e8c565b60ce54604051635389a70760e11b8152600481018390526000916001600160a01b03169063a7134e0e9060240160206040518083038186803b158015610e4657600080fd5b505afa158015610e5a573d6000803e3d6000fd5b505050506040513d601f19601f820116820180604052508101906106b79190611d00565b6000805160206125d4833981519152610e97813361134b565b5060cd80546001600160a01b0319166001600160a01b0392909216919091179055565b600080829050806001600160a01b031663295d3ee86040518163ffffffff1660e01b815260040160206040518083038186803b158015610ef957600080fd5b505afa158015610f0d573d6000803e3d6000fd5b505050506040513d601f19601f82011682018060405250810190610f319190611e8c565b9392505050565b60cf5460405163b9c08fd360e01b8152600481018390526060916001600160a01b03169063b9c08fd39060240160006040518083038186803b158015610f7d57600080fd5b505afa158015610f91573d6000803e3d6000fd5b505050506040513d6000823e601f3d908101601f191682016040526106b79190810190611be5565b6000808c9050806001600160a01b031663baf21772338e8e8e8e8e8e8e8e8e8e6040518c63ffffffff1660e01b8152600401610fff9b9a9998979695949392919061203c565b602060405180830381600087803b15801561101957600080fd5b505af115801561102d573d6000803e3d6000fd5b505050506040513d601f19601f820116820180604052508101906110519190611e8c565b9d9c50505050505050505050505050565b6000805160206125d483398151915261107b813361134b565b5060cc80546001600160a01b039092166001600160a01b0319928316811790915560d08054909216179055565b6000828152609760205260409020600101546110c4813361134b565b6109108383611435565b60cf5460405163cb2de9d960e01b81526001600160a01b039091169063cb2de9d99061110a9033908a908a908a908a908a908a9060040161213b565b600060405180830381600087803b15801561112457600080fd5b505af1158015610858573d6000803e3d6000fd5b60cf546040516303a24d0760e21b8152600481018390526060916001600160a01b031690630e89341c90602401610bd3565b60405163014d058560e01b81526004810182905233602482015260009083906001600160a01b0382169063014d058590604401610892565b604051631ce718f960e31b81526004810182905260009083906001600160a01b0382169063e738c7c890602401610943565b60ce54604080516309125d1d60e31b815290516060926001600160a01b031691634892e8e8916004808301926000929190829003018186803b15801561121957600080fd5b505afa15801561122d573d6000803e3d6000fd5b505050506040513d6000823e601f3d908101601f19168201604052610ba09190810190611988565b60d054604051631ec63ccf60e31b81526060916001600160a01b03169063f631e6789061128890869086906004016122b4565b60006040518083038186803b1580156112a057600080fd5b505afa1580156112b4573d6000803e3d6000fd5b505050506040513d6000823e601f3d908101601f19168201604052610f319190810190611a2d565b60cf5460405163a44ed53560e01b81526001600160a01b039091169063a44ed535903490611314908790879087903390600401612442565b6000604051808303818588803b15801561132d57600080fd5b505af1158015611341573d6000803e3d6000fd5b5050505050505050565b6113558282610d13565b610a125761136d816001600160a01b03166014611514565b611378836020611514565b604051602001611389929190611fc7565b60408051601f198184030181529082905262461bcd60e51b82526109ff916004016123e4565b6113b98282610d13565b610a125760008281526097602090815260408083206001600160a01b03851684529091529020805460ff191660011790556113f13390565b6001600160a01b0316816001600160a01b0316837f2f8788117e7eff1d82e926ec794901d17c78024a50270940304540a733656f0d60405160405180910390a45050565b61143f8282610d13565b15610a125760008281526097602090815260408083206001600160a01b0385168085529252808320805460ff1916905551339285917ff6391f5c32d9c69d2a47ea670b442974b53935d1edc7fd64eb21e047a839171b9190a45050565b600054610100900460ff166114c35760405162461bcd60e51b81526004016109ff906123f7565b6114cb6116af565b6114d36116d6565b565b600054610100900460ff166114fc5760405162461bcd60e51b81526004016109ff906123f7565b6115046116af565b61150c6116af565b6114d36116af565b60606000611523836002612508565b61152e9060026124f0565b6001600160401b038111156115455761154561259a565b6040519080825280601f01601f19166020018201604052801561156f576020820181803683370190505b509050600360fc1b8160008151811061158a5761158a612584565b60200101906001600160f81b031916908160001a905350600f60fb1b816001815181106115b9576115b9612584565b60200101906001600160f81b031916908160001a90535060006115dd846002612508565b6115e89060016124f0565b90505b6001811115611660576f181899199a1a9b1b9c1cb0b131b232b360811b85600f166010811061161c5761161c612584565b1a60f81b82828151811061163257611632612584565b60200101906001600160f81b031916908160001a90535060049490941c9361165981612557565b90506115eb565b508315610f315760405162461bcd60e51b815260206004820181905260248201527f537472696e67733a20686578206c656e67746820696e73756666696369656e7460448201526064016109ff565b600054610100900460ff166114d35760405162461bcd60e51b81526004016109ff906123f7565b600054610100900460ff166116fd5760405162461bcd60e51b81526004016109ff906123f7565b6033805460ff19169055565b8035611714816125b0565b919050565b8051611714816125b0565b60008083601f84011261173657600080fd5b5081356001600160401b0381111561174d57600080fd5b6020830191508360208260051b850101111561176857600080fd5b9250929050565b8035611714816125c5565b60008083601f84011261178c57600080fd5b5081356001600160401b038111156117a357600080fd5b60208301915083602082850101111561176857600080fd5b600082601f8301126117cc57600080fd5b81516001600160401b038111156117e5576117e561259a565b6117f8601f8201601f191660200161249d565b81815284602083860101111561180d57600080fd5b6108e2826020830160208701612527565b60006020828403121561183057600080fd5b8135610f31816125b0565b6000806040838503121561184e57600080fd5b8235611859816125b0565b946020939093013593505050565b60008060008060008060008060008060006101008c8e03121561188957600080fd5b6118928c611709565b9a5060208c013599506118a760408d0161176f565b98506118b560608d0161176f565b97506001600160401b038060808e013511156118d057600080fd5b6118e08e60808f01358f0161177a565b909850965060a08d01358110156118f657600080fd5b6119068e60a08f01358f0161177a565b909650945061191760c08e0161176f565b93508060e08e0135111561192a57600080fd5b5061193b8d60e08e01358e01611724565b81935080925050509295989b509295989b9093969950565b60008060006060848603121561196857600080fd5b8335611973816125b0565b95602085013595506040909401359392505050565b6000602080838503121561199b57600080fd5b82516001600160401b038111156119b157600080fd5b8301601f810185136119c257600080fd5b80516119d56119d0826124cd565b61249d565b80828252848201915084840188868560051b87010111156119f557600080fd5b600094505b83851015611a21578051611a0d816125b0565b8352600194909401939185019185016119fa565b50979650505050505050565b60006020808385031215611a4057600080fd5b82516001600160401b0380821115611a5757600080fd5b818501915085601f830112611a6b57600080fd5b8151611a796119d0826124cd565b80828252858201915085850189878560051b8801011115611a9957600080fd5b60005b84811015611b9557815186811115611ab357600080fd5b870160c0818d03601f19011215611ac957600080fd5b611ad1612475565b89820151815260408083015189811115611aea57600080fd5b611af88f8d838701016117bb565b8c84015250611b0960608401611719565b90820152608082015188811115611b1f57600080fd5b611b2d8e8c838601016117bb565b60608301525060a08083015189811115611b4657600080fd5b611b548f8d838701016117bb565b60808401525060c083015189811115611b6c57600080fd5b611b7a8f8d838701016117bb565b91830191909152508552509287019290870190600101611a9c565b50909998505050505050505050565b60008060208385031215611bb757600080fd5b82356001600160401b03811115611bcd57600080fd5b611bd985828601611724565b90969095509350505050565b60006020808385031215611bf857600080fd5b82516001600160401b03811115611c0e57600080fd5b8301601f81018513611c1f57600080fd5b8051611c2d6119d0826124cd565b80828252848201915084840188868560051b8701011115611c4d57600080fd5b600094505b83851015611a21578051835260019490940193918501918501611c52565b600060208284031215611c8257600080fd5b8151610f31816125c5565b600060208284031215611c9f57600080fd5b5035919050565b60008060408385031215611cb957600080fd5b823591506020830135611ccb816125b0565b809150509250929050565b600060208284031215611ce857600080fd5b81356001600160e01b031981168114610f3157600080fd5b600060208284031215611d1257600080fd5b8151610f31816125b0565b60008060008060008060008060008060a08b8d031215611d3c57600080fd5b8a356001600160401b0380821115611d5357600080fd5b611d5f8e838f0161177a565b909c509a5060208d0135915080821115611d7857600080fd5b611d848e838f0161177a565b909a50985060408d0135915080821115611d9d57600080fd5b611da98e838f0161177a565b909850965060608d0135915080821115611dc257600080fd5b611dce8e838f0161177a565b909650945060808d0135915080821115611de757600080fd5b50611df48d828e0161177a565b915080935050809150509295989b9194979a5092959850565b600080600060408486031215611e2257600080fd5b83356001600160401b03811115611e3857600080fd5b611e448682870161177a565b909790965060209590950135949350505050565b600060208284031215611e6a57600080fd5b81516001600160401b03811115611e8057600080fd5b6108e2848285016117bb565b600060208284031215611e9e57600080fd5b5051919050565b600080600060408486031215611eba57600080fd5b8335925060208401356001600160401b03811115611ed757600080fd5b611ee38682870161177a565b9497909650939450505050565b60008060008060008060808789031215611f0957600080fd5b863595506020870135945060408701356001600160401b0380821115611f2e57600080fd5b611f3a8a838b0161177a565b90965094506060890135915080821115611f5357600080fd5b50611f6089828a0161177a565b979a9699509497509295939492505050565b81835281816020850137506000828201602090810191909152601f909101601f19169091010190565b60008151808452611fb3816020860160208601612527565b601f01601f19169290920160200192915050565b7f416363657373436f6e74726f6c3a206163636f756e7420000000000000000000815260008351611fff816017850160208801612527565b7001034b99036b4b9b9b4b733903937b6329607d1b6017918401918201528351612030816028840160208801612527565b01602801949350505050565b6001600160a01b038c16815260208082018c90528a1515604083015289151560608301526101006080830181905260009161207a8483018b8d611f72565b915083820360a085015261208f82898b611f72565b87151560c086015284810360e08601528581529150808201600586901b830182018760005b8881101561212257858303601f190184528135368b9003601e190181126120da57600080fd5b8a0180356001600160401b038111156120f257600080fd5b8036038c131561210157600080fd5b61210e8582898501611f72565b9587019594505050908401906001016120b4565b5050809450505050509c9b505050505050505050505050565b60018060a01b038816815286602082015285604082015260a06060820152600061216960a083018688611f72565b828103608084015261217c818587611f72565b9a9950505050505050505050565b6020808252825182820181905260009190848201906040850190845b818110156121cb5783516001600160a01b0316835292840192918401916001016121a6565b50909695505050505050565b60006020808301818452808551808352604092508286019150828160051b87010184880160005b838110156122a657603f19898403018552815160c08151855288820151818a87015261222c82870182611f9b565b838a01516001600160a01b0316878b0152606080850151888303828a015291935091506122598382611f9b565b92505050608080830151868303828801526122748382611f9b565b9250505060a080830151925085820381870152506122928183611f9b565b9689019694505050908601906001016121fe565b509098975050505050505050565b6020808252810182905260006001600160fb1b038311156122d457600080fd5b8260051b80856040850137600092016040019182525092915050565b6020808252825182820181905260009190848201906040850190845b818110156121cb5783518352928401929184019160010161230c565b60c08152600061233c60c083018d8f611f72565b828103602084015261234f818c8e611f72565b6001600160a01b038b1660408501528381036060850152905061237381898b611f72565b90508281036080840152612388818789611f72565b905082810360a084015261239d818587611f72565b9e9d5050505050505050505050505050565b6060815260006123c3606083018688611f72565b6020830194909452506001600160a01b039190911660409091015292915050565b602081526000610f316020830184611f9b565b6020808252602b908201527f496e697469616c697a61626c653a20636f6e7472616374206973206e6f74206960408201526a6e697469616c697a696e6760a81b606082015260800190565b84815260606020820152600061245c606083018587611f72565b905060018060a01b038316604083015295945050505050565b60405160c081016001600160401b03811182821017156124975761249761259a565b60405290565b604051601f8201601f191681016001600160401b03811182821017156124c5576124c561259a565b604052919050565b60006001600160401b038211156124e6576124e661259a565b5060051b60200190565b600082198211156125035761250361256e565b500190565b60008160001904831182151516156125225761252261256e565b500290565b60005b8381101561254257818101518382015260200161252a565b83811115612551576000848401525b50505050565b6000816125665761256661256e565b506000190190565b634e487b7160e01b600052601160045260246000fd5b634e487b7160e01b600052603260045260246000fd5b634e487b7160e01b600052604160045260246000fd5b6001600160a01b0381168114610d1057600080fd5b8015158114610d1057600080fdfea49807205ce4d355092ef5a8a18f56e8913cf4a201fbe287825b095693c21775a2646970667358221220ec4e5ec3054ba36437249dfa06b174a108973ed4754959c5667cc703bb27dd2464736f6c63430008070033",
  "linkReferences": {},
  "deployedLinkReferences": {}
}