{
  "_format": "hh-sol-artifact-1",
  "contractName": "WorksManager",
  "sourceName": "contracts/WorksManager.sol",
  "abi": [
    {
      "inputs": [],
      "stateMutability": "nonpayable",
      "type": "constructor"
    },
    {
      "anonymous": false,
      "inputs": [
        {
          "indexed": false,
          "internalType": "address",
          "name": "account",
          "type": "address"
        }
      ],
      "name": "Paused",
      "type": "event"
    },
    {
      "anonymous": false,
      "inputs": [
        {
          "indexed": true,
          "internalType": "bytes32",
          "name": "role",
          "type": "bytes32"
        },
        {
          "indexed": true,
          "internalType": "bytes32",
          "name": "previousAdminRole",
          "type": "bytes32"
        },
        {
          "indexed": true,
          "internalType": "bytes32",
          "name": "newAdminRole",
          "type": "bytes32"
        }
      ],
      "name": "RoleAdminChanged",
      "type": "event"
    },
    {
      "anonymous": false,
      "inputs": [
        {
          "indexed": true,
          "internalType": "bytes32",
          "name": "role",
          "type": "bytes32"
        },
        {
          "indexed": true,
          "internalType": "address",
          "name": "account",
          "type": "address"
        },
        {
          "indexed": true,
          "internalType": "address",
          "name": "sender",
          "type": "address"
        }
      ],
      "name": "RoleGranted",
      "type": "event"
    },
    {
      "anonymous": false,
      "inputs": [
        {
          "indexed": true,
          "internalType": "bytes32",
          "name": "role",
          "type": "bytes32"
        },
        {
          "indexed": true,
          "internalType": "address",
          "name": "account",
          "type": "address"
        },
        {
          "indexed": true,
          "internalType": "address",
          "name": "sender",
          "type": "address"
        }
      ],
      "name": "RoleRevoked",
      "type": "event"
    },
    {
      "anonymous": false,
      "inputs": [
        {
          "indexed": false,
          "internalType": "address",
          "name": "account",
          "type": "address"
        }
      ],
      "name": "Unpaused",
      "type": "event"
    },
    {
      "inputs": [],
      "name": "ADMIN_ROLE",
      "outputs": [
        {
          "internalType": "bytes32",
          "name": "",
          "type": "bytes32"
        }
      ],
      "stateMutability": "view",
      "type": "function"
    },
    {
      "inputs": [],
      "name": "DEFAULT_ADMIN_ROLE",
      "outputs": [
        {
          "internalType": "bytes32",
          "name": "",
          "type": "bytes32"
        }
      ],
      "stateMutability": "view",
      "type": "function"
    },
    {
      "inputs": [
        {
          "internalType": "string",
          "name": "tokenName",
          "type": "string"
        },
        {
          "internalType": "uint256",
          "name": "channel",
          "type": "uint256"
        }
      ],
      "name": "createPostContract",
      "outputs": [],
      "stateMutability": "payable",
      "type": "function"
    },
    {
      "inputs": [
        {
          "internalType": "address",
          "name": "contractAddress",
          "type": "address"
        },
        {
          "internalType": "string",
          "name": "computedUri",
          "type": "string"
        }
      ],
      "name": "createPostToken",
      "outputs": [
        {
          "internalType": "uint256",
          "name": "",
          "type": "uint256"
        }
      ],
      "stateMutability": "payable",
      "type": "function"
    },
    {
      "inputs": [
        {
          "internalType": "uint256",
          "name": "tokenId",
          "type": "uint256"
        }
      ],
      "name": "getChannelMetadata",
      "outputs": [
        {
          "internalType": "string",
          "name": "",
          "type": "string"
        }
      ],
      "stateMutability": "view",
      "type": "function"
    },
    {
      "inputs": [
        {
          "internalType": "uint256",
          "name": "channelToken",
          "type": "uint256"
        }
      ],
      "name": "getChannelPostContract",
      "outputs": [
        {
          "internalType": "contract Posts",
          "name": "",
          "type": "address"
        }
      ],
      "stateMutability": "view",
      "type": "function"
    },
    {
      "inputs": [],
      "name": "getCurrentChannelIndex",
      "outputs": [
        {
          "internalType": "uint256",
          "name": "",
          "type": "uint256"
        }
      ],
      "stateMutability": "view",
      "type": "function"
    },
    {
      "inputs": [
        {
          "internalType": "uint256",
          "name": "channel",
          "type": "uint256"
        }
      ],
      "name": "getMembershipList",
      "outputs": [
        {
          "internalType": "uint256[]",
          "name": "",
          "type": "uint256[]"
        }
      ],
      "stateMutability": "view",
      "type": "function"
    },
    {
      "inputs": [],
      "name": "getOwnerChannelIds",
      "outputs": [
        {
          "internalType": "uint256[]",
          "name": "",
          "type": "uint256[]"
        }
      ],
      "stateMutability": "view",
      "type": "function"
    },
    {
      "inputs": [],
      "name": "getPostContracts",
      "outputs": [
        {
          "internalType": "contract Posts[]",
          "name": "",
          "type": "address[]"
        }
      ],
      "stateMutability": "view",
      "type": "function"
    },
    {
      "inputs": [
        {
          "internalType": "address",
          "name": "contractAddress",
          "type": "address"
        },
        {
          "internalType": "uint256",
          "name": "tokenId",
          "type": "uint256"
        }
      ],
      "name": "getPostTokenBalance",
      "outputs": [
        {
          "internalType": "uint256",
          "name": "",
          "type": "uint256"
        }
      ],
      "stateMutability": "view",
      "type": "function"
    },
    {
      "inputs": [
        {
          "internalType": "address",
          "name": "contractAddress",
          "type": "address"
        }
      ],
      "name": "getPostTokenIndex",
      "outputs": [
        {
          "internalType": "uint256",
          "name": "",
          "type": "uint256"
        }
      ],
      "stateMutability": "payable",
      "type": "function"
    },
    {
      "inputs": [
        {
          "internalType": "address",
          "name": "contractAddress",
          "type": "address"
        },
        {
          "internalType": "uint256",
          "name": "tokenId",
          "type": "uint256"
        }
      ],
      "name": "getPostUri",
      "outputs": [
        {
          "internalType": "string",
          "name": "",
          "type": "string"
        }
      ],
      "stateMutability": "payable",
      "type": "function"
    },
    {
      "inputs": [
        {
          "internalType": "bytes32",
          "name": "role",
          "type": "bytes32"
        }
      ],
      "name": "getRoleAdmin",
      "outputs": [
        {
          "internalType": "bytes32",
          "name": "",
          "type": "bytes32"
        }
      ],
      "stateMutability": "view",
      "type": "function"
    },
    {
      "inputs": [
        {
          "internalType": "bytes32",
          "name": "role",
          "type": "bytes32"
        },
        {
          "internalType": "address",
          "name": "account",
          "type": "address"
        }
      ],
      "name": "grantRole",
      "outputs": [],
      "stateMutability": "nonpayable",
      "type": "function"
    },
    {
      "inputs": [
        {
          "internalType": "bytes32",
          "name": "role",
          "type": "bytes32"
        },
        {
          "internalType": "address",
          "name": "account",
          "type": "address"
        }
      ],
      "name": "hasRole",
      "outputs": [
        {
          "internalType": "bool",
          "name": "",
          "type": "bool"
        }
      ],
      "stateMutability": "view",
      "type": "function"
    },
    {
      "inputs": [],
      "name": "initialize",
      "outputs": [],
      "stateMutability": "nonpayable",
      "type": "function"
    },
    {
      "inputs": [
        {
          "internalType": "uint256",
          "name": "channel",
          "type": "uint256"
        },
        {
          "internalType": "string",
          "name": "level",
          "type": "string"
        }
      ],
      "name": "membershipMint",
      "outputs": [],
      "stateMutability": "payable",
      "type": "function"
    },
    {
      "inputs": [
        {
          "internalType": "uint256",
          "name": "channel",
          "type": "uint256"
        },
        {
          "internalType": "uint256",
          "name": "cost",
          "type": "uint256"
        },
        {
          "internalType": "string",
          "name": "level",
          "type": "string"
        },
        {
          "internalType": "string",
          "name": "computedUri",
          "type": "string"
        }
      ],
      "name": "membershipTokenCreate",
      "outputs": [],
      "stateMutability": "nonpayable",
      "type": "function"
    },
    {
      "inputs": [
        {
          "internalType": "uint256",
          "name": "tokenId",
          "type": "uint256"
        }
      ],
      "name": "membershipUri",
      "outputs": [
        {
          "internalType": "string",
          "name": "",
          "type": "string"
        }
      ],
      "stateMutability": "view",
      "type": "function"
    },
    {
      "inputs": [
        {
          "internalType": "string",
          "name": "channelName",
          "type": "string"
        },
        {
          "internalType": "string",
          "name": "channelUri",
          "type": "string"
        }
      ],
      "name": "mintChannel",
      "outputs": [],
      "stateMutability": "payable",
      "type": "function"
    },
    {
      "inputs": [],
      "name": "paused",
      "outputs": [
        {
          "internalType": "bool",
          "name": "",
          "type": "bool"
        }
      ],
      "stateMutability": "view",
      "type": "function"
    },
    {
      "inputs": [
        {
          "internalType": "address",
          "name": "contractAddress",
          "type": "address"
        },
        {
          "internalType": "uint256",
          "name": "tokenId",
          "type": "uint256"
        }
      ],
      "name": "postMint",
      "outputs": [],
      "stateMutability": "payable",
      "type": "function"
    },
    {
      "inputs": [
        {
          "internalType": "bytes32",
          "name": "role",
          "type": "bytes32"
        },
        {
          "internalType": "address",
          "name": "account",
          "type": "address"
        }
      ],
      "name": "renounceRole",
      "outputs": [],
      "stateMutability": "nonpayable",
      "type": "function"
    },
    {
      "inputs": [
        {
          "internalType": "bytes32",
          "name": "role",
          "type": "bytes32"
        },
        {
          "internalType": "address",
          "name": "account",
          "type": "address"
        }
      ],
      "name": "revokeRole",
      "outputs": [],
      "stateMutability": "nonpayable",
      "type": "function"
    },
    {
      "inputs": [
        {
          "internalType": "address",
          "name": "_channelsAddress",
          "type": "address"
        }
      ],
      "name": "setChannelsAddress",
      "outputs": [],
      "stateMutability": "nonpayable",
      "type": "function"
    },
    {
      "inputs": [
        {
          "internalType": "address",
          "name": "_membershipsAddress",
          "type": "address"
        }
      ],
      "name": "setMembershipsAddress",
      "outputs": [],
      "stateMutability": "nonpayable",
      "type": "function"
    },
    {
      "inputs": [
        {
          "internalType": "address",
          "name": "_postAddress",
          "type": "address"
        }
      ],
      "name": "setPostAddress",
      "outputs": [],
      "stateMutability": "nonpayable",
      "type": "function"
    },
    {
      "inputs": [
        {
          "internalType": "address",
          "name": "_postFactoryAddress",
          "type": "address"
        }
      ],
      "name": "setPostFactoryAddress",
      "outputs": [],
      "stateMutability": "nonpayable",
      "type": "function"
    },
    {
      "inputs": [
        {
          "internalType": "bytes4",
          "name": "interfaceId",
          "type": "bytes4"
        }
      ],
      "name": "supportsInterface",
      "outputs": [
        {
          "internalType": "bool",
          "name": "",
          "type": "bool"
        }
      ],
      "stateMutability": "view",
      "type": "function"
    }
  ],
  "bytecode": "0x60806040523480156200001157600080fd5b506200001f60003362000051565b6200004b7fa49807205ce4d355092ef5a8a18f56e8913cf4a201fbe287825b095693c217753362000051565b62000105565b6200005d828262000061565b5050565b60008281526097602090815260408083206001600160a01b038516845290915290205460ff166200005d5760008281526097602090815260408083206001600160a01b03851684529091529020805460ff19166001179055620000c13390565b6001600160a01b0316816001600160a01b0316837f2f8788117e7eff1d82e926ec794901d17c78024a50270940304540a733656f0d60405160405180910390a45050565b611c5980620001156000396000f3fe6080604052600436106101cd5760003560e01c8063a217fddf116100f7578063c27855f611610095578063dcff3bae11610064578063dcff3bae146104f9578063e7625a4114610519578063f0f5d88214610539578063f72c2fe61461055b57600080fd5b8063c27855f614610486578063cde05490146104a6578063d547741f146104b9578063d8eaf1a5146104d957600080fd5b8063a91fcf65116100d1578063a91fcf6514610420578063ab7e4bc214610433578063b99da10e14610453578063b9c08fd31461046657600080fd5b8063a217fddf146103be578063a59b2518146103d3578063a7134e0e146103e857600080fd5b8063582e05471161016f578063807b989a1161013e578063807b989a146103495780638129fc1c1461036957806391d148541461037e5780639d77f3c71461039e57600080fd5b8063582e0547146102da5780635c975abb146102fc57806375b238fc146103145780637c0b80651461033657600080fd5b8063248a9ca3116101ab578063248a9ca31461023c5780632f2ff15d1461027a57806336568abe1461029a578063495a9440146102ba57600080fd5b806301ffc9a7146101d25780630221e3db1461020757806318873e641461021c575b600080fd5b3480156101de57600080fd5b506101f26101ed3660046115cb565b61056e565b60405190151581526020015b60405180910390f35b61021a61021536600461167e565b6105a5565b005b34801561022857600080fd5b5061021a6102373660046113b2565b610612565b34801561024857600080fd5b5061026c610257366004611582565b60009081526097602052604090206001015490565b6040519081526020016101fe565b34801561028657600080fd5b5061021a61029536600461159b565b610658565b3480156102a657600080fd5b5061021a6102b536600461159b565b610683565b6102cd6102c8366004611424565b610706565b6040516101fe91906119ec565b3480156102e657600080fd5b506102ef61078f565b6040516101fe919061193d565b34801561030857600080fd5b5060335460ff166101f2565b34801561032057600080fd5b5061026c600080516020611c0483398151915281565b61021a610344366004611612565b610814565b34801561035557600080fd5b506102cd610364366004611582565b610885565b34801561037557600080fd5b5061021a610907565b34801561038a57600080fd5b506101f261039936600461159b565b6109f3565b3480156103aa57600080fd5b5061021a6103b93660046113b2565b610a1e565b3480156103ca57600080fd5b5061026c600081565b3480156103df57600080fd5b5061026c610a64565b3480156103f457600080fd5b50610408610403366004611582565b610ae1565b6040516001600160a01b0390911681526020016101fe565b61021a61042e366004611424565b610b5e565b34801561043f57600080fd5b5061021a61044e3660046113b2565b610b93565b61026c6104613660046113b2565b610bcf565b34801561047257600080fd5b506102ef610481366004611582565b610c4d565b34801561049257600080fd5b5061021a6104a13660046113b2565b610cce565b61026c6104b43660046113cf565b610d14565b3480156104c557600080fd5b5061021a6104d436600461159b565b610da4565b3480156104e557600080fd5b5061021a6104f43660046117aa565b610dca565b34801561050557600080fd5b506102cd610514366004611582565b610e3e565b34801561052557600080fd5b5061026c610534366004611424565b610e70565b34801561054557600080fd5b5061054e610ef3565b6040516101fe91906118f0565b61021a610569366004611777565b610f74565b60006001600160e01b03198216637965db0b60e01b148061059f57506301ffc9a760e01b6001600160e01b03198316145b92915050565b60cd546040516370b6dcd360e11b81526001600160a01b039091169063e16db9a6906105db9086908690869033906004016119b7565b600060405180830381600087803b1580156105f557600080fd5b505af1158015610609573d6000803e3d6000fd5b50505050505050565b600080516020611c0483398151915261062b8133610faa565b5060c980546001600160a01b039092166001600160a01b0319928316811790915560cd8054909216179055565b6000828152609760205260409020600101546106748133610faa565b61067e838361100e565b505050565b6001600160a01b03811633146106f85760405162461bcd60e51b815260206004820152602f60248201527f416363657373436f6e74726f6c3a2063616e206f6e6c792072656e6f756e636560448201526e103937b632b9903337b91039b2b63360891b60648201526084015b60405180910390fd5b6107028282611094565b5050565b6040516303a24d0760e21b81526004810182905260609083906001600160a01b03821690630e89341c9060240160006040518083038186803b15801561074b57600080fd5b505afa15801561075f573d6000803e3d6000fd5b505050506040513d6000823e601f3d908101601f1916820160405261078791908101906116ca565b949350505050565b60cf5460405163d0f48ec760e01b81523360048201526060916001600160a01b03169063d0f48ec79060240160006040518083038186803b1580156107d357600080fd5b505afa1580156107e7573d6000803e3d6000fd5b505050506040513d6000823e601f3d908101601f1916820160405261080f91908101906114f6565b905090565b60cf5460405163076c678360e01b81526001600160a01b039091169063076c67839061084c9087908790879087903390600401611975565b600060405180830381600087803b15801561086657600080fd5b505af115801561087a573d6000803e3d6000fd5b505050505b50505050565b60cf546040516303a24d0760e21b8152600481018390526060916001600160a01b031690630e89341c906024015b60006040518083038186803b1580156108cb57600080fd5b505afa1580156108df573d6000803e3d6000fd5b505050506040513d6000823e601f3d908101601f1916820160405261059f91908101906116ca565b600054610100900460ff166109225760005460ff1615610926565b303b155b6109895760405162461bcd60e51b815260206004820152602e60248201527f496e697469616c697a61626c653a20636f6e747261637420697320616c72656160448201526d191e481a5b9a5d1a585b1a5e995960921b60648201526084016106ef565b600054610100900460ff161580156109ab576000805461ffff19166101011790555b6109b36110fb565b6109bb611134565b6109c660003361100e565b6109de600080516020611c048339815191523361100e565b80156109f0576000805461ff00191690555b50565b60009182526097602090815260408084206001600160a01b0393909316845291905290205460ff1690565b600080516020611c04833981519152610a378133610faa565b5060ca80546001600160a01b039092166001600160a01b0319928316811790915560ce8054909216179055565b60cf54604080516306c802d760e11b815290516000926001600160a01b031691630d9005ae916004808301926020929190829003018186803b158015610aa957600080fd5b505afa158015610abd573d6000803e3d6000fd5b505050506040513d601f19601f8201168201806040525081019061080f919061175e565b60cd54604051635389a70760e11b8152600481018390526000916001600160a01b03169063a7134e0e9060240160206040518083038186803b158015610b2657600080fd5b505afa158015610b3a573d6000803e3d6000fd5b505050506040513d601f19601f8201168201806040525081019061059f91906115f5565b60405163a91fcf6560e01b81523360048201526024810182905282906001600160a01b0382169063a91fcf65906044016105db565b600080516020611c04833981519152610bac8133610faa565b5060cc80546001600160a01b0319166001600160a01b0392909216919091179055565b600080829050806001600160a01b031663295d3ee86040518163ffffffff1660e01b815260040160206040518083038186803b158015610c0e57600080fd5b505afa158015610c22573d6000803e3d6000fd5b505050506040513d601f19601f82011682018060405250810190610c46919061175e565b9392505050565b60ce5460405163b9c08fd360e01b8152600481018390526060916001600160a01b03169063b9c08fd39060240160006040518083038186803b158015610c9257600080fd5b505afa158015610ca6573d6000803e3d6000fd5b505050506040513d6000823e601f3d908101601f1916820160405261059f91908101906114f6565b600080516020611c04833981519152610ce78133610faa565b5060cb80546001600160a01b039092166001600160a01b0319928316811790915560cf8054909216179055565b604051630cde054960e41b815260009084906001600160a01b0382169063cde0549090610d49903390889088906004016118cb565b602060405180830381600087803b158015610d6357600080fd5b505af1158015610d77573d6000803e3d6000fd5b505050506040513d601f19601f82011682018060405250810190610d9b919061175e565b95945050505050565b600082815260976020526040902060010154610dc08133610faa565b61067e8383611094565b60ce5460405163d8eaf1a560e01b81526001600160a01b039091169063d8eaf1a590610e0490899089908990899089908990600401611a9d565b600060405180830381600087803b158015610e1e57600080fd5b505af1158015610e32573d6000803e3d6000fd5b50505050505050505050565b60ce546040516303a24d0760e21b8152600481018390526060916001600160a01b031690630e89341c906024016108b3565b60405163014d058560e01b81526004810182905233602482015260009083906001600160a01b0382169063014d05859060440160206040518083038186803b158015610ebb57600080fd5b505afa158015610ecf573d6000803e3d6000fd5b505050506040513d601f19601f82011682018060405250810190610787919061175e565b60cd54604080516309125d1d60e31b815290516060926001600160a01b031691634892e8e8916004808301926000929190829003018186803b158015610f3857600080fd5b505afa158015610f4c573d6000803e3d6000fd5b505050506040513d6000823e601f3d908101601f1916820160405261080f9190810190611450565b60ce5460405163a44ed53560e01b81526001600160a01b039091169063a44ed535906105db908690869086903390600401611a6a565b610fb482826109f3565b61070257610fcc816001600160a01b03166014611173565b610fd7836020611173565b604051602001610fe8929190611856565b60408051601f198184030181529082905262461bcd60e51b82526106ef916004016119ec565b61101882826109f3565b6107025760008281526097602090815260408083206001600160a01b03851684529091529020805460ff191660011790556110503390565b6001600160a01b0316816001600160a01b0316837f2f8788117e7eff1d82e926ec794901d17c78024a50270940304540a733656f0d60405160405180910390a45050565b61109e82826109f3565b156107025760008281526097602090815260408083206001600160a01b0385168085529252808320805460ff1916905551339285917ff6391f5c32d9c69d2a47ea670b442974b53935d1edc7fd64eb21e047a839171b9190a45050565b600054610100900460ff166111225760405162461bcd60e51b81526004016106ef90611a1f565b61112a61130f565b611132611336565b565b600054610100900460ff1661115b5760405162461bcd60e51b81526004016106ef90611a1f565b61116361130f565b61116b61130f565b61113261130f565b60606000611182836002611b4a565b61118d906002611b32565b67ffffffffffffffff8111156111a5576111a5611bd8565b6040519080825280601f01601f1916602001820160405280156111cf576020820181803683370190505b509050600360fc1b816000815181106111ea576111ea611bc2565b60200101906001600160f81b031916908160001a905350600f60fb1b8160018151811061121957611219611bc2565b60200101906001600160f81b031916908160001a905350600061123d846002611b4a565b611248906001611b32565b90505b60018111156112c0576f181899199a1a9b1b9c1cb0b131b232b360811b85600f166010811061127c5761127c611bc2565b1a60f81b82828151811061129257611292611bc2565b60200101906001600160f81b031916908160001a90535060049490941c936112b981611b95565b905061124b565b508315610c465760405162461bcd60e51b815260206004820181905260248201527f537472696e67733a20686578206c656e67746820696e73756666696369656e7460448201526064016106ef565b600054610100900460ff166111325760405162461bcd60e51b81526004016106ef90611a1f565b600054610100900460ff1661135d5760405162461bcd60e51b81526004016106ef90611a1f565b6033805460ff19169055565b60008083601f84011261137b57600080fd5b50813567ffffffffffffffff81111561139357600080fd5b6020830191508360208285010111156113ab57600080fd5b9250929050565b6000602082840312156113c457600080fd5b8135610c4681611bee565b6000806000604084860312156113e457600080fd5b83356113ef81611bee565b9250602084013567ffffffffffffffff81111561140b57600080fd5b61141786828701611369565b9497909650939450505050565b6000806040838503121561143757600080fd5b823561144281611bee565b946020939093013593505050565b6000602080838503121561146357600080fd5b825167ffffffffffffffff81111561147a57600080fd5b8301601f8101851361148b57600080fd5b805161149e61149982611b0e565b611add565b80828252848201915084840188868560051b87010111156114be57600080fd5b600094505b838510156114ea5780516114d681611bee565b8352600194909401939185019185016114c3565b50979650505050505050565b6000602080838503121561150957600080fd5b825167ffffffffffffffff81111561152057600080fd5b8301601f8101851361153157600080fd5b805161153f61149982611b0e565b80828252848201915084840188868560051b870101111561155f57600080fd5b600094505b838510156114ea578051835260019490940193918501918501611564565b60006020828403121561159457600080fd5b5035919050565b600080604083850312156115ae57600080fd5b8235915060208301356115c081611bee565b809150509250929050565b6000602082840312156115dd57600080fd5b81356001600160e01b031981168114610c4657600080fd5b60006020828403121561160757600080fd5b8151610c4681611bee565b6000806000806040858703121561162857600080fd5b843567ffffffffffffffff8082111561164057600080fd5b61164c88838901611369565b9096509450602087013591508082111561166557600080fd5b5061167287828801611369565b95989497509550505050565b60008060006040848603121561169357600080fd5b833567ffffffffffffffff8111156116aa57600080fd5b6116b686828701611369565b909790965060209590950135949350505050565b6000602082840312156116dc57600080fd5b815167ffffffffffffffff808211156116f457600080fd5b818401915084601f83011261170857600080fd5b81518181111561171a5761171a611bd8565b61172d601f8201601f1916602001611add565b915080825285602082850101111561174457600080fd5b611755816020840160208601611b69565b50949350505050565b60006020828403121561177057600080fd5b5051919050565b60008060006040848603121561178c57600080fd5b83359250602084013567ffffffffffffffff81111561140b57600080fd5b600080600080600080608087890312156117c357600080fd5b8635955060208701359450604087013567ffffffffffffffff808211156117e957600080fd5b6117f58a838b01611369565b9096509450606089013591508082111561180e57600080fd5b5061181b89828a01611369565b979a9699509497509295939492505050565b81835281816020850137506000828201602090810191909152601f909101601f19169091010190565b7f416363657373436f6e74726f6c3a206163636f756e742000000000000000000081526000835161188e816017850160208801611b69565b7001034b99036b4b9b9b4b733903937b6329607d1b60179184019182015283516118bf816028840160208801611b69565b01602801949350505050565b6001600160a01b0384168152604060208201819052600090610d9b908301848661182d565b6020808252825182820181905260009190848201906040850190845b818110156119315783516001600160a01b03168352928401929184019160010161190c565b50909695505050505050565b6020808252825182820181905260009190848201906040850190845b8181101561193157835183529284019291840191600101611959565b60608152600061198960608301878961182d565b828103602084015261199c81868861182d565b91505060018060a01b03831660408301529695505050505050565b6060815260006119cb60608301868861182d565b6020830194909452506001600160a01b039190911660409091015292915050565b6020815260008251806020840152611a0b816040850160208701611b69565b601f01601f19169190910160400192915050565b6020808252602b908201527f496e697469616c697a61626c653a20636f6e7472616374206973206e6f74206960408201526a6e697469616c697a696e6760a81b606082015260800190565b848152606060208201526000611a8460608301858761182d565b905060018060a01b038316604083015295945050505050565b868152856020820152608060408201526000611abd60808301868861182d565b8281036060840152611ad081858761182d565b9998505050505050505050565b604051601f8201601f1916810167ffffffffffffffff81118282101715611b0657611b06611bd8565b604052919050565b600067ffffffffffffffff821115611b2857611b28611bd8565b5060051b60200190565b60008219821115611b4557611b45611bac565b500190565b6000816000190483118215151615611b6457611b64611bac565b500290565b60005b83811015611b84578181015183820152602001611b6c565b8381111561087f5750506000910152565b600081611ba457611ba4611bac565b506000190190565b634e487b7160e01b600052601160045260246000fd5b634e487b7160e01b600052603260045260246000fd5b634e487b7160e01b600052604160045260246000fd5b6001600160a01b03811681146109f057600080fdfea49807205ce4d355092ef5a8a18f56e8913cf4a201fbe287825b095693c21775a2646970667358221220a0402bf65fc656f77b8225ee6200b100aac55c562bab083aecb343fb1f8a2e8b64736f6c63430008070033",
  "linkReferences": {},
  "deployedLinkReferences": {}
}