{
  "_format": "hh-sol-artifact-1",
  "contractName": "WorksManager",
  "sourceName": "contracts/WorksManager.sol",
  "abi": [
    {
      "inputs": [],
      "stateMutability": "nonpayable",
      "type": "constructor"
    },
    {
      "anonymous": false,
      "inputs": [
        {
          "indexed": false,
          "internalType": "address",
          "name": "account",
          "type": "address"
        }
      ],
      "name": "Paused",
      "type": "event"
    },
    {
      "anonymous": false,
      "inputs": [
        {
          "indexed": true,
          "internalType": "bytes32",
          "name": "role",
          "type": "bytes32"
        },
        {
          "indexed": true,
          "internalType": "bytes32",
          "name": "previousAdminRole",
          "type": "bytes32"
        },
        {
          "indexed": true,
          "internalType": "bytes32",
          "name": "newAdminRole",
          "type": "bytes32"
        }
      ],
      "name": "RoleAdminChanged",
      "type": "event"
    },
    {
      "anonymous": false,
      "inputs": [
        {
          "indexed": true,
          "internalType": "bytes32",
          "name": "role",
          "type": "bytes32"
        },
        {
          "indexed": true,
          "internalType": "address",
          "name": "account",
          "type": "address"
        },
        {
          "indexed": true,
          "internalType": "address",
          "name": "sender",
          "type": "address"
        }
      ],
      "name": "RoleGranted",
      "type": "event"
    },
    {
      "anonymous": false,
      "inputs": [
        {
          "indexed": true,
          "internalType": "bytes32",
          "name": "role",
          "type": "bytes32"
        },
        {
          "indexed": true,
          "internalType": "address",
          "name": "account",
          "type": "address"
        },
        {
          "indexed": true,
          "internalType": "address",
          "name": "sender",
          "type": "address"
        }
      ],
      "name": "RoleRevoked",
      "type": "event"
    },
    {
      "anonymous": false,
      "inputs": [
        {
          "indexed": false,
          "internalType": "address",
          "name": "account",
          "type": "address"
        }
      ],
      "name": "Unpaused",
      "type": "event"
    },
    {
      "inputs": [],
      "name": "ADMIN_ROLE",
      "outputs": [
        {
          "internalType": "bytes32",
          "name": "",
          "type": "bytes32"
        }
      ],
      "stateMutability": "view",
      "type": "function"
    },
    {
      "inputs": [],
      "name": "DEFAULT_ADMIN_ROLE",
      "outputs": [
        {
          "internalType": "bytes32",
          "name": "",
          "type": "bytes32"
        }
      ],
      "stateMutability": "view",
      "type": "function"
    },
    {
      "inputs": [
        {
          "internalType": "string",
          "name": "tokenName",
          "type": "string"
        },
        {
          "internalType": "uint256",
          "name": "channel",
          "type": "uint256"
        }
      ],
      "name": "createPostContract",
      "outputs": [],
      "stateMutability": "nonpayable",
      "type": "function"
    },
    {
      "inputs": [
        {
          "internalType": "address",
          "name": "contractAddress",
          "type": "address"
        },
        {
          "internalType": "uint256",
          "name": "cost",
          "type": "uint256"
        },
        {
          "internalType": "bool",
          "name": "isBuyable",
          "type": "bool"
        },
        {
          "internalType": "bool",
          "name": "isPublic",
          "type": "bool"
        },
        {
          "internalType": "string",
          "name": "computedUri",
          "type": "string"
        },
        {
          "internalType": "string",
          "name": "paywallUri",
          "type": "string"
        },
        {
          "internalType": "bool",
          "name": "mintable",
          "type": "bool"
        },
        {
          "internalType": "string[]",
          "name": "levels",
          "type": "string[]"
        }
      ],
      "name": "createPostToken",
      "outputs": [
        {
          "internalType": "uint256",
          "name": "",
          "type": "uint256"
        }
      ],
      "stateMutability": "nonpayable",
      "type": "function"
    },
    {
      "inputs": [
        {
          "internalType": "uint256",
          "name": "tokenId",
          "type": "uint256"
        }
      ],
      "name": "getChannelMetadata",
      "outputs": [
        {
          "internalType": "string",
          "name": "",
          "type": "string"
        }
      ],
      "stateMutability": "view",
      "type": "function"
    },
    {
      "inputs": [
        {
          "internalType": "uint256",
          "name": "channelToken",
          "type": "uint256"
        }
      ],
      "name": "getChannelPostContract",
      "outputs": [
        {
          "internalType": "contract Posts",
          "name": "",
          "type": "address"
        }
      ],
      "stateMutability": "view",
      "type": "function"
    },
    {
      "inputs": [],
      "name": "getCurrentChannelIndex",
      "outputs": [
        {
          "internalType": "uint256",
          "name": "",
          "type": "uint256"
        }
      ],
      "stateMutability": "view",
      "type": "function"
    },
    {
      "inputs": [
        {
          "internalType": "uint256",
          "name": "channel",
          "type": "uint256"
        }
      ],
      "name": "getMembershipList",
      "outputs": [
        {
          "internalType": "uint256[]",
          "name": "",
          "type": "uint256[]"
        }
      ],
      "stateMutability": "view",
      "type": "function"
    },
    {
      "inputs": [],
      "name": "getOwnerChannelIds",
      "outputs": [
        {
          "internalType": "uint256[]",
          "name": "",
          "type": "uint256[]"
        }
      ],
      "stateMutability": "view",
      "type": "function"
    },
    {
      "inputs": [
        {
          "internalType": "uint256[]",
          "name": "channelIds",
          "type": "uint256[]"
        }
      ],
      "name": "getOwnerChannelList",
      "outputs": [
        {
          "components": [
            {
              "internalType": "uint256",
              "name": "tokenIndex",
              "type": "uint256"
            },
            {
              "internalType": "string",
              "name": "channelName",
              "type": "string"
            },
            {
              "internalType": "address",
              "name": "membershipToken",
              "type": "address"
            },
            {
              "internalType": "string",
              "name": "author",
              "type": "string"
            },
            {
              "internalType": "string",
              "name": "copyright",
              "type": "string"
            },
            {
              "internalType": "string",
              "name": "language",
              "type": "string"
            }
          ],
          "internalType": "struct Structs.Channel[]",
          "name": "",
          "type": "tuple[]"
        }
      ],
      "stateMutability": "view",
      "type": "function"
    },
    {
      "inputs": [],
      "name": "getPostContracts",
      "outputs": [
        {
          "internalType": "contract Posts[]",
          "name": "",
          "type": "address[]"
        }
      ],
      "stateMutability": "view",
      "type": "function"
    },
    {
      "inputs": [
        {
          "internalType": "address",
          "name": "contractAddress",
          "type": "address"
        },
        {
          "internalType": "uint256",
          "name": "tokenId",
          "type": "uint256"
        }
      ],
      "name": "getPostTokenBalance",
      "outputs": [
        {
          "internalType": "uint256",
          "name": "",
          "type": "uint256"
        }
      ],
      "stateMutability": "view",
      "type": "function"
    },
    {
      "inputs": [
        {
          "internalType": "address",
          "name": "contractAddress",
          "type": "address"
        }
      ],
      "name": "getPostTokenIndex",
      "outputs": [
        {
          "internalType": "uint256",
          "name": "",
          "type": "uint256"
        }
      ],
      "stateMutability": "view",
      "type": "function"
    },
    {
      "inputs": [
        {
          "internalType": "address",
          "name": "contractAddress",
          "type": "address"
        },
        {
          "internalType": "uint256",
          "name": "tokenId",
          "type": "uint256"
        }
      ],
      "name": "getPostUri",
      "outputs": [
        {
          "internalType": "string",
          "name": "",
          "type": "string"
        }
      ],
      "stateMutability": "view",
      "type": "function"
    },
    {
      "inputs": [
        {
          "internalType": "bytes32",
          "name": "role",
          "type": "bytes32"
        }
      ],
      "name": "getRoleAdmin",
      "outputs": [
        {
          "internalType": "bytes32",
          "name": "",
          "type": "bytes32"
        }
      ],
      "stateMutability": "view",
      "type": "function"
    },
    {
      "inputs": [
        {
          "internalType": "bytes32",
          "name": "role",
          "type": "bytes32"
        },
        {
          "internalType": "address",
          "name": "account",
          "type": "address"
        }
      ],
      "name": "grantRole",
      "outputs": [],
      "stateMutability": "nonpayable",
      "type": "function"
    },
    {
      "inputs": [
        {
          "internalType": "bytes32",
          "name": "role",
          "type": "bytes32"
        },
        {
          "internalType": "address",
          "name": "account",
          "type": "address"
        }
      ],
      "name": "hasRole",
      "outputs": [
        {
          "internalType": "bool",
          "name": "",
          "type": "bool"
        }
      ],
      "stateMutability": "view",
      "type": "function"
    },
    {
      "inputs": [],
      "name": "initialize",
      "outputs": [],
      "stateMutability": "nonpayable",
      "type": "function"
    },
    {
      "inputs": [
        {
          "internalType": "uint256",
          "name": "channel",
          "type": "uint256"
        },
        {
          "internalType": "string",
          "name": "level",
          "type": "string"
        }
      ],
      "name": "membershipMint",
      "outputs": [],
      "stateMutability": "payable",
      "type": "function"
    },
    {
      "inputs": [
        {
          "internalType": "uint256",
          "name": "channel",
          "type": "uint256"
        },
        {
          "internalType": "uint256",
          "name": "cost",
          "type": "uint256"
        },
        {
          "internalType": "string",
          "name": "level",
          "type": "string"
        },
        {
          "internalType": "string",
          "name": "computedUri",
          "type": "string"
        }
      ],
      "name": "membershipTokenCreate",
      "outputs": [],
      "stateMutability": "nonpayable",
      "type": "function"
    },
    {
      "inputs": [
        {
          "internalType": "uint256",
          "name": "tokenId",
          "type": "uint256"
        }
      ],
      "name": "membershipUri",
      "outputs": [
        {
          "internalType": "string",
          "name": "",
          "type": "string"
        }
      ],
      "stateMutability": "view",
      "type": "function"
    },
    {
      "inputs": [
        {
          "internalType": "string",
          "name": "channelName",
          "type": "string"
        },
        {
          "internalType": "string",
          "name": "channelUri",
          "type": "string"
        },
        {
          "internalType": "string",
          "name": "author",
          "type": "string"
        },
        {
          "internalType": "string",
          "name": "copyright",
          "type": "string"
        },
        {
          "internalType": "string",
          "name": "language",
          "type": "string"
        }
      ],
      "name": "mintChannel",
      "outputs": [],
      "stateMutability": "payable",
      "type": "function"
    },
    {
      "inputs": [],
      "name": "paused",
      "outputs": [
        {
          "internalType": "bool",
          "name": "",
          "type": "bool"
        }
      ],
      "stateMutability": "view",
      "type": "function"
    },
    {
      "inputs": [
        {
          "internalType": "address",
          "name": "contractAddress",
          "type": "address"
        },
        {
          "internalType": "uint256",
          "name": "membershipId",
          "type": "uint256"
        },
        {
          "internalType": "uint256",
          "name": "tokenId",
          "type": "uint256"
        }
      ],
      "name": "postMint",
      "outputs": [],
      "stateMutability": "payable",
      "type": "function"
    },
    {
      "inputs": [
        {
          "internalType": "bytes32",
          "name": "role",
          "type": "bytes32"
        },
        {
          "internalType": "address",
          "name": "account",
          "type": "address"
        }
      ],
      "name": "renounceRole",
      "outputs": [],
      "stateMutability": "nonpayable",
      "type": "function"
    },
    {
      "inputs": [
        {
          "internalType": "bytes32",
          "name": "role",
          "type": "bytes32"
        },
        {
          "internalType": "address",
          "name": "account",
          "type": "address"
        }
      ],
      "name": "revokeRole",
      "outputs": [],
      "stateMutability": "nonpayable",
      "type": "function"
    },
    {
      "inputs": [
        {
          "internalType": "address",
          "name": "_channelsAddress",
          "type": "address"
        }
      ],
      "name": "setChannelsAddress",
      "outputs": [],
      "stateMutability": "nonpayable",
      "type": "function"
    },
    {
      "inputs": [
        {
          "internalType": "address",
          "name": "_membershipsAddress",
          "type": "address"
        }
      ],
      "name": "setMembershipsAddress",
      "outputs": [],
      "stateMutability": "nonpayable",
      "type": "function"
    },
    {
      "inputs": [
        {
          "internalType": "address",
          "name": "_postAddress",
          "type": "address"
        }
      ],
      "name": "setPostAddress",
      "outputs": [],
      "stateMutability": "nonpayable",
      "type": "function"
    },
    {
      "inputs": [
        {
          "internalType": "address",
          "name": "_postFactoryAddress",
          "type": "address"
        }
      ],
      "name": "setPostFactoryAddress",
      "outputs": [],
      "stateMutability": "nonpayable",
      "type": "function"
    },
    {
      "inputs": [
        {
          "internalType": "bytes4",
          "name": "interfaceId",
          "type": "bytes4"
        }
      ],
      "name": "supportsInterface",
      "outputs": [
        {
          "internalType": "bool",
          "name": "",
          "type": "bool"
        }
      ],
      "stateMutability": "view",
      "type": "function"
    }
  ],
  "bytecode": "0x60806040523480156200001157600080fd5b506200001f60003362000051565b6200004b7fa49807205ce4d355092ef5a8a18f56e8913cf4a201fbe287825b095693c217753362000051565b62000105565b6200005d828262000061565b5050565b60008281526097602090815260408083206001600160a01b038516845290915290205460ff166200005d5760008281526097602090815260408083206001600160a01b03851684529091529020805460ff19166001179055620000c13390565b6001600160a01b0316816001600160a01b0316837f2f8788117e7eff1d82e926ec794901d17c78024a50270940304540a733656f0d60405160405180910390a45050565b6123e980620001156000396000f3fe6080604052600436106101d85760003560e01c80639d77f3c711610102578063c27855f611610095578063e7625a4111610064578063e7625a4114610558578063f0f5d88214610578578063f631e6781461059a578063f72c2fe6146105c757600080fd5b8063c27855f6146104d8578063d547741f146104f8578063d8eaf1a514610518578063dcff3bae1461053857600080fd5b8063ab7e4bc2116100d1578063ab7e4bc214610458578063b99da10e14610478578063b9c08fd314610498578063baf21772146104b857600080fd5b80639d77f3c7146103d6578063a217fddf146103f6578063a59b25181461040b578063a7134e0e1461042057600080fd5b806336568abe1161017a57806375b238fc1161014957806375b238fc1461035f578063807b989a146103815780638129fc1c146103a157806391d14854146103b657600080fd5b806336568abe146102d8578063495a9440146102f8578063582e0547146103255780635c975abb1461034757600080fd5b806318873e64116101b657806318873e6414610247578063216b131c14610267578063248a9ca31461027a5780632f2ff15d146102b857600080fd5b806301ffc9a7146101dd5780630221e3db14610212578063143c31e414610234575b600080fd5b3480156101e957600080fd5b506101fd6101f8366004611aa4565b6105da565b60405190151581526020015b60405180910390f35b34801561021e57600080fd5b5061023261022d366004611bdb565b610611565b005b610232610242366004611740565b61067e565b34801561025357600080fd5b5061023261026236600461160b565b6106ef565b610232610275366004611aeb565b610735565b34801561028657600080fd5b506102aa610295366004611a5b565b60009081526097602052604090206001015490565b604051908152602001610209565b3480156102c457600080fd5b506102326102d3366004611a74565b6107b8565b3480156102e457600080fd5b506102326102f3366004611a74565b6107e3565b34801561030457600080fd5b50610318610313366004611628565b610866565b60405161020991906121b2565b34801561033157600080fd5b5061033a6108ef565b60405161020991906120be565b34801561035357600080fd5b5060335460ff166101fd565b34801561036b57600080fd5b506102aa60008051602061239483398151915281565b34801561038d57600080fd5b5061031861039c366004611a5b565b610974565b3480156103ad57600080fd5b506102326109f6565b3480156103c257600080fd5b506101fd6103d1366004611a74565b610ae2565b3480156103e257600080fd5b506102326103f136600461160b565b610b0d565b34801561040257600080fd5b506102aa600081565b34801561041757600080fd5b506102aa610b53565b34801561042c57600080fd5b5061044061043b366004611a5b565b610bd0565b6040516001600160a01b039091168152602001610209565b34801561046457600080fd5b5061023261047336600461160b565b610c4d565b34801561048457600080fd5b506102aa61049336600461160b565b610c89565b3480156104a457600080fd5b5061033a6104b3366004611a5b565b610d07565b3480156104c457600080fd5b506102aa6104d3366004611654565b610d88565b3480156104e457600080fd5b506102326104f336600461160b565b610e31565b34801561050457600080fd5b50610232610513366004611a74565b610e77565b34801561052457600080fd5b50610232610533366004611cbe565b610e9d565b34801561054457600080fd5b50610318610553366004611a5b565b610f07565b34801561056457600080fd5b506102aa610573366004611628565b610f39565b34801561058457600080fd5b5061058d610fbc565b6040516102099190611f58565b3480156105a657600080fd5b506105ba6105b536600461198f565b61103d565b6040516102099190611fa5565b6102326105d5366004611c73565b6110c4565b60006001600160e01b03198216637965db0b60e01b148061060b57506301ffc9a760e01b6001600160e01b03198316145b92915050565b60ce546040516370b6dcd360e11b81526001600160a01b039091169063e16db9a69061064790869086908690339060040161217d565b600060405180830381600087803b15801561066157600080fd5b505af1158015610675573d6000803e3d6000fd5b50505050505050565b60405163050f0c7960e21b8152336004820152602481018390526044810182905283906001600160a01b0382169063143c31e49034906064016000604051808303818588803b1580156106d057600080fd5b505af11580156106e4573d6000803e3d6000fd5b505050505050505050565b6000805160206123948339815191526107088133611133565b5060c980546001600160a01b039092166001600160a01b0319928316811790915560ce8054909216179055565b60d0546040516381c83f3d60e01b81526001600160a01b03909116906381c83f3d90610779908d908d908d908d9033908e908e908e908e908e908e906004016120f6565b600060405180830381600087803b15801561079357600080fd5b505af11580156107a7573d6000803e3d6000fd5b505050505b50505050505050505050565b6000828152609760205260409020600101546107d48133611133565b6107de8383611197565b505050565b6001600160a01b03811633146108585760405162461bcd60e51b815260206004820152602f60248201527f416363657373436f6e74726f6c3a2063616e206f6e6c792072656e6f756e636560448201526e103937b632b9903337b91039b2b63360891b60648201526084015b60405180910390fd5b610862828261121d565b5050565b6040516303a24d0760e21b81526004810182905260609083906001600160a01b03821690630e89341c9060240160006040518083038186803b1580156108ab57600080fd5b505afa1580156108bf573d6000803e3d6000fd5b505050506040513d6000823e601f3d908101601f191682016040526108e79190810190611c26565b949350505050565b60d05460405163d0f48ec760e01b81523360048201526060916001600160a01b03169063d0f48ec79060240160006040518083038186803b15801561093357600080fd5b505afa158015610947573d6000803e3d6000fd5b505050506040513d6000823e601f3d908101601f1916820160405261096f91908101906119d0565b905090565b60d0546040516303a24d0760e21b8152600481018390526060916001600160a01b031690630e89341c906024015b60006040518083038186803b1580156109ba57600080fd5b505afa1580156109ce573d6000803e3d6000fd5b505050506040513d6000823e601f3d908101601f1916820160405261060b9190810190611c26565b600054610100900460ff16610a115760005460ff1615610a15565b303b155b610a785760405162461bcd60e51b815260206004820152602e60248201527f496e697469616c697a61626c653a20636f6e747261637420697320616c72656160448201526d191e481a5b9a5d1a585b1a5e995960921b606482015260840161084f565b600054610100900460ff16158015610a9a576000805461ffff19166101011790555b610aa2611284565b610aaa6112bd565b610ab5600033611197565b610acd60008051602061239483398151915233611197565b8015610adf576000805461ff00191690555b50565b60009182526097602090815260408084206001600160a01b0393909316845291905290205460ff1690565b600080516020612394833981519152610b268133611133565b5060ca80546001600160a01b039092166001600160a01b0319928316811790915560cf8054909216179055565b60d054604080516306c802d760e11b815290516000926001600160a01b031691630d9005ae916004808301926020929190829003018186803b158015610b9857600080fd5b505afa158015610bac573d6000803e3d6000fd5b505050506040513d601f19601f8201168201806040525081019061096f9190611c5a565b60ce54604051635389a70760e11b8152600481018390526000916001600160a01b03169063a7134e0e9060240160206040518083038186803b158015610c1557600080fd5b505afa158015610c29573d6000803e3d6000fd5b505050506040513d601f19601f8201168201806040525081019061060b9190611ace565b600080516020612394833981519152610c668133611133565b5060cd80546001600160a01b0319166001600160a01b0392909216919091179055565b600080829050806001600160a01b031663295d3ee86040518163ffffffff1660e01b815260040160206040518083038186803b158015610cc857600080fd5b505afa158015610cdc573d6000803e3d6000fd5b505050506040513d601f19601f82011682018060405250810190610d009190611c5a565b9392505050565b60cf5460405163b9c08fd360e01b8152600481018390526060916001600160a01b03169063b9c08fd39060240160006040518083038186803b158015610d4c57600080fd5b505afa158015610d60573d6000803e3d6000fd5b505050506040513d6000823e601f3d908101601f1916820160405261060b91908101906119d0565b6000808c9050806001600160a01b031663baf21772338e8e8e8e8e8e8e8e8e8e6040518c63ffffffff1660e01b8152600401610dce9b9a99989796959493929190611e0a565b602060405180830381600087803b158015610de857600080fd5b505af1158015610dfc573d6000803e3d6000fd5b505050506040513d601f19601f82011682018060405250810190610e209190611c5a565b9d9c50505050505050505050505050565b600080516020612394833981519152610e4a8133611133565b5060cc80546001600160a01b039092166001600160a01b0319928316811790915560d08054909216179055565b600082815260976020526040902060010154610e938133611133565b6107de838361121d565b60cf5460405163cb2de9d960e01b81526001600160a01b039091169063cb2de9d990610ed99033908a908a908a908a908a908a90600401611f09565b600060405180830381600087803b158015610ef357600080fd5b505af11580156107ac573d6000803e3d6000fd5b60cf546040516303a24d0760e21b8152600481018390526060916001600160a01b031690630e89341c906024016109a2565b60405163014d058560e01b81526004810182905233602482015260009083906001600160a01b0382169063014d05859060440160206040518083038186803b158015610f8457600080fd5b505afa158015610f98573d6000803e3d6000fd5b505050506040513d601f19601f820116820180604052508101906108e79190611c5a565b60ce54604080516309125d1d60e31b815290516060926001600160a01b031691634892e8e8916004808301926000929190829003018186803b15801561100157600080fd5b505afa158015611015573d6000803e3d6000fd5b505050506040513d6000823e601f3d908101601f1916820160405261096f9190810190611775565b60d054604051631ec63ccf60e31b81526060916001600160a01b03169063f631e678906110709086908690600401612082565b60006040518083038186803b15801561108857600080fd5b505afa15801561109c573d6000803e3d6000fd5b505050506040513d6000823e601f3d908101601f19168201604052610d00919081019061181a565b60cf5460405163a44ed53560e01b81526001600160a01b039091169063a44ed5359034906110fc908790879087903390600401612210565b6000604051808303818588803b15801561111557600080fd5b505af1158015611129573d6000803e3d6000fd5b5050505050505050565b61113d8282610ae2565b61086257611155816001600160a01b031660146112fc565b6111608360206112fc565b604051602001611171929190611d95565b60408051601f198184030181529082905262461bcd60e51b825261084f916004016121b2565b6111a18282610ae2565b6108625760008281526097602090815260408083206001600160a01b03851684529091529020805460ff191660011790556111d93390565b6001600160a01b0316816001600160a01b0316837f2f8788117e7eff1d82e926ec794901d17c78024a50270940304540a733656f0d60405160405180910390a45050565b6112278282610ae2565b156108625760008281526097602090815260408083206001600160a01b0385168085529252808320805460ff1916905551339285917ff6391f5c32d9c69d2a47ea670b442974b53935d1edc7fd64eb21e047a839171b9190a45050565b600054610100900460ff166112ab5760405162461bcd60e51b815260040161084f906121c5565b6112b3611497565b6112bb6114be565b565b600054610100900460ff166112e45760405162461bcd60e51b815260040161084f906121c5565b6112ec611497565b6112f4611497565b6112bb611497565b6060600061130b8360026122d6565b6113169060026122be565b6001600160401b0381111561132d5761132d612368565b6040519080825280601f01601f191660200182016040528015611357576020820181803683370190505b509050600360fc1b8160008151811061137257611372612352565b60200101906001600160f81b031916908160001a905350600f60fb1b816001815181106113a1576113a1612352565b60200101906001600160f81b031916908160001a90535060006113c58460026122d6565b6113d09060016122be565b90505b6001811115611448576f181899199a1a9b1b9c1cb0b131b232b360811b85600f166010811061140457611404612352565b1a60f81b82828151811061141a5761141a612352565b60200101906001600160f81b031916908160001a90535060049490941c9361144181612325565b90506113d3565b508315610d005760405162461bcd60e51b815260206004820181905260248201527f537472696e67733a20686578206c656e67746820696e73756666696369656e74604482015260640161084f565b600054610100900460ff166112bb5760405162461bcd60e51b815260040161084f906121c5565b600054610100900460ff166114e55760405162461bcd60e51b815260040161084f906121c5565b6033805460ff19169055565b80356114fc8161237e565b919050565b80516114fc8161237e565b60008083601f84011261151e57600080fd5b5081356001600160401b0381111561153557600080fd5b6020830191508360208260051b850101111561155057600080fd5b9250929050565b803580151581146114fc57600080fd5b60008083601f84011261157957600080fd5b5081356001600160401b0381111561159057600080fd5b60208301915083602082850101111561155057600080fd5b600082601f8301126115b957600080fd5b81516001600160401b038111156115d2576115d2612368565b6115e5601f8201601f191660200161226b565b8181528460208386010111156115fa57600080fd5b6108e78260208301602087016122f5565b60006020828403121561161d57600080fd5b8135610d008161237e565b6000806040838503121561163b57600080fd5b82356116468161237e565b946020939093013593505050565b60008060008060008060008060008060006101008c8e03121561167657600080fd5b61167f8c6114f1565b9a5060208c0135995061169460408d01611557565b98506116a260608d01611557565b97506001600160401b038060808e013511156116bd57600080fd5b6116cd8e60808f01358f01611567565b909850965060a08d01358110156116e357600080fd5b6116f38e60a08f01358f01611567565b909650945061170460c08e01611557565b93508060e08e0135111561171757600080fd5b506117288d60e08e01358e0161150c565b81935080925050509295989b509295989b9093969950565b60008060006060848603121561175557600080fd5b83356117608161237e565b95602085013595506040909401359392505050565b6000602080838503121561178857600080fd5b82516001600160401b0381111561179e57600080fd5b8301601f810185136117af57600080fd5b80516117c26117bd8261229b565b61226b565b80828252848201915084840188868560051b87010111156117e257600080fd5b600094505b8385101561180e5780516117fa8161237e565b8352600194909401939185019185016117e7565b50979650505050505050565b6000602080838503121561182d57600080fd5b82516001600160401b038082111561184457600080fd5b818501915085601f83011261185857600080fd5b81516118666117bd8261229b565b80828252858201915085850189878560051b880101111561188657600080fd5b60005b84811015611980578151868111156118a057600080fd5b870160c0818d03601f19018113156118b757600080fd5b6118bf612243565b8a83015181526040830151898111156118d757600080fd5b6118e58f8d838701016115a8565b8c830152506118f660608401611501565b604082015260808301518981111561190d57600080fd5b61191b8f8d838701016115a8565b60608301525060a08301518981111561193357600080fd5b6119418f8d838701016115a8565b60808301525090820151908882111561195957600080fd5b6119678e8c848601016115a8565b60a0820152865250509287019290870190600101611889565b50909998505050505050505050565b600080602083850312156119a257600080fd5b82356001600160401b038111156119b857600080fd5b6119c48582860161150c565b90969095509350505050565b600060208083850312156119e357600080fd5b82516001600160401b038111156119f957600080fd5b8301601f81018513611a0a57600080fd5b8051611a186117bd8261229b565b80828252848201915084840188868560051b8701011115611a3857600080fd5b600094505b8385101561180e578051835260019490940193918501918501611a3d565b600060208284031215611a6d57600080fd5b5035919050565b60008060408385031215611a8757600080fd5b823591506020830135611a998161237e565b809150509250929050565b600060208284031215611ab657600080fd5b81356001600160e01b031981168114610d0057600080fd5b600060208284031215611ae057600080fd5b8151610d008161237e565b60008060008060008060008060008060a08b8d031215611b0a57600080fd5b8a356001600160401b0380821115611b2157600080fd5b611b2d8e838f01611567565b909c509a5060208d0135915080821115611b4657600080fd5b611b528e838f01611567565b909a50985060408d0135915080821115611b6b57600080fd5b611b778e838f01611567565b909850965060608d0135915080821115611b9057600080fd5b611b9c8e838f01611567565b909650945060808d0135915080821115611bb557600080fd5b50611bc28d828e01611567565b915080935050809150509295989b9194979a5092959850565b600080600060408486031215611bf057600080fd5b83356001600160401b03811115611c0657600080fd5b611c1286828701611567565b909790965060209590950135949350505050565b600060208284031215611c3857600080fd5b81516001600160401b03811115611c4e57600080fd5b6108e7848285016115a8565b600060208284031215611c6c57600080fd5b5051919050565b600080600060408486031215611c8857600080fd5b8335925060208401356001600160401b03811115611ca557600080fd5b611cb186828701611567565b9497909650939450505050565b60008060008060008060808789031215611cd757600080fd5b863595506020870135945060408701356001600160401b0380821115611cfc57600080fd5b611d088a838b01611567565b90965094506060890135915080821115611d2157600080fd5b50611d2e89828a01611567565b979a9699509497509295939492505050565b81835281816020850137506000828201602090810191909152601f909101601f19169091010190565b60008151808452611d818160208601602086016122f5565b601f01601f19169290920160200192915050565b7f416363657373436f6e74726f6c3a206163636f756e7420000000000000000000815260008351611dcd8160178501602088016122f5565b7001034b99036b4b9b9b4b733903937b6329607d1b6017918401918201528351611dfe8160288401602088016122f5565b01602801949350505050565b6001600160a01b038c16815260208082018c90528a15156040830152891515606083015261010060808301819052600091611e488483018b8d611d40565b915083820360a0850152611e5d82898b611d40565b87151560c086015284810360e08601528581529150808201600586901b830182018760005b88811015611ef057858303601f190184528135368b9003601e19018112611ea857600080fd5b8a0180356001600160401b03811115611ec057600080fd5b8036038c1315611ecf57600080fd5b611edc8582898501611d40565b958701959450505090840190600101611e82565b5050809450505050509c9b505050505050505050505050565b60018060a01b038816815286602082015285604082015260a060608201526000611f3760a083018688611d40565b8281036080840152611f4a818587611d40565b9a9950505050505050505050565b6020808252825182820181905260009190848201906040850190845b81811015611f995783516001600160a01b031683529284019291840191600101611f74565b50909695505050505050565b60006020808301818452808551808352604092508286019150828160051b87010184880160005b8381101561207457603f19898403018552815160c08151855288820151818a870152611ffa82870182611d69565b838a01516001600160a01b0316878b0152606080850151888303828a015291935091506120278382611d69565b92505050608080830151868303828801526120428382611d69565b9250505060a080830151925085820381870152506120608183611d69565b968901969450505090860190600101611fcc565b509098975050505050505050565b6020808252810182905260006001600160fb1b038311156120a257600080fd5b8260051b80856040850137600092016040019182525092915050565b6020808252825182820181905260009190848201906040850190845b81811015611f99578351835292840192918401916001016120da565b60c08152600061210a60c083018d8f611d40565b828103602084015261211d818c8e611d40565b6001600160a01b038b1660408501528381036060850152905061214181898b611d40565b90508281036080840152612156818789611d40565b905082810360a084015261216b818587611d40565b9e9d5050505050505050505050505050565b606081526000612191606083018688611d40565b6020830194909452506001600160a01b039190911660409091015292915050565b602081526000610d006020830184611d69565b6020808252602b908201527f496e697469616c697a61626c653a20636f6e7472616374206973206e6f74206960408201526a6e697469616c697a696e6760a81b606082015260800190565b84815260606020820152600061222a606083018587611d40565b905060018060a01b038316604083015295945050505050565b60405160c081016001600160401b038111828210171561226557612265612368565b60405290565b604051601f8201601f191681016001600160401b038111828210171561229357612293612368565b604052919050565b60006001600160401b038211156122b4576122b4612368565b5060051b60200190565b600082198211156122d1576122d161233c565b500190565b60008160001904831182151516156122f0576122f061233c565b500290565b60005b838110156123105781810151838201526020016122f8565b8381111561231f576000848401525b50505050565b6000816123345761233461233c565b506000190190565b634e487b7160e01b600052601160045260246000fd5b634e487b7160e01b600052603260045260246000fd5b634e487b7160e01b600052604160045260246000fd5b6001600160a01b0381168114610adf57600080fdfea49807205ce4d355092ef5a8a18f56e8913cf4a201fbe287825b095693c21775a2646970667358221220b06156558bf5a7e129713e47177bd6b61212f3d95f627f20a34e18708dd92c9f64736f6c63430008070033",
  "linkReferences": {},
  "deployedLinkReferences": {}
}